{
	"GuessTheNumber/contracts/GuessTheNumber.sol": {
		"GuessTheNumber": {
			"abi": [
				{
					"inputs": [],
					"stateMutability": "payable",
					"type": "constructor"
				},
				{
					"inputs": [],
					"name": "contractBalance",
					"outputs": [
						{
							"internalType": "uint256",
							"name": "",
							"type": "uint256"
						}
					],
					"stateMutability": "view",
					"type": "function"
				},
				{
					"inputs": [],
					"name": "deposit",
					"outputs": [],
					"stateMutability": "payable",
					"type": "function"
				},
				{
					"inputs": [],
					"name": "getBalance",
					"outputs": [
						{
							"internalType": "uint256",
							"name": "",
							"type": "uint256"
						}
					],
					"stateMutability": "view",
					"type": "function"
				},
				{
					"inputs": [],
					"name": "getOwner",
					"outputs": [
						{
							"internalType": "address",
							"name": "",
							"type": "address"
						}
					],
					"stateMutability": "view",
					"type": "function"
				},
				{
					"inputs": [
						{
							"internalType": "uint256",
							"name": "num",
							"type": "uint256"
						}
					],
					"name": "guess",
					"outputs": [],
					"stateMutability": "nonpayable",
					"type": "function"
				},
				{
					"inputs": [],
					"name": "player",
					"outputs": [
						{
							"internalType": "address",
							"name": "",
							"type": "address"
						}
					],
					"stateMutability": "view",
					"type": "function"
				},
				{
					"inputs": [],
					"name": "punishAmountTotal",
					"outputs": [
						{
							"internalType": "uint256",
							"name": "",
							"type": "uint256"
						}
					],
					"stateMutability": "view",
					"type": "function"
				},
				{
					"inputs": [],
					"name": "secretNumber",
					"outputs": [
						{
							"internalType": "uint256",
							"name": "",
							"type": "uint256"
						}
					],
					"stateMutability": "view",
					"type": "function"
				},
				{
					"inputs": [],
					"name": "toggleContractActive",
					"outputs": [],
					"stateMutability": "nonpayable",
					"type": "function"
				},
				{
					"inputs": [],
					"name": "withdraw",
					"outputs": [],
					"stateMutability": "nonpayable",
					"type": "function"
				}
			],
			"devdoc": {
				"kind": "dev",
				"methods": {},
				"version": 1
			},
			"evm": {
				"assembly": "    /* \"GuessTheNumber/contracts/GuessTheNumber.sol\":87:2311  contract GuessTheNumber is Manager {... */\n  mstore(0x40, 0x80)\n    /* \"GuessTheNumber/contracts/Manager.sol\":141:146  false */\n  0x00\n    /* \"GuessTheNumber/contracts/Manager.sol\":118:146  bool private stopped = false */\n  dup1\n  exp(0x0100, 0x14)\n  dup2\n  sload\n  dup2\n  0xff\n  mul\n  not\n  and\n  swap1\n  dup4\n  iszero\n  iszero\n  mul\n  or\n  swap1\n  sstore\n  pop\n    /* \"GuessTheNumber/contracts/GuessTheNumber.sol\":400:401  0 */\n  0x00\n    /* \"GuessTheNumber/contracts/GuessTheNumber.sol\":365:401  uint256 public punishAmountTotal = 0 */\n  0x04\n  sstore\n    /* \"GuessTheNumber/contracts/Owner.sol\":176:186  msg.sender */\n  caller\n    /* \"GuessTheNumber/contracts/Owner.sol\":168:173  owner */\n  0x00\n  dup1\n    /* \"GuessTheNumber/contracts/Owner.sol\":168:186  owner = msg.sender */\n  0x0100\n  exp\n  dup2\n  sload\n  dup2\n  0xffffffffffffffffffffffffffffffffffffffff\n  mul\n  not\n  and\n  swap1\n  dup4\n  0xffffffffffffffffffffffffffffffffffffffff\n  and\n  mul\n  or\n  swap1\n  sstore\n  pop\n    /* \"GuessTheNumber/contracts/GuessTheNumber.sol\":467:468  0 */\n  0x00\n    /* \"GuessTheNumber/contracts/GuessTheNumber.sol\":455:464  msg.value */\n  callvalue\n    /* \"GuessTheNumber/contracts/GuessTheNumber.sol\":455:468  msg.value > 0 */\n  gt\n    /* \"GuessTheNumber/contracts/GuessTheNumber.sol\":447:500  require(msg.value > 0, \"Insufficient reward amount.\") */\n  tag_5\n  jumpi\n  mload(0x40)\n  0x08c379a000000000000000000000000000000000000000000000000000000000\n  dup2\n  mstore\n  0x04\n  add\n  tag_6\n  swap1\n  tag_7\n  jump\t// in\ntag_6:\n  mload(0x40)\n  dup1\n  swap2\n  sub\n  swap1\n  revert\ntag_5:\n    /* \"GuessTheNumber/contracts/GuessTheNumber.sol\":520:530  msg.sender */\n  caller\n    /* \"GuessTheNumber/contracts/GuessTheNumber.sol\":511:517  player */\n  0x03\n  0x00\n    /* \"GuessTheNumber/contracts/GuessTheNumber.sol\":511:530  player = msg.sender */\n  0x0100\n  exp\n  dup2\n  sload\n  dup2\n  0xffffffffffffffffffffffffffffffffffffffff\n  mul\n  not\n  and\n  swap1\n  dup4\n  0xffffffffffffffffffffffffffffffffffffffff\n  and\n  mul\n  or\n  swap1\n  sstore\n  pop\n    /* \"GuessTheNumber/contracts/GuessTheNumber.sol\":632:633  1 */\n  0x01\n    /* \"GuessTheNumber/contracts/GuessTheNumber.sol\":164:166  10 */\n  0x0a\n    /* \"GuessTheNumber/contracts/GuessTheNumber.sol\":591:606  block.timestamp */\n  timestamp\n    /* \"GuessTheNumber/contracts/GuessTheNumber.sol\":608:614  player */\n  0x03\n  0x00\n  swap1\n  sload\n  swap1\n  0x0100\n  exp\n  swap1\n  div\n  0xffffffffffffffffffffffffffffffffffffffff\n  and\n    /* \"GuessTheNumber/contracts/GuessTheNumber.sol\":574:615  abi.encodePacked(block.timestamp, player) */\n  add(0x20, mload(0x40))\n  tag_8\n  swap3\n  swap2\n  swap1\n  tag_9\n  jump\t// in\ntag_8:\n  mload(0x40)\n  0x20\n  dup2\n  dup4\n  sub\n  sub\n  dup2\n  mstore\n  swap1\n  0x40\n  mstore\n    /* \"GuessTheNumber/contracts/GuessTheNumber.sol\":564:616  keccak256(abi.encodePacked(block.timestamp, player)) */\n  dup1\n  mload\n  swap1\n  0x20\n  add\n  keccak256\n    /* \"GuessTheNumber/contracts/GuessTheNumber.sol\":556:617  uint256(keccak256(abi.encodePacked(block.timestamp, player))) */\n  0x00\n  shr\n    /* \"GuessTheNumber/contracts/GuessTheNumber.sol\":556:629  uint256(keccak256(abi.encodePacked(block.timestamp, player))) % MAX_GUESS */\n  tag_10\n  swap2\n  swap1\n  tag_11\n  jump\t// in\ntag_10:\n    /* \"GuessTheNumber/contracts/GuessTheNumber.sol\":556:633  uint256(keccak256(abi.encodePacked(block.timestamp, player))) % MAX_GUESS + 1 */\n  tag_12\n  swap2\n  swap1\n  tag_13\n  jump\t// in\ntag_12:\n    /* \"GuessTheNumber/contracts/GuessTheNumber.sol\":541:553  secretNumber */\n  0x01\n    /* \"GuessTheNumber/contracts/GuessTheNumber.sol\":541:633  secretNumber = uint256(keccak256(abi.encodePacked(block.timestamp, player))) % MAX_GUESS + 1 */\n  dup2\n  swap1\n  sstore\n  pop\n    /* \"GuessTheNumber/contracts/GuessTheNumber.sol\":662:671  msg.value */\n  callvalue\n    /* \"GuessTheNumber/contracts/GuessTheNumber.sol\":644:659  contractBalance */\n  0x02\n    /* \"GuessTheNumber/contracts/GuessTheNumber.sol\":644:671  contractBalance = msg.value */\n  dup2\n  swap1\n  sstore\n  pop\n    /* \"GuessTheNumber/contracts/GuessTheNumber.sol\":87:2311  contract GuessTheNumber is Manager {... */\n  jump(tag_14)\n    /* \"#utility.yul\":7:176   */\ntag_15:\n    /* \"#utility.yul\":91:102   */\n  0x00\n    /* \"#utility.yul\":125:131   */\n  dup3\n    /* \"#utility.yul\":120:123   */\n  dup3\n    /* \"#utility.yul\":113:132   */\n  mstore\n    /* \"#utility.yul\":165:169   */\n  0x20\n    /* \"#utility.yul\":160:163   */\n  dup3\n    /* \"#utility.yul\":156:170   */\n  add\n    /* \"#utility.yul\":141:170   */\n  swap1\n  pop\n    /* \"#utility.yul\":7:176   */\n  swap3\n  swap2\n  pop\n  pop\n  jump\t// out\n    /* \"#utility.yul\":182:359   */\ntag_16:\n    /* \"#utility.yul\":322:351   */\n  0x496e73756666696369656e742072657761726420616d6f756e742e0000000000\n    /* \"#utility.yul\":318:319   */\n  0x00\n    /* \"#utility.yul\":310:316   */\n  dup3\n    /* \"#utility.yul\":306:320   */\n  add\n    /* \"#utility.yul\":299:352   */\n  mstore\n    /* \"#utility.yul\":182:359   */\n  pop\n  jump\t// out\n    /* \"#utility.yul\":365:731   */\ntag_17:\n    /* \"#utility.yul\":507:510   */\n  0x00\n    /* \"#utility.yul\":528:595   */\n  tag_33\n    /* \"#utility.yul\":592:594   */\n  0x1b\n    /* \"#utility.yul\":587:590   */\n  dup4\n    /* \"#utility.yul\":528:595   */\n  tag_15\n  jump\t// in\ntag_33:\n    /* \"#utility.yul\":521:595   */\n  swap2\n  pop\n    /* \"#utility.yul\":604:697   */\n  tag_34\n    /* \"#utility.yul\":693:696   */\n  dup3\n    /* \"#utility.yul\":604:697   */\n  tag_16\n  jump\t// in\ntag_34:\n    /* \"#utility.yul\":722:724   */\n  0x20\n    /* \"#utility.yul\":717:720   */\n  dup3\n    /* \"#utility.yul\":713:725   */\n  add\n    /* \"#utility.yul\":706:725   */\n  swap1\n  pop\n    /* \"#utility.yul\":365:731   */\n  swap2\n  swap1\n  pop\n  jump\t// out\n    /* \"#utility.yul\":737:1156   */\ntag_7:\n    /* \"#utility.yul\":903:907   */\n  0x00\n    /* \"#utility.yul\":941:943   */\n  0x20\n    /* \"#utility.yul\":930:939   */\n  dup3\n    /* \"#utility.yul\":926:944   */\n  add\n    /* \"#utility.yul\":918:944   */\n  swap1\n  pop\n    /* \"#utility.yul\":990:999   */\n  dup2\n    /* \"#utility.yul\":984:988   */\n  dup2\n    /* \"#utility.yul\":980:1000   */\n  sub\n    /* \"#utility.yul\":976:977   */\n  0x00\n    /* \"#utility.yul\":965:974   */\n  dup4\n    /* \"#utility.yul\":961:978   */\n  add\n    /* \"#utility.yul\":954:1001   */\n  mstore\n    /* \"#utility.yul\":1018:1149   */\n  tag_36\n    /* \"#utility.yul\":1144:1148   */\n  dup2\n    /* \"#utility.yul\":1018:1149   */\n  tag_17\n  jump\t// in\ntag_36:\n    /* \"#utility.yul\":1010:1149   */\n  swap1\n  pop\n    /* \"#utility.yul\":737:1156   */\n  swap2\n  swap1\n  pop\n  jump\t// out\n    /* \"#utility.yul\":1162:1239   */\ntag_18:\n    /* \"#utility.yul\":1199:1206   */\n  0x00\n    /* \"#utility.yul\":1228:1233   */\n  dup2\n    /* \"#utility.yul\":1217:1233   */\n  swap1\n  pop\n    /* \"#utility.yul\":1162:1239   */\n  swap2\n  swap1\n  pop\n  jump\t// out\n    /* \"#utility.yul\":1245:1324   */\ntag_19:\n    /* \"#utility.yul\":1284:1291   */\n  0x00\n    /* \"#utility.yul\":1313:1318   */\n  dup2\n    /* \"#utility.yul\":1302:1318   */\n  swap1\n  pop\n    /* \"#utility.yul\":1245:1324   */\n  swap2\n  swap1\n  pop\n  jump\t// out\n    /* \"#utility.yul\":1330:1487   */\ntag_20:\n    /* \"#utility.yul\":1435:1480   */\n  tag_40\n    /* \"#utility.yul\":1455:1479   */\n  tag_41\n    /* \"#utility.yul\":1473:1478   */\n  dup3\n    /* \"#utility.yul\":1455:1479   */\n  tag_18\n  jump\t// in\ntag_41:\n    /* \"#utility.yul\":1435:1480   */\n  tag_19\n  jump\t// in\ntag_40:\n    /* \"#utility.yul\":1430:1433   */\n  dup3\n    /* \"#utility.yul\":1423:1481   */\n  mstore\n    /* \"#utility.yul\":1330:1487   */\n  pop\n  pop\n  jump\t// out\n    /* \"#utility.yul\":1493:1619   */\ntag_21:\n    /* \"#utility.yul\":1530:1537   */\n  0x00\n    /* \"#utility.yul\":1570:1612   */\n  0xffffffffffffffffffffffffffffffffffffffff\n    /* \"#utility.yul\":1563:1568   */\n  dup3\n    /* \"#utility.yul\":1559:1613   */\n  and\n    /* \"#utility.yul\":1548:1613   */\n  swap1\n  pop\n    /* \"#utility.yul\":1493:1619   */\n  swap2\n  swap1\n  pop\n  jump\t// out\n    /* \"#utility.yul\":1625:1721   */\ntag_22:\n    /* \"#utility.yul\":1662:1669   */\n  0x00\n    /* \"#utility.yul\":1691:1715   */\n  tag_44\n    /* \"#utility.yul\":1709:1714   */\n  dup3\n    /* \"#utility.yul\":1691:1715   */\n  tag_21\n  jump\t// in\ntag_44:\n    /* \"#utility.yul\":1680:1715   */\n  swap1\n  pop\n    /* \"#utility.yul\":1625:1721   */\n  swap2\n  swap1\n  pop\n  jump\t// out\n    /* \"#utility.yul\":1727:1821   */\ntag_23:\n    /* \"#utility.yul\":1760:1768   */\n  0x00\n    /* \"#utility.yul\":1808:1813   */\n  dup2\n    /* \"#utility.yul\":1804:1806   */\n  0x60\n    /* \"#utility.yul\":1800:1814   */\n  shl\n    /* \"#utility.yul\":1779:1814   */\n  swap1\n  pop\n    /* \"#utility.yul\":1727:1821   */\n  swap2\n  swap1\n  pop\n  jump\t// out\n    /* \"#utility.yul\":1827:1921   */\ntag_24:\n    /* \"#utility.yul\":1866:1873   */\n  0x00\n    /* \"#utility.yul\":1895:1915   */\n  tag_47\n    /* \"#utility.yul\":1909:1914   */\n  dup3\n    /* \"#utility.yul\":1895:1915   */\n  tag_23\n  jump\t// in\ntag_47:\n    /* \"#utility.yul\":1884:1915   */\n  swap1\n  pop\n    /* \"#utility.yul\":1827:1921   */\n  swap2\n  swap1\n  pop\n  jump\t// out\n    /* \"#utility.yul\":1927:2027   */\ntag_25:\n    /* \"#utility.yul\":1966:1973   */\n  0x00\n    /* \"#utility.yul\":1995:2021   */\n  tag_49\n    /* \"#utility.yul\":2015:2020   */\n  dup3\n    /* \"#utility.yul\":1995:2021   */\n  tag_24\n  jump\t// in\ntag_49:\n    /* \"#utility.yul\":1984:2021   */\n  swap1\n  pop\n    /* \"#utility.yul\":1927:2027   */\n  swap2\n  swap1\n  pop\n  jump\t// out\n    /* \"#utility.yul\":2033:2190   */\ntag_26:\n    /* \"#utility.yul\":2138:2183   */\n  tag_51\n    /* \"#utility.yul\":2158:2182   */\n  tag_52\n    /* \"#utility.yul\":2176:2181   */\n  dup3\n    /* \"#utility.yul\":2158:2182   */\n  tag_22\n  jump\t// in\ntag_52:\n    /* \"#utility.yul\":2138:2183   */\n  tag_25\n  jump\t// in\ntag_51:\n    /* \"#utility.yul\":2133:2136   */\n  dup3\n    /* \"#utility.yul\":2126:2184   */\n  mstore\n    /* \"#utility.yul\":2033:2190   */\n  pop\n  pop\n  jump\t// out\n    /* \"#utility.yul\":2196:2593   */\ntag_9:\n    /* \"#utility.yul\":2336:2339   */\n  0x00\n    /* \"#utility.yul\":2351:2426   */\n  tag_54\n    /* \"#utility.yul\":2422:2425   */\n  dup3\n    /* \"#utility.yul\":2413:2419   */\n  dup6\n    /* \"#utility.yul\":2351:2426   */\n  tag_20\n  jump\t// in\ntag_54:\n    /* \"#utility.yul\":2451:2453   */\n  0x20\n    /* \"#utility.yul\":2446:2449   */\n  dup3\n    /* \"#utility.yul\":2442:2454   */\n  add\n    /* \"#utility.yul\":2435:2454   */\n  swap2\n  pop\n    /* \"#utility.yul\":2464:2539   */\n  tag_55\n    /* \"#utility.yul\":2535:2538   */\n  dup3\n    /* \"#utility.yul\":2526:2532   */\n  dup5\n    /* \"#utility.yul\":2464:2539   */\n  tag_26\n  jump\t// in\ntag_55:\n    /* \"#utility.yul\":2564:2566   */\n  0x14\n    /* \"#utility.yul\":2559:2562   */\n  dup3\n    /* \"#utility.yul\":2555:2567   */\n  add\n    /* \"#utility.yul\":2548:2567   */\n  swap2\n  pop\n    /* \"#utility.yul\":2584:2587   */\n  dup2\n    /* \"#utility.yul\":2577:2587   */\n  swap1\n  pop\n    /* \"#utility.yul\":2196:2593   */\n  swap4\n  swap3\n  pop\n  pop\n  pop\n  jump\t// out\n    /* \"#utility.yul\":2599:2779   */\ntag_27:\n    /* \"#utility.yul\":2647:2724   */\n  0x4e487b7100000000000000000000000000000000000000000000000000000000\n    /* \"#utility.yul\":2644:2645   */\n  0x00\n    /* \"#utility.yul\":2637:2725   */\n  mstore\n    /* \"#utility.yul\":2744:2748   */\n  0x12\n    /* \"#utility.yul\":2741:2742   */\n  0x04\n    /* \"#utility.yul\":2734:2749   */\n  mstore\n    /* \"#utility.yul\":2768:2772   */\n  0x24\n    /* \"#utility.yul\":2765:2766   */\n  0x00\n    /* \"#utility.yul\":2758:2773   */\n  revert\n    /* \"#utility.yul\":2785:2961   */\ntag_11:\n    /* \"#utility.yul\":2817:2818   */\n  0x00\n    /* \"#utility.yul\":2834:2854   */\n  tag_58\n    /* \"#utility.yul\":2852:2853   */\n  dup3\n    /* \"#utility.yul\":2834:2854   */\n  tag_18\n  jump\t// in\ntag_58:\n    /* \"#utility.yul\":2829:2854   */\n  swap2\n  pop\n    /* \"#utility.yul\":2868:2888   */\n  tag_59\n    /* \"#utility.yul\":2886:2887   */\n  dup4\n    /* \"#utility.yul\":2868:2888   */\n  tag_18\n  jump\t// in\ntag_59:\n    /* \"#utility.yul\":2863:2888   */\n  swap3\n  pop\n    /* \"#utility.yul\":2907:2908   */\n  dup3\n    /* \"#utility.yul\":2897:2932   */\n  tag_60\n  jumpi\n    /* \"#utility.yul\":2912:2930   */\n  tag_61\n  tag_27\n  jump\t// in\ntag_61:\n    /* \"#utility.yul\":2897:2932   */\ntag_60:\n    /* \"#utility.yul\":2953:2954   */\n  dup3\n    /* \"#utility.yul\":2950:2951   */\n  dup3\n    /* \"#utility.yul\":2946:2955   */\n  mod\n    /* \"#utility.yul\":2941:2955   */\n  swap1\n  pop\n    /* \"#utility.yul\":2785:2961   */\n  swap3\n  swap2\n  pop\n  pop\n  jump\t// out\n    /* \"#utility.yul\":2967:3147   */\ntag_28:\n    /* \"#utility.yul\":3015:3092   */\n  0x4e487b7100000000000000000000000000000000000000000000000000000000\n    /* \"#utility.yul\":3012:3013   */\n  0x00\n    /* \"#utility.yul\":3005:3093   */\n  mstore\n    /* \"#utility.yul\":3112:3116   */\n  0x11\n    /* \"#utility.yul\":3109:3110   */\n  0x04\n    /* \"#utility.yul\":3102:3117   */\n  mstore\n    /* \"#utility.yul\":3136:3140   */\n  0x24\n    /* \"#utility.yul\":3133:3134   */\n  0x00\n    /* \"#utility.yul\":3126:3141   */\n  revert\n    /* \"#utility.yul\":3153:3344   */\ntag_13:\n    /* \"#utility.yul\":3193:3196   */\n  0x00\n    /* \"#utility.yul\":3212:3232   */\n  tag_64\n    /* \"#utility.yul\":3230:3231   */\n  dup3\n    /* \"#utility.yul\":3212:3232   */\n  tag_18\n  jump\t// in\ntag_64:\n    /* \"#utility.yul\":3207:3232   */\n  swap2\n  pop\n    /* \"#utility.yul\":3246:3266   */\n  tag_65\n    /* \"#utility.yul\":3264:3265   */\n  dup4\n    /* \"#utility.yul\":3246:3266   */\n  tag_18\n  jump\t// in\ntag_65:\n    /* \"#utility.yul\":3241:3266   */\n  swap3\n  pop\n    /* \"#utility.yul\":3289:3290   */\n  dup3\n    /* \"#utility.yul\":3286:3287   */\n  dup3\n    /* \"#utility.yul\":3282:3291   */\n  add\n    /* \"#utility.yul\":3275:3291   */\n  swap1\n  pop\n    /* \"#utility.yul\":3310:3313   */\n  dup1\n    /* \"#utility.yul\":3307:3308   */\n  dup3\n    /* \"#utility.yul\":3304:3314   */\n  gt\n    /* \"#utility.yul\":3301:3337   */\n  iszero\n  tag_66\n  jumpi\n    /* \"#utility.yul\":3317:3335   */\n  tag_67\n  tag_28\n  jump\t// in\ntag_67:\n    /* \"#utility.yul\":3301:3337   */\ntag_66:\n    /* \"#utility.yul\":3153:3344   */\n  swap3\n  swap2\n  pop\n  pop\n  jump\t// out\n    /* \"GuessTheNumber/contracts/GuessTheNumber.sol\":87:2311  contract GuessTheNumber is Manager {... */\ntag_14:\n  dataSize(sub_0)\n  dup1\n  dataOffset(sub_0)\n  0x00\n  codecopy\n  0x00\n  return\nstop\n\nsub_0: assembly {\n        /* \"GuessTheNumber/contracts/GuessTheNumber.sol\":87:2311  contract GuessTheNumber is Manager {... */\n      mstore(0x40, 0x80)\n      jumpi(tag_1, lt(calldatasize, 0x04))\n      shr(0xe0, calldataload(0x00))\n      dup1\n      0x89fe3d45\n      gt\n      tag_12\n      jumpi\n      dup1\n      0x89fe3d45\n      eq\n      tag_7\n      jumpi\n      dup1\n      0x8b7afe2e\n      eq\n      tag_8\n      jumpi\n      dup1\n      0x9189fec1\n      eq\n      tag_9\n      jumpi\n      dup1\n      0xc36604ed\n      eq\n      tag_10\n      jumpi\n      dup1\n      0xd0e30db0\n      eq\n      tag_11\n      jumpi\n      jump(tag_1)\n    tag_12:\n      dup1\n      0x12065fe0\n      eq\n      tag_2\n      jumpi\n      dup1\n      0x1385d24c\n      eq\n      tag_3\n      jumpi\n      dup1\n      0x3ccfd60b\n      eq\n      tag_4\n      jumpi\n      dup1\n      0x48db5f89\n      eq\n      tag_5\n      jumpi\n      dup1\n      0x893d20e8\n      eq\n      tag_6\n      jumpi\n    tag_1:\n      0x00\n      dup1\n      revert\n        /* \"GuessTheNumber/contracts/Manager.sol\":474:572  function getBalance() external view returns (uint) {... */\n    tag_2:\n      callvalue\n      dup1\n      iszero\n      tag_13\n      jumpi\n      0x00\n      dup1\n      revert\n    tag_13:\n      pop\n      tag_14\n      tag_15\n      jump\t// in\n    tag_14:\n      mload(0x40)\n      tag_16\n      swap2\n      swap1\n      tag_17\n      jump\t// in\n    tag_16:\n      mload(0x40)\n      dup1\n      swap2\n      sub\n      swap1\n      return\n        /* \"GuessTheNumber/contracts/Manager.sol\":187:271  function toggleContractActive() public isOwner {... */\n    tag_3:\n      callvalue\n      dup1\n      iszero\n      tag_18\n      jumpi\n      0x00\n      dup1\n      revert\n    tag_18:\n      pop\n      tag_19\n      tag_20\n      jump\t// in\n    tag_19:\n      stop\n        /* \"GuessTheNumber/contracts/GuessTheNumber.sol\":1832:2125  function withdraw() external isOwner stopInEmergency{... */\n    tag_4:\n      callvalue\n      dup1\n      iszero\n      tag_21\n      jumpi\n      0x00\n      dup1\n      revert\n    tag_21:\n      pop\n      tag_22\n      tag_23\n      jump\t// in\n    tag_22:\n      stop\n        /* \"GuessTheNumber/contracts/GuessTheNumber.sol\":337:358  address public player */\n    tag_5:\n      callvalue\n      dup1\n      iszero\n      tag_24\n      jumpi\n      0x00\n      dup1\n      revert\n    tag_24:\n      pop\n      tag_25\n      tag_26\n      jump\t// in\n    tag_25:\n      mload(0x40)\n      tag_27\n      swap2\n      swap1\n      tag_28\n      jump\t// in\n    tag_27:\n      mload(0x40)\n      dup1\n      swap2\n      sub\n      swap1\n      return\n        /* \"GuessTheNumber/contracts/Owner.sol\":352:435  function getOwner() external view returns (address) {... */\n    tag_6:\n      callvalue\n      dup1\n      iszero\n      tag_29\n      jumpi\n      0x00\n      dup1\n      revert\n    tag_29:\n      pop\n      tag_30\n      tag_31\n      jump\t// in\n    tag_30:\n      mload(0x40)\n      tag_32\n      swap2\n      swap1\n      tag_28\n      jump\t// in\n    tag_32:\n      mload(0x40)\n      dup1\n      swap2\n      sub\n      swap1\n      return\n        /* \"GuessTheNumber/contracts/GuessTheNumber.sol\":365:401  uint256 public punishAmountTotal = 0 */\n    tag_7:\n      callvalue\n      dup1\n      iszero\n      tag_33\n      jumpi\n      0x00\n      dup1\n      revert\n    tag_33:\n      pop\n      tag_34\n      tag_35\n      jump\t// in\n    tag_34:\n      mload(0x40)\n      tag_36\n      swap2\n      swap1\n      tag_17\n      jump\t// in\n    tag_36:\n      mload(0x40)\n      dup1\n      swap2\n      sub\n      swap1\n      return\n        /* \"GuessTheNumber/contracts/GuessTheNumber.sol\":300:330  uint256 public contractBalance */\n    tag_8:\n      callvalue\n      dup1\n      iszero\n      tag_37\n      jumpi\n      0x00\n      dup1\n      revert\n    tag_37:\n      pop\n      tag_38\n      tag_39\n      jump\t// in\n    tag_38:\n      mload(0x40)\n      tag_40\n      swap2\n      swap1\n      tag_17\n      jump\t// in\n    tag_40:\n      mload(0x40)\n      dup1\n      swap2\n      sub\n      swap1\n      return\n        /* \"GuessTheNumber/contracts/GuessTheNumber.sol\":691:1820  function guess(uint256 num) public {... */\n    tag_9:\n      callvalue\n      dup1\n      iszero\n      tag_41\n      jumpi\n      0x00\n      dup1\n      revert\n    tag_41:\n      pop\n      tag_42\n      0x04\n      dup1\n      calldatasize\n      sub\n      dup2\n      add\n      swap1\n      tag_43\n      swap2\n      swap1\n      tag_44\n      jump\t// in\n    tag_43:\n      tag_45\n      jump\t// in\n    tag_42:\n      stop\n        /* \"GuessTheNumber/contracts/GuessTheNumber.sol\":266:293  uint256 public secretNumber */\n    tag_10:\n      callvalue\n      dup1\n      iszero\n      tag_46\n      jumpi\n      0x00\n      dup1\n      revert\n    tag_46:\n      pop\n      tag_47\n      tag_48\n      jump\t// in\n    tag_47:\n      mload(0x40)\n      tag_49\n      swap2\n      swap1\n      tag_17\n      jump\t// in\n    tag_49:\n      mload(0x40)\n      dup1\n      swap2\n      sub\n      swap1\n      return\n        /* \"GuessTheNumber/contracts/GuessTheNumber.sol\":2133:2308  function deposit() external payable isOwner stopInEmergency {... */\n    tag_11:\n      tag_50\n      tag_51\n      jump\t// in\n    tag_50:\n      stop\n        /* \"GuessTheNumber/contracts/Manager.sol\":474:572  function getBalance() external view returns (uint) {... */\n    tag_15:\n        /* \"GuessTheNumber/contracts/Manager.sol\":519:523  uint */\n      0x00\n        /* \"GuessTheNumber/contracts/Manager.sol\":543:564  address(this).balance */\n      selfbalance\n        /* \"GuessTheNumber/contracts/Manager.sol\":536:564  return address(this).balance */\n      swap1\n      pop\n        /* \"GuessTheNumber/contracts/Manager.sol\":474:572  function getBalance() external view returns (uint) {... */\n      swap1\n      jump\t// out\n        /* \"GuessTheNumber/contracts/Manager.sol\":187:271  function toggleContractActive() public isOwner {... */\n    tag_20:\n        /* \"GuessTheNumber/contracts/Owner.sol\":254:259  owner */\n      0x00\n      dup1\n      sload\n      swap1\n      0x0100\n      exp\n      swap1\n      div\n      0xffffffffffffffffffffffffffffffffffffffff\n      and\n        /* \"GuessTheNumber/contracts/Owner.sol\":240:259  msg.sender == owner */\n      0xffffffffffffffffffffffffffffffffffffffff\n      and\n        /* \"GuessTheNumber/contracts/Owner.sol\":240:250  msg.sender */\n      caller\n        /* \"GuessTheNumber/contracts/Owner.sol\":240:259  msg.sender == owner */\n      0xffffffffffffffffffffffffffffffffffffffff\n      and\n      eq\n        /* \"GuessTheNumber/contracts/Owner.sol\":232:295  require(msg.sender == owner, \"User is not the contract owner.\") */\n      tag_54\n      jumpi\n      mload(0x40)\n      0x08c379a000000000000000000000000000000000000000000000000000000000\n      dup2\n      mstore\n      0x04\n      add\n      tag_55\n      swap1\n      tag_56\n      jump\t// in\n    tag_55:\n      mload(0x40)\n      dup1\n      swap2\n      sub\n      swap1\n      revert\n    tag_54:\n        /* \"GuessTheNumber/contracts/Manager.sol\":256:263  stopped */\n      0x00\n      0x14\n      swap1\n      sload\n      swap1\n      0x0100\n      exp\n      swap1\n      div\n      0xff\n      and\n        /* \"GuessTheNumber/contracts/Manager.sol\":255:263  !stopped */\n      iszero\n        /* \"GuessTheNumber/contracts/Manager.sol\":245:252  stopped */\n      0x00\n      0x14\n        /* \"GuessTheNumber/contracts/Manager.sol\":245:263  stopped = !stopped */\n      0x0100\n      exp\n      dup2\n      sload\n      dup2\n      0xff\n      mul\n      not\n      and\n      swap1\n      dup4\n      iszero\n      iszero\n      mul\n      or\n      swap1\n      sstore\n      pop\n        /* \"GuessTheNumber/contracts/Manager.sol\":187:271  function toggleContractActive() public isOwner {... */\n      jump\t// out\n        /* \"GuessTheNumber/contracts/GuessTheNumber.sol\":1832:2125  function withdraw() external isOwner stopInEmergency{... */\n    tag_23:\n        /* \"GuessTheNumber/contracts/Owner.sol\":254:259  owner */\n      0x00\n      dup1\n      sload\n      swap1\n      0x0100\n      exp\n      swap1\n      div\n      0xffffffffffffffffffffffffffffffffffffffff\n      and\n        /* \"GuessTheNumber/contracts/Owner.sol\":240:259  msg.sender == owner */\n      0xffffffffffffffffffffffffffffffffffffffff\n      and\n        /* \"GuessTheNumber/contracts/Owner.sol\":240:250  msg.sender */\n      caller\n        /* \"GuessTheNumber/contracts/Owner.sol\":240:259  msg.sender == owner */\n      0xffffffffffffffffffffffffffffffffffffffff\n      and\n      eq\n        /* \"GuessTheNumber/contracts/Owner.sol\":232:295  require(msg.sender == owner, \"User is not the contract owner.\") */\n      tag_59\n      jumpi\n      mload(0x40)\n      0x08c379a000000000000000000000000000000000000000000000000000000000\n      dup2\n      mstore\n      0x04\n      add\n      tag_60\n      swap1\n      tag_56\n      jump\t// in\n    tag_60:\n      mload(0x40)\n      dup1\n      swap2\n      sub\n      swap1\n      revert\n    tag_59:\n        /* \"GuessTheNumber/contracts/Manager.sol\":324:331  stopped */\n      0x00\n      0x14\n      swap1\n      sload\n      swap1\n      0x0100\n      exp\n      swap1\n      div\n      0xff\n      and\n        /* \"GuessTheNumber/contracts/Manager.sol\":323:331  !stopped */\n      iszero\n        /* \"GuessTheNumber/contracts/Manager.sol\":315:332  require(!stopped) */\n      tag_62\n      jumpi\n      0x00\n      dup1\n      revert\n    tag_62:\n        /* \"GuessTheNumber/contracts/GuessTheNumber.sol\":1896:1908  bool success */\n      0x00\n        /* \"GuessTheNumber/contracts/GuessTheNumber.sol\":1922:1932  msg.sender */\n      caller\n        /* \"GuessTheNumber/contracts/GuessTheNumber.sol\":1914:1938  payable(msg.sender).call */\n      0xffffffffffffffffffffffffffffffffffffffff\n      and\n        /* \"GuessTheNumber/contracts/GuessTheNumber.sol\":1970:1987  punishAmountTotal */\n      sload(0x04)\n        /* \"GuessTheNumber/contracts/GuessTheNumber.sol\":1946:1967  address(this).balance */\n      selfbalance\n        /* \"GuessTheNumber/contracts/GuessTheNumber.sol\":1946:1987  address(this).balance - punishAmountTotal */\n      tag_64\n      swap2\n      swap1\n      tag_65\n      jump\t// in\n    tag_64:\n        /* \"GuessTheNumber/contracts/GuessTheNumber.sol\":1914:1992  payable(msg.sender).call{value: address(this).balance - punishAmountTotal}(\"\") */\n      mload(0x40)\n      tag_66\n      swap1\n      tag_67\n      jump\t// in\n    tag_66:\n      0x00\n      mload(0x40)\n      dup1\n      dup4\n      sub\n      dup2\n      dup6\n      dup8\n      gas\n      call\n      swap3\n      pop\n      pop\n      pop\n      returndatasize\n      dup1\n      0x00\n      dup2\n      eq\n      tag_70\n      jumpi\n      mload(0x40)\n      swap2\n      pop\n      and(add(returndatasize, 0x3f), not(0x1f))\n      dup3\n      add\n      0x40\n      mstore\n      returndatasize\n      dup3\n      mstore\n      returndatasize\n      0x00\n      0x20\n      dup5\n      add\n      returndatacopy\n      jump(tag_69)\n    tag_70:\n      0x60\n      swap2\n      pop\n    tag_69:\n      pop\n        /* \"GuessTheNumber/contracts/GuessTheNumber.sol\":1895:1992  (bool success, ) = payable(msg.sender).call{value: address(this).balance - punishAmountTotal}(\"\") */\n      pop\n      swap1\n      pop\n        /* \"GuessTheNumber/contracts/GuessTheNumber.sol\":2011:2018  success */\n      dup1\n        /* \"GuessTheNumber/contracts/GuessTheNumber.sol\":2003:2055  require(success, \"Transfer failed. Deposit needed.\") */\n      tag_71\n      jumpi\n      mload(0x40)\n      0x08c379a000000000000000000000000000000000000000000000000000000000\n      dup2\n      mstore\n      0x04\n      add\n      tag_72\n      swap1\n      tag_73\n      jump\t// in\n    tag_72:\n      mload(0x40)\n      dup1\n      swap2\n      sub\n      swap1\n      revert\n    tag_71:\n        /* \"GuessTheNumber/contracts/GuessTheNumber.sol\":2084:2085  0 */\n      0x00\n        /* \"GuessTheNumber/contracts/GuessTheNumber.sol\":2066:2081  contractBalance */\n      0x02\n        /* \"GuessTheNumber/contracts/GuessTheNumber.sol\":2066:2085  contractBalance = 0 */\n      dup2\n      swap1\n      sstore\n      pop\n        /* \"GuessTheNumber/contracts/GuessTheNumber.sol\":2116:2117  0 */\n      0x00\n        /* \"GuessTheNumber/contracts/GuessTheNumber.sol\":2096:2113  punishAmountTotal */\n      0x04\n        /* \"GuessTheNumber/contracts/GuessTheNumber.sol\":2096:2117  punishAmountTotal = 0 */\n      dup2\n      swap1\n      sstore\n      pop\n        /* \"GuessTheNumber/contracts/GuessTheNumber.sol\":1884:2125  {... */\n      pop\n        /* \"GuessTheNumber/contracts/GuessTheNumber.sol\":1832:2125  function withdraw() external isOwner stopInEmergency{... */\n      jump\t// out\n        /* \"GuessTheNumber/contracts/GuessTheNumber.sol\":337:358  address public player */\n    tag_26:\n      0x03\n      0x00\n      swap1\n      sload\n      swap1\n      0x0100\n      exp\n      swap1\n      div\n      0xffffffffffffffffffffffffffffffffffffffff\n      and\n      dup2\n      jump\t// out\n        /* \"GuessTheNumber/contracts/Owner.sol\":352:435  function getOwner() external view returns (address) {... */\n    tag_31:\n        /* \"GuessTheNumber/contracts/Owner.sol\":395:402  address */\n      0x00\n        /* \"GuessTheNumber/contracts/Owner.sol\":422:427  owner */\n      dup1\n      0x00\n      swap1\n      sload\n      swap1\n      0x0100\n      exp\n      swap1\n      div\n      0xffffffffffffffffffffffffffffffffffffffff\n      and\n        /* \"GuessTheNumber/contracts/Owner.sol\":415:427  return owner */\n      swap1\n      pop\n        /* \"GuessTheNumber/contracts/Owner.sol\":352:435  function getOwner() external view returns (address) {... */\n      swap1\n      jump\t// out\n        /* \"GuessTheNumber/contracts/GuessTheNumber.sol\":365:401  uint256 public punishAmountTotal = 0 */\n    tag_35:\n      sload(0x04)\n      dup2\n      jump\t// out\n        /* \"GuessTheNumber/contracts/GuessTheNumber.sol\":300:330  uint256 public contractBalance */\n    tag_39:\n      sload(0x02)\n      dup2\n      jump\t// out\n        /* \"GuessTheNumber/contracts/GuessTheNumber.sol\":691:1820  function guess(uint256 num) public {... */\n    tag_45:\n        /* \"GuessTheNumber/contracts/GuessTheNumber.sol\":759:765  player */\n      0x03\n      0x00\n      swap1\n      sload\n      swap1\n      0x0100\n      exp\n      swap1\n      div\n      0xffffffffffffffffffffffffffffffffffffffff\n      and\n        /* \"GuessTheNumber/contracts/GuessTheNumber.sol\":745:765  msg.sender == player */\n      0xffffffffffffffffffffffffffffffffffffffff\n      and\n        /* \"GuessTheNumber/contracts/GuessTheNumber.sol\":745:755  msg.sender */\n      caller\n        /* \"GuessTheNumber/contracts/GuessTheNumber.sol\":745:765  msg.sender == player */\n      0xffffffffffffffffffffffffffffffffffffffff\n      and\n      eq\n        /* \"GuessTheNumber/contracts/GuessTheNumber.sol\":737:803  require(msg.sender == player, \"Only the player can make a guess.\") */\n      tag_76\n      jumpi\n      mload(0x40)\n      0x08c379a000000000000000000000000000000000000000000000000000000000\n      dup2\n      mstore\n      0x04\n      add\n      tag_77\n      swap1\n      tag_78\n      jump\t// in\n    tag_77:\n      mload(0x40)\n      dup1\n      swap2\n      sub\n      swap1\n      revert\n    tag_76:\n        /* \"GuessTheNumber/contracts/GuessTheNumber.sol\":829:830  1 */\n      0x01\n        /* \"GuessTheNumber/contracts/GuessTheNumber.sol\":822:825  num */\n      dup2\n        /* \"GuessTheNumber/contracts/GuessTheNumber.sol\":822:830  num >= 1 */\n      lt\n      iszero\n        /* \"GuessTheNumber/contracts/GuessTheNumber.sol\":822:850  num >= 1 && num <= MAX_GUESS */\n      dup1\n      iszero\n      tag_79\n      jumpi\n      pop\n        /* \"GuessTheNumber/contracts/GuessTheNumber.sol\":164:166  10 */\n      0x0a\n        /* \"GuessTheNumber/contracts/GuessTheNumber.sol\":834:837  num */\n      dup2\n        /* \"GuessTheNumber/contracts/GuessTheNumber.sol\":834:850  num <= MAX_GUESS */\n      gt\n      iszero\n        /* \"GuessTheNumber/contracts/GuessTheNumber.sol\":822:850  num >= 1 && num <= MAX_GUESS */\n    tag_79:\n        /* \"GuessTheNumber/contracts/GuessTheNumber.sol\":814:893  require(num >= 1 && num <= MAX_GUESS, \"Guess must be within range of 1 to 10.\") */\n      tag_80\n      jumpi\n      mload(0x40)\n      0x08c379a000000000000000000000000000000000000000000000000000000000\n      dup2\n      mstore\n      0x04\n      add\n      tag_81\n      swap1\n      tag_82\n      jump\t// in\n    tag_81:\n      mload(0x40)\n      dup1\n      swap2\n      sub\n      swap1\n      revert\n    tag_80:\n        /* \"GuessTheNumber/contracts/GuessTheNumber.sol\":918:930  secretNumber */\n      sload(0x01)\n        /* \"GuessTheNumber/contracts/GuessTheNumber.sol\":911:914  num */\n      dup2\n        /* \"GuessTheNumber/contracts/GuessTheNumber.sol\":911:930  num == secretNumber */\n      sub\n        /* \"GuessTheNumber/contracts/GuessTheNumber.sol\":907:1708  if (num == secretNumber) {... */\n      tag_83\n      jumpi\n        /* \"GuessTheNumber/contracts/GuessTheNumber.sol\":975:989  uint256 reward */\n      0x00\n        /* \"GuessTheNumber/contracts/GuessTheNumber.sol\":1027:1030  100 */\n      0x64\n        /* \"GuessTheNumber/contracts/GuessTheNumber.sol\":207:209  20 */\n      0x14\n        /* \"GuessTheNumber/contracts/GuessTheNumber.sol\":992:1007  contractBalance */\n      sload(0x02)\n        /* \"GuessTheNumber/contracts/GuessTheNumber.sol\":992:1024  contractBalance * REWARD_PERCENT */\n      tag_84\n      swap2\n      swap1\n      tag_85\n      jump\t// in\n    tag_84:\n        /* \"GuessTheNumber/contracts/GuessTheNumber.sol\":992:1030  contractBalance * REWARD_PERCENT / 100 */\n      tag_86\n      swap2\n      swap1\n      tag_87\n      jump\t// in\n    tag_86:\n        /* \"GuessTheNumber/contracts/GuessTheNumber.sol\":975:1030  uint256 reward = contractBalance * REWARD_PERCENT / 100 */\n      swap1\n      pop\n        /* \"GuessTheNumber/contracts/GuessTheNumber.sol\":1064:1070  reward */\n      dup1\n        /* \"GuessTheNumber/contracts/GuessTheNumber.sol\":1045:1060  contractBalance */\n      0x02\n      0x00\n        /* \"GuessTheNumber/contracts/GuessTheNumber.sol\":1045:1070  contractBalance -= reward */\n      dup3\n      dup3\n      sload\n      tag_88\n      swap2\n      swap1\n      tag_65\n      jump\t// in\n    tag_88:\n      swap3\n      pop\n      pop\n      dup2\n      swap1\n      sstore\n      pop\n        /* \"GuessTheNumber/contracts/GuessTheNumber.sol\":1141:1153  bool success */\n      0x00\n        /* \"GuessTheNumber/contracts/GuessTheNumber.sol\":1167:1173  player */\n      0x03\n      0x00\n      swap1\n      sload\n      swap1\n      0x0100\n      exp\n      swap1\n      div\n      0xffffffffffffffffffffffffffffffffffffffff\n      and\n        /* \"GuessTheNumber/contracts/GuessTheNumber.sol\":1159:1179  payable(player).call */\n      0xffffffffffffffffffffffffffffffffffffffff\n      and\n        /* \"GuessTheNumber/contracts/GuessTheNumber.sol\":1187:1193  reward */\n      dup3\n        /* \"GuessTheNumber/contracts/GuessTheNumber.sol\":1159:1198  payable(player).call{value: reward}(\"\") */\n      mload(0x40)\n      tag_89\n      swap1\n      tag_67\n      jump\t// in\n    tag_89:\n      0x00\n      mload(0x40)\n      dup1\n      dup4\n      sub\n      dup2\n      dup6\n      dup8\n      gas\n      call\n      swap3\n      pop\n      pop\n      pop\n      returndatasize\n      dup1\n      0x00\n      dup2\n      eq\n      tag_92\n      jumpi\n      mload(0x40)\n      swap2\n      pop\n      and(add(returndatasize, 0x3f), not(0x1f))\n      dup3\n      add\n      0x40\n      mstore\n      returndatasize\n      dup3\n      mstore\n      returndatasize\n      0x00\n      0x20\n      dup5\n      add\n      returndatacopy\n      jump(tag_91)\n    tag_92:\n      0x60\n      swap2\n      pop\n    tag_91:\n      pop\n        /* \"GuessTheNumber/contracts/GuessTheNumber.sol\":1140:1198  (bool success, ) = payable(player).call{value: reward}(\"\") */\n      pop\n      swap1\n      pop\n        /* \"GuessTheNumber/contracts/GuessTheNumber.sol\":1221:1228  success */\n      dup1\n        /* \"GuessTheNumber/contracts/GuessTheNumber.sol\":1213:1265  require(success, \"Transfer failed. Deposit needed.\") */\n      tag_93\n      jumpi\n      mload(0x40)\n      0x08c379a000000000000000000000000000000000000000000000000000000000\n      dup2\n      mstore\n      0x04\n      add\n      tag_94\n      swap1\n      tag_73\n      jump\t// in\n    tag_94:\n      mload(0x40)\n      dup1\n      swap2\n      sub\n      swap1\n      revert\n    tag_93:\n        /* \"GuessTheNumber/contracts/GuessTheNumber.sol\":932:1277  {... */\n      pop\n      pop\n        /* \"GuessTheNumber/contracts/GuessTheNumber.sol\":907:1708  if (num == secretNumber) {... */\n      jump(tag_95)\n    tag_83:\n        /* \"GuessTheNumber/contracts/GuessTheNumber.sol\":1327:1347  uint256 punishAmount */\n      0x00\n        /* \"GuessTheNumber/contracts/GuessTheNumber.sol\":1386:1389  100 */\n      0x64\n        /* \"GuessTheNumber/contracts/GuessTheNumber.sol\":251:253  25 */\n      0x19\n        /* \"GuessTheNumber/contracts/GuessTheNumber.sol\":1350:1365  contractBalance */\n      sload(0x02)\n        /* \"GuessTheNumber/contracts/GuessTheNumber.sol\":1350:1383  contractBalance * PENALTY_PERCENT */\n      tag_96\n      swap2\n      swap1\n      tag_85\n      jump\t// in\n    tag_96:\n        /* \"GuessTheNumber/contracts/GuessTheNumber.sol\":1350:1389  contractBalance * PENALTY_PERCENT / 100 */\n      tag_97\n      swap2\n      swap1\n      tag_87\n      jump\t// in\n    tag_97:\n        /* \"GuessTheNumber/contracts/GuessTheNumber.sol\":1327:1389  uint256 punishAmount = contractBalance * PENALTY_PERCENT / 100 */\n      swap1\n      pop\n        /* \"GuessTheNumber/contracts/GuessTheNumber.sol\":1425:1437  punishAmount */\n      dup1\n        /* \"GuessTheNumber/contracts/GuessTheNumber.sol\":1404:1421  punishAmountTotal */\n      0x04\n      0x00\n        /* \"GuessTheNumber/contracts/GuessTheNumber.sol\":1404:1437  punishAmountTotal += punishAmount */\n      dup3\n      dup3\n      sload\n      tag_98\n      swap2\n      swap1\n      tag_99\n      jump\t// in\n    tag_98:\n      swap3\n      pop\n      pop\n      dup2\n      swap1\n      sstore\n      pop\n        /* \"GuessTheNumber/contracts/GuessTheNumber.sol\":1540:1552  punishAmount */\n      dup1\n        /* \"GuessTheNumber/contracts/GuessTheNumber.sol\":1515:1536  address(this).balance */\n      selfbalance\n        /* \"GuessTheNumber/contracts/GuessTheNumber.sol\":1515:1552  address(this).balance >= punishAmount */\n      lt\n      iszero\n        /* \"GuessTheNumber/contracts/GuessTheNumber.sol\":1507:1636  require(address(this).balance >= punishAmount, \"Contract balance must be greater than or equal to punishAmount. Deposit needed.\") */\n      tag_100\n      jumpi\n      mload(0x40)\n      0x08c379a000000000000000000000000000000000000000000000000000000000\n      dup2\n      mstore\n      0x04\n      add\n      tag_101\n      swap1\n      tag_102\n      jump\t// in\n    tag_101:\n      mload(0x40)\n      dup1\n      swap2\n      sub\n      swap1\n      revert\n    tag_100:\n        /* \"GuessTheNumber/contracts/GuessTheNumber.sol\":1684:1696  punishAmount */\n      dup1\n        /* \"GuessTheNumber/contracts/GuessTheNumber.sol\":1665:1680  contractBalance */\n      0x02\n      0x00\n        /* \"GuessTheNumber/contracts/GuessTheNumber.sol\":1665:1696  contractBalance += punishAmount */\n      dup3\n      dup3\n      sload\n      tag_103\n      swap2\n      swap1\n      tag_99\n      jump\t// in\n    tag_103:\n      swap3\n      pop\n      pop\n      dup2\n      swap1\n      sstore\n      pop\n        /* \"GuessTheNumber/contracts/GuessTheNumber.sol\":1283:1708  {... */\n      pop\n        /* \"GuessTheNumber/contracts/GuessTheNumber.sol\":907:1708  if (num == secretNumber) {... */\n    tag_95:\n        /* \"GuessTheNumber/contracts/GuessTheNumber.sol\":1811:1812  1 */\n      0x01\n        /* \"GuessTheNumber/contracts/GuessTheNumber.sol\":164:166  10 */\n      0x0a\n        /* \"GuessTheNumber/contracts/GuessTheNumber.sol\":1770:1785  block.timestamp */\n      timestamp\n        /* \"GuessTheNumber/contracts/GuessTheNumber.sol\":1787:1793  player */\n      0x03\n      0x00\n      swap1\n      sload\n      swap1\n      0x0100\n      exp\n      swap1\n      div\n      0xffffffffffffffffffffffffffffffffffffffff\n      and\n        /* \"GuessTheNumber/contracts/GuessTheNumber.sol\":1753:1794  abi.encodePacked(block.timestamp, player) */\n      add(0x20, mload(0x40))\n      tag_104\n      swap3\n      swap2\n      swap1\n      tag_105\n      jump\t// in\n    tag_104:\n      mload(0x40)\n      0x20\n      dup2\n      dup4\n      sub\n      sub\n      dup2\n      mstore\n      swap1\n      0x40\n      mstore\n        /* \"GuessTheNumber/contracts/GuessTheNumber.sol\":1743:1795  keccak256(abi.encodePacked(block.timestamp, player)) */\n      dup1\n      mload\n      swap1\n      0x20\n      add\n      keccak256\n        /* \"GuessTheNumber/contracts/GuessTheNumber.sol\":1735:1796  uint256(keccak256(abi.encodePacked(block.timestamp, player))) */\n      0x00\n      shr\n        /* \"GuessTheNumber/contracts/GuessTheNumber.sol\":1735:1808  uint256(keccak256(abi.encodePacked(block.timestamp, player))) % MAX_GUESS */\n      tag_106\n      swap2\n      swap1\n      tag_107\n      jump\t// in\n    tag_106:\n        /* \"GuessTheNumber/contracts/GuessTheNumber.sol\":1735:1812  uint256(keccak256(abi.encodePacked(block.timestamp, player))) % MAX_GUESS + 1 */\n      tag_108\n      swap2\n      swap1\n      tag_99\n      jump\t// in\n    tag_108:\n        /* \"GuessTheNumber/contracts/GuessTheNumber.sol\":1720:1732  secretNumber */\n      0x01\n        /* \"GuessTheNumber/contracts/GuessTheNumber.sol\":1720:1812  secretNumber = uint256(keccak256(abi.encodePacked(block.timestamp, player))) % MAX_GUESS + 1 */\n      dup2\n      swap1\n      sstore\n      pop\n        /* \"GuessTheNumber/contracts/GuessTheNumber.sol\":691:1820  function guess(uint256 num) public {... */\n      pop\n      jump\t// out\n        /* \"GuessTheNumber/contracts/GuessTheNumber.sol\":266:293  uint256 public secretNumber */\n    tag_48:\n      sload(0x01)\n      dup2\n      jump\t// out\n        /* \"GuessTheNumber/contracts/GuessTheNumber.sol\":2133:2308  function deposit() external payable isOwner stopInEmergency {... */\n    tag_51:\n        /* \"GuessTheNumber/contracts/Owner.sol\":254:259  owner */\n      0x00\n      dup1\n      sload\n      swap1\n      0x0100\n      exp\n      swap1\n      div\n      0xffffffffffffffffffffffffffffffffffffffff\n      and\n        /* \"GuessTheNumber/contracts/Owner.sol\":240:259  msg.sender == owner */\n      0xffffffffffffffffffffffffffffffffffffffff\n      and\n        /* \"GuessTheNumber/contracts/Owner.sol\":240:250  msg.sender */\n      caller\n        /* \"GuessTheNumber/contracts/Owner.sol\":240:259  msg.sender == owner */\n      0xffffffffffffffffffffffffffffffffffffffff\n      and\n      eq\n        /* \"GuessTheNumber/contracts/Owner.sol\":232:295  require(msg.sender == owner, \"User is not the contract owner.\") */\n      tag_110\n      jumpi\n      mload(0x40)\n      0x08c379a000000000000000000000000000000000000000000000000000000000\n      dup2\n      mstore\n      0x04\n      add\n      tag_111\n      swap1\n      tag_56\n      jump\t// in\n    tag_111:\n      mload(0x40)\n      dup1\n      swap2\n      sub\n      swap1\n      revert\n    tag_110:\n        /* \"GuessTheNumber/contracts/Manager.sol\":324:331  stopped */\n      0x00\n      0x14\n      swap1\n      sload\n      swap1\n      0x0100\n      exp\n      swap1\n      div\n      0xff\n      and\n        /* \"GuessTheNumber/contracts/Manager.sol\":323:331  !stopped */\n      iszero\n        /* \"GuessTheNumber/contracts/Manager.sol\":315:332  require(!stopped) */\n      tag_113\n      jumpi\n      0x00\n      dup1\n      revert\n    tag_113:\n        /* \"GuessTheNumber/contracts/GuessTheNumber.sol\":2224:2225  0 */\n      0x00\n        /* \"GuessTheNumber/contracts/GuessTheNumber.sol\":2212:2221  msg.value */\n      callvalue\n        /* \"GuessTheNumber/contracts/GuessTheNumber.sol\":2212:2225  msg.value > 0 */\n      gt\n        /* \"GuessTheNumber/contracts/GuessTheNumber.sol\":2204:2261  require(msg.value > 0, \"Deposit must be greater than 0.\") */\n      tag_115\n      jumpi\n      mload(0x40)\n      0x08c379a000000000000000000000000000000000000000000000000000000000\n      dup2\n      mstore\n      0x04\n      add\n      tag_116\n      swap1\n      tag_117\n      jump\t// in\n    tag_116:\n      mload(0x40)\n      dup1\n      swap2\n      sub\n      swap1\n      revert\n    tag_115:\n        /* \"GuessTheNumber/contracts/GuessTheNumber.sol\":2291:2300  msg.value */\n      callvalue\n        /* \"GuessTheNumber/contracts/GuessTheNumber.sol\":2272:2287  contractBalance */\n      0x02\n      0x00\n        /* \"GuessTheNumber/contracts/GuessTheNumber.sol\":2272:2300  contractBalance += msg.value */\n      dup3\n      dup3\n      sload\n      tag_118\n      swap2\n      swap1\n      tag_99\n      jump\t// in\n    tag_118:\n      swap3\n      pop\n      pop\n      dup2\n      swap1\n      sstore\n      pop\n        /* \"GuessTheNumber/contracts/GuessTheNumber.sol\":2133:2308  function deposit() external payable isOwner stopInEmergency {... */\n      jump\t// out\n        /* \"#utility.yul\":7:84   */\n    tag_119:\n        /* \"#utility.yul\":44:51   */\n      0x00\n        /* \"#utility.yul\":73:78   */\n      dup2\n        /* \"#utility.yul\":62:78   */\n      swap1\n      pop\n        /* \"#utility.yul\":7:84   */\n      swap2\n      swap1\n      pop\n      jump\t// out\n        /* \"#utility.yul\":90:208   */\n    tag_120:\n        /* \"#utility.yul\":177:201   */\n      tag_156\n        /* \"#utility.yul\":195:200   */\n      dup2\n        /* \"#utility.yul\":177:201   */\n      tag_119\n      jump\t// in\n    tag_156:\n        /* \"#utility.yul\":172:175   */\n      dup3\n        /* \"#utility.yul\":165:202   */\n      mstore\n        /* \"#utility.yul\":90:208   */\n      pop\n      pop\n      jump\t// out\n        /* \"#utility.yul\":214:436   */\n    tag_17:\n        /* \"#utility.yul\":307:311   */\n      0x00\n        /* \"#utility.yul\":345:347   */\n      0x20\n        /* \"#utility.yul\":334:343   */\n      dup3\n        /* \"#utility.yul\":330:348   */\n      add\n        /* \"#utility.yul\":322:348   */\n      swap1\n      pop\n        /* \"#utility.yul\":358:429   */\n      tag_158\n        /* \"#utility.yul\":426:427   */\n      0x00\n        /* \"#utility.yul\":415:424   */\n      dup4\n        /* \"#utility.yul\":411:428   */\n      add\n        /* \"#utility.yul\":402:408   */\n      dup5\n        /* \"#utility.yul\":358:429   */\n      tag_120\n      jump\t// in\n    tag_158:\n        /* \"#utility.yul\":214:436   */\n      swap3\n      swap2\n      pop\n      pop\n      jump\t// out\n        /* \"#utility.yul\":442:568   */\n    tag_121:\n        /* \"#utility.yul\":479:486   */\n      0x00\n        /* \"#utility.yul\":519:561   */\n      0xffffffffffffffffffffffffffffffffffffffff\n        /* \"#utility.yul\":512:517   */\n      dup3\n        /* \"#utility.yul\":508:562   */\n      and\n        /* \"#utility.yul\":497:562   */\n      swap1\n      pop\n        /* \"#utility.yul\":442:568   */\n      swap2\n      swap1\n      pop\n      jump\t// out\n        /* \"#utility.yul\":574:670   */\n    tag_122:\n        /* \"#utility.yul\":611:618   */\n      0x00\n        /* \"#utility.yul\":640:664   */\n      tag_161\n        /* \"#utility.yul\":658:663   */\n      dup3\n        /* \"#utility.yul\":640:664   */\n      tag_121\n      jump\t// in\n    tag_161:\n        /* \"#utility.yul\":629:664   */\n      swap1\n      pop\n        /* \"#utility.yul\":574:670   */\n      swap2\n      swap1\n      pop\n      jump\t// out\n        /* \"#utility.yul\":676:794   */\n    tag_123:\n        /* \"#utility.yul\":763:787   */\n      tag_163\n        /* \"#utility.yul\":781:786   */\n      dup2\n        /* \"#utility.yul\":763:787   */\n      tag_122\n      jump\t// in\n    tag_163:\n        /* \"#utility.yul\":758:761   */\n      dup3\n        /* \"#utility.yul\":751:788   */\n      mstore\n        /* \"#utility.yul\":676:794   */\n      pop\n      pop\n      jump\t// out\n        /* \"#utility.yul\":800:1022   */\n    tag_28:\n        /* \"#utility.yul\":893:897   */\n      0x00\n        /* \"#utility.yul\":931:933   */\n      0x20\n        /* \"#utility.yul\":920:929   */\n      dup3\n        /* \"#utility.yul\":916:934   */\n      add\n        /* \"#utility.yul\":908:934   */\n      swap1\n      pop\n        /* \"#utility.yul\":944:1015   */\n      tag_165\n        /* \"#utility.yul\":1012:1013   */\n      0x00\n        /* \"#utility.yul\":1001:1010   */\n      dup4\n        /* \"#utility.yul\":997:1014   */\n      add\n        /* \"#utility.yul\":988:994   */\n      dup5\n        /* \"#utility.yul\":944:1015   */\n      tag_123\n      jump\t// in\n    tag_165:\n        /* \"#utility.yul\":800:1022   */\n      swap3\n      swap2\n      pop\n      pop\n      jump\t// out\n        /* \"#utility.yul\":1109:1226   */\n    tag_125:\n        /* \"#utility.yul\":1218:1219   */\n      0x00\n        /* \"#utility.yul\":1215:1216   */\n      dup1\n        /* \"#utility.yul\":1208:1220   */\n      revert\n        /* \"#utility.yul\":1355:1477   */\n    tag_127:\n        /* \"#utility.yul\":1428:1452   */\n      tag_170\n        /* \"#utility.yul\":1446:1451   */\n      dup2\n        /* \"#utility.yul\":1428:1452   */\n      tag_119\n      jump\t// in\n    tag_170:\n        /* \"#utility.yul\":1421:1426   */\n      dup2\n        /* \"#utility.yul\":1418:1453   */\n      eq\n        /* \"#utility.yul\":1408:1471   */\n      tag_171\n      jumpi\n        /* \"#utility.yul\":1467:1468   */\n      0x00\n        /* \"#utility.yul\":1464:1465   */\n      dup1\n        /* \"#utility.yul\":1457:1469   */\n      revert\n        /* \"#utility.yul\":1408:1471   */\n    tag_171:\n        /* \"#utility.yul\":1355:1477   */\n      pop\n      jump\t// out\n        /* \"#utility.yul\":1483:1622   */\n    tag_128:\n        /* \"#utility.yul\":1529:1534   */\n      0x00\n        /* \"#utility.yul\":1567:1573   */\n      dup2\n        /* \"#utility.yul\":1554:1574   */\n      calldataload\n        /* \"#utility.yul\":1545:1574   */\n      swap1\n      pop\n        /* \"#utility.yul\":1583:1616   */\n      tag_173\n        /* \"#utility.yul\":1610:1615   */\n      dup2\n        /* \"#utility.yul\":1583:1616   */\n      tag_127\n      jump\t// in\n    tag_173:\n        /* \"#utility.yul\":1483:1622   */\n      swap3\n      swap2\n      pop\n      pop\n      jump\t// out\n        /* \"#utility.yul\":1628:1957   */\n    tag_44:\n        /* \"#utility.yul\":1687:1693   */\n      0x00\n        /* \"#utility.yul\":1736:1738   */\n      0x20\n        /* \"#utility.yul\":1724:1733   */\n      dup3\n        /* \"#utility.yul\":1715:1722   */\n      dup5\n        /* \"#utility.yul\":1711:1734   */\n      sub\n        /* \"#utility.yul\":1707:1739   */\n      slt\n        /* \"#utility.yul\":1704:1823   */\n      iszero\n      tag_175\n      jumpi\n        /* \"#utility.yul\":1742:1821   */\n      tag_176\n      tag_125\n      jump\t// in\n    tag_176:\n        /* \"#utility.yul\":1704:1823   */\n    tag_175:\n        /* \"#utility.yul\":1862:1863   */\n      0x00\n        /* \"#utility.yul\":1887:1940   */\n      tag_177\n        /* \"#utility.yul\":1932:1939   */\n      dup5\n        /* \"#utility.yul\":1923:1929   */\n      dup3\n        /* \"#utility.yul\":1912:1921   */\n      dup6\n        /* \"#utility.yul\":1908:1930   */\n      add\n        /* \"#utility.yul\":1887:1940   */\n      tag_128\n      jump\t// in\n    tag_177:\n        /* \"#utility.yul\":1877:1940   */\n      swap2\n      pop\n        /* \"#utility.yul\":1833:1950   */\n      pop\n        /* \"#utility.yul\":1628:1957   */\n      swap3\n      swap2\n      pop\n      pop\n      jump\t// out\n        /* \"#utility.yul\":1963:2132   */\n    tag_129:\n        /* \"#utility.yul\":2047:2058   */\n      0x00\n        /* \"#utility.yul\":2081:2087   */\n      dup3\n        /* \"#utility.yul\":2076:2079   */\n      dup3\n        /* \"#utility.yul\":2069:2088   */\n      mstore\n        /* \"#utility.yul\":2121:2125   */\n      0x20\n        /* \"#utility.yul\":2116:2119   */\n      dup3\n        /* \"#utility.yul\":2112:2126   */\n      add\n        /* \"#utility.yul\":2097:2126   */\n      swap1\n      pop\n        /* \"#utility.yul\":1963:2132   */\n      swap3\n      swap2\n      pop\n      pop\n      jump\t// out\n        /* \"#utility.yul\":2138:2319   */\n    tag_130:\n        /* \"#utility.yul\":2278:2311   */\n      0x55736572206973206e6f742074686520636f6e7472616374206f776e65722e00\n        /* \"#utility.yul\":2274:2275   */\n      0x00\n        /* \"#utility.yul\":2266:2272   */\n      dup3\n        /* \"#utility.yul\":2262:2276   */\n      add\n        /* \"#utility.yul\":2255:2312   */\n      mstore\n        /* \"#utility.yul\":2138:2319   */\n      pop\n      jump\t// out\n        /* \"#utility.yul\":2325:2691   */\n    tag_131:\n        /* \"#utility.yul\":2467:2470   */\n      0x00\n        /* \"#utility.yul\":2488:2555   */\n      tag_181\n        /* \"#utility.yul\":2552:2554   */\n      0x1f\n        /* \"#utility.yul\":2547:2550   */\n      dup4\n        /* \"#utility.yul\":2488:2555   */\n      tag_129\n      jump\t// in\n    tag_181:\n        /* \"#utility.yul\":2481:2555   */\n      swap2\n      pop\n        /* \"#utility.yul\":2564:2657   */\n      tag_182\n        /* \"#utility.yul\":2653:2656   */\n      dup3\n        /* \"#utility.yul\":2564:2657   */\n      tag_130\n      jump\t// in\n    tag_182:\n        /* \"#utility.yul\":2682:2684   */\n      0x20\n        /* \"#utility.yul\":2677:2680   */\n      dup3\n        /* \"#utility.yul\":2673:2685   */\n      add\n        /* \"#utility.yul\":2666:2685   */\n      swap1\n      pop\n        /* \"#utility.yul\":2325:2691   */\n      swap2\n      swap1\n      pop\n      jump\t// out\n        /* \"#utility.yul\":2697:3116   */\n    tag_56:\n        /* \"#utility.yul\":2863:2867   */\n      0x00\n        /* \"#utility.yul\":2901:2903   */\n      0x20\n        /* \"#utility.yul\":2890:2899   */\n      dup3\n        /* \"#utility.yul\":2886:2904   */\n      add\n        /* \"#utility.yul\":2878:2904   */\n      swap1\n      pop\n        /* \"#utility.yul\":2950:2959   */\n      dup2\n        /* \"#utility.yul\":2944:2948   */\n      dup2\n        /* \"#utility.yul\":2940:2960   */\n      sub\n        /* \"#utility.yul\":2936:2937   */\n      0x00\n        /* \"#utility.yul\":2925:2934   */\n      dup4\n        /* \"#utility.yul\":2921:2938   */\n      add\n        /* \"#utility.yul\":2914:2961   */\n      mstore\n        /* \"#utility.yul\":2978:3109   */\n      tag_184\n        /* \"#utility.yul\":3104:3108   */\n      dup2\n        /* \"#utility.yul\":2978:3109   */\n      tag_131\n      jump\t// in\n    tag_184:\n        /* \"#utility.yul\":2970:3109   */\n      swap1\n      pop\n        /* \"#utility.yul\":2697:3116   */\n      swap2\n      swap1\n      pop\n      jump\t// out\n        /* \"#utility.yul\":3122:3302   */\n    tag_132:\n        /* \"#utility.yul\":3170:3247   */\n      0x4e487b7100000000000000000000000000000000000000000000000000000000\n        /* \"#utility.yul\":3167:3168   */\n      0x00\n        /* \"#utility.yul\":3160:3248   */\n      mstore\n        /* \"#utility.yul\":3267:3271   */\n      0x11\n        /* \"#utility.yul\":3264:3265   */\n      0x04\n        /* \"#utility.yul\":3257:3272   */\n      mstore\n        /* \"#utility.yul\":3291:3295   */\n      0x24\n        /* \"#utility.yul\":3288:3289   */\n      0x00\n        /* \"#utility.yul\":3281:3296   */\n      revert\n        /* \"#utility.yul\":3308:3502   */\n    tag_65:\n        /* \"#utility.yul\":3348:3352   */\n      0x00\n        /* \"#utility.yul\":3368:3388   */\n      tag_187\n        /* \"#utility.yul\":3386:3387   */\n      dup3\n        /* \"#utility.yul\":3368:3388   */\n      tag_119\n      jump\t// in\n    tag_187:\n        /* \"#utility.yul\":3363:3388   */\n      swap2\n      pop\n        /* \"#utility.yul\":3402:3422   */\n      tag_188\n        /* \"#utility.yul\":3420:3421   */\n      dup4\n        /* \"#utility.yul\":3402:3422   */\n      tag_119\n      jump\t// in\n    tag_188:\n        /* \"#utility.yul\":3397:3422   */\n      swap3\n      pop\n        /* \"#utility.yul\":3446:3447   */\n      dup3\n        /* \"#utility.yul\":3443:3444   */\n      dup3\n        /* \"#utility.yul\":3439:3448   */\n      sub\n        /* \"#utility.yul\":3431:3448   */\n      swap1\n      pop\n        /* \"#utility.yul\":3470:3471   */\n      dup2\n        /* \"#utility.yul\":3464:3468   */\n      dup2\n        /* \"#utility.yul\":3461:3472   */\n      gt\n        /* \"#utility.yul\":3458:3495   */\n      iszero\n      tag_189\n      jumpi\n        /* \"#utility.yul\":3475:3493   */\n      tag_190\n      tag_132\n      jump\t// in\n    tag_190:\n        /* \"#utility.yul\":3458:3495   */\n    tag_189:\n        /* \"#utility.yul\":3308:3502   */\n      swap3\n      swap2\n      pop\n      pop\n      jump\t// out\n        /* \"#utility.yul\":3508:3655   */\n    tag_133:\n        /* \"#utility.yul\":3609:3620   */\n      0x00\n        /* \"#utility.yul\":3646:3649   */\n      dup2\n        /* \"#utility.yul\":3631:3649   */\n      swap1\n      pop\n        /* \"#utility.yul\":3508:3655   */\n      swap3\n      swap2\n      pop\n      pop\n      jump\t// out\n        /* \"#utility.yul\":3661:3775   */\n    tag_134:\n      pop\n      jump\t// out\n        /* \"#utility.yul\":3781:4179   */\n    tag_135:\n        /* \"#utility.yul\":3940:3943   */\n      0x00\n        /* \"#utility.yul\":3961:4044   */\n      tag_194\n        /* \"#utility.yul\":4042:4043   */\n      0x00\n        /* \"#utility.yul\":4037:4040   */\n      dup4\n        /* \"#utility.yul\":3961:4044   */\n      tag_133\n      jump\t// in\n    tag_194:\n        /* \"#utility.yul\":3954:4044   */\n      swap2\n      pop\n        /* \"#utility.yul\":4053:4146   */\n      tag_195\n        /* \"#utility.yul\":4142:4145   */\n      dup3\n        /* \"#utility.yul\":4053:4146   */\n      tag_134\n      jump\t// in\n    tag_195:\n        /* \"#utility.yul\":4171:4172   */\n      0x00\n        /* \"#utility.yul\":4166:4169   */\n      dup3\n        /* \"#utility.yul\":4162:4173   */\n      add\n        /* \"#utility.yul\":4155:4173   */\n      swap1\n      pop\n        /* \"#utility.yul\":3781:4179   */\n      swap2\n      swap1\n      pop\n      jump\t// out\n        /* \"#utility.yul\":4185:4564   */\n    tag_67:\n        /* \"#utility.yul\":4369:4372   */\n      0x00\n        /* \"#utility.yul\":4391:4538   */\n      tag_197\n        /* \"#utility.yul\":4534:4537   */\n      dup3\n        /* \"#utility.yul\":4391:4538   */\n      tag_135\n      jump\t// in\n    tag_197:\n        /* \"#utility.yul\":4384:4538   */\n      swap2\n      pop\n        /* \"#utility.yul\":4555:4558   */\n      dup2\n        /* \"#utility.yul\":4548:4558   */\n      swap1\n      pop\n        /* \"#utility.yul\":4185:4564   */\n      swap2\n      swap1\n      pop\n      jump\t// out\n        /* \"#utility.yul\":4570:4752   */\n    tag_136:\n        /* \"#utility.yul\":4710:4744   */\n      0x5472616e73666572206661696c65642e204465706f736974206e65656465642e\n        /* \"#utility.yul\":4706:4707   */\n      0x00\n        /* \"#utility.yul\":4698:4704   */\n      dup3\n        /* \"#utility.yul\":4694:4708   */\n      add\n        /* \"#utility.yul\":4687:4745   */\n      mstore\n        /* \"#utility.yul\":4570:4752   */\n      pop\n      jump\t// out\n        /* \"#utility.yul\":4758:5124   */\n    tag_137:\n        /* \"#utility.yul\":4900:4903   */\n      0x00\n        /* \"#utility.yul\":4921:4988   */\n      tag_200\n        /* \"#utility.yul\":4985:4987   */\n      0x20\n        /* \"#utility.yul\":4980:4983   */\n      dup4\n        /* \"#utility.yul\":4921:4988   */\n      tag_129\n      jump\t// in\n    tag_200:\n        /* \"#utility.yul\":4914:4988   */\n      swap2\n      pop\n        /* \"#utility.yul\":4997:5090   */\n      tag_201\n        /* \"#utility.yul\":5086:5089   */\n      dup3\n        /* \"#utility.yul\":4997:5090   */\n      tag_136\n      jump\t// in\n    tag_201:\n        /* \"#utility.yul\":5115:5117   */\n      0x20\n        /* \"#utility.yul\":5110:5113   */\n      dup3\n        /* \"#utility.yul\":5106:5118   */\n      add\n        /* \"#utility.yul\":5099:5118   */\n      swap1\n      pop\n        /* \"#utility.yul\":4758:5124   */\n      swap2\n      swap1\n      pop\n      jump\t// out\n        /* \"#utility.yul\":5130:5549   */\n    tag_73:\n        /* \"#utility.yul\":5296:5300   */\n      0x00\n        /* \"#utility.yul\":5334:5336   */\n      0x20\n        /* \"#utility.yul\":5323:5332   */\n      dup3\n        /* \"#utility.yul\":5319:5337   */\n      add\n        /* \"#utility.yul\":5311:5337   */\n      swap1\n      pop\n        /* \"#utility.yul\":5383:5392   */\n      dup2\n        /* \"#utility.yul\":5377:5381   */\n      dup2\n        /* \"#utility.yul\":5373:5393   */\n      sub\n        /* \"#utility.yul\":5369:5370   */\n      0x00\n        /* \"#utility.yul\":5358:5367   */\n      dup4\n        /* \"#utility.yul\":5354:5371   */\n      add\n        /* \"#utility.yul\":5347:5394   */\n      mstore\n        /* \"#utility.yul\":5411:5542   */\n      tag_203\n        /* \"#utility.yul\":5537:5541   */\n      dup2\n        /* \"#utility.yul\":5411:5542   */\n      tag_137\n      jump\t// in\n    tag_203:\n        /* \"#utility.yul\":5403:5542   */\n      swap1\n      pop\n        /* \"#utility.yul\":5130:5549   */\n      swap2\n      swap1\n      pop\n      jump\t// out\n        /* \"#utility.yul\":5555:5775   */\n    tag_138:\n        /* \"#utility.yul\":5695:5729   */\n      0x4f6e6c792074686520706c617965722063616e206d616b652061206775657373\n        /* \"#utility.yul\":5691:5692   */\n      0x00\n        /* \"#utility.yul\":5683:5689   */\n      dup3\n        /* \"#utility.yul\":5679:5693   */\n      add\n        /* \"#utility.yul\":5672:5730   */\n      mstore\n        /* \"#utility.yul\":5764:5767   */\n      0x2e00000000000000000000000000000000000000000000000000000000000000\n        /* \"#utility.yul\":5759:5761   */\n      0x20\n        /* \"#utility.yul\":5751:5757   */\n      dup3\n        /* \"#utility.yul\":5747:5762   */\n      add\n        /* \"#utility.yul\":5740:5768   */\n      mstore\n        /* \"#utility.yul\":5555:5775   */\n      pop\n      jump\t// out\n        /* \"#utility.yul\":5781:6147   */\n    tag_139:\n        /* \"#utility.yul\":5923:5926   */\n      0x00\n        /* \"#utility.yul\":5944:6011   */\n      tag_206\n        /* \"#utility.yul\":6008:6010   */\n      0x21\n        /* \"#utility.yul\":6003:6006   */\n      dup4\n        /* \"#utility.yul\":5944:6011   */\n      tag_129\n      jump\t// in\n    tag_206:\n        /* \"#utility.yul\":5937:6011   */\n      swap2\n      pop\n        /* \"#utility.yul\":6020:6113   */\n      tag_207\n        /* \"#utility.yul\":6109:6112   */\n      dup3\n        /* \"#utility.yul\":6020:6113   */\n      tag_138\n      jump\t// in\n    tag_207:\n        /* \"#utility.yul\":6138:6140   */\n      0x40\n        /* \"#utility.yul\":6133:6136   */\n      dup3\n        /* \"#utility.yul\":6129:6141   */\n      add\n        /* \"#utility.yul\":6122:6141   */\n      swap1\n      pop\n        /* \"#utility.yul\":5781:6147   */\n      swap2\n      swap1\n      pop\n      jump\t// out\n        /* \"#utility.yul\":6153:6572   */\n    tag_78:\n        /* \"#utility.yul\":6319:6323   */\n      0x00\n        /* \"#utility.yul\":6357:6359   */\n      0x20\n        /* \"#utility.yul\":6346:6355   */\n      dup3\n        /* \"#utility.yul\":6342:6360   */\n      add\n        /* \"#utility.yul\":6334:6360   */\n      swap1\n      pop\n        /* \"#utility.yul\":6406:6415   */\n      dup2\n        /* \"#utility.yul\":6400:6404   */\n      dup2\n        /* \"#utility.yul\":6396:6416   */\n      sub\n        /* \"#utility.yul\":6392:6393   */\n      0x00\n        /* \"#utility.yul\":6381:6390   */\n      dup4\n        /* \"#utility.yul\":6377:6394   */\n      add\n        /* \"#utility.yul\":6370:6417   */\n      mstore\n        /* \"#utility.yul\":6434:6565   */\n      tag_209\n        /* \"#utility.yul\":6560:6564   */\n      dup2\n        /* \"#utility.yul\":6434:6565   */\n      tag_139\n      jump\t// in\n    tag_209:\n        /* \"#utility.yul\":6426:6565   */\n      swap1\n      pop\n        /* \"#utility.yul\":6153:6572   */\n      swap2\n      swap1\n      pop\n      jump\t// out\n        /* \"#utility.yul\":6578:6803   */\n    tag_140:\n        /* \"#utility.yul\":6718:6752   */\n      0x4775657373206d7573742062652077697468696e2072616e6765206f66203120\n        /* \"#utility.yul\":6714:6715   */\n      0x00\n        /* \"#utility.yul\":6706:6712   */\n      dup3\n        /* \"#utility.yul\":6702:6716   */\n      add\n        /* \"#utility.yul\":6695:6753   */\n      mstore\n        /* \"#utility.yul\":6787:6795   */\n      0x746f2031302e0000000000000000000000000000000000000000000000000000\n        /* \"#utility.yul\":6782:6784   */\n      0x20\n        /* \"#utility.yul\":6774:6780   */\n      dup3\n        /* \"#utility.yul\":6770:6785   */\n      add\n        /* \"#utility.yul\":6763:6796   */\n      mstore\n        /* \"#utility.yul\":6578:6803   */\n      pop\n      jump\t// out\n        /* \"#utility.yul\":6809:7175   */\n    tag_141:\n        /* \"#utility.yul\":6951:6954   */\n      0x00\n        /* \"#utility.yul\":6972:7039   */\n      tag_212\n        /* \"#utility.yul\":7036:7038   */\n      0x26\n        /* \"#utility.yul\":7031:7034   */\n      dup4\n        /* \"#utility.yul\":6972:7039   */\n      tag_129\n      jump\t// in\n    tag_212:\n        /* \"#utility.yul\":6965:7039   */\n      swap2\n      pop\n        /* \"#utility.yul\":7048:7141   */\n      tag_213\n        /* \"#utility.yul\":7137:7140   */\n      dup3\n        /* \"#utility.yul\":7048:7141   */\n      tag_140\n      jump\t// in\n    tag_213:\n        /* \"#utility.yul\":7166:7168   */\n      0x40\n        /* \"#utility.yul\":7161:7164   */\n      dup3\n        /* \"#utility.yul\":7157:7169   */\n      add\n        /* \"#utility.yul\":7150:7169   */\n      swap1\n      pop\n        /* \"#utility.yul\":6809:7175   */\n      swap2\n      swap1\n      pop\n      jump\t// out\n        /* \"#utility.yul\":7181:7600   */\n    tag_82:\n        /* \"#utility.yul\":7347:7351   */\n      0x00\n        /* \"#utility.yul\":7385:7387   */\n      0x20\n        /* \"#utility.yul\":7374:7383   */\n      dup3\n        /* \"#utility.yul\":7370:7388   */\n      add\n        /* \"#utility.yul\":7362:7388   */\n      swap1\n      pop\n        /* \"#utility.yul\":7434:7443   */\n      dup2\n        /* \"#utility.yul\":7428:7432   */\n      dup2\n        /* \"#utility.yul\":7424:7444   */\n      sub\n        /* \"#utility.yul\":7420:7421   */\n      0x00\n        /* \"#utility.yul\":7409:7418   */\n      dup4\n        /* \"#utility.yul\":7405:7422   */\n      add\n        /* \"#utility.yul\":7398:7445   */\n      mstore\n        /* \"#utility.yul\":7462:7593   */\n      tag_215\n        /* \"#utility.yul\":7588:7592   */\n      dup2\n        /* \"#utility.yul\":7462:7593   */\n      tag_141\n      jump\t// in\n    tag_215:\n        /* \"#utility.yul\":7454:7593   */\n      swap1\n      pop\n        /* \"#utility.yul\":7181:7600   */\n      swap2\n      swap1\n      pop\n      jump\t// out\n        /* \"#utility.yul\":7606:8016   */\n    tag_85:\n        /* \"#utility.yul\":7646:7653   */\n      0x00\n        /* \"#utility.yul\":7669:7689   */\n      tag_217\n        /* \"#utility.yul\":7687:7688   */\n      dup3\n        /* \"#utility.yul\":7669:7689   */\n      tag_119\n      jump\t// in\n    tag_217:\n        /* \"#utility.yul\":7664:7689   */\n      swap2\n      pop\n        /* \"#utility.yul\":7703:7723   */\n      tag_218\n        /* \"#utility.yul\":7721:7722   */\n      dup4\n        /* \"#utility.yul\":7703:7723   */\n      tag_119\n      jump\t// in\n    tag_218:\n        /* \"#utility.yul\":7698:7723   */\n      swap3\n      pop\n        /* \"#utility.yul\":7758:7759   */\n      dup3\n        /* \"#utility.yul\":7755:7756   */\n      dup3\n        /* \"#utility.yul\":7751:7760   */\n      mul\n        /* \"#utility.yul\":7780:7810   */\n      tag_219\n        /* \"#utility.yul\":7798:7809   */\n      dup2\n        /* \"#utility.yul\":7780:7810   */\n      tag_119\n      jump\t// in\n    tag_219:\n        /* \"#utility.yul\":7769:7810   */\n      swap2\n      pop\n        /* \"#utility.yul\":7959:7960   */\n      dup3\n        /* \"#utility.yul\":7950:7957   */\n      dup3\n        /* \"#utility.yul\":7946:7961   */\n      div\n        /* \"#utility.yul\":7943:7944   */\n      dup5\n        /* \"#utility.yul\":7940:7962   */\n      eq\n        /* \"#utility.yul\":7920:7921   */\n      dup4\n        /* \"#utility.yul\":7913:7922   */\n      iszero\n        /* \"#utility.yul\":7893:7976   */\n      or\n        /* \"#utility.yul\":7870:8009   */\n      tag_220\n      jumpi\n        /* \"#utility.yul\":7989:8007   */\n      tag_221\n      tag_132\n      jump\t// in\n    tag_221:\n        /* \"#utility.yul\":7870:8009   */\n    tag_220:\n        /* \"#utility.yul\":7654:8016   */\n      pop\n        /* \"#utility.yul\":7606:8016   */\n      swap3\n      swap2\n      pop\n      pop\n      jump\t// out\n        /* \"#utility.yul\":8022:8202   */\n    tag_142:\n        /* \"#utility.yul\":8070:8147   */\n      0x4e487b7100000000000000000000000000000000000000000000000000000000\n        /* \"#utility.yul\":8067:8068   */\n      0x00\n        /* \"#utility.yul\":8060:8148   */\n      mstore\n        /* \"#utility.yul\":8167:8171   */\n      0x12\n        /* \"#utility.yul\":8164:8165   */\n      0x04\n        /* \"#utility.yul\":8157:8172   */\n      mstore\n        /* \"#utility.yul\":8191:8195   */\n      0x24\n        /* \"#utility.yul\":8188:8189   */\n      0x00\n        /* \"#utility.yul\":8181:8196   */\n      revert\n        /* \"#utility.yul\":8208:8393   */\n    tag_87:\n        /* \"#utility.yul\":8248:8249   */\n      0x00\n        /* \"#utility.yul\":8265:8285   */\n      tag_224\n        /* \"#utility.yul\":8283:8284   */\n      dup3\n        /* \"#utility.yul\":8265:8285   */\n      tag_119\n      jump\t// in\n    tag_224:\n        /* \"#utility.yul\":8260:8285   */\n      swap2\n      pop\n        /* \"#utility.yul\":8299:8319   */\n      tag_225\n        /* \"#utility.yul\":8317:8318   */\n      dup4\n        /* \"#utility.yul\":8299:8319   */\n      tag_119\n      jump\t// in\n    tag_225:\n        /* \"#utility.yul\":8294:8319   */\n      swap3\n      pop\n        /* \"#utility.yul\":8338:8339   */\n      dup3\n        /* \"#utility.yul\":8328:8363   */\n      tag_226\n      jumpi\n        /* \"#utility.yul\":8343:8361   */\n      tag_227\n      tag_142\n      jump\t// in\n    tag_227:\n        /* \"#utility.yul\":8328:8363   */\n    tag_226:\n        /* \"#utility.yul\":8385:8386   */\n      dup3\n        /* \"#utility.yul\":8382:8383   */\n      dup3\n        /* \"#utility.yul\":8378:8387   */\n      div\n        /* \"#utility.yul\":8373:8387   */\n      swap1\n      pop\n        /* \"#utility.yul\":8208:8393   */\n      swap3\n      swap2\n      pop\n      pop\n      jump\t// out\n        /* \"#utility.yul\":8399:8590   */\n    tag_99:\n        /* \"#utility.yul\":8439:8442   */\n      0x00\n        /* \"#utility.yul\":8458:8478   */\n      tag_229\n        /* \"#utility.yul\":8476:8477   */\n      dup3\n        /* \"#utility.yul\":8458:8478   */\n      tag_119\n      jump\t// in\n    tag_229:\n        /* \"#utility.yul\":8453:8478   */\n      swap2\n      pop\n        /* \"#utility.yul\":8492:8512   */\n      tag_230\n        /* \"#utility.yul\":8510:8511   */\n      dup4\n        /* \"#utility.yul\":8492:8512   */\n      tag_119\n      jump\t// in\n    tag_230:\n        /* \"#utility.yul\":8487:8512   */\n      swap3\n      pop\n        /* \"#utility.yul\":8535:8536   */\n      dup3\n        /* \"#utility.yul\":8532:8533   */\n      dup3\n        /* \"#utility.yul\":8528:8537   */\n      add\n        /* \"#utility.yul\":8521:8537   */\n      swap1\n      pop\n        /* \"#utility.yul\":8556:8559   */\n      dup1\n        /* \"#utility.yul\":8553:8554   */\n      dup3\n        /* \"#utility.yul\":8550:8560   */\n      gt\n        /* \"#utility.yul\":8547:8583   */\n      iszero\n      tag_231\n      jumpi\n        /* \"#utility.yul\":8563:8581   */\n      tag_232\n      tag_132\n      jump\t// in\n    tag_232:\n        /* \"#utility.yul\":8547:8583   */\n    tag_231:\n        /* \"#utility.yul\":8399:8590   */\n      swap3\n      swap2\n      pop\n      pop\n      jump\t// out\n        /* \"#utility.yul\":8596:8899   */\n    tag_143:\n        /* \"#utility.yul\":8736:8770   */\n      0x436f6e74726163742062616c616e6365206d7573742062652067726561746572\n        /* \"#utility.yul\":8732:8733   */\n      0x00\n        /* \"#utility.yul\":8724:8730   */\n      dup3\n        /* \"#utility.yul\":8720:8734   */\n      add\n        /* \"#utility.yul\":8713:8771   */\n      mstore\n        /* \"#utility.yul\":8805:8839   */\n      0x207468616e206f7220657175616c20746f2070756e697368416d6f756e742e20\n        /* \"#utility.yul\":8800:8802   */\n      0x20\n        /* \"#utility.yul\":8792:8798   */\n      dup3\n        /* \"#utility.yul\":8788:8803   */\n      add\n        /* \"#utility.yul\":8781:8840   */\n      mstore\n        /* \"#utility.yul\":8874:8891   */\n      0x4465706f736974206e65656465642e0000000000000000000000000000000000\n        /* \"#utility.yul\":8869:8871   */\n      0x40\n        /* \"#utility.yul\":8861:8867   */\n      dup3\n        /* \"#utility.yul\":8857:8872   */\n      add\n        /* \"#utility.yul\":8850:8892   */\n      mstore\n        /* \"#utility.yul\":8596:8899   */\n      pop\n      jump\t// out\n        /* \"#utility.yul\":8905:9271   */\n    tag_144:\n        /* \"#utility.yul\":9047:9050   */\n      0x00\n        /* \"#utility.yul\":9068:9135   */\n      tag_235\n        /* \"#utility.yul\":9132:9134   */\n      0x4f\n        /* \"#utility.yul\":9127:9130   */\n      dup4\n        /* \"#utility.yul\":9068:9135   */\n      tag_129\n      jump\t// in\n    tag_235:\n        /* \"#utility.yul\":9061:9135   */\n      swap2\n      pop\n        /* \"#utility.yul\":9144:9237   */\n      tag_236\n        /* \"#utility.yul\":9233:9236   */\n      dup3\n        /* \"#utility.yul\":9144:9237   */\n      tag_143\n      jump\t// in\n    tag_236:\n        /* \"#utility.yul\":9262:9264   */\n      0x60\n        /* \"#utility.yul\":9257:9260   */\n      dup3\n        /* \"#utility.yul\":9253:9265   */\n      add\n        /* \"#utility.yul\":9246:9265   */\n      swap1\n      pop\n        /* \"#utility.yul\":8905:9271   */\n      swap2\n      swap1\n      pop\n      jump\t// out\n        /* \"#utility.yul\":9277:9696   */\n    tag_102:\n        /* \"#utility.yul\":9443:9447   */\n      0x00\n        /* \"#utility.yul\":9481:9483   */\n      0x20\n        /* \"#utility.yul\":9470:9479   */\n      dup3\n        /* \"#utility.yul\":9466:9484   */\n      add\n        /* \"#utility.yul\":9458:9484   */\n      swap1\n      pop\n        /* \"#utility.yul\":9530:9539   */\n      dup2\n        /* \"#utility.yul\":9524:9528   */\n      dup2\n        /* \"#utility.yul\":9520:9540   */\n      sub\n        /* \"#utility.yul\":9516:9517   */\n      0x00\n        /* \"#utility.yul\":9505:9514   */\n      dup4\n        /* \"#utility.yul\":9501:9518   */\n      add\n        /* \"#utility.yul\":9494:9541   */\n      mstore\n        /* \"#utility.yul\":9558:9689   */\n      tag_238\n        /* \"#utility.yul\":9684:9688   */\n      dup2\n        /* \"#utility.yul\":9558:9689   */\n      tag_144\n      jump\t// in\n    tag_238:\n        /* \"#utility.yul\":9550:9689   */\n      swap1\n      pop\n        /* \"#utility.yul\":9277:9696   */\n      swap2\n      swap1\n      pop\n      jump\t// out\n        /* \"#utility.yul\":9702:9781   */\n    tag_145:\n        /* \"#utility.yul\":9741:9748   */\n      0x00\n        /* \"#utility.yul\":9770:9775   */\n      dup2\n        /* \"#utility.yul\":9759:9775   */\n      swap1\n      pop\n        /* \"#utility.yul\":9702:9781   */\n      swap2\n      swap1\n      pop\n      jump\t// out\n        /* \"#utility.yul\":9787:9944   */\n    tag_146:\n        /* \"#utility.yul\":9892:9937   */\n      tag_241\n        /* \"#utility.yul\":9912:9936   */\n      tag_242\n        /* \"#utility.yul\":9930:9935   */\n      dup3\n        /* \"#utility.yul\":9912:9936   */\n      tag_119\n      jump\t// in\n    tag_242:\n        /* \"#utility.yul\":9892:9937   */\n      tag_145\n      jump\t// in\n    tag_241:\n        /* \"#utility.yul\":9887:9890   */\n      dup3\n        /* \"#utility.yul\":9880:9938   */\n      mstore\n        /* \"#utility.yul\":9787:9944   */\n      pop\n      pop\n      jump\t// out\n        /* \"#utility.yul\":9950:10044   */\n    tag_147:\n        /* \"#utility.yul\":9983:9991   */\n      0x00\n        /* \"#utility.yul\":10031:10036   */\n      dup2\n        /* \"#utility.yul\":10027:10029   */\n      0x60\n        /* \"#utility.yul\":10023:10037   */\n      shl\n        /* \"#utility.yul\":10002:10037   */\n      swap1\n      pop\n        /* \"#utility.yul\":9950:10044   */\n      swap2\n      swap1\n      pop\n      jump\t// out\n        /* \"#utility.yul\":10050:10144   */\n    tag_148:\n        /* \"#utility.yul\":10089:10096   */\n      0x00\n        /* \"#utility.yul\":10118:10138   */\n      tag_245\n        /* \"#utility.yul\":10132:10137   */\n      dup3\n        /* \"#utility.yul\":10118:10138   */\n      tag_147\n      jump\t// in\n    tag_245:\n        /* \"#utility.yul\":10107:10138   */\n      swap1\n      pop\n        /* \"#utility.yul\":10050:10144   */\n      swap2\n      swap1\n      pop\n      jump\t// out\n        /* \"#utility.yul\":10150:10250   */\n    tag_149:\n        /* \"#utility.yul\":10189:10196   */\n      0x00\n        /* \"#utility.yul\":10218:10244   */\n      tag_247\n        /* \"#utility.yul\":10238:10243   */\n      dup3\n        /* \"#utility.yul\":10218:10244   */\n      tag_148\n      jump\t// in\n    tag_247:\n        /* \"#utility.yul\":10207:10244   */\n      swap1\n      pop\n        /* \"#utility.yul\":10150:10250   */\n      swap2\n      swap1\n      pop\n      jump\t// out\n        /* \"#utility.yul\":10256:10413   */\n    tag_150:\n        /* \"#utility.yul\":10361:10406   */\n      tag_249\n        /* \"#utility.yul\":10381:10405   */\n      tag_250\n        /* \"#utility.yul\":10399:10404   */\n      dup3\n        /* \"#utility.yul\":10381:10405   */\n      tag_122\n      jump\t// in\n    tag_250:\n        /* \"#utility.yul\":10361:10406   */\n      tag_149\n      jump\t// in\n    tag_249:\n        /* \"#utility.yul\":10356:10359   */\n      dup3\n        /* \"#utility.yul\":10349:10407   */\n      mstore\n        /* \"#utility.yul\":10256:10413   */\n      pop\n      pop\n      jump\t// out\n        /* \"#utility.yul\":10419:10816   */\n    tag_105:\n        /* \"#utility.yul\":10559:10562   */\n      0x00\n        /* \"#utility.yul\":10574:10649   */\n      tag_252\n        /* \"#utility.yul\":10645:10648   */\n      dup3\n        /* \"#utility.yul\":10636:10642   */\n      dup6\n        /* \"#utility.yul\":10574:10649   */\n      tag_146\n      jump\t// in\n    tag_252:\n        /* \"#utility.yul\":10674:10676   */\n      0x20\n        /* \"#utility.yul\":10669:10672   */\n      dup3\n        /* \"#utility.yul\":10665:10677   */\n      add\n        /* \"#utility.yul\":10658:10677   */\n      swap2\n      pop\n        /* \"#utility.yul\":10687:10762   */\n      tag_253\n        /* \"#utility.yul\":10758:10761   */\n      dup3\n        /* \"#utility.yul\":10749:10755   */\n      dup5\n        /* \"#utility.yul\":10687:10762   */\n      tag_150\n      jump\t// in\n    tag_253:\n        /* \"#utility.yul\":10787:10789   */\n      0x14\n        /* \"#utility.yul\":10782:10785   */\n      dup3\n        /* \"#utility.yul\":10778:10790   */\n      add\n        /* \"#utility.yul\":10771:10790   */\n      swap2\n      pop\n        /* \"#utility.yul\":10807:10810   */\n      dup2\n        /* \"#utility.yul\":10800:10810   */\n      swap1\n      pop\n        /* \"#utility.yul\":10419:10816   */\n      swap4\n      swap3\n      pop\n      pop\n      pop\n      jump\t// out\n        /* \"#utility.yul\":10822:10998   */\n    tag_107:\n        /* \"#utility.yul\":10854:10855   */\n      0x00\n        /* \"#utility.yul\":10871:10891   */\n      tag_255\n        /* \"#utility.yul\":10889:10890   */\n      dup3\n        /* \"#utility.yul\":10871:10891   */\n      tag_119\n      jump\t// in\n    tag_255:\n        /* \"#utility.yul\":10866:10891   */\n      swap2\n      pop\n        /* \"#utility.yul\":10905:10925   */\n      tag_256\n        /* \"#utility.yul\":10923:10924   */\n      dup4\n        /* \"#utility.yul\":10905:10925   */\n      tag_119\n      jump\t// in\n    tag_256:\n        /* \"#utility.yul\":10900:10925   */\n      swap3\n      pop\n        /* \"#utility.yul\":10944:10945   */\n      dup3\n        /* \"#utility.yul\":10934:10969   */\n      tag_257\n      jumpi\n        /* \"#utility.yul\":10949:10967   */\n      tag_258\n      tag_142\n      jump\t// in\n    tag_258:\n        /* \"#utility.yul\":10934:10969   */\n    tag_257:\n        /* \"#utility.yul\":10990:10991   */\n      dup3\n        /* \"#utility.yul\":10987:10988   */\n      dup3\n        /* \"#utility.yul\":10983:10992   */\n      mod\n        /* \"#utility.yul\":10978:10992   */\n      swap1\n      pop\n        /* \"#utility.yul\":10822:10998   */\n      swap3\n      swap2\n      pop\n      pop\n      jump\t// out\n        /* \"#utility.yul\":11004:11185   */\n    tag_151:\n        /* \"#utility.yul\":11144:11177   */\n      0x4465706f736974206d7573742062652067726561746572207468616e20302e00\n        /* \"#utility.yul\":11140:11141   */\n      0x00\n        /* \"#utility.yul\":11132:11138   */\n      dup3\n        /* \"#utility.yul\":11128:11142   */\n      add\n        /* \"#utility.yul\":11121:11178   */\n      mstore\n        /* \"#utility.yul\":11004:11185   */\n      pop\n      jump\t// out\n        /* \"#utility.yul\":11191:11557   */\n    tag_152:\n        /* \"#utility.yul\":11333:11336   */\n      0x00\n        /* \"#utility.yul\":11354:11421   */\n      tag_261\n        /* \"#utility.yul\":11418:11420   */\n      0x1f\n        /* \"#utility.yul\":11413:11416   */\n      dup4\n        /* \"#utility.yul\":11354:11421   */\n      tag_129\n      jump\t// in\n    tag_261:\n        /* \"#utility.yul\":11347:11421   */\n      swap2\n      pop\n        /* \"#utility.yul\":11430:11523   */\n      tag_262\n        /* \"#utility.yul\":11519:11522   */\n      dup3\n        /* \"#utility.yul\":11430:11523   */\n      tag_151\n      jump\t// in\n    tag_262:\n        /* \"#utility.yul\":11548:11550   */\n      0x20\n        /* \"#utility.yul\":11543:11546   */\n      dup3\n        /* \"#utility.yul\":11539:11551   */\n      add\n        /* \"#utility.yul\":11532:11551   */\n      swap1\n      pop\n        /* \"#utility.yul\":11191:11557   */\n      swap2\n      swap1\n      pop\n      jump\t// out\n        /* \"#utility.yul\":11563:11982   */\n    tag_117:\n        /* \"#utility.yul\":11729:11733   */\n      0x00\n        /* \"#utility.yul\":11767:11769   */\n      0x20\n        /* \"#utility.yul\":11756:11765   */\n      dup3\n        /* \"#utility.yul\":11752:11770   */\n      add\n        /* \"#utility.yul\":11744:11770   */\n      swap1\n      pop\n        /* \"#utility.yul\":11816:11825   */\n      dup2\n        /* \"#utility.yul\":11810:11814   */\n      dup2\n        /* \"#utility.yul\":11806:11826   */\n      sub\n        /* \"#utility.yul\":11802:11803   */\n      0x00\n        /* \"#utility.yul\":11791:11800   */\n      dup4\n        /* \"#utility.yul\":11787:11804   */\n      add\n        /* \"#utility.yul\":11780:11827   */\n      mstore\n        /* \"#utility.yul\":11844:11975   */\n      tag_264\n        /* \"#utility.yul\":11970:11974   */\n      dup2\n        /* \"#utility.yul\":11844:11975   */\n      tag_152\n      jump\t// in\n    tag_264:\n        /* \"#utility.yul\":11836:11975   */\n      swap1\n      pop\n        /* \"#utility.yul\":11563:11982   */\n      swap2\n      swap1\n      pop\n      jump\t// out\n\n    auxdata: 0xa26469706673582212201709987ef9c5e45f4508b5f7cafc21278f704e2b20e78321bad5723e84551f8764736f6c63430008110033\n}\n",
				"bytecode": {
					"linkReferences": {},
					"object": "608060405260008060146101000a81548160ff0219169083151502179055506000600455336000806101000a81548173ffffffffffffffffffffffffffffffffffffffff021916908373ffffffffffffffffffffffffffffffffffffffff16021790555060003411620000a9576040517f08c379a0000000000000000000000000000000000000000000000000000000008152600401620000a090620001ca565b60405180910390fd5b33600360006101000a81548173ffffffffffffffffffffffffffffffffffffffff021916908373ffffffffffffffffffffffffffffffffffffffff1602179055506001600a42600360009054906101000a900473ffffffffffffffffffffffffffffffffffffffff16604051602001620001259291906200029f565b6040516020818303038152906040528051906020012060001c6200014a9190620002fe565b62000156919062000365565b60018190555034600281905550620003a0565b600082825260208201905092915050565b7f496e73756666696369656e742072657761726420616d6f756e742e0000000000600082015250565b6000620001b2601b8362000169565b9150620001bf826200017a565b602082019050919050565b60006020820190508181036000830152620001e581620001a3565b9050919050565b6000819050919050565b6000819050919050565b620002156200020f82620001ec565b620001f6565b82525050565b600073ffffffffffffffffffffffffffffffffffffffff82169050919050565b600062000248826200021b565b9050919050565b60008160601b9050919050565b600062000269826200024f565b9050919050565b60006200027d826200025c565b9050919050565b6200029962000293826200023b565b62000270565b82525050565b6000620002ad828562000200565b602082019150620002bf828462000284565b6014820191508190509392505050565b7f4e487b7100000000000000000000000000000000000000000000000000000000600052601260045260246000fd5b60006200030b82620001ec565b91506200031883620001ec565b9250826200032b576200032a620002cf565b5b828206905092915050565b7f4e487b7100000000000000000000000000000000000000000000000000000000600052601160045260246000fd5b60006200037282620001ec565b91506200037f83620001ec565b92508282019050808211156200039a576200039962000336565b5b92915050565b610f2c80620003b06000396000f3fe6080604052600436106100915760003560e01c806389fe3d451161005957806389fe3d45146101455780638b7afe2e146101705780639189fec11461019b578063c36604ed146101c4578063d0e30db0146101ef57610091565b806312065fe0146100965780631385d24c146100c15780633ccfd60b146100d857806348db5f89146100ef578063893d20e81461011a575b600080fd5b3480156100a257600080fd5b506100ab6101f9565b6040516100b891906108ab565b60405180910390f35b3480156100cd57600080fd5b506100d6610201565b005b3480156100e457600080fd5b506100ed6102bb565b005b3480156100fb57600080fd5b5061010461042f565b6040516101119190610907565b60405180910390f35b34801561012657600080fd5b5061012f610455565b60405161013c9190610907565b60405180910390f35b34801561015157600080fd5b5061015a61047e565b60405161016791906108ab565b60405180910390f35b34801561017c57600080fd5b50610185610484565b60405161019291906108ab565b60405180910390f35b3480156101a757600080fd5b506101c260048036038101906101bd9190610953565b61048a565b005b3480156101d057600080fd5b506101d9610786565b6040516101e691906108ab565b60405180910390f35b6101f761078c565b005b600047905090565b60008054906101000a900473ffffffffffffffffffffffffffffffffffffffff1673ffffffffffffffffffffffffffffffffffffffff163373ffffffffffffffffffffffffffffffffffffffff161461028f576040517f08c379a0000000000000000000000000000000000000000000000000000000008152600401610286906109dd565b60405180910390fd5b600060149054906101000a900460ff1615600060146101000a81548160ff021916908315150217905550565b60008054906101000a900473ffffffffffffffffffffffffffffffffffffffff1673ffffffffffffffffffffffffffffffffffffffff163373ffffffffffffffffffffffffffffffffffffffff1614610349576040517f08c379a0000000000000000000000000000000000000000000000000000000008152600401610340906109dd565b60405180910390fd5b600060149054906101000a900460ff161561036357600080fd5b60003373ffffffffffffffffffffffffffffffffffffffff166004544761038a9190610a2c565b60405161039690610a91565b60006040518083038185875af1925050503d80600081146103d3576040519150601f19603f3d011682016040523d82523d6000602084013e6103d8565b606091505b505090508061041c576040517f08c379a000000000000000000000000000000000000000000000000000000000815260040161041390610af2565b60405180910390fd5b6000600281905550600060048190555050565b600360009054906101000a900473ffffffffffffffffffffffffffffffffffffffff1681565b60008060009054906101000a900473ffffffffffffffffffffffffffffffffffffffff16905090565b60045481565b60025481565b600360009054906101000a900473ffffffffffffffffffffffffffffffffffffffff1673ffffffffffffffffffffffffffffffffffffffff163373ffffffffffffffffffffffffffffffffffffffff161461051a576040517f08c379a000000000000000000000000000000000000000000000000000000000815260040161051190610b84565b60405180910390fd5b6001811015801561052c5750600a8111155b61056b576040517f08c379a000000000000000000000000000000000000000000000000000000000815260040161056290610c16565b60405180910390fd5b6001548103610681576000606460146002546105879190610c36565b6105919190610ca7565b905080600260008282546105a59190610a2c565b925050819055506000600360009054906101000a900473ffffffffffffffffffffffffffffffffffffffff1673ffffffffffffffffffffffffffffffffffffffff16826040516105f490610a91565b60006040518083038185875af1925050503d8060008114610631576040519150601f19603f3d011682016040523d82523d6000602084013e610636565b606091505b505090508061067a576040517f08c379a000000000000000000000000000000000000000000000000000000000815260040161067190610af2565b60405180910390fd5b5050610717565b6000606460196002546106949190610c36565b61069e9190610ca7565b905080600460008282546106b29190610cd8565b92505081905550804710156106fc576040517f08c379a00000000000000000000000000000000000000000000000000000000081526004016106f390610da4565b60405180910390fd5b806002600082825461070e9190610cd8565b92505081905550505b6001600a42600360009054906101000a900473ffffffffffffffffffffffffffffffffffffffff16604051602001610750929190610e2d565b6040516020818303038152906040528051906020012060001c6107739190610e59565b61077d9190610cd8565b60018190555050565b60015481565b60008054906101000a900473ffffffffffffffffffffffffffffffffffffffff1673ffffffffffffffffffffffffffffffffffffffff163373ffffffffffffffffffffffffffffffffffffffff161461081a576040517f08c379a0000000000000000000000000000000000000000000000000000000008152600401610811906109dd565b60405180910390fd5b600060149054906101000a900460ff161561083457600080fd5b60003411610877576040517f08c379a000000000000000000000000000000000000000000000000000000000815260040161086e90610ed6565b60405180910390fd5b34600260008282546108899190610cd8565b92505081905550565b6000819050919050565b6108a581610892565b82525050565b60006020820190506108c0600083018461089c565b92915050565b600073ffffffffffffffffffffffffffffffffffffffff82169050919050565b60006108f1826108c6565b9050919050565b610901816108e6565b82525050565b600060208201905061091c60008301846108f8565b92915050565b600080fd5b61093081610892565b811461093b57600080fd5b50565b60008135905061094d81610927565b92915050565b60006020828403121561096957610968610922565b5b60006109778482850161093e565b91505092915050565b600082825260208201905092915050565b7f55736572206973206e6f742074686520636f6e7472616374206f776e65722e00600082015250565b60006109c7601f83610980565b91506109d282610991565b602082019050919050565b600060208201905081810360008301526109f6816109ba565b9050919050565b7f4e487b7100000000000000000000000000000000000000000000000000000000600052601160045260246000fd5b6000610a3782610892565b9150610a4283610892565b9250828203905081811115610a5a57610a596109fd565b5b92915050565b600081905092915050565b50565b6000610a7b600083610a60565b9150610a8682610a6b565b600082019050919050565b6000610a9c82610a6e565b9150819050919050565b7f5472616e73666572206661696c65642e204465706f736974206e65656465642e600082015250565b6000610adc602083610980565b9150610ae782610aa6565b602082019050919050565b60006020820190508181036000830152610b0b81610acf565b9050919050565b7f4f6e6c792074686520706c617965722063616e206d616b65206120677565737360008201527f2e00000000000000000000000000000000000000000000000000000000000000602082015250565b6000610b6e602183610980565b9150610b7982610b12565b604082019050919050565b60006020820190508181036000830152610b9d81610b61565b9050919050565b7f4775657373206d7573742062652077697468696e2072616e6765206f6620312060008201527f746f2031302e0000000000000000000000000000000000000000000000000000602082015250565b6000610c00602683610980565b9150610c0b82610ba4565b604082019050919050565b60006020820190508181036000830152610c2f81610bf3565b9050919050565b6000610c4182610892565b9150610c4c83610892565b9250828202610c5a81610892565b91508282048414831517610c7157610c706109fd565b5b5092915050565b7f4e487b7100000000000000000000000000000000000000000000000000000000600052601260045260246000fd5b6000610cb282610892565b9150610cbd83610892565b925082610ccd57610ccc610c78565b5b828204905092915050565b6000610ce382610892565b9150610cee83610892565b9250828201905080821115610d0657610d056109fd565b5b92915050565b7f436f6e74726163742062616c616e6365206d757374206265206772656174657260008201527f207468616e206f7220657175616c20746f2070756e697368416d6f756e742e2060208201527f4465706f736974206e65656465642e0000000000000000000000000000000000604082015250565b6000610d8e604f83610980565b9150610d9982610d0c565b606082019050919050565b60006020820190508181036000830152610dbd81610d81565b9050919050565b6000819050919050565b610ddf610dda82610892565b610dc4565b82525050565b60008160601b9050919050565b6000610dfd82610de5565b9050919050565b6000610e0f82610df2565b9050919050565b610e27610e22826108e6565b610e04565b82525050565b6000610e398285610dce565b602082019150610e498284610e16565b6014820191508190509392505050565b6000610e6482610892565b9150610e6f83610892565b925082610e7f57610e7e610c78565b5b828206905092915050565b7f4465706f736974206d7573742062652067726561746572207468616e20302e00600082015250565b6000610ec0601f83610980565b9150610ecb82610e8a565b602082019050919050565b60006020820190508181036000830152610eef81610eb3565b905091905056fea26469706673582212201709987ef9c5e45f4508b5f7cafc21278f704e2b20e78321bad5723e84551f8764736f6c63430008110033",
					"opcodes": "PUSH1 0x80 PUSH1 0x40 MSTORE PUSH1 0x0 DUP1 PUSH1 0x14 PUSH2 0x100 EXP DUP2 SLOAD DUP2 PUSH1 0xFF MUL NOT AND SWAP1 DUP4 ISZERO ISZERO MUL OR SWAP1 SSTORE POP PUSH1 0x0 PUSH1 0x4 SSTORE CALLER PUSH1 0x0 DUP1 PUSH2 0x100 EXP DUP2 SLOAD DUP2 PUSH20 0xFFFFFFFFFFFFFFFFFFFFFFFFFFFFFFFFFFFFFFFF MUL NOT AND SWAP1 DUP4 PUSH20 0xFFFFFFFFFFFFFFFFFFFFFFFFFFFFFFFFFFFFFFFF AND MUL OR SWAP1 SSTORE POP PUSH1 0x0 CALLVALUE GT PUSH3 0xA9 JUMPI PUSH1 0x40 MLOAD PUSH32 0x8C379A000000000000000000000000000000000000000000000000000000000 DUP2 MSTORE PUSH1 0x4 ADD PUSH3 0xA0 SWAP1 PUSH3 0x1CA JUMP JUMPDEST PUSH1 0x40 MLOAD DUP1 SWAP2 SUB SWAP1 REVERT JUMPDEST CALLER PUSH1 0x3 PUSH1 0x0 PUSH2 0x100 EXP DUP2 SLOAD DUP2 PUSH20 0xFFFFFFFFFFFFFFFFFFFFFFFFFFFFFFFFFFFFFFFF MUL NOT AND SWAP1 DUP4 PUSH20 0xFFFFFFFFFFFFFFFFFFFFFFFFFFFFFFFFFFFFFFFF AND MUL OR SWAP1 SSTORE POP PUSH1 0x1 PUSH1 0xA TIMESTAMP PUSH1 0x3 PUSH1 0x0 SWAP1 SLOAD SWAP1 PUSH2 0x100 EXP SWAP1 DIV PUSH20 0xFFFFFFFFFFFFFFFFFFFFFFFFFFFFFFFFFFFFFFFF AND PUSH1 0x40 MLOAD PUSH1 0x20 ADD PUSH3 0x125 SWAP3 SWAP2 SWAP1 PUSH3 0x29F JUMP JUMPDEST PUSH1 0x40 MLOAD PUSH1 0x20 DUP2 DUP4 SUB SUB DUP2 MSTORE SWAP1 PUSH1 0x40 MSTORE DUP1 MLOAD SWAP1 PUSH1 0x20 ADD KECCAK256 PUSH1 0x0 SHR PUSH3 0x14A SWAP2 SWAP1 PUSH3 0x2FE JUMP JUMPDEST PUSH3 0x156 SWAP2 SWAP1 PUSH3 0x365 JUMP JUMPDEST PUSH1 0x1 DUP2 SWAP1 SSTORE POP CALLVALUE PUSH1 0x2 DUP2 SWAP1 SSTORE POP PUSH3 0x3A0 JUMP JUMPDEST PUSH1 0x0 DUP3 DUP3 MSTORE PUSH1 0x20 DUP3 ADD SWAP1 POP SWAP3 SWAP2 POP POP JUMP JUMPDEST PUSH32 0x496E73756666696369656E742072657761726420616D6F756E742E0000000000 PUSH1 0x0 DUP3 ADD MSTORE POP JUMP JUMPDEST PUSH1 0x0 PUSH3 0x1B2 PUSH1 0x1B DUP4 PUSH3 0x169 JUMP JUMPDEST SWAP2 POP PUSH3 0x1BF DUP3 PUSH3 0x17A JUMP JUMPDEST PUSH1 0x20 DUP3 ADD SWAP1 POP SWAP2 SWAP1 POP JUMP JUMPDEST PUSH1 0x0 PUSH1 0x20 DUP3 ADD SWAP1 POP DUP2 DUP2 SUB PUSH1 0x0 DUP4 ADD MSTORE PUSH3 0x1E5 DUP2 PUSH3 0x1A3 JUMP JUMPDEST SWAP1 POP SWAP2 SWAP1 POP JUMP JUMPDEST PUSH1 0x0 DUP2 SWAP1 POP SWAP2 SWAP1 POP JUMP JUMPDEST PUSH1 0x0 DUP2 SWAP1 POP SWAP2 SWAP1 POP JUMP JUMPDEST PUSH3 0x215 PUSH3 0x20F DUP3 PUSH3 0x1EC JUMP JUMPDEST PUSH3 0x1F6 JUMP JUMPDEST DUP3 MSTORE POP POP JUMP JUMPDEST PUSH1 0x0 PUSH20 0xFFFFFFFFFFFFFFFFFFFFFFFFFFFFFFFFFFFFFFFF DUP3 AND SWAP1 POP SWAP2 SWAP1 POP JUMP JUMPDEST PUSH1 0x0 PUSH3 0x248 DUP3 PUSH3 0x21B JUMP JUMPDEST SWAP1 POP SWAP2 SWAP1 POP JUMP JUMPDEST PUSH1 0x0 DUP2 PUSH1 0x60 SHL SWAP1 POP SWAP2 SWAP1 POP JUMP JUMPDEST PUSH1 0x0 PUSH3 0x269 DUP3 PUSH3 0x24F JUMP JUMPDEST SWAP1 POP SWAP2 SWAP1 POP JUMP JUMPDEST PUSH1 0x0 PUSH3 0x27D DUP3 PUSH3 0x25C JUMP JUMPDEST SWAP1 POP SWAP2 SWAP1 POP JUMP JUMPDEST PUSH3 0x299 PUSH3 0x293 DUP3 PUSH3 0x23B JUMP JUMPDEST PUSH3 0x270 JUMP JUMPDEST DUP3 MSTORE POP POP JUMP JUMPDEST PUSH1 0x0 PUSH3 0x2AD DUP3 DUP6 PUSH3 0x200 JUMP JUMPDEST PUSH1 0x20 DUP3 ADD SWAP2 POP PUSH3 0x2BF DUP3 DUP5 PUSH3 0x284 JUMP JUMPDEST PUSH1 0x14 DUP3 ADD SWAP2 POP DUP2 SWAP1 POP SWAP4 SWAP3 POP POP POP JUMP JUMPDEST PUSH32 0x4E487B7100000000000000000000000000000000000000000000000000000000 PUSH1 0x0 MSTORE PUSH1 0x12 PUSH1 0x4 MSTORE PUSH1 0x24 PUSH1 0x0 REVERT JUMPDEST PUSH1 0x0 PUSH3 0x30B DUP3 PUSH3 0x1EC JUMP JUMPDEST SWAP2 POP PUSH3 0x318 DUP4 PUSH3 0x1EC JUMP JUMPDEST SWAP3 POP DUP3 PUSH3 0x32B JUMPI PUSH3 0x32A PUSH3 0x2CF JUMP JUMPDEST JUMPDEST DUP3 DUP3 MOD SWAP1 POP SWAP3 SWAP2 POP POP JUMP JUMPDEST PUSH32 0x4E487B7100000000000000000000000000000000000000000000000000000000 PUSH1 0x0 MSTORE PUSH1 0x11 PUSH1 0x4 MSTORE PUSH1 0x24 PUSH1 0x0 REVERT JUMPDEST PUSH1 0x0 PUSH3 0x372 DUP3 PUSH3 0x1EC JUMP JUMPDEST SWAP2 POP PUSH3 0x37F DUP4 PUSH3 0x1EC JUMP JUMPDEST SWAP3 POP DUP3 DUP3 ADD SWAP1 POP DUP1 DUP3 GT ISZERO PUSH3 0x39A JUMPI PUSH3 0x399 PUSH3 0x336 JUMP JUMPDEST JUMPDEST SWAP3 SWAP2 POP POP JUMP JUMPDEST PUSH2 0xF2C DUP1 PUSH3 0x3B0 PUSH1 0x0 CODECOPY PUSH1 0x0 RETURN INVALID PUSH1 0x80 PUSH1 0x40 MSTORE PUSH1 0x4 CALLDATASIZE LT PUSH2 0x91 JUMPI PUSH1 0x0 CALLDATALOAD PUSH1 0xE0 SHR DUP1 PUSH4 0x89FE3D45 GT PUSH2 0x59 JUMPI DUP1 PUSH4 0x89FE3D45 EQ PUSH2 0x145 JUMPI DUP1 PUSH4 0x8B7AFE2E EQ PUSH2 0x170 JUMPI DUP1 PUSH4 0x9189FEC1 EQ PUSH2 0x19B JUMPI DUP1 PUSH4 0xC36604ED EQ PUSH2 0x1C4 JUMPI DUP1 PUSH4 0xD0E30DB0 EQ PUSH2 0x1EF JUMPI PUSH2 0x91 JUMP JUMPDEST DUP1 PUSH4 0x12065FE0 EQ PUSH2 0x96 JUMPI DUP1 PUSH4 0x1385D24C EQ PUSH2 0xC1 JUMPI DUP1 PUSH4 0x3CCFD60B EQ PUSH2 0xD8 JUMPI DUP1 PUSH4 0x48DB5F89 EQ PUSH2 0xEF JUMPI DUP1 PUSH4 0x893D20E8 EQ PUSH2 0x11A JUMPI JUMPDEST PUSH1 0x0 DUP1 REVERT JUMPDEST CALLVALUE DUP1 ISZERO PUSH2 0xA2 JUMPI PUSH1 0x0 DUP1 REVERT JUMPDEST POP PUSH2 0xAB PUSH2 0x1F9 JUMP JUMPDEST PUSH1 0x40 MLOAD PUSH2 0xB8 SWAP2 SWAP1 PUSH2 0x8AB JUMP JUMPDEST PUSH1 0x40 MLOAD DUP1 SWAP2 SUB SWAP1 RETURN JUMPDEST CALLVALUE DUP1 ISZERO PUSH2 0xCD JUMPI PUSH1 0x0 DUP1 REVERT JUMPDEST POP PUSH2 0xD6 PUSH2 0x201 JUMP JUMPDEST STOP JUMPDEST CALLVALUE DUP1 ISZERO PUSH2 0xE4 JUMPI PUSH1 0x0 DUP1 REVERT JUMPDEST POP PUSH2 0xED PUSH2 0x2BB JUMP JUMPDEST STOP JUMPDEST CALLVALUE DUP1 ISZERO PUSH2 0xFB JUMPI PUSH1 0x0 DUP1 REVERT JUMPDEST POP PUSH2 0x104 PUSH2 0x42F JUMP JUMPDEST PUSH1 0x40 MLOAD PUSH2 0x111 SWAP2 SWAP1 PUSH2 0x907 JUMP JUMPDEST PUSH1 0x40 MLOAD DUP1 SWAP2 SUB SWAP1 RETURN JUMPDEST CALLVALUE DUP1 ISZERO PUSH2 0x126 JUMPI PUSH1 0x0 DUP1 REVERT JUMPDEST POP PUSH2 0x12F PUSH2 0x455 JUMP JUMPDEST PUSH1 0x40 MLOAD PUSH2 0x13C SWAP2 SWAP1 PUSH2 0x907 JUMP JUMPDEST PUSH1 0x40 MLOAD DUP1 SWAP2 SUB SWAP1 RETURN JUMPDEST CALLVALUE DUP1 ISZERO PUSH2 0x151 JUMPI PUSH1 0x0 DUP1 REVERT JUMPDEST POP PUSH2 0x15A PUSH2 0x47E JUMP JUMPDEST PUSH1 0x40 MLOAD PUSH2 0x167 SWAP2 SWAP1 PUSH2 0x8AB JUMP JUMPDEST PUSH1 0x40 MLOAD DUP1 SWAP2 SUB SWAP1 RETURN JUMPDEST CALLVALUE DUP1 ISZERO PUSH2 0x17C JUMPI PUSH1 0x0 DUP1 REVERT JUMPDEST POP PUSH2 0x185 PUSH2 0x484 JUMP JUMPDEST PUSH1 0x40 MLOAD PUSH2 0x192 SWAP2 SWAP1 PUSH2 0x8AB JUMP JUMPDEST PUSH1 0x40 MLOAD DUP1 SWAP2 SUB SWAP1 RETURN JUMPDEST CALLVALUE DUP1 ISZERO PUSH2 0x1A7 JUMPI PUSH1 0x0 DUP1 REVERT JUMPDEST POP PUSH2 0x1C2 PUSH1 0x4 DUP1 CALLDATASIZE SUB DUP2 ADD SWAP1 PUSH2 0x1BD SWAP2 SWAP1 PUSH2 0x953 JUMP JUMPDEST PUSH2 0x48A JUMP JUMPDEST STOP JUMPDEST CALLVALUE DUP1 ISZERO PUSH2 0x1D0 JUMPI PUSH1 0x0 DUP1 REVERT JUMPDEST POP PUSH2 0x1D9 PUSH2 0x786 JUMP JUMPDEST PUSH1 0x40 MLOAD PUSH2 0x1E6 SWAP2 SWAP1 PUSH2 0x8AB JUMP JUMPDEST PUSH1 0x40 MLOAD DUP1 SWAP2 SUB SWAP1 RETURN JUMPDEST PUSH2 0x1F7 PUSH2 0x78C JUMP JUMPDEST STOP JUMPDEST PUSH1 0x0 SELFBALANCE SWAP1 POP SWAP1 JUMP JUMPDEST PUSH1 0x0 DUP1 SLOAD SWAP1 PUSH2 0x100 EXP SWAP1 DIV PUSH20 0xFFFFFFFFFFFFFFFFFFFFFFFFFFFFFFFFFFFFFFFF AND PUSH20 0xFFFFFFFFFFFFFFFFFFFFFFFFFFFFFFFFFFFFFFFF AND CALLER PUSH20 0xFFFFFFFFFFFFFFFFFFFFFFFFFFFFFFFFFFFFFFFF AND EQ PUSH2 0x28F JUMPI PUSH1 0x40 MLOAD PUSH32 0x8C379A000000000000000000000000000000000000000000000000000000000 DUP2 MSTORE PUSH1 0x4 ADD PUSH2 0x286 SWAP1 PUSH2 0x9DD JUMP JUMPDEST PUSH1 0x40 MLOAD DUP1 SWAP2 SUB SWAP1 REVERT JUMPDEST PUSH1 0x0 PUSH1 0x14 SWAP1 SLOAD SWAP1 PUSH2 0x100 EXP SWAP1 DIV PUSH1 0xFF AND ISZERO PUSH1 0x0 PUSH1 0x14 PUSH2 0x100 EXP DUP2 SLOAD DUP2 PUSH1 0xFF MUL NOT AND SWAP1 DUP4 ISZERO ISZERO MUL OR SWAP1 SSTORE POP JUMP JUMPDEST PUSH1 0x0 DUP1 SLOAD SWAP1 PUSH2 0x100 EXP SWAP1 DIV PUSH20 0xFFFFFFFFFFFFFFFFFFFFFFFFFFFFFFFFFFFFFFFF AND PUSH20 0xFFFFFFFFFFFFFFFFFFFFFFFFFFFFFFFFFFFFFFFF AND CALLER PUSH20 0xFFFFFFFFFFFFFFFFFFFFFFFFFFFFFFFFFFFFFFFF AND EQ PUSH2 0x349 JUMPI PUSH1 0x40 MLOAD PUSH32 0x8C379A000000000000000000000000000000000000000000000000000000000 DUP2 MSTORE PUSH1 0x4 ADD PUSH2 0x340 SWAP1 PUSH2 0x9DD JUMP JUMPDEST PUSH1 0x40 MLOAD DUP1 SWAP2 SUB SWAP1 REVERT JUMPDEST PUSH1 0x0 PUSH1 0x14 SWAP1 SLOAD SWAP1 PUSH2 0x100 EXP SWAP1 DIV PUSH1 0xFF AND ISZERO PUSH2 0x363 JUMPI PUSH1 0x0 DUP1 REVERT JUMPDEST PUSH1 0x0 CALLER PUSH20 0xFFFFFFFFFFFFFFFFFFFFFFFFFFFFFFFFFFFFFFFF AND PUSH1 0x4 SLOAD SELFBALANCE PUSH2 0x38A SWAP2 SWAP1 PUSH2 0xA2C JUMP JUMPDEST PUSH1 0x40 MLOAD PUSH2 0x396 SWAP1 PUSH2 0xA91 JUMP JUMPDEST PUSH1 0x0 PUSH1 0x40 MLOAD DUP1 DUP4 SUB DUP2 DUP6 DUP8 GAS CALL SWAP3 POP POP POP RETURNDATASIZE DUP1 PUSH1 0x0 DUP2 EQ PUSH2 0x3D3 JUMPI PUSH1 0x40 MLOAD SWAP2 POP PUSH1 0x1F NOT PUSH1 0x3F RETURNDATASIZE ADD AND DUP3 ADD PUSH1 0x40 MSTORE RETURNDATASIZE DUP3 MSTORE RETURNDATASIZE PUSH1 0x0 PUSH1 0x20 DUP5 ADD RETURNDATACOPY PUSH2 0x3D8 JUMP JUMPDEST PUSH1 0x60 SWAP2 POP JUMPDEST POP POP SWAP1 POP DUP1 PUSH2 0x41C JUMPI PUSH1 0x40 MLOAD PUSH32 0x8C379A000000000000000000000000000000000000000000000000000000000 DUP2 MSTORE PUSH1 0x4 ADD PUSH2 0x413 SWAP1 PUSH2 0xAF2 JUMP JUMPDEST PUSH1 0x40 MLOAD DUP1 SWAP2 SUB SWAP1 REVERT JUMPDEST PUSH1 0x0 PUSH1 0x2 DUP2 SWAP1 SSTORE POP PUSH1 0x0 PUSH1 0x4 DUP2 SWAP1 SSTORE POP POP JUMP JUMPDEST PUSH1 0x3 PUSH1 0x0 SWAP1 SLOAD SWAP1 PUSH2 0x100 EXP SWAP1 DIV PUSH20 0xFFFFFFFFFFFFFFFFFFFFFFFFFFFFFFFFFFFFFFFF AND DUP2 JUMP JUMPDEST PUSH1 0x0 DUP1 PUSH1 0x0 SWAP1 SLOAD SWAP1 PUSH2 0x100 EXP SWAP1 DIV PUSH20 0xFFFFFFFFFFFFFFFFFFFFFFFFFFFFFFFFFFFFFFFF AND SWAP1 POP SWAP1 JUMP JUMPDEST PUSH1 0x4 SLOAD DUP2 JUMP JUMPDEST PUSH1 0x2 SLOAD DUP2 JUMP JUMPDEST PUSH1 0x3 PUSH1 0x0 SWAP1 SLOAD SWAP1 PUSH2 0x100 EXP SWAP1 DIV PUSH20 0xFFFFFFFFFFFFFFFFFFFFFFFFFFFFFFFFFFFFFFFF AND PUSH20 0xFFFFFFFFFFFFFFFFFFFFFFFFFFFFFFFFFFFFFFFF AND CALLER PUSH20 0xFFFFFFFFFFFFFFFFFFFFFFFFFFFFFFFFFFFFFFFF AND EQ PUSH2 0x51A JUMPI PUSH1 0x40 MLOAD PUSH32 0x8C379A000000000000000000000000000000000000000000000000000000000 DUP2 MSTORE PUSH1 0x4 ADD PUSH2 0x511 SWAP1 PUSH2 0xB84 JUMP JUMPDEST PUSH1 0x40 MLOAD DUP1 SWAP2 SUB SWAP1 REVERT JUMPDEST PUSH1 0x1 DUP2 LT ISZERO DUP1 ISZERO PUSH2 0x52C JUMPI POP PUSH1 0xA DUP2 GT ISZERO JUMPDEST PUSH2 0x56B JUMPI PUSH1 0x40 MLOAD PUSH32 0x8C379A000000000000000000000000000000000000000000000000000000000 DUP2 MSTORE PUSH1 0x4 ADD PUSH2 0x562 SWAP1 PUSH2 0xC16 JUMP JUMPDEST PUSH1 0x40 MLOAD DUP1 SWAP2 SUB SWAP1 REVERT JUMPDEST PUSH1 0x1 SLOAD DUP2 SUB PUSH2 0x681 JUMPI PUSH1 0x0 PUSH1 0x64 PUSH1 0x14 PUSH1 0x2 SLOAD PUSH2 0x587 SWAP2 SWAP1 PUSH2 0xC36 JUMP JUMPDEST PUSH2 0x591 SWAP2 SWAP1 PUSH2 0xCA7 JUMP JUMPDEST SWAP1 POP DUP1 PUSH1 0x2 PUSH1 0x0 DUP3 DUP3 SLOAD PUSH2 0x5A5 SWAP2 SWAP1 PUSH2 0xA2C JUMP JUMPDEST SWAP3 POP POP DUP2 SWAP1 SSTORE POP PUSH1 0x0 PUSH1 0x3 PUSH1 0x0 SWAP1 SLOAD SWAP1 PUSH2 0x100 EXP SWAP1 DIV PUSH20 0xFFFFFFFFFFFFFFFFFFFFFFFFFFFFFFFFFFFFFFFF AND PUSH20 0xFFFFFFFFFFFFFFFFFFFFFFFFFFFFFFFFFFFFFFFF AND DUP3 PUSH1 0x40 MLOAD PUSH2 0x5F4 SWAP1 PUSH2 0xA91 JUMP JUMPDEST PUSH1 0x0 PUSH1 0x40 MLOAD DUP1 DUP4 SUB DUP2 DUP6 DUP8 GAS CALL SWAP3 POP POP POP RETURNDATASIZE DUP1 PUSH1 0x0 DUP2 EQ PUSH2 0x631 JUMPI PUSH1 0x40 MLOAD SWAP2 POP PUSH1 0x1F NOT PUSH1 0x3F RETURNDATASIZE ADD AND DUP3 ADD PUSH1 0x40 MSTORE RETURNDATASIZE DUP3 MSTORE RETURNDATASIZE PUSH1 0x0 PUSH1 0x20 DUP5 ADD RETURNDATACOPY PUSH2 0x636 JUMP JUMPDEST PUSH1 0x60 SWAP2 POP JUMPDEST POP POP SWAP1 POP DUP1 PUSH2 0x67A JUMPI PUSH1 0x40 MLOAD PUSH32 0x8C379A000000000000000000000000000000000000000000000000000000000 DUP2 MSTORE PUSH1 0x4 ADD PUSH2 0x671 SWAP1 PUSH2 0xAF2 JUMP JUMPDEST PUSH1 0x40 MLOAD DUP1 SWAP2 SUB SWAP1 REVERT JUMPDEST POP POP PUSH2 0x717 JUMP JUMPDEST PUSH1 0x0 PUSH1 0x64 PUSH1 0x19 PUSH1 0x2 SLOAD PUSH2 0x694 SWAP2 SWAP1 PUSH2 0xC36 JUMP JUMPDEST PUSH2 0x69E SWAP2 SWAP1 PUSH2 0xCA7 JUMP JUMPDEST SWAP1 POP DUP1 PUSH1 0x4 PUSH1 0x0 DUP3 DUP3 SLOAD PUSH2 0x6B2 SWAP2 SWAP1 PUSH2 0xCD8 JUMP JUMPDEST SWAP3 POP POP DUP2 SWAP1 SSTORE POP DUP1 SELFBALANCE LT ISZERO PUSH2 0x6FC JUMPI PUSH1 0x40 MLOAD PUSH32 0x8C379A000000000000000000000000000000000000000000000000000000000 DUP2 MSTORE PUSH1 0x4 ADD PUSH2 0x6F3 SWAP1 PUSH2 0xDA4 JUMP JUMPDEST PUSH1 0x40 MLOAD DUP1 SWAP2 SUB SWAP1 REVERT JUMPDEST DUP1 PUSH1 0x2 PUSH1 0x0 DUP3 DUP3 SLOAD PUSH2 0x70E SWAP2 SWAP1 PUSH2 0xCD8 JUMP JUMPDEST SWAP3 POP POP DUP2 SWAP1 SSTORE POP POP JUMPDEST PUSH1 0x1 PUSH1 0xA TIMESTAMP PUSH1 0x3 PUSH1 0x0 SWAP1 SLOAD SWAP1 PUSH2 0x100 EXP SWAP1 DIV PUSH20 0xFFFFFFFFFFFFFFFFFFFFFFFFFFFFFFFFFFFFFFFF AND PUSH1 0x40 MLOAD PUSH1 0x20 ADD PUSH2 0x750 SWAP3 SWAP2 SWAP1 PUSH2 0xE2D JUMP JUMPDEST PUSH1 0x40 MLOAD PUSH1 0x20 DUP2 DUP4 SUB SUB DUP2 MSTORE SWAP1 PUSH1 0x40 MSTORE DUP1 MLOAD SWAP1 PUSH1 0x20 ADD KECCAK256 PUSH1 0x0 SHR PUSH2 0x773 SWAP2 SWAP1 PUSH2 0xE59 JUMP JUMPDEST PUSH2 0x77D SWAP2 SWAP1 PUSH2 0xCD8 JUMP JUMPDEST PUSH1 0x1 DUP2 SWAP1 SSTORE POP POP JUMP JUMPDEST PUSH1 0x1 SLOAD DUP2 JUMP JUMPDEST PUSH1 0x0 DUP1 SLOAD SWAP1 PUSH2 0x100 EXP SWAP1 DIV PUSH20 0xFFFFFFFFFFFFFFFFFFFFFFFFFFFFFFFFFFFFFFFF AND PUSH20 0xFFFFFFFFFFFFFFFFFFFFFFFFFFFFFFFFFFFFFFFF AND CALLER PUSH20 0xFFFFFFFFFFFFFFFFFFFFFFFFFFFFFFFFFFFFFFFF AND EQ PUSH2 0x81A JUMPI PUSH1 0x40 MLOAD PUSH32 0x8C379A000000000000000000000000000000000000000000000000000000000 DUP2 MSTORE PUSH1 0x4 ADD PUSH2 0x811 SWAP1 PUSH2 0x9DD JUMP JUMPDEST PUSH1 0x40 MLOAD DUP1 SWAP2 SUB SWAP1 REVERT JUMPDEST PUSH1 0x0 PUSH1 0x14 SWAP1 SLOAD SWAP1 PUSH2 0x100 EXP SWAP1 DIV PUSH1 0xFF AND ISZERO PUSH2 0x834 JUMPI PUSH1 0x0 DUP1 REVERT JUMPDEST PUSH1 0x0 CALLVALUE GT PUSH2 0x877 JUMPI PUSH1 0x40 MLOAD PUSH32 0x8C379A000000000000000000000000000000000000000000000000000000000 DUP2 MSTORE PUSH1 0x4 ADD PUSH2 0x86E SWAP1 PUSH2 0xED6 JUMP JUMPDEST PUSH1 0x40 MLOAD DUP1 SWAP2 SUB SWAP1 REVERT JUMPDEST CALLVALUE PUSH1 0x2 PUSH1 0x0 DUP3 DUP3 SLOAD PUSH2 0x889 SWAP2 SWAP1 PUSH2 0xCD8 JUMP JUMPDEST SWAP3 POP POP DUP2 SWAP1 SSTORE POP JUMP JUMPDEST PUSH1 0x0 DUP2 SWAP1 POP SWAP2 SWAP1 POP JUMP JUMPDEST PUSH2 0x8A5 DUP2 PUSH2 0x892 JUMP JUMPDEST DUP3 MSTORE POP POP JUMP JUMPDEST PUSH1 0x0 PUSH1 0x20 DUP3 ADD SWAP1 POP PUSH2 0x8C0 PUSH1 0x0 DUP4 ADD DUP5 PUSH2 0x89C JUMP JUMPDEST SWAP3 SWAP2 POP POP JUMP JUMPDEST PUSH1 0x0 PUSH20 0xFFFFFFFFFFFFFFFFFFFFFFFFFFFFFFFFFFFFFFFF DUP3 AND SWAP1 POP SWAP2 SWAP1 POP JUMP JUMPDEST PUSH1 0x0 PUSH2 0x8F1 DUP3 PUSH2 0x8C6 JUMP JUMPDEST SWAP1 POP SWAP2 SWAP1 POP JUMP JUMPDEST PUSH2 0x901 DUP2 PUSH2 0x8E6 JUMP JUMPDEST DUP3 MSTORE POP POP JUMP JUMPDEST PUSH1 0x0 PUSH1 0x20 DUP3 ADD SWAP1 POP PUSH2 0x91C PUSH1 0x0 DUP4 ADD DUP5 PUSH2 0x8F8 JUMP JUMPDEST SWAP3 SWAP2 POP POP JUMP JUMPDEST PUSH1 0x0 DUP1 REVERT JUMPDEST PUSH2 0x930 DUP2 PUSH2 0x892 JUMP JUMPDEST DUP2 EQ PUSH2 0x93B JUMPI PUSH1 0x0 DUP1 REVERT JUMPDEST POP JUMP JUMPDEST PUSH1 0x0 DUP2 CALLDATALOAD SWAP1 POP PUSH2 0x94D DUP2 PUSH2 0x927 JUMP JUMPDEST SWAP3 SWAP2 POP POP JUMP JUMPDEST PUSH1 0x0 PUSH1 0x20 DUP3 DUP5 SUB SLT ISZERO PUSH2 0x969 JUMPI PUSH2 0x968 PUSH2 0x922 JUMP JUMPDEST JUMPDEST PUSH1 0x0 PUSH2 0x977 DUP5 DUP3 DUP6 ADD PUSH2 0x93E JUMP JUMPDEST SWAP2 POP POP SWAP3 SWAP2 POP POP JUMP JUMPDEST PUSH1 0x0 DUP3 DUP3 MSTORE PUSH1 0x20 DUP3 ADD SWAP1 POP SWAP3 SWAP2 POP POP JUMP JUMPDEST PUSH32 0x55736572206973206E6F742074686520636F6E7472616374206F776E65722E00 PUSH1 0x0 DUP3 ADD MSTORE POP JUMP JUMPDEST PUSH1 0x0 PUSH2 0x9C7 PUSH1 0x1F DUP4 PUSH2 0x980 JUMP JUMPDEST SWAP2 POP PUSH2 0x9D2 DUP3 PUSH2 0x991 JUMP JUMPDEST PUSH1 0x20 DUP3 ADD SWAP1 POP SWAP2 SWAP1 POP JUMP JUMPDEST PUSH1 0x0 PUSH1 0x20 DUP3 ADD SWAP1 POP DUP2 DUP2 SUB PUSH1 0x0 DUP4 ADD MSTORE PUSH2 0x9F6 DUP2 PUSH2 0x9BA JUMP JUMPDEST SWAP1 POP SWAP2 SWAP1 POP JUMP JUMPDEST PUSH32 0x4E487B7100000000000000000000000000000000000000000000000000000000 PUSH1 0x0 MSTORE PUSH1 0x11 PUSH1 0x4 MSTORE PUSH1 0x24 PUSH1 0x0 REVERT JUMPDEST PUSH1 0x0 PUSH2 0xA37 DUP3 PUSH2 0x892 JUMP JUMPDEST SWAP2 POP PUSH2 0xA42 DUP4 PUSH2 0x892 JUMP JUMPDEST SWAP3 POP DUP3 DUP3 SUB SWAP1 POP DUP2 DUP2 GT ISZERO PUSH2 0xA5A JUMPI PUSH2 0xA59 PUSH2 0x9FD JUMP JUMPDEST JUMPDEST SWAP3 SWAP2 POP POP JUMP JUMPDEST PUSH1 0x0 DUP2 SWAP1 POP SWAP3 SWAP2 POP POP JUMP JUMPDEST POP JUMP JUMPDEST PUSH1 0x0 PUSH2 0xA7B PUSH1 0x0 DUP4 PUSH2 0xA60 JUMP JUMPDEST SWAP2 POP PUSH2 0xA86 DUP3 PUSH2 0xA6B JUMP JUMPDEST PUSH1 0x0 DUP3 ADD SWAP1 POP SWAP2 SWAP1 POP JUMP JUMPDEST PUSH1 0x0 PUSH2 0xA9C DUP3 PUSH2 0xA6E JUMP JUMPDEST SWAP2 POP DUP2 SWAP1 POP SWAP2 SWAP1 POP JUMP JUMPDEST PUSH32 0x5472616E73666572206661696C65642E204465706F736974206E65656465642E PUSH1 0x0 DUP3 ADD MSTORE POP JUMP JUMPDEST PUSH1 0x0 PUSH2 0xADC PUSH1 0x20 DUP4 PUSH2 0x980 JUMP JUMPDEST SWAP2 POP PUSH2 0xAE7 DUP3 PUSH2 0xAA6 JUMP JUMPDEST PUSH1 0x20 DUP3 ADD SWAP1 POP SWAP2 SWAP1 POP JUMP JUMPDEST PUSH1 0x0 PUSH1 0x20 DUP3 ADD SWAP1 POP DUP2 DUP2 SUB PUSH1 0x0 DUP4 ADD MSTORE PUSH2 0xB0B DUP2 PUSH2 0xACF JUMP JUMPDEST SWAP1 POP SWAP2 SWAP1 POP JUMP JUMPDEST PUSH32 0x4F6E6C792074686520706C617965722063616E206D616B652061206775657373 PUSH1 0x0 DUP3 ADD MSTORE PUSH32 0x2E00000000000000000000000000000000000000000000000000000000000000 PUSH1 0x20 DUP3 ADD MSTORE POP JUMP JUMPDEST PUSH1 0x0 PUSH2 0xB6E PUSH1 0x21 DUP4 PUSH2 0x980 JUMP JUMPDEST SWAP2 POP PUSH2 0xB79 DUP3 PUSH2 0xB12 JUMP JUMPDEST PUSH1 0x40 DUP3 ADD SWAP1 POP SWAP2 SWAP1 POP JUMP JUMPDEST PUSH1 0x0 PUSH1 0x20 DUP3 ADD SWAP1 POP DUP2 DUP2 SUB PUSH1 0x0 DUP4 ADD MSTORE PUSH2 0xB9D DUP2 PUSH2 0xB61 JUMP JUMPDEST SWAP1 POP SWAP2 SWAP1 POP JUMP JUMPDEST PUSH32 0x4775657373206D7573742062652077697468696E2072616E6765206F66203120 PUSH1 0x0 DUP3 ADD MSTORE PUSH32 0x746F2031302E0000000000000000000000000000000000000000000000000000 PUSH1 0x20 DUP3 ADD MSTORE POP JUMP JUMPDEST PUSH1 0x0 PUSH2 0xC00 PUSH1 0x26 DUP4 PUSH2 0x980 JUMP JUMPDEST SWAP2 POP PUSH2 0xC0B DUP3 PUSH2 0xBA4 JUMP JUMPDEST PUSH1 0x40 DUP3 ADD SWAP1 POP SWAP2 SWAP1 POP JUMP JUMPDEST PUSH1 0x0 PUSH1 0x20 DUP3 ADD SWAP1 POP DUP2 DUP2 SUB PUSH1 0x0 DUP4 ADD MSTORE PUSH2 0xC2F DUP2 PUSH2 0xBF3 JUMP JUMPDEST SWAP1 POP SWAP2 SWAP1 POP JUMP JUMPDEST PUSH1 0x0 PUSH2 0xC41 DUP3 PUSH2 0x892 JUMP JUMPDEST SWAP2 POP PUSH2 0xC4C DUP4 PUSH2 0x892 JUMP JUMPDEST SWAP3 POP DUP3 DUP3 MUL PUSH2 0xC5A DUP2 PUSH2 0x892 JUMP JUMPDEST SWAP2 POP DUP3 DUP3 DIV DUP5 EQ DUP4 ISZERO OR PUSH2 0xC71 JUMPI PUSH2 0xC70 PUSH2 0x9FD JUMP JUMPDEST JUMPDEST POP SWAP3 SWAP2 POP POP JUMP JUMPDEST PUSH32 0x4E487B7100000000000000000000000000000000000000000000000000000000 PUSH1 0x0 MSTORE PUSH1 0x12 PUSH1 0x4 MSTORE PUSH1 0x24 PUSH1 0x0 REVERT JUMPDEST PUSH1 0x0 PUSH2 0xCB2 DUP3 PUSH2 0x892 JUMP JUMPDEST SWAP2 POP PUSH2 0xCBD DUP4 PUSH2 0x892 JUMP JUMPDEST SWAP3 POP DUP3 PUSH2 0xCCD JUMPI PUSH2 0xCCC PUSH2 0xC78 JUMP JUMPDEST JUMPDEST DUP3 DUP3 DIV SWAP1 POP SWAP3 SWAP2 POP POP JUMP JUMPDEST PUSH1 0x0 PUSH2 0xCE3 DUP3 PUSH2 0x892 JUMP JUMPDEST SWAP2 POP PUSH2 0xCEE DUP4 PUSH2 0x892 JUMP JUMPDEST SWAP3 POP DUP3 DUP3 ADD SWAP1 POP DUP1 DUP3 GT ISZERO PUSH2 0xD06 JUMPI PUSH2 0xD05 PUSH2 0x9FD JUMP JUMPDEST JUMPDEST SWAP3 SWAP2 POP POP JUMP JUMPDEST PUSH32 0x436F6E74726163742062616C616E6365206D7573742062652067726561746572 PUSH1 0x0 DUP3 ADD MSTORE PUSH32 0x207468616E206F7220657175616C20746F2070756E697368416D6F756E742E20 PUSH1 0x20 DUP3 ADD MSTORE PUSH32 0x4465706F736974206E65656465642E0000000000000000000000000000000000 PUSH1 0x40 DUP3 ADD MSTORE POP JUMP JUMPDEST PUSH1 0x0 PUSH2 0xD8E PUSH1 0x4F DUP4 PUSH2 0x980 JUMP JUMPDEST SWAP2 POP PUSH2 0xD99 DUP3 PUSH2 0xD0C JUMP JUMPDEST PUSH1 0x60 DUP3 ADD SWAP1 POP SWAP2 SWAP1 POP JUMP JUMPDEST PUSH1 0x0 PUSH1 0x20 DUP3 ADD SWAP1 POP DUP2 DUP2 SUB PUSH1 0x0 DUP4 ADD MSTORE PUSH2 0xDBD DUP2 PUSH2 0xD81 JUMP JUMPDEST SWAP1 POP SWAP2 SWAP1 POP JUMP JUMPDEST PUSH1 0x0 DUP2 SWAP1 POP SWAP2 SWAP1 POP JUMP JUMPDEST PUSH2 0xDDF PUSH2 0xDDA DUP3 PUSH2 0x892 JUMP JUMPDEST PUSH2 0xDC4 JUMP JUMPDEST DUP3 MSTORE POP POP JUMP JUMPDEST PUSH1 0x0 DUP2 PUSH1 0x60 SHL SWAP1 POP SWAP2 SWAP1 POP JUMP JUMPDEST PUSH1 0x0 PUSH2 0xDFD DUP3 PUSH2 0xDE5 JUMP JUMPDEST SWAP1 POP SWAP2 SWAP1 POP JUMP JUMPDEST PUSH1 0x0 PUSH2 0xE0F DUP3 PUSH2 0xDF2 JUMP JUMPDEST SWAP1 POP SWAP2 SWAP1 POP JUMP JUMPDEST PUSH2 0xE27 PUSH2 0xE22 DUP3 PUSH2 0x8E6 JUMP JUMPDEST PUSH2 0xE04 JUMP JUMPDEST DUP3 MSTORE POP POP JUMP JUMPDEST PUSH1 0x0 PUSH2 0xE39 DUP3 DUP6 PUSH2 0xDCE JUMP JUMPDEST PUSH1 0x20 DUP3 ADD SWAP2 POP PUSH2 0xE49 DUP3 DUP5 PUSH2 0xE16 JUMP JUMPDEST PUSH1 0x14 DUP3 ADD SWAP2 POP DUP2 SWAP1 POP SWAP4 SWAP3 POP POP POP JUMP JUMPDEST PUSH1 0x0 PUSH2 0xE64 DUP3 PUSH2 0x892 JUMP JUMPDEST SWAP2 POP PUSH2 0xE6F DUP4 PUSH2 0x892 JUMP JUMPDEST SWAP3 POP DUP3 PUSH2 0xE7F JUMPI PUSH2 0xE7E PUSH2 0xC78 JUMP JUMPDEST JUMPDEST DUP3 DUP3 MOD SWAP1 POP SWAP3 SWAP2 POP POP JUMP JUMPDEST PUSH32 0x4465706F736974206D7573742062652067726561746572207468616E20302E00 PUSH1 0x0 DUP3 ADD MSTORE POP JUMP JUMPDEST PUSH1 0x0 PUSH2 0xEC0 PUSH1 0x1F DUP4 PUSH2 0x980 JUMP JUMPDEST SWAP2 POP PUSH2 0xECB DUP3 PUSH2 0xE8A JUMP JUMPDEST PUSH1 0x20 DUP3 ADD SWAP1 POP SWAP2 SWAP1 POP JUMP JUMPDEST PUSH1 0x0 PUSH1 0x20 DUP3 ADD SWAP1 POP DUP2 DUP2 SUB PUSH1 0x0 DUP4 ADD MSTORE PUSH2 0xEEF DUP2 PUSH2 0xEB3 JUMP JUMPDEST SWAP1 POP SWAP2 SWAP1 POP JUMP INVALID LOG2 PUSH5 0x6970667358 0x22 SLT KECCAK256 OR MULMOD SWAP9 PUSH31 0xF9C5E45F4508B5F7CAFC21278F704E2B20E78321BAD5723E84551F8764736F PUSH13 0x63430008110033000000000000 "
				},
				"gasEstimates": {
					"creation": {
						"codeDepositCost": "776800",
						"executionCost": "infinite",
						"totalCost": "infinite"
					},
					"external": {
						"contractBalance()": "2451",
						"deposit()": "infinite",
						"getBalance()": "340",
						"getOwner()": "2611",
						"guess(uint256)": "infinite",
						"player()": "2581",
						"punishAmountTotal()": "2429",
						"secretNumber()": "2495",
						"toggleContractActive()": "28840",
						"withdraw()": "infinite"
					}
				},
				"methodIdentifiers": {
					"contractBalance()": "8b7afe2e",
					"deposit()": "d0e30db0",
					"getBalance()": "12065fe0",
					"getOwner()": "893d20e8",
					"guess(uint256)": "9189fec1",
					"player()": "48db5f89",
					"punishAmountTotal()": "89fe3d45",
					"secretNumber()": "c36604ed",
					"toggleContractActive()": "1385d24c",
					"withdraw()": "3ccfd60b"
				}
			},
			"storageLayout": {
				"storage": [
					{
						"astId": 282,
						"contract": "GuessTheNumber/contracts/GuessTheNumber.sol:GuessTheNumber",
						"label": "owner",
						"offset": 0,
						"slot": "0",
						"type": "t_address"
					},
					{
						"astId": 237,
						"contract": "GuessTheNumber/contracts/GuessTheNumber.sol:GuessTheNumber",
						"label": "stopped",
						"offset": 20,
						"slot": "0",
						"type": "t_bool"
					},
					{
						"astId": 15,
						"contract": "GuessTheNumber/contracts/GuessTheNumber.sol:GuessTheNumber",
						"label": "secretNumber",
						"offset": 0,
						"slot": "1",
						"type": "t_uint256"
					},
					{
						"astId": 17,
						"contract": "GuessTheNumber/contracts/GuessTheNumber.sol:GuessTheNumber",
						"label": "contractBalance",
						"offset": 0,
						"slot": "2",
						"type": "t_uint256"
					},
					{
						"astId": 19,
						"contract": "GuessTheNumber/contracts/GuessTheNumber.sol:GuessTheNumber",
						"label": "player",
						"offset": 0,
						"slot": "3",
						"type": "t_address"
					},
					{
						"astId": 22,
						"contract": "GuessTheNumber/contracts/GuessTheNumber.sol:GuessTheNumber",
						"label": "punishAmountTotal",
						"offset": 0,
						"slot": "4",
						"type": "t_uint256"
					}
				],
				"types": {
					"t_address": {
						"encoding": "inplace",
						"label": "address",
						"numberOfBytes": "20"
					},
					"t_bool": {
						"encoding": "inplace",
						"label": "bool",
						"numberOfBytes": "1"
					},
					"t_uint256": {
						"encoding": "inplace",
						"label": "uint256",
						"numberOfBytes": "32"
					}
				}
			},
			"userdoc": {
				"kind": "user",
				"methods": {},
				"version": 1
			}
		}
	}
}