{
  "contractName": "CoinFlip",
  "abi": [
    {
      "inputs": [],
      "stateMutability": "payable",
      "type": "constructor"
    },
    {
      "inputs": [],
      "name": "betFeeETH",
      "outputs": [
        {
          "internalType": "uint256",
          "name": "",
          "type": "uint256"
        }
      ],
      "stateMutability": "view",
      "type": "function"
    },
    {
      "inputs": [
        {
          "internalType": "address",
          "name": "_newOwner",
          "type": "address"
        }
      ],
      "name": "changeOwner",
      "outputs": [],
      "stateMutability": "nonpayable",
      "type": "function"
    },
    {
      "inputs": [],
      "name": "deposit",
      "outputs": [],
      "stateMutability": "payable",
      "type": "function"
    },
    {
      "inputs": [],
      "name": "getBalance",
      "outputs": [
        {
          "internalType": "uint256",
          "name": "",
          "type": "uint256"
        }
      ],
      "stateMutability": "view",
      "type": "function"
    },
    {
      "inputs": [],
      "name": "getOwner",
      "outputs": [
        {
          "internalType": "address",
          "name": "",
          "type": "address"
        }
      ],
      "stateMutability": "view",
      "type": "function"
    },
    {
      "inputs": [],
      "name": "maxBetETH",
      "outputs": [
        {
          "internalType": "uint256",
          "name": "",
          "type": "uint256"
        }
      ],
      "stateMutability": "view",
      "type": "function"
    },
    {
      "inputs": [
        {
          "internalType": "uint256",
          "name": "_newFee",
          "type": "uint256"
        }
      ],
      "name": "setBetFee",
      "outputs": [],
      "stateMutability": "nonpayable",
      "type": "function"
    },
    {
      "inputs": [
        {
          "internalType": "uint256",
          "name": "_newAmount",
          "type": "uint256"
        }
      ],
      "name": "setMaxBet",
      "outputs": [],
      "stateMutability": "nonpayable",
      "type": "function"
    },
    {
      "inputs": [],
      "name": "toggleContractActive",
      "outputs": [],
      "stateMutability": "nonpayable",
      "type": "function"
    },
    {
      "inputs": [],
      "name": "withdraw",
      "outputs": [],
      "stateMutability": "nonpayable",
      "type": "function"
    },
    {
      "inputs": [
        {
          "internalType": "uint8",
          "name": "_userChoice",
          "type": "uint8"
        }
      ],
      "name": "bet",
      "outputs": [],
      "stateMutability": "payable",
      "type": "function"
    }
  ],
  "bytecode": "0x608060405260008060146101000a81548160ff0219169083151502179055506801158e460913d000006001556702c68af0bb1400006002556000600355336000806101000a81548173ffffffffffffffffffffffffffffffffffffffff021916908373ffffffffffffffffffffffffffffffffffffffff1602179055503073ffffffffffffffffffffffffffffffffffffffff166108fc349081150290604051600060405180830381858888f193505050501580156100c2573d6000803e3d6000fd5b5061124a806100d26000396000f3fe60806040526004361061009c5760003560e01c806372229abf1161006457806372229abf14610150578063881eff1e14610179578063893d20e8146101a2578063a6f9dae1146101cd578063d0821b0e146101f6578063d0e30db0146102125761009c565b806312065fe0146100a15780631385d24c146100cc5780633919b197146100e35780633ccfd60b1461010e578063707edec614610125575b600080fd5b3480156100ad57600080fd5b506100b661021c565b6040516100c39190610ab3565b60405180910390f35b3480156100d857600080fd5b506100e1610224565b005b3480156100ef57600080fd5b506100f86102de565b6040516101059190610ab3565b60405180910390f35b34801561011a57600080fd5b506101236102e4565b005b34801561013157600080fd5b5061013a6103d4565b6040516101479190610ab3565b60405180910390f35b34801561015c57600080fd5b5061017760048036038101906101729190610aff565b6103da565b005b34801561018557600080fd5b506101a0600480360381019061019b9190610aff565b61049f565b005b3480156101ae57600080fd5b506101b7610564565b6040516101c49190610b6d565b60405180910390f35b3480156101d957600080fd5b506101f460048036038101906101ef9190610bb4565b61058d565b005b610210600480360381019061020b9190610c1a565b610628565b005b61021a6108fe565b005b600047905090565b60008054906101000a900473ffffffffffffffffffffffffffffffffffffffff1673ffffffffffffffffffffffffffffffffffffffff163373ffffffffffffffffffffffffffffffffffffffff16146102b2576040517f08c379a00000000000000000000000000000000000000000000000000000000081526004016102a990610ca4565b60405180910390fd5b600060149054906101000a900460ff1615600060146101000a81548160ff021916908315150217905550565b60015481565b60008054906101000a900473ffffffffffffffffffffffffffffffffffffffff1673ffffffffffffffffffffffffffffffffffffffff163373ffffffffffffffffffffffffffffffffffffffff1614610372576040517f08c379a000000000000000000000000000000000000000000000000000000000815260040161036990610ca4565b60405180910390fd5b600060149054906101000a900460ff1661038b57600080fd5b3373ffffffffffffffffffffffffffffffffffffffff166108fc479081150290604051600060405180830381858888f193505050501580156103d1573d6000803e3d6000fd5b50565b60025481565b60008054906101000a900473ffffffffffffffffffffffffffffffffffffffff1673ffffffffffffffffffffffffffffffffffffffff163373ffffffffffffffffffffffffffffffffffffffff1614610468576040517f08c379a000000000000000000000000000000000000000000000000000000000815260040161045f90610ca4565b60405180910390fd5b600060149054906101000a900460ff161561048257600080fd5b670de0b6b3a7640000816104969190610cf3565b60028190555050565b60008054906101000a900473ffffffffffffffffffffffffffffffffffffffff1673ffffffffffffffffffffffffffffffffffffffff163373ffffffffffffffffffffffffffffffffffffffff161461052d576040517f08c379a000000000000000000000000000000000000000000000000000000000815260040161052490610ca4565b60405180910390fd5b600060149054906101000a900460ff161561054757600080fd5b670de0b6b3a76400008161055b9190610cf3565b60018190555050565b60008060009054906101000a900473ffffffffffffffffffffffffffffffffffffffff16905090565b60008054906101000a900473ffffffffffffffffffffffffffffffffffffffff1673ffffffffffffffffffffffffffffffffffffffff163373ffffffffffffffffffffffffffffffffffffffff16146105e557600080fd5b806000806101000a81548173ffffffffffffffffffffffffffffffffffffffff021916908373ffffffffffffffffffffffffffffffffffffffff16021790555050565b60008054906101000a900473ffffffffffffffffffffffffffffffffffffffff1673ffffffffffffffffffffffffffffffffffffffff163373ffffffffffffffffffffffffffffffffffffffff16036106b6576040517f08c379a00000000000000000000000000000000000000000000000000000000081526004016106ad90610da7565b60405180910390fd5b8060ff16671bc16d674ec80000341015610705576040517f08c379a00000000000000000000000000000000000000000000000000000000081526004016106fc90610e39565b60405180910390fd5b60015434111561074a576040517f08c379a000000000000000000000000000000000000000000000000000000000815260040161074190610ecb565b60405180910390fd5b47671bc16d674ec800003461075f9190610cf3565b11156107a0576040517f08c379a000000000000000000000000000000000000000000000000000000000815260040161079790610f37565b60405180910390fd5b60018111156107e4576040517f08c379a00000000000000000000000000000000000000000000000000000000081526004016107db90610fa3565b60405180910390fd5b600060149054906101000a900460ff16156107fe57600080fd5b600061080a60026109eb565b9050600061082360025434610a4790919063ffffffff16565b9050600061083a3483610a6e90919063ffffffff16565b905060008054906101000a900473ffffffffffffffffffffffffffffffffffffffff1673ffffffffffffffffffffffffffffffffffffffff166108fc6002549081150290604051600060405180830381858888f193505050501580156108a4573d6000803e3d6000fd5b50828560ff16036108f7573373ffffffffffffffffffffffffffffffffffffffff166108fc829081150290604051600060405180830381858888f193505050501580156108f5573d6000803e3d6000fd5b505b5050505050565b60008054906101000a900473ffffffffffffffffffffffffffffffffffffffff1673ffffffffffffffffffffffffffffffffffffffff163373ffffffffffffffffffffffffffffffffffffffff161461098c576040517f08c379a000000000000000000000000000000000000000000000000000000000815260040161098390610ca4565b60405180910390fd5b600060149054906101000a900460ff16156109a657600080fd5b600034116109e9576040517f08c379a00000000000000000000000000000000000000000000000000000000081526004016109e09061100f565b60405180910390fd5b565b600060036000815480929190610a009061102f565b9190505550814233600354604051602001610a1d939291906110e0565b6040516020818303038152906040528051906020012060001c610a40919061114c565b9050919050565b600082821115610a5a57610a5961117d565b5b8183610a6691906111ac565b905092915050565b6000808284610a7d91906111e0565b905083811015610a9057610a8f61117d565b5b8091505092915050565b6000819050919050565b610aad81610a9a565b82525050565b6000602082019050610ac86000830184610aa4565b92915050565b600080fd5b610adc81610a9a565b8114610ae757600080fd5b50565b600081359050610af981610ad3565b92915050565b600060208284031215610b1557610b14610ace565b5b6000610b2384828501610aea565b91505092915050565b600073ffffffffffffffffffffffffffffffffffffffff82169050919050565b6000610b5782610b2c565b9050919050565b610b6781610b4c565b82525050565b6000602082019050610b826000830184610b5e565b92915050565b610b9181610b4c565b8114610b9c57600080fd5b50565b600081359050610bae81610b88565b92915050565b600060208284031215610bca57610bc9610ace565b5b6000610bd884828501610b9f565b91505092915050565b600060ff82169050919050565b610bf781610be1565b8114610c0257600080fd5b50565b600081359050610c1481610bee565b92915050565b600060208284031215610c3057610c2f610ace565b5b6000610c3e84828501610c05565b91505092915050565b600082825260208201905092915050565b7f55736572206973206e6f742074686520636f6e7472616374206f776e65722e00600082015250565b6000610c8e601f83610c47565b9150610c9982610c58565b602082019050919050565b60006020820190508181036000830152610cbd81610c81565b9050919050565b7f4e487b7100000000000000000000000000000000000000000000000000000000600052601160045260246000fd5b6000610cfe82610a9a565b9150610d0983610a9a565b9250828202610d1781610a9a565b91508282048414831517610d2e57610d2d610cc4565b5b5092915050565b7f426574746f722063616e27742062652074686520636f6e7472616374206f776e60008201527f65722e0000000000000000000000000000000000000000000000000000000000602082015250565b6000610d91602383610c47565b9150610d9c82610d35565b604082019050919050565b60006020820190508181036000830152610dc081610d84565b9050919050565b7f54686520626574206d7573742062652067726561746572206f7220657175616c60008201527f207468616e2032204554482e0000000000000000000000000000000000000000602082015250565b6000610e23602c83610c47565b9150610e2e82610dc7565b604082019050919050565b60006020820190508181036000830152610e5281610e16565b9050919050565b7f54686520626574206d757374206265206c6f776572206f7220657175616c207460008201527f6f20746865206d617820646566696e656420616d6f756e742e00000000000000602082015250565b6000610eb5603983610c47565b9150610ec082610e59565b604082019050919050565b60006020820190508181036000830152610ee481610ea8565b9050919050565b7f496e73756666696369656e7420636f6e74726163742062616c616e63652e0000600082015250565b6000610f21601e83610c47565b9150610f2c82610eeb565b602082019050919050565b60006020820190508181036000830152610f5081610f14565b9050919050565b7f426574206e756d626572206d7573742062652030206f7220312e000000000000600082015250565b6000610f8d601a83610c47565b9150610f9882610f57565b602082019050919050565b60006020820190508181036000830152610fbc81610f80565b9050919050565b7f4465706f736974206d7573742062652067726561746572207468616e20302e00600082015250565b6000610ff9601f83610c47565b915061100482610fc3565b602082019050919050565b6000602082019050818103600083015261102881610fec565b9050919050565b600061103a82610a9a565b91507fffffffffffffffffffffffffffffffffffffffffffffffffffffffffffffffff820361106c5761106b610cc4565b5b600182019050919050565b6000819050919050565b61109261108d82610a9a565b611077565b82525050565b60008160601b9050919050565b60006110b082611098565b9050919050565b60006110c2826110a5565b9050919050565b6110da6110d582610b4c565b6110b7565b82525050565b60006110ec8286611081565b6020820191506110fc82856110c9565b60148201915061110c8284611081565b602082019150819050949350505050565b7f4e487b7100000000000000000000000000000000000000000000000000000000600052601260045260246000fd5b600061115782610a9a565b915061116283610a9a565b9250826111725761117161111d565b5b828206905092915050565b7f4e487b7100000000000000000000000000000000000000000000000000000000600052600160045260246000fd5b60006111b782610a9a565b91506111c283610a9a565b92508282039050818111156111da576111d9610cc4565b5b92915050565b60006111eb82610a9a565b91506111f683610a9a565b925082820190508082111561120e5761120d610cc4565b5b9291505056fea2646970667358221220ae21bec58ddf941af610e77168daf1cb38355a1668676c32c8c6d04bfc7a888564736f6c63430008120033",
  "immutableReferences": {},
  "source": "// SPDX-License-Identifier: MIT\r\npragma solidity ^0.8.7;\r\n\r\nimport \"./Manager.sol\";\r\nimport \"./SafeMath.sol\";\r\n\r\ncontract CoinFlip is Manager {\r\n\r\n    using SafeMath for uint;\r\n\r\n    // Transfer funds to the contract upon deployment\r\n    constructor() payable {\r\n        payable(address(this)).transfer(msg.value);\r\n    }\r\n\r\n    modifier notOwner() {\r\n        require(msg.sender != owner, \"Bettor can't be the contract owner.\");\r\n        _;\r\n    }\r\n\r\n    modifier betValidation(uint _userChoice) {\r\n        require(msg.value >= 2 ether, \"The bet must be greater or equal than 2 ETH.\");\r\n        require(msg.value <= maxBetETH, \"The bet must be lower or equal to the max defined amount.\");\r\n        require(msg.value * 2 ether <= address(this).balance, \"Insufficient contract balance.\"); // FIXME not working\r\n        require(_userChoice <= 1, \"Bet number must be 0 or 1.\");\r\n        _;\r\n    }\r\n\r\n    // Place a bet, the contract owner can't use this function\r\n    function bet(uint8 _userChoice) external payable notOwner betValidation(_userChoice) stopInEmergency {\r\n        uint number = randomNumber(2);\r\n        uint betValueETH = msg.value.sub(betFeeETH);\r\n        uint reward = betValueETH.add(msg.value);\r\n\r\n        // Send fee to the contract owner\r\n        payable(owner).transfer(betFeeETH);\r\n\r\n        // Send the reward to the bettor if the number drawn matches the one chosen\r\n        if (_userChoice == number) {\r\n            payable(msg.sender).transfer(reward);\r\n        }\r\n    }\r\n}",
  "sourcePath": "E:\\BOBO\\IdeaProjects\\BViK\\CoinFlip\\contracts\\CoinFlip.sol",
  "compiler": {
    "name": "solc",
    "version": "0.8.18+commit.87f61d96.Emscripten.clang"
  },
  "schemaVersion": "3.4.12",
  "updatedAt": "2023-02-19T21:30:45.590Z",
  "devdoc": {
    "kind": "dev",
    "methods": {},
    "version": 1
  },
  "userdoc": {
    "kind": "user",
    "methods": {},
    "version": 1
  }
}