{
  "contractName": "CoinFlip",
  "abi": [
    {
      "inputs": [],
      "stateMutability": "payable",
      "type": "constructor",
      "payable": true
    },
    {
      "inputs": [],
      "name": "betFeeETH",
      "outputs": [
        {
          "internalType": "uint256",
          "name": "",
          "type": "uint256"
        }
      ],
      "stateMutability": "view",
      "type": "function",
      "constant": true
    },
    {
      "inputs": [
        {
          "internalType": "address",
          "name": "_newOwner",
          "type": "address"
        }
      ],
      "name": "changeOwner",
      "outputs": [],
      "stateMutability": "nonpayable",
      "type": "function"
    },
    {
      "inputs": [],
      "name": "deposit",
      "outputs": [],
      "stateMutability": "payable",
      "type": "function",
      "payable": true
    },
    {
      "inputs": [],
      "name": "getBalance",
      "outputs": [
        {
          "internalType": "uint256",
          "name": "",
          "type": "uint256"
        }
      ],
      "stateMutability": "view",
      "type": "function",
      "constant": true
    },
    {
      "inputs": [],
      "name": "getOwner",
      "outputs": [
        {
          "internalType": "address",
          "name": "",
          "type": "address"
        }
      ],
      "stateMutability": "view",
      "type": "function",
      "constant": true
    },
    {
      "inputs": [],
      "name": "maxBetETH",
      "outputs": [
        {
          "internalType": "uint256",
          "name": "",
          "type": "uint256"
        }
      ],
      "stateMutability": "view",
      "type": "function",
      "constant": true
    },
    {
      "inputs": [
        {
          "internalType": "uint256",
          "name": "_newFee",
          "type": "uint256"
        }
      ],
      "name": "setBetFee",
      "outputs": [],
      "stateMutability": "nonpayable",
      "type": "function"
    },
    {
      "inputs": [
        {
          "internalType": "uint256",
          "name": "_newAmount",
          "type": "uint256"
        }
      ],
      "name": "setMaxBet",
      "outputs": [],
      "stateMutability": "nonpayable",
      "type": "function"
    },
    {
      "inputs": [],
      "name": "toggleContractActive",
      "outputs": [],
      "stateMutability": "nonpayable",
      "type": "function"
    },
    {
      "inputs": [],
      "name": "withdraw",
      "outputs": [],
      "stateMutability": "nonpayable",
      "type": "function"
    },
    {
      "inputs": [
        {
          "internalType": "uint8",
          "name": "_userChoice",
          "type": "uint8"
        }
      ],
      "name": "bet",
      "outputs": [],
      "stateMutability": "payable",
      "type": "function",
      "payable": true
    }
  ],
  "bytecode": "0x608060405260008060146101000a81548160ff0219169083151502179055506801158e460913d000006001556702c68af0bb1400006002556000600355336000806101000a81548173ffffffffffffffffffffffffffffffffffffffff021916908373ffffffffffffffffffffffffffffffffffffffff1602179055503073ffffffffffffffffffffffffffffffffffffffff166108fc349081150290604051600060405180830381858888f193505050501580156100c2573d6000803e3d6000fd5b5061112a806100d26000396000f3fe60806040526004361061009c5760003560e01c806372229abf1161006457806372229abf14610150578063881eff1e14610179578063893d20e8146101a2578063a6f9dae1146101cd578063d0821b0e146101f6578063d0e30db0146102125761009c565b806312065fe0146100a15780631385d24c146100cc5780633919b197146100e35780633ccfd60b1461010e578063707edec614610125575b600080fd5b3480156100ad57600080fd5b506100b661021c565b6040516100c39190610a25565b60405180910390f35b3480156100d857600080fd5b506100e1610224565b005b3480156100ef57600080fd5b506100f86102de565b6040516101059190610a25565b60405180910390f35b34801561011a57600080fd5b506101236102e4565b005b34801561013157600080fd5b5061013a6103d4565b6040516101479190610a25565b60405180910390f35b34801561015c57600080fd5b5061017760048036038101906101729190610a71565b6103da565b005b34801561018557600080fd5b506101a0600480360381019061019b9190610a71565b61049f565b005b3480156101ae57600080fd5b506101b7610564565b6040516101c49190610adf565b60405180910390f35b3480156101d957600080fd5b506101f460048036038101906101ef9190610b26565b61058d565b005b610210600480360381019061020b9190610b8c565b610628565b005b61021a610870565b005b600047905090565b60008054906101000a900473ffffffffffffffffffffffffffffffffffffffff1673ffffffffffffffffffffffffffffffffffffffff163373ffffffffffffffffffffffffffffffffffffffff16146102b2576040517f08c379a00000000000000000000000000000000000000000000000000000000081526004016102a990610c16565b60405180910390fd5b600060149054906101000a900460ff1615600060146101000a81548160ff021916908315150217905550565b60015481565b60008054906101000a900473ffffffffffffffffffffffffffffffffffffffff1673ffffffffffffffffffffffffffffffffffffffff163373ffffffffffffffffffffffffffffffffffffffff1614610372576040517f08c379a000000000000000000000000000000000000000000000000000000000815260040161036990610c16565b60405180910390fd5b600060149054906101000a900460ff1661038b57600080fd5b3373ffffffffffffffffffffffffffffffffffffffff166108fc479081150290604051600060405180830381858888f193505050501580156103d1573d6000803e3d6000fd5b50565b60025481565b60008054906101000a900473ffffffffffffffffffffffffffffffffffffffff1673ffffffffffffffffffffffffffffffffffffffff163373ffffffffffffffffffffffffffffffffffffffff1614610468576040517f08c379a000000000000000000000000000000000000000000000000000000000815260040161045f90610c16565b60405180910390fd5b600060149054906101000a900460ff161561048257600080fd5b670de0b6b3a7640000816104969190610c65565b60028190555050565b60008054906101000a900473ffffffffffffffffffffffffffffffffffffffff1673ffffffffffffffffffffffffffffffffffffffff163373ffffffffffffffffffffffffffffffffffffffff161461052d576040517f08c379a000000000000000000000000000000000000000000000000000000000815260040161052490610c16565b60405180910390fd5b600060149054906101000a900460ff161561054757600080fd5b670de0b6b3a76400008161055b9190610c65565b60018190555050565b60008060009054906101000a900473ffffffffffffffffffffffffffffffffffffffff16905090565b60008054906101000a900473ffffffffffffffffffffffffffffffffffffffff1673ffffffffffffffffffffffffffffffffffffffff163373ffffffffffffffffffffffffffffffffffffffff16146105e557600080fd5b806000806101000a81548173ffffffffffffffffffffffffffffffffffffffff021916908373ffffffffffffffffffffffffffffffffffffffff16021790555050565b8060ff16671bc16d674ec80000341015610677576040517f08c379a000000000000000000000000000000000000000000000000000000000815260040161066e90610d19565b60405180910390fd5b6001543411156106bc576040517f08c379a00000000000000000000000000000000000000000000000000000000081526004016106b390610dab565b60405180910390fd5b47671bc16d674ec80000346106d19190610c65565b1115610712576040517f08c379a000000000000000000000000000000000000000000000000000000000815260040161070990610e17565b60405180910390fd5b6001811115610756576040517f08c379a000000000000000000000000000000000000000000000000000000000815260040161074d90610e83565b60405180910390fd5b600060149054906101000a900460ff161561077057600080fd5b600061077c600261095d565b90506000610795600254346109b990919063ffffffff16565b905060006107ac34836109e090919063ffffffff16565b905060008054906101000a900473ffffffffffffffffffffffffffffffffffffffff1673ffffffffffffffffffffffffffffffffffffffff166108fc6002549081150290604051600060405180830381858888f19350505050158015610816573d6000803e3d6000fd5b50828560ff1603610869573373ffffffffffffffffffffffffffffffffffffffff166108fc829081150290604051600060405180830381858888f19350505050158015610867573d6000803e3d6000fd5b505b5050505050565b60008054906101000a900473ffffffffffffffffffffffffffffffffffffffff1673ffffffffffffffffffffffffffffffffffffffff163373ffffffffffffffffffffffffffffffffffffffff16146108fe576040517f08c379a00000000000000000000000000000000000000000000000000000000081526004016108f590610c16565b60405180910390fd5b600060149054906101000a900460ff161561091857600080fd5b6000341161095b576040517f08c379a000000000000000000000000000000000000000000000000000000000815260040161095290610eef565b60405180910390fd5b565b60006003600081548092919061097290610f0f565b919050555081423360035460405160200161098f93929190610fc0565b6040516020818303038152906040528051906020012060001c6109b2919061102c565b9050919050565b6000828211156109cc576109cb61105d565b5b81836109d8919061108c565b905092915050565b60008082846109ef91906110c0565b905083811015610a0257610a0161105d565b5b8091505092915050565b6000819050919050565b610a1f81610a0c565b82525050565b6000602082019050610a3a6000830184610a16565b92915050565b600080fd5b610a4e81610a0c565b8114610a5957600080fd5b50565b600081359050610a6b81610a45565b92915050565b600060208284031215610a8757610a86610a40565b5b6000610a9584828501610a5c565b91505092915050565b600073ffffffffffffffffffffffffffffffffffffffff82169050919050565b6000610ac982610a9e565b9050919050565b610ad981610abe565b82525050565b6000602082019050610af46000830184610ad0565b92915050565b610b0381610abe565b8114610b0e57600080fd5b50565b600081359050610b2081610afa565b92915050565b600060208284031215610b3c57610b3b610a40565b5b6000610b4a84828501610b11565b91505092915050565b600060ff82169050919050565b610b6981610b53565b8114610b7457600080fd5b50565b600081359050610b8681610b60565b92915050565b600060208284031215610ba257610ba1610a40565b5b6000610bb084828501610b77565b91505092915050565b600082825260208201905092915050565b7f55736572206973206e6f742074686520636f6e7472616374206f776e65722e00600082015250565b6000610c00601f83610bb9565b9150610c0b82610bca565b602082019050919050565b60006020820190508181036000830152610c2f81610bf3565b9050919050565b7f4e487b7100000000000000000000000000000000000000000000000000000000600052601160045260246000fd5b6000610c7082610a0c565b9150610c7b83610a0c565b9250828202610c8981610a0c565b91508282048414831517610ca057610c9f610c36565b5b5092915050565b7f54686520626574206d7573742062652067726561746572206f7220657175616c60008201527f207468616e20302e30303032204554482e000000000000000000000000000000602082015250565b6000610d03603183610bb9565b9150610d0e82610ca7565b604082019050919050565b60006020820190508181036000830152610d3281610cf6565b9050919050565b7f54686520626574206d757374206265206c6f776572206f7220657175616c207460008201527f6f20746865206d617820646566696e656420616d6f756e742e00000000000000602082015250565b6000610d95603983610bb9565b9150610da082610d39565b604082019050919050565b60006020820190508181036000830152610dc481610d88565b9050919050565b7f496e73756666696369656e7420636f6e74726163742062616c616e63652e0000600082015250565b6000610e01601e83610bb9565b9150610e0c82610dcb565b602082019050919050565b60006020820190508181036000830152610e3081610df4565b9050919050565b7f426574206e756d626572206d7573742062652030206f7220312e000000000000600082015250565b6000610e6d601a83610bb9565b9150610e7882610e37565b602082019050919050565b60006020820190508181036000830152610e9c81610e60565b9050919050565b7f4465706f736974206d7573742062652067726561746572207468616e20302e00600082015250565b6000610ed9601f83610bb9565b9150610ee482610ea3565b602082019050919050565b60006020820190508181036000830152610f0881610ecc565b9050919050565b6000610f1a82610a0c565b91507fffffffffffffffffffffffffffffffffffffffffffffffffffffffffffffffff8203610f4c57610f4b610c36565b5b600182019050919050565b6000819050919050565b610f72610f6d82610a0c565b610f57565b82525050565b60008160601b9050919050565b6000610f9082610f78565b9050919050565b6000610fa282610f85565b9050919050565b610fba610fb582610abe565b610f97565b82525050565b6000610fcc8286610f61565b602082019150610fdc8285610fa9565b601482019150610fec8284610f61565b602082019150819050949350505050565b7f4e487b7100000000000000000000000000000000000000000000000000000000600052601260045260246000fd5b600061103782610a0c565b915061104283610a0c565b92508261105257611051610ffd565b5b828206905092915050565b7f4e487b7100000000000000000000000000000000000000000000000000000000600052600160045260246000fd5b600061109782610a0c565b91506110a283610a0c565b92508282039050818111156110ba576110b9610c36565b5b92915050565b60006110cb82610a0c565b91506110d683610a0c565b92508282019050808211156110ee576110ed610c36565b5b9291505056fea2646970667358221220088a71952ed6714dc78835d5d5793bd779dc0536fc9936a7ee6208b5041ce7c564736f6c63430008120033",
  "immutableReferences": {},
  "source": "// SPDX-License-Identifier: MIT\r\npragma solidity ^0.8.7;\r\n\r\nimport \"./Manager.sol\";\r\nimport \"./SafeMath.sol\";\r\n\r\ncontract CoinFlip is Manager {\r\n\r\n    using SafeMath for uint;\r\n\r\n    // Transfer funds to the contract upon deployment\r\n    constructor() payable {\r\n        payable(address(this)).transfer(msg.value);\r\n    }\r\n\r\n    modifier notOwner() {\r\n        require(msg.sender == owner, \"Bettor can't be the contract owner.\");\r\n        _;\r\n    }\r\n\r\n    modifier betValidation(uint _userChoice) {\r\n        require(msg.value >= 2 ether, \"The bet must be greater or equal than 0.0002 ETH.\");\r\n        require(msg.value <= maxBetETH, \"The bet must be lower or equal to the max defined amount.\");\r\n        require(msg.value * 2 ether <= address(this).balance, \"Insufficient contract balance.\");\r\n        require(_userChoice <= 1, \"Bet number must be 0 or 1.\");\r\n        _;\r\n    }\r\n\r\n    // Place a bet, the contract owner can't use this function\r\n    function bet(uint8 _userChoice) external payable betValidation(_userChoice) stopInEmergency {\r\n        uint number = randomNumber(2);\r\n        uint betValueETH = msg.value.sub(betFeeETH);\r\n        uint reward = betValueETH.add(msg.value);\r\n\r\n        // Send fee to the contract owner\r\n        payable(owner).transfer(betFeeETH);\r\n\r\n        // Send the reward to the bettor if the number drawn matches the one chosen\r\n        if (_userChoice == number) {\r\n            payable(msg.sender).transfer(reward);\r\n        }\r\n    }\r\n}",
  "sourcePath": "D:\\BOBO\\BViK\\BViK_2021_2022\\CoinFlip\\contracts\\CoinFlip.sol",
  "compiler": {
    "name": "solc",
    "version": "0.8.18+commit.87f61d96.Emscripten.clang"
  },
  "schemaVersion": "3.4.12",
  "updatedAt": "2023-02-20T12:12:34.723Z",
  "networkType": "ethereum",
  "devdoc": {
    "kind": "dev",
    "methods": {},
    "version": 1
  },
  "userdoc": {
    "kind": "user",
    "methods": {},
    "version": 1
  }
}