{
  "contractName": "Manager",
  "abi": [
    {
      "inputs": [],
      "name": "betFeeETH",
      "outputs": [
        {
          "internalType": "uint256",
          "name": "",
          "type": "uint256"
        }
      ],
      "stateMutability": "view",
      "type": "function"
    },
    {
      "inputs": [
        {
          "internalType": "address",
          "name": "_newOwner",
          "type": "address"
        }
      ],
      "name": "changeOwner",
      "outputs": [],
      "stateMutability": "nonpayable",
      "type": "function"
    },
    {
      "inputs": [],
      "name": "getOwner",
      "outputs": [
        {
          "internalType": "address",
          "name": "",
          "type": "address"
        }
      ],
      "stateMutability": "view",
      "type": "function"
    },
    {
      "inputs": [],
      "name": "maxBetETH",
      "outputs": [
        {
          "internalType": "uint256",
          "name": "",
          "type": "uint256"
        }
      ],
      "stateMutability": "view",
      "type": "function"
    },
    {
      "inputs": [],
      "name": "toggleContractActive",
      "outputs": [],
      "stateMutability": "nonpayable",
      "type": "function"
    },
    {
      "inputs": [],
      "name": "deposit",
      "outputs": [],
      "stateMutability": "payable",
      "type": "function"
    },
    {
      "inputs": [],
      "name": "getBalance",
      "outputs": [
        {
          "internalType": "uint256",
          "name": "",
          "type": "uint256"
        }
      ],
      "stateMutability": "view",
      "type": "function"
    },
    {
      "inputs": [],
      "name": "withdraw",
      "outputs": [],
      "stateMutability": "nonpayable",
      "type": "function"
    },
    {
      "inputs": [
        {
          "internalType": "uint256",
          "name": "_newAmount",
          "type": "uint256"
        }
      ],
      "name": "setMaxBet",
      "outputs": [],
      "stateMutability": "nonpayable",
      "type": "function"
    },
    {
      "inputs": [
        {
          "internalType": "uint256",
          "name": "_newFee",
          "type": "uint256"
        }
      ],
      "name": "setBetFee",
      "outputs": [],
      "stateMutability": "nonpayable",
      "type": "function"
    }
  ],
  "bytecode": "0x608060405260008060146101000a81548160ff0219169083151502179055506801158e460913d000006001556702c68af0bb140000600255600060035534801561004857600080fd5b50336000806101000a81548173ffffffffffffffffffffffffffffffffffffffff021916908373ffffffffffffffffffffffffffffffffffffffff1602179055506109c5806100986000396000f3fe6080604052600436106100915760003560e01c806372229abf1161005957806372229abf14610145578063881eff1e1461016e578063893d20e814610197578063a6f9dae1146101c2578063d0e30db0146101eb57610091565b806312065fe0146100965780631385d24c146100c15780633919b197146100d85780633ccfd60b14610103578063707edec61461011a575b600080fd5b3480156100a257600080fd5b506100ab6101f5565b6040516100b89190610707565b60405180910390f35b3480156100cd57600080fd5b506100d66101fd565b005b3480156100e457600080fd5b506100ed6102b7565b6040516100fa9190610707565b60405180910390f35b34801561010f57600080fd5b506101186102bd565b005b34801561012657600080fd5b5061012f6103ad565b60405161013c9190610707565b60405180910390f35b34801561015157600080fd5b5061016c60048036038101906101679190610753565b6103b3565b005b34801561017a57600080fd5b5061019560048036038101906101909190610753565b610478565b005b3480156101a357600080fd5b506101ac61053d565b6040516101b991906107c1565b60405180910390f35b3480156101ce57600080fd5b506101e960048036038101906101e49190610808565b610566565b005b6101f3610601565b005b600047905090565b60008054906101000a900473ffffffffffffffffffffffffffffffffffffffff1673ffffffffffffffffffffffffffffffffffffffff163373ffffffffffffffffffffffffffffffffffffffff161461028b576040517f08c379a000000000000000000000000000000000000000000000000000000000815260040161028290610892565b60405180910390fd5b600060149054906101000a900460ff1615600060146101000a81548160ff021916908315150217905550565b60015481565b60008054906101000a900473ffffffffffffffffffffffffffffffffffffffff1673ffffffffffffffffffffffffffffffffffffffff163373ffffffffffffffffffffffffffffffffffffffff161461034b576040517f08c379a000000000000000000000000000000000000000000000000000000000815260040161034290610892565b60405180910390fd5b600060149054906101000a900460ff1661036457600080fd5b3373ffffffffffffffffffffffffffffffffffffffff166108fc479081150290604051600060405180830381858888f193505050501580156103aa573d6000803e3d6000fd5b50565b60025481565b60008054906101000a900473ffffffffffffffffffffffffffffffffffffffff1673ffffffffffffffffffffffffffffffffffffffff163373ffffffffffffffffffffffffffffffffffffffff1614610441576040517f08c379a000000000000000000000000000000000000000000000000000000000815260040161043890610892565b60405180910390fd5b600060149054906101000a900460ff161561045b57600080fd5b670de0b6b3a76400008161046f91906108e1565b60028190555050565b60008054906101000a900473ffffffffffffffffffffffffffffffffffffffff1673ffffffffffffffffffffffffffffffffffffffff163373ffffffffffffffffffffffffffffffffffffffff1614610506576040517f08c379a00000000000000000000000000000000000000000000000000000000081526004016104fd90610892565b60405180910390fd5b600060149054906101000a900460ff161561052057600080fd5b670de0b6b3a76400008161053491906108e1565b60018190555050565b60008060009054906101000a900473ffffffffffffffffffffffffffffffffffffffff16905090565b60008054906101000a900473ffffffffffffffffffffffffffffffffffffffff1673ffffffffffffffffffffffffffffffffffffffff163373ffffffffffffffffffffffffffffffffffffffff16146105be57600080fd5b806000806101000a81548173ffffffffffffffffffffffffffffffffffffffff021916908373ffffffffffffffffffffffffffffffffffffffff16021790555050565b60008054906101000a900473ffffffffffffffffffffffffffffffffffffffff1673ffffffffffffffffffffffffffffffffffffffff163373ffffffffffffffffffffffffffffffffffffffff161461068f576040517f08c379a000000000000000000000000000000000000000000000000000000000815260040161068690610892565b60405180910390fd5b600060149054906101000a900460ff16156106a957600080fd5b600034116106ec576040517f08c379a00000000000000000000000000000000000000000000000000000000081526004016106e39061096f565b60405180910390fd5b565b6000819050919050565b610701816106ee565b82525050565b600060208201905061071c60008301846106f8565b92915050565b600080fd5b610730816106ee565b811461073b57600080fd5b50565b60008135905061074d81610727565b92915050565b60006020828403121561076957610768610722565b5b60006107778482850161073e565b91505092915050565b600073ffffffffffffffffffffffffffffffffffffffff82169050919050565b60006107ab82610780565b9050919050565b6107bb816107a0565b82525050565b60006020820190506107d660008301846107b2565b92915050565b6107e5816107a0565b81146107f057600080fd5b50565b600081359050610802816107dc565b92915050565b60006020828403121561081e5761081d610722565b5b600061082c848285016107f3565b91505092915050565b600082825260208201905092915050565b7f55736572206973206e6f742074686520636f6e7472616374206f776e65722e00600082015250565b600061087c601f83610835565b915061088782610846565b602082019050919050565b600060208201905081810360008301526108ab8161086f565b9050919050565b7f4e487b7100000000000000000000000000000000000000000000000000000000600052601160045260246000fd5b60006108ec826106ee565b91506108f7836106ee565b9250828202610905816106ee565b9150828204841483151761091c5761091b6108b2565b5b5092915050565b7f4465706f736974206d7573742062652067726561746572207468616e20302e00600082015250565b6000610959601f83610835565b915061096482610923565b602082019050919050565b600060208201905081810360008301526109888161094c565b905091905056fea26469706673582212204523f04f4bd2421dd4340128edaa4192414175e9287d52abd93f0b5aa2cfcba264736f6c63430008120033",
  "immutableReferences": {},
  "source": "// SPDX-License-Identifier: MIT\r\npragma solidity ^0.8.7;\r\n\r\nimport \"./Owner.sol\";\r\n\r\ncontract Manager is Owner {\r\n    bool private stopped = false;\r\n    uint public maxBetETH = 20 ether;\r\n    uint public betFeeETH = 0.2 ether;\r\n    uint randomNonce = 0;\r\n\r\n    // Stop or unstop contract\r\n    function toggleContractActive() public isOwner {\r\n        stopped = !stopped;\r\n    }\r\n\r\n    modifier stopInEmergency {\r\n        require(!stopped);\r\n        _;\r\n    }\r\n    modifier onlyInEmergency {\r\n        require(stopped);\r\n        _;\r\n    }\r\n\r\n    // Allow contract owner to deposit funds\r\n    function deposit() external payable isOwner stopInEmergency {\r\n        require(msg.value > 0, \"Deposit must be greater than 0.\");\r\n    }\r\n\r\n    // Return the contract balance\r\n    function getBalance() external view returns (uint) {\r\n        return address(this).balance;\r\n    }\r\n\r\n    // Transfer funds to the contract owner\r\n    function withdraw() external isOwner onlyInEmergency {\r\n        payable(msg.sender).transfer(address(this).balance);\r\n    }\r\n\r\n    // Generate a random number with keccak256 hash function\r\n    function randomNumber(uint _modulus) internal returns(uint) {\r\n        randomNonce++;\r\n        // This is not the most secure way to generate a random number. For demonstration purposes only\r\n        return uint(keccak256(abi.encodePacked(block.timestamp, msg.sender, randomNonce))) % _modulus;\r\n    }\r\n\r\n    // Change the maximum amount of the bet\r\n    function setMaxBet(uint _newAmount) external isOwner stopInEmergency {\r\n        // Convert ETH amount to WEI\r\n        maxBetETH = _newAmount * 10 ** 18;\r\n    }\r\n\r\n    // Change the bet fee\r\n    function setBetFee(uint _newFee) external isOwner stopInEmergency {\r\n        // Convert ETH amount to WEI\r\n        betFeeETH = _newFee * 10 ** 18;\r\n    }\r\n}",
  "sourcePath": "E:\\BOBO\\IdeaProjects\\BViK\\CoinFlip\\contracts\\Manager.sol",
  "compiler": {
    "name": "solc",
    "version": "0.8.18+commit.87f61d96.Emscripten.clang"
  },
  "schemaVersion": "3.4.12",
  "updatedAt": "2023-02-19T21:30:45.599Z",
  "devdoc": {
    "kind": "dev",
    "methods": {},
    "version": 1
  },
  "userdoc": {
    "kind": "user",
    "methods": {},
    "version": 1
  }
}