{
	"CoinFlip/contracts/Manager.sol": {
		"Manager": {
			"abi": [
				{
					"inputs": [
						{
							"internalType": "address",
							"name": "_newOwner",
							"type": "address"
						}
					],
					"name": "changeOwner",
					"outputs": [],
					"stateMutability": "nonpayable",
					"type": "function"
				},
				{
					"inputs": [
						{
							"internalType": "uint256",
							"name": "_userDepositAmount",
							"type": "uint256"
						}
					],
					"name": "deposit",
					"outputs": [],
					"stateMutability": "payable",
					"type": "function"
				},
				{
					"inputs": [],
					"name": "getBalance",
					"outputs": [
						{
							"internalType": "uint256",
							"name": "",
							"type": "uint256"
						}
					],
					"stateMutability": "view",
					"type": "function"
				},
				{
					"inputs": [],
					"name": "getMaxBet",
					"outputs": [
						{
							"internalType": "uint256",
							"name": "",
							"type": "uint256"
						}
					],
					"stateMutability": "view",
					"type": "function"
				},
				{
					"inputs": [],
					"name": "getMinBet",
					"outputs": [
						{
							"internalType": "uint256",
							"name": "",
							"type": "uint256"
						}
					],
					"stateMutability": "view",
					"type": "function"
				},
				{
					"inputs": [],
					"name": "getOwner",
					"outputs": [
						{
							"internalType": "address",
							"name": "",
							"type": "address"
						}
					],
					"stateMutability": "view",
					"type": "function"
				},
				{
					"inputs": [],
					"name": "maxBetETH",
					"outputs": [
						{
							"internalType": "uint256",
							"name": "",
							"type": "uint256"
						}
					],
					"stateMutability": "view",
					"type": "function"
				},
				{
					"inputs": [],
					"name": "minBetETH",
					"outputs": [
						{
							"internalType": "uint256",
							"name": "",
							"type": "uint256"
						}
					],
					"stateMutability": "view",
					"type": "function"
				},
				{
					"inputs": [
						{
							"internalType": "uint256",
							"name": "_newAmount",
							"type": "uint256"
						}
					],
					"name": "setMaxBet",
					"outputs": [],
					"stateMutability": "nonpayable",
					"type": "function"
				},
				{
					"inputs": [
						{
							"internalType": "uint256",
							"name": "_newAmount",
							"type": "uint256"
						}
					],
					"name": "setMinBet",
					"outputs": [],
					"stateMutability": "nonpayable",
					"type": "function"
				},
				{
					"inputs": [],
					"name": "toggleContractActive",
					"outputs": [],
					"stateMutability": "nonpayable",
					"type": "function"
				}
			],
			"devdoc": {
				"kind": "dev",
				"methods": {},
				"version": 1
			},
			"evm": {
				"assembly": "    /* \"CoinFlip/contracts/Manager.sol\":85:2318  contract Manager is Owner {... */\n  mstore(0x40, 0x80)\n    /* \"CoinFlip/contracts/Manager.sol\":141:146  false */\n  0x00\n    /* \"CoinFlip/contracts/Manager.sol\":118:146  bool private stopped = false */\n  dup1\n  exp(0x0100, 0x14)\n  dup2\n  sload\n  dup2\n  0xff\n  mul\n  not\n  and\n  swap1\n  dup4\n  iszero\n  iszero\n  mul\n  or\n  swap1\n  sstore\n  pop\n    /* \"CoinFlip/contracts/Manager.sol\":177:185  20 ether */\n  0x01158e460913d00000\n    /* \"CoinFlip/contracts/Manager.sol\":153:185  uint public maxBetETH = 20 ether */\n  0x01\n  sstore\n    /* \"CoinFlip/contracts/Manager.sol\":216:225  0.2 ether */\n  0x02c68af0bb140000\n    /* \"CoinFlip/contracts/Manager.sol\":192:225  uint public minBetETH = 0.2 ether */\n  0x02\n  sstore\n    /* \"CoinFlip/contracts/Manager.sol\":294:295  0 */\n  0x00\n    /* \"CoinFlip/contracts/Manager.sol\":275:295  uint randomNonce = 0 */\n  0x03\n  sstore\n    /* \"CoinFlip/contracts/Manager.sol\":85:2318  contract Manager is Owner {... */\n  callvalue\n  dup1\n  iszero\n  tag_1\n  jumpi\n  0x00\n  dup1\n  revert\ntag_1:\n  pop\n    /* \"CoinFlip/contracts/Owner.sol\":176:186  msg.sender */\n  caller\n    /* \"CoinFlip/contracts/Owner.sol\":168:173  owner */\n  0x00\n  dup1\n    /* \"CoinFlip/contracts/Owner.sol\":168:186  owner = msg.sender */\n  0x0100\n  exp\n  dup2\n  sload\n  dup2\n  0xffffffffffffffffffffffffffffffffffffffff\n  mul\n  not\n  and\n  swap1\n  dup4\n  0xffffffffffffffffffffffffffffffffffffffff\n  and\n  mul\n  or\n  swap1\n  sstore\n  pop\n    /* \"CoinFlip/contracts/Manager.sol\":85:2318  contract Manager is Owner {... */\n  dataSize(sub_0)\n  dup1\n  dataOffset(sub_0)\n  0x00\n  codecopy\n  0x00\n  return\nstop\n\nsub_0: assembly {\n        /* \"CoinFlip/contracts/Manager.sol\":85:2318  contract Manager is Owner {... */\n      mstore(0x40, 0x80)\n      jumpi(tag_1, lt(calldatasize, 0x04))\n      shr(0xe0, calldataload(0x00))\n      dup1\n      0x881eff1e\n      gt\n      tag_13\n      jumpi\n      dup1\n      0x881eff1e\n      eq\n      tag_7\n      jumpi\n      dup1\n      0x88ea41b9\n      eq\n      tag_8\n      jumpi\n      dup1\n      0x893d20e8\n      eq\n      tag_9\n      jumpi\n      dup1\n      0x951a1a62\n      eq\n      tag_10\n      jumpi\n      dup1\n      0xa6f9dae1\n      eq\n      tag_11\n      jumpi\n      dup1\n      0xb6b55f25\n      eq\n      tag_12\n      jumpi\n      jump(tag_1)\n    tag_13:\n      dup1\n      0x12065fe0\n      eq\n      tag_2\n      jumpi\n      dup1\n      0x1385d24c\n      eq\n      tag_3\n      jumpi\n      dup1\n      0x24c37507\n      eq\n      tag_4\n      jumpi\n      dup1\n      0x3919b197\n      eq\n      tag_5\n      jumpi\n      dup1\n      0x646668b6\n      eq\n      tag_6\n      jumpi\n    tag_1:\n      0x00\n      dup1\n      revert\n        /* \"CoinFlip/contracts/Manager.sol\":848:946  function getBalance() external view returns (uint) {... */\n    tag_2:\n      callvalue\n      dup1\n      iszero\n      tag_14\n      jumpi\n      0x00\n      dup1\n      revert\n    tag_14:\n      pop\n      tag_15\n      tag_16\n      jump\t// in\n    tag_15:\n      mload(0x40)\n      tag_17\n      swap2\n      swap1\n      tag_18\n      jump\t// in\n    tag_17:\n      mload(0x40)\n      dup1\n      swap2\n      sub\n      swap1\n      return\n        /* \"CoinFlip/contracts/Manager.sol\":336:420  function toggleContractActive() public isOwner {... */\n    tag_3:\n      callvalue\n      dup1\n      iszero\n      tag_19\n      jumpi\n      0x00\n      dup1\n      revert\n    tag_19:\n      pop\n      tag_20\n      tag_21\n      jump\t// in\n    tag_20:\n      stop\n        /* \"CoinFlip/contracts/Manager.sol\":1725:1810  function getMinBet() public view returns (uint256){... */\n    tag_4:\n      callvalue\n      dup1\n      iszero\n      tag_22\n      jumpi\n      0x00\n      dup1\n      revert\n    tag_22:\n      pop\n      tag_23\n      tag_24\n      jump\t// in\n    tag_23:\n      mload(0x40)\n      tag_25\n      swap2\n      swap1\n      tag_18\n      jump\t// in\n    tag_25:\n      mload(0x40)\n      dup1\n      swap2\n      sub\n      swap1\n      return\n        /* \"CoinFlip/contracts/Manager.sol\":153:185  uint public maxBetETH = 20 ether */\n    tag_5:\n      callvalue\n      dup1\n      iszero\n      tag_26\n      jumpi\n      0x00\n      dup1\n      revert\n    tag_26:\n      pop\n      tag_27\n      tag_28\n      jump\t// in\n    tag_27:\n      mload(0x40)\n      tag_29\n      swap2\n      swap1\n      tag_18\n      jump\t// in\n    tag_29:\n      mload(0x40)\n      dup1\n      swap2\n      sub\n      swap1\n      return\n        /* \"CoinFlip/contracts/Manager.sol\":2030:2115  function getMaxBet() public view returns (uint256){... */\n    tag_6:\n      callvalue\n      dup1\n      iszero\n      tag_30\n      jumpi\n      0x00\n      dup1\n      revert\n    tag_30:\n      pop\n      tag_31\n      tag_32\n      jump\t// in\n    tag_31:\n      mload(0x40)\n      tag_33\n      swap2\n      swap1\n      tag_18\n      jump\t// in\n    tag_33:\n      mload(0x40)\n      dup1\n      swap2\n      sub\n      swap1\n      return\n        /* \"CoinFlip/contracts/Manager.sol\":1863:2022  function setMaxBet(uint _newAmount) external isOwner stopInEmergency {... */\n    tag_7:\n      callvalue\n      dup1\n      iszero\n      tag_34\n      jumpi\n      0x00\n      dup1\n      revert\n    tag_34:\n      pop\n      tag_35\n      0x04\n      dup1\n      calldatasize\n      sub\n      dup2\n      add\n      swap1\n      tag_36\n      swap2\n      swap1\n      tag_37\n      jump\t// in\n    tag_36:\n      tag_38\n      jump\t// in\n    tag_35:\n      stop\n        /* \"CoinFlip/contracts/Manager.sol\":1555:1717  function setMinBet(uint256 _newAmount) external isOwner stopInEmergency {... */\n    tag_8:\n      callvalue\n      dup1\n      iszero\n      tag_39\n      jumpi\n      0x00\n      dup1\n      revert\n    tag_39:\n      pop\n      tag_40\n      0x04\n      dup1\n      calldatasize\n      sub\n      dup2\n      add\n      swap1\n      tag_41\n      swap2\n      swap1\n      tag_37\n      jump\t// in\n    tag_41:\n      tag_42\n      jump\t// in\n    tag_40:\n      stop\n        /* \"CoinFlip/contracts/Owner.sol\":352:435  function getOwner() external view returns (address) {... */\n    tag_9:\n      callvalue\n      dup1\n      iszero\n      tag_43\n      jumpi\n      0x00\n      dup1\n      revert\n    tag_43:\n      pop\n      tag_44\n      tag_45\n      jump\t// in\n    tag_44:\n      mload(0x40)\n      tag_46\n      swap2\n      swap1\n      tag_47\n      jump\t// in\n    tag_46:\n      mload(0x40)\n      dup1\n      swap2\n      sub\n      swap1\n      return\n        /* \"CoinFlip/contracts/Manager.sol\":192:225  uint public minBetETH = 0.2 ether */\n    tag_10:\n      callvalue\n      dup1\n      iszero\n      tag_48\n      jumpi\n      0x00\n      dup1\n      revert\n    tag_48:\n      pop\n      tag_49\n      tag_50\n      jump\t// in\n    tag_49:\n      mload(0x40)\n      tag_51\n      swap2\n      swap1\n      tag_18\n      jump\t// in\n    tag_51:\n      mload(0x40)\n      dup1\n      swap2\n      sub\n      swap1\n      return\n        /* \"CoinFlip/contracts/Owner.sol\":508:632  function changeOwner(address _newOwner) external {... */\n    tag_11:\n      callvalue\n      dup1\n      iszero\n      tag_52\n      jumpi\n      0x00\n      dup1\n      revert\n    tag_52:\n      pop\n      tag_53\n      0x04\n      dup1\n      calldatasize\n      sub\n      dup2\n      add\n      swap1\n      tag_54\n      swap2\n      swap1\n      tag_55\n      jump\t// in\n    tag_54:\n      tag_56\n      jump\t// in\n    tag_53:\n      stop\n        /* \"CoinFlip/contracts/Manager.sol\":633:804  function deposit(uint256 _userDepositAmount) external payable isOwner stopInEmergency {... */\n    tag_12:\n      tag_57\n      0x04\n      dup1\n      calldatasize\n      sub\n      dup2\n      add\n      swap1\n      tag_58\n      swap2\n      swap1\n      tag_37\n      jump\t// in\n    tag_58:\n      tag_59\n      jump\t// in\n    tag_57:\n      stop\n        /* \"CoinFlip/contracts/Manager.sol\":848:946  function getBalance() external view returns (uint) {... */\n    tag_16:\n        /* \"CoinFlip/contracts/Manager.sol\":893:897  uint */\n      0x00\n        /* \"CoinFlip/contracts/Manager.sol\":917:938  address(this).balance */\n      selfbalance\n        /* \"CoinFlip/contracts/Manager.sol\":910:938  return address(this).balance */\n      swap1\n      pop\n        /* \"CoinFlip/contracts/Manager.sol\":848:946  function getBalance() external view returns (uint) {... */\n      swap1\n      jump\t// out\n        /* \"CoinFlip/contracts/Manager.sol\":336:420  function toggleContractActive() public isOwner {... */\n    tag_21:\n        /* \"CoinFlip/contracts/Owner.sol\":254:259  owner */\n      0x00\n      dup1\n      sload\n      swap1\n      0x0100\n      exp\n      swap1\n      div\n      0xffffffffffffffffffffffffffffffffffffffff\n      and\n        /* \"CoinFlip/contracts/Owner.sol\":240:259  msg.sender == owner */\n      0xffffffffffffffffffffffffffffffffffffffff\n      and\n        /* \"CoinFlip/contracts/Owner.sol\":240:250  msg.sender */\n      caller\n        /* \"CoinFlip/contracts/Owner.sol\":240:259  msg.sender == owner */\n      0xffffffffffffffffffffffffffffffffffffffff\n      and\n      eq\n        /* \"CoinFlip/contracts/Owner.sol\":232:295  require(msg.sender == owner, \"User is not the contract owner.\") */\n      tag_62\n      jumpi\n      mload(0x40)\n      0x08c379a000000000000000000000000000000000000000000000000000000000\n      dup2\n      mstore\n      0x04\n      add\n      tag_63\n      swap1\n      tag_64\n      jump\t// in\n    tag_63:\n      mload(0x40)\n      dup1\n      swap2\n      sub\n      swap1\n      revert\n    tag_62:\n        /* \"CoinFlip/contracts/Manager.sol\":405:412  stopped */\n      0x00\n      0x14\n      swap1\n      sload\n      swap1\n      0x0100\n      exp\n      swap1\n      div\n      0xff\n      and\n        /* \"CoinFlip/contracts/Manager.sol\":404:412  !stopped */\n      iszero\n        /* \"CoinFlip/contracts/Manager.sol\":394:401  stopped */\n      0x00\n      0x14\n        /* \"CoinFlip/contracts/Manager.sol\":394:412  stopped = !stopped */\n      0x0100\n      exp\n      dup2\n      sload\n      dup2\n      0xff\n      mul\n      not\n      and\n      swap1\n      dup4\n      iszero\n      iszero\n      mul\n      or\n      swap1\n      sstore\n      pop\n        /* \"CoinFlip/contracts/Manager.sol\":336:420  function toggleContractActive() public isOwner {... */\n      jump\t// out\n        /* \"CoinFlip/contracts/Manager.sol\":1725:1810  function getMinBet() public view returns (uint256){... */\n    tag_24:\n        /* \"CoinFlip/contracts/Manager.sol\":1767:1774  uint256 */\n      0x00\n        /* \"CoinFlip/contracts/Manager.sol\":1793:1802  minBetETH */\n      sload(0x02)\n        /* \"CoinFlip/contracts/Manager.sol\":1786:1802  return minBetETH */\n      swap1\n      pop\n        /* \"CoinFlip/contracts/Manager.sol\":1725:1810  function getMinBet() public view returns (uint256){... */\n      swap1\n      jump\t// out\n        /* \"CoinFlip/contracts/Manager.sol\":153:185  uint public maxBetETH = 20 ether */\n    tag_28:\n      sload(0x01)\n      dup2\n      jump\t// out\n        /* \"CoinFlip/contracts/Manager.sol\":2030:2115  function getMaxBet() public view returns (uint256){... */\n    tag_32:\n        /* \"CoinFlip/contracts/Manager.sol\":2072:2079  uint256 */\n      0x00\n        /* \"CoinFlip/contracts/Manager.sol\":2098:2107  maxBetETH */\n      sload(0x01)\n        /* \"CoinFlip/contracts/Manager.sol\":2091:2107  return maxBetETH */\n      swap1\n      pop\n        /* \"CoinFlip/contracts/Manager.sol\":2030:2115  function getMaxBet() public view returns (uint256){... */\n      swap1\n      jump\t// out\n        /* \"CoinFlip/contracts/Manager.sol\":1863:2022  function setMaxBet(uint _newAmount) external isOwner stopInEmergency {... */\n    tag_38:\n        /* \"CoinFlip/contracts/Owner.sol\":254:259  owner */\n      0x00\n      dup1\n      sload\n      swap1\n      0x0100\n      exp\n      swap1\n      div\n      0xffffffffffffffffffffffffffffffffffffffff\n      and\n        /* \"CoinFlip/contracts/Owner.sol\":240:259  msg.sender == owner */\n      0xffffffffffffffffffffffffffffffffffffffff\n      and\n        /* \"CoinFlip/contracts/Owner.sol\":240:250  msg.sender */\n      caller\n        /* \"CoinFlip/contracts/Owner.sol\":240:259  msg.sender == owner */\n      0xffffffffffffffffffffffffffffffffffffffff\n      and\n      eq\n        /* \"CoinFlip/contracts/Owner.sol\":232:295  require(msg.sender == owner, \"User is not the contract owner.\") */\n      tag_69\n      jumpi\n      mload(0x40)\n      0x08c379a000000000000000000000000000000000000000000000000000000000\n      dup2\n      mstore\n      0x04\n      add\n      tag_70\n      swap1\n      tag_64\n      jump\t// in\n    tag_70:\n      mload(0x40)\n      dup1\n      swap2\n      sub\n      swap1\n      revert\n    tag_69:\n        /* \"CoinFlip/contracts/Manager.sol\":473:480  stopped */\n      0x00\n      0x14\n      swap1\n      sload\n      swap1\n      0x0100\n      exp\n      swap1\n      div\n      0xff\n      and\n        /* \"CoinFlip/contracts/Manager.sol\":472:480  !stopped */\n      iszero\n        /* \"CoinFlip/contracts/Manager.sol\":464:481  require(!stopped) */\n      tag_72\n      jumpi\n      0x00\n      dup1\n      revert\n    tag_72:\n        /* \"CoinFlip/contracts/Manager.sol\":2006:2014  10 ** 18 */\n      0x0de0b6b3a7640000\n        /* \"CoinFlip/contracts/Manager.sol\":1993:2003  _newAmount */\n      dup2\n        /* \"CoinFlip/contracts/Manager.sol\":1993:2014  _newAmount * 10 ** 18 */\n      tag_74\n      swap2\n      swap1\n      tag_75\n      jump\t// in\n    tag_74:\n        /* \"CoinFlip/contracts/Manager.sol\":1981:1990  maxBetETH */\n      0x01\n        /* \"CoinFlip/contracts/Manager.sol\":1981:2014  maxBetETH = _newAmount * 10 ** 18 */\n      dup2\n      swap1\n      sstore\n      pop\n        /* \"CoinFlip/contracts/Manager.sol\":1863:2022  function setMaxBet(uint _newAmount) external isOwner stopInEmergency {... */\n      pop\n      jump\t// out\n        /* \"CoinFlip/contracts/Manager.sol\":1555:1717  function setMinBet(uint256 _newAmount) external isOwner stopInEmergency {... */\n    tag_42:\n        /* \"CoinFlip/contracts/Owner.sol\":254:259  owner */\n      0x00\n      dup1\n      sload\n      swap1\n      0x0100\n      exp\n      swap1\n      div\n      0xffffffffffffffffffffffffffffffffffffffff\n      and\n        /* \"CoinFlip/contracts/Owner.sol\":240:259  msg.sender == owner */\n      0xffffffffffffffffffffffffffffffffffffffff\n      and\n        /* \"CoinFlip/contracts/Owner.sol\":240:250  msg.sender */\n      caller\n        /* \"CoinFlip/contracts/Owner.sol\":240:259  msg.sender == owner */\n      0xffffffffffffffffffffffffffffffffffffffff\n      and\n      eq\n        /* \"CoinFlip/contracts/Owner.sol\":232:295  require(msg.sender == owner, \"User is not the contract owner.\") */\n      tag_77\n      jumpi\n      mload(0x40)\n      0x08c379a000000000000000000000000000000000000000000000000000000000\n      dup2\n      mstore\n      0x04\n      add\n      tag_78\n      swap1\n      tag_64\n      jump\t// in\n    tag_78:\n      mload(0x40)\n      dup1\n      swap2\n      sub\n      swap1\n      revert\n    tag_77:\n        /* \"CoinFlip/contracts/Manager.sol\":473:480  stopped */\n      0x00\n      0x14\n      swap1\n      sload\n      swap1\n      0x0100\n      exp\n      swap1\n      div\n      0xff\n      and\n        /* \"CoinFlip/contracts/Manager.sol\":472:480  !stopped */\n      iszero\n        /* \"CoinFlip/contracts/Manager.sol\":464:481  require(!stopped) */\n      tag_80\n      jumpi\n      0x00\n      dup1\n      revert\n    tag_80:\n        /* \"CoinFlip/contracts/Manager.sol\":1701:1709  10 ** 18 */\n      0x0de0b6b3a7640000\n        /* \"CoinFlip/contracts/Manager.sol\":1688:1698  _newAmount */\n      dup2\n        /* \"CoinFlip/contracts/Manager.sol\":1688:1709  _newAmount * 10 ** 18 */\n      tag_82\n      swap2\n      swap1\n      tag_75\n      jump\t// in\n    tag_82:\n        /* \"CoinFlip/contracts/Manager.sol\":1676:1685  minBetETH */\n      0x02\n        /* \"CoinFlip/contracts/Manager.sol\":1676:1709  minBetETH = _newAmount * 10 ** 18 */\n      dup2\n      swap1\n      sstore\n      pop\n        /* \"CoinFlip/contracts/Manager.sol\":1555:1717  function setMinBet(uint256 _newAmount) external isOwner stopInEmergency {... */\n      pop\n      jump\t// out\n        /* \"CoinFlip/contracts/Owner.sol\":352:435  function getOwner() external view returns (address) {... */\n    tag_45:\n        /* \"CoinFlip/contracts/Owner.sol\":395:402  address */\n      0x00\n        /* \"CoinFlip/contracts/Owner.sol\":422:427  owner */\n      dup1\n      0x00\n      swap1\n      sload\n      swap1\n      0x0100\n      exp\n      swap1\n      div\n      0xffffffffffffffffffffffffffffffffffffffff\n      and\n        /* \"CoinFlip/contracts/Owner.sol\":415:427  return owner */\n      swap1\n      pop\n        /* \"CoinFlip/contracts/Owner.sol\":352:435  function getOwner() external view returns (address) {... */\n      swap1\n      jump\t// out\n        /* \"CoinFlip/contracts/Manager.sol\":192:225  uint public minBetETH = 0.2 ether */\n    tag_50:\n      sload(0x02)\n      dup2\n      jump\t// out\n        /* \"CoinFlip/contracts/Owner.sol\":508:632  function changeOwner(address _newOwner) external {... */\n    tag_56:\n        /* \"CoinFlip/contracts/Owner.sol\":590:595  owner */\n      0x00\n      dup1\n      sload\n      swap1\n      0x0100\n      exp\n      swap1\n      div\n      0xffffffffffffffffffffffffffffffffffffffff\n      and\n        /* \"CoinFlip/contracts/Owner.sol\":576:595  msg.sender == owner */\n      0xffffffffffffffffffffffffffffffffffffffff\n      and\n        /* \"CoinFlip/contracts/Owner.sol\":576:586  msg.sender */\n      caller\n        /* \"CoinFlip/contracts/Owner.sol\":576:595  msg.sender == owner */\n      0xffffffffffffffffffffffffffffffffffffffff\n      and\n      eq\n        /* \"CoinFlip/contracts/Owner.sol\":568:596  require(msg.sender == owner) */\n      tag_85\n      jumpi\n      0x00\n      dup1\n      revert\n    tag_85:\n        /* \"CoinFlip/contracts/Owner.sol\":615:624  _newOwner */\n      dup1\n        /* \"CoinFlip/contracts/Owner.sol\":607:612  owner */\n      0x00\n      dup1\n        /* \"CoinFlip/contracts/Owner.sol\":607:624  owner = _newOwner */\n      0x0100\n      exp\n      dup2\n      sload\n      dup2\n      0xffffffffffffffffffffffffffffffffffffffff\n      mul\n      not\n      and\n      swap1\n      dup4\n      0xffffffffffffffffffffffffffffffffffffffff\n      and\n      mul\n      or\n      swap1\n      sstore\n      pop\n        /* \"CoinFlip/contracts/Owner.sol\":508:632  function changeOwner(address _newOwner) external {... */\n      pop\n      jump\t// out\n        /* \"CoinFlip/contracts/Manager.sol\":633:804  function deposit(uint256 _userDepositAmount) external payable isOwner stopInEmergency {... */\n    tag_59:\n        /* \"CoinFlip/contracts/Owner.sol\":254:259  owner */\n      0x00\n      dup1\n      sload\n      swap1\n      0x0100\n      exp\n      swap1\n      div\n      0xffffffffffffffffffffffffffffffffffffffff\n      and\n        /* \"CoinFlip/contracts/Owner.sol\":240:259  msg.sender == owner */\n      0xffffffffffffffffffffffffffffffffffffffff\n      and\n        /* \"CoinFlip/contracts/Owner.sol\":240:250  msg.sender */\n      caller\n        /* \"CoinFlip/contracts/Owner.sol\":240:259  msg.sender == owner */\n      0xffffffffffffffffffffffffffffffffffffffff\n      and\n      eq\n        /* \"CoinFlip/contracts/Owner.sol\":232:295  require(msg.sender == owner, \"User is not the contract owner.\") */\n      tag_87\n      jumpi\n      mload(0x40)\n      0x08c379a000000000000000000000000000000000000000000000000000000000\n      dup2\n      mstore\n      0x04\n      add\n      tag_88\n      swap1\n      tag_64\n      jump\t// in\n    tag_88:\n      mload(0x40)\n      dup1\n      swap2\n      sub\n      swap1\n      revert\n    tag_87:\n        /* \"CoinFlip/contracts/Manager.sol\":473:480  stopped */\n      0x00\n      0x14\n      swap1\n      sload\n      swap1\n      0x0100\n      exp\n      swap1\n      div\n      0xff\n      and\n        /* \"CoinFlip/contracts/Manager.sol\":472:480  !stopped */\n      iszero\n        /* \"CoinFlip/contracts/Manager.sol\":464:481  require(!stopped) */\n      tag_90\n      jumpi\n      0x00\n      dup1\n      revert\n    tag_90:\n        /* \"CoinFlip/contracts/Manager.sol\":759:760  0 */\n      0x00\n        /* \"CoinFlip/contracts/Manager.sol\":738:756  _userDepositAmount */\n      dup2\n        /* \"CoinFlip/contracts/Manager.sol\":738:760  _userDepositAmount > 0 */\n      gt\n        /* \"CoinFlip/contracts/Manager.sol\":730:796  require(_userDepositAmount > 0, \"Deposit must be greater than 0.\") */\n      tag_92\n      jumpi\n      mload(0x40)\n      0x08c379a000000000000000000000000000000000000000000000000000000000\n      dup2\n      mstore\n      0x04\n      add\n      tag_93\n      swap1\n      tag_94\n      jump\t// in\n    tag_93:\n      mload(0x40)\n      dup1\n      swap2\n      sub\n      swap1\n      revert\n    tag_92:\n        /* \"CoinFlip/contracts/Manager.sol\":633:804  function deposit(uint256 _userDepositAmount) external payable isOwner stopInEmergency {... */\n      pop\n      jump\t// out\n        /* \"#utility.yul\":7:84   */\n    tag_95:\n        /* \"#utility.yul\":44:51   */\n      0x00\n        /* \"#utility.yul\":73:78   */\n      dup2\n        /* \"#utility.yul\":62:78   */\n      swap1\n      pop\n        /* \"#utility.yul\":7:84   */\n      swap2\n      swap1\n      pop\n      jump\t// out\n        /* \"#utility.yul\":90:208   */\n    tag_96:\n        /* \"#utility.yul\":177:201   */\n      tag_116\n        /* \"#utility.yul\":195:200   */\n      dup2\n        /* \"#utility.yul\":177:201   */\n      tag_95\n      jump\t// in\n    tag_116:\n        /* \"#utility.yul\":172:175   */\n      dup3\n        /* \"#utility.yul\":165:202   */\n      mstore\n        /* \"#utility.yul\":90:208   */\n      pop\n      pop\n      jump\t// out\n        /* \"#utility.yul\":214:436   */\n    tag_18:\n        /* \"#utility.yul\":307:311   */\n      0x00\n        /* \"#utility.yul\":345:347   */\n      0x20\n        /* \"#utility.yul\":334:343   */\n      dup3\n        /* \"#utility.yul\":330:348   */\n      add\n        /* \"#utility.yul\":322:348   */\n      swap1\n      pop\n        /* \"#utility.yul\":358:429   */\n      tag_118\n        /* \"#utility.yul\":426:427   */\n      0x00\n        /* \"#utility.yul\":415:424   */\n      dup4\n        /* \"#utility.yul\":411:428   */\n      add\n        /* \"#utility.yul\":402:408   */\n      dup5\n        /* \"#utility.yul\":358:429   */\n      tag_96\n      jump\t// in\n    tag_118:\n        /* \"#utility.yul\":214:436   */\n      swap3\n      swap2\n      pop\n      pop\n      jump\t// out\n        /* \"#utility.yul\":523:640   */\n    tag_98:\n        /* \"#utility.yul\":632:633   */\n      0x00\n        /* \"#utility.yul\":629:630   */\n      dup1\n        /* \"#utility.yul\":622:634   */\n      revert\n        /* \"#utility.yul\":769:891   */\n    tag_100:\n        /* \"#utility.yul\":842:866   */\n      tag_123\n        /* \"#utility.yul\":860:865   */\n      dup2\n        /* \"#utility.yul\":842:866   */\n      tag_95\n      jump\t// in\n    tag_123:\n        /* \"#utility.yul\":835:840   */\n      dup2\n        /* \"#utility.yul\":832:867   */\n      eq\n        /* \"#utility.yul\":822:885   */\n      tag_124\n      jumpi\n        /* \"#utility.yul\":881:882   */\n      0x00\n        /* \"#utility.yul\":878:879   */\n      dup1\n        /* \"#utility.yul\":871:883   */\n      revert\n        /* \"#utility.yul\":822:885   */\n    tag_124:\n        /* \"#utility.yul\":769:891   */\n      pop\n      jump\t// out\n        /* \"#utility.yul\":897:1036   */\n    tag_101:\n        /* \"#utility.yul\":943:948   */\n      0x00\n        /* \"#utility.yul\":981:987   */\n      dup2\n        /* \"#utility.yul\":968:988   */\n      calldataload\n        /* \"#utility.yul\":959:988   */\n      swap1\n      pop\n        /* \"#utility.yul\":997:1030   */\n      tag_126\n        /* \"#utility.yul\":1024:1029   */\n      dup2\n        /* \"#utility.yul\":997:1030   */\n      tag_100\n      jump\t// in\n    tag_126:\n        /* \"#utility.yul\":897:1036   */\n      swap3\n      swap2\n      pop\n      pop\n      jump\t// out\n        /* \"#utility.yul\":1042:1371   */\n    tag_37:\n        /* \"#utility.yul\":1101:1107   */\n      0x00\n        /* \"#utility.yul\":1150:1152   */\n      0x20\n        /* \"#utility.yul\":1138:1147   */\n      dup3\n        /* \"#utility.yul\":1129:1136   */\n      dup5\n        /* \"#utility.yul\":1125:1148   */\n      sub\n        /* \"#utility.yul\":1121:1153   */\n      slt\n        /* \"#utility.yul\":1118:1237   */\n      iszero\n      tag_128\n      jumpi\n        /* \"#utility.yul\":1156:1235   */\n      tag_129\n      tag_98\n      jump\t// in\n    tag_129:\n        /* \"#utility.yul\":1118:1237   */\n    tag_128:\n        /* \"#utility.yul\":1276:1277   */\n      0x00\n        /* \"#utility.yul\":1301:1354   */\n      tag_130\n        /* \"#utility.yul\":1346:1353   */\n      dup5\n        /* \"#utility.yul\":1337:1343   */\n      dup3\n        /* \"#utility.yul\":1326:1335   */\n      dup6\n        /* \"#utility.yul\":1322:1344   */\n      add\n        /* \"#utility.yul\":1301:1354   */\n      tag_101\n      jump\t// in\n    tag_130:\n        /* \"#utility.yul\":1291:1354   */\n      swap2\n      pop\n        /* \"#utility.yul\":1247:1364   */\n      pop\n        /* \"#utility.yul\":1042:1371   */\n      swap3\n      swap2\n      pop\n      pop\n      jump\t// out\n        /* \"#utility.yul\":1377:1503   */\n    tag_102:\n        /* \"#utility.yul\":1414:1421   */\n      0x00\n        /* \"#utility.yul\":1454:1496   */\n      0xffffffffffffffffffffffffffffffffffffffff\n        /* \"#utility.yul\":1447:1452   */\n      dup3\n        /* \"#utility.yul\":1443:1497   */\n      and\n        /* \"#utility.yul\":1432:1497   */\n      swap1\n      pop\n        /* \"#utility.yul\":1377:1503   */\n      swap2\n      swap1\n      pop\n      jump\t// out\n        /* \"#utility.yul\":1509:1605   */\n    tag_103:\n        /* \"#utility.yul\":1546:1553   */\n      0x00\n        /* \"#utility.yul\":1575:1599   */\n      tag_133\n        /* \"#utility.yul\":1593:1598   */\n      dup3\n        /* \"#utility.yul\":1575:1599   */\n      tag_102\n      jump\t// in\n    tag_133:\n        /* \"#utility.yul\":1564:1599   */\n      swap1\n      pop\n        /* \"#utility.yul\":1509:1605   */\n      swap2\n      swap1\n      pop\n      jump\t// out\n        /* \"#utility.yul\":1611:1729   */\n    tag_104:\n        /* \"#utility.yul\":1698:1722   */\n      tag_135\n        /* \"#utility.yul\":1716:1721   */\n      dup2\n        /* \"#utility.yul\":1698:1722   */\n      tag_103\n      jump\t// in\n    tag_135:\n        /* \"#utility.yul\":1693:1696   */\n      dup3\n        /* \"#utility.yul\":1686:1723   */\n      mstore\n        /* \"#utility.yul\":1611:1729   */\n      pop\n      pop\n      jump\t// out\n        /* \"#utility.yul\":1735:1957   */\n    tag_47:\n        /* \"#utility.yul\":1828:1832   */\n      0x00\n        /* \"#utility.yul\":1866:1868   */\n      0x20\n        /* \"#utility.yul\":1855:1864   */\n      dup3\n        /* \"#utility.yul\":1851:1869   */\n      add\n        /* \"#utility.yul\":1843:1869   */\n      swap1\n      pop\n        /* \"#utility.yul\":1879:1950   */\n      tag_137\n        /* \"#utility.yul\":1947:1948   */\n      0x00\n        /* \"#utility.yul\":1936:1945   */\n      dup4\n        /* \"#utility.yul\":1932:1949   */\n      add\n        /* \"#utility.yul\":1923:1929   */\n      dup5\n        /* \"#utility.yul\":1879:1950   */\n      tag_104\n      jump\t// in\n    tag_137:\n        /* \"#utility.yul\":1735:1957   */\n      swap3\n      swap2\n      pop\n      pop\n      jump\t// out\n        /* \"#utility.yul\":1963:2085   */\n    tag_105:\n        /* \"#utility.yul\":2036:2060   */\n      tag_139\n        /* \"#utility.yul\":2054:2059   */\n      dup2\n        /* \"#utility.yul\":2036:2060   */\n      tag_103\n      jump\t// in\n    tag_139:\n        /* \"#utility.yul\":2029:2034   */\n      dup2\n        /* \"#utility.yul\":2026:2061   */\n      eq\n        /* \"#utility.yul\":2016:2079   */\n      tag_140\n      jumpi\n        /* \"#utility.yul\":2075:2076   */\n      0x00\n        /* \"#utility.yul\":2072:2073   */\n      dup1\n        /* \"#utility.yul\":2065:2077   */\n      revert\n        /* \"#utility.yul\":2016:2079   */\n    tag_140:\n        /* \"#utility.yul\":1963:2085   */\n      pop\n      jump\t// out\n        /* \"#utility.yul\":2091:2230   */\n    tag_106:\n        /* \"#utility.yul\":2137:2142   */\n      0x00\n        /* \"#utility.yul\":2175:2181   */\n      dup2\n        /* \"#utility.yul\":2162:2182   */\n      calldataload\n        /* \"#utility.yul\":2153:2182   */\n      swap1\n      pop\n        /* \"#utility.yul\":2191:2224   */\n      tag_142\n        /* \"#utility.yul\":2218:2223   */\n      dup2\n        /* \"#utility.yul\":2191:2224   */\n      tag_105\n      jump\t// in\n    tag_142:\n        /* \"#utility.yul\":2091:2230   */\n      swap3\n      swap2\n      pop\n      pop\n      jump\t// out\n        /* \"#utility.yul\":2236:2565   */\n    tag_55:\n        /* \"#utility.yul\":2295:2301   */\n      0x00\n        /* \"#utility.yul\":2344:2346   */\n      0x20\n        /* \"#utility.yul\":2332:2341   */\n      dup3\n        /* \"#utility.yul\":2323:2330   */\n      dup5\n        /* \"#utility.yul\":2319:2342   */\n      sub\n        /* \"#utility.yul\":2315:2347   */\n      slt\n        /* \"#utility.yul\":2312:2431   */\n      iszero\n      tag_144\n      jumpi\n        /* \"#utility.yul\":2350:2429   */\n      tag_145\n      tag_98\n      jump\t// in\n    tag_145:\n        /* \"#utility.yul\":2312:2431   */\n    tag_144:\n        /* \"#utility.yul\":2470:2471   */\n      0x00\n        /* \"#utility.yul\":2495:2548   */\n      tag_146\n        /* \"#utility.yul\":2540:2547   */\n      dup5\n        /* \"#utility.yul\":2531:2537   */\n      dup3\n        /* \"#utility.yul\":2520:2529   */\n      dup6\n        /* \"#utility.yul\":2516:2538   */\n      add\n        /* \"#utility.yul\":2495:2548   */\n      tag_106\n      jump\t// in\n    tag_146:\n        /* \"#utility.yul\":2485:2548   */\n      swap2\n      pop\n        /* \"#utility.yul\":2441:2558   */\n      pop\n        /* \"#utility.yul\":2236:2565   */\n      swap3\n      swap2\n      pop\n      pop\n      jump\t// out\n        /* \"#utility.yul\":2571:2740   */\n    tag_107:\n        /* \"#utility.yul\":2655:2666   */\n      0x00\n        /* \"#utility.yul\":2689:2695   */\n      dup3\n        /* \"#utility.yul\":2684:2687   */\n      dup3\n        /* \"#utility.yul\":2677:2696   */\n      mstore\n        /* \"#utility.yul\":2729:2733   */\n      0x20\n        /* \"#utility.yul\":2724:2727   */\n      dup3\n        /* \"#utility.yul\":2720:2734   */\n      add\n        /* \"#utility.yul\":2705:2734   */\n      swap1\n      pop\n        /* \"#utility.yul\":2571:2740   */\n      swap3\n      swap2\n      pop\n      pop\n      jump\t// out\n        /* \"#utility.yul\":2746:2927   */\n    tag_108:\n        /* \"#utility.yul\":2886:2919   */\n      0x55736572206973206e6f742074686520636f6e7472616374206f776e65722e00\n        /* \"#utility.yul\":2882:2883   */\n      0x00\n        /* \"#utility.yul\":2874:2880   */\n      dup3\n        /* \"#utility.yul\":2870:2884   */\n      add\n        /* \"#utility.yul\":2863:2920   */\n      mstore\n        /* \"#utility.yul\":2746:2927   */\n      pop\n      jump\t// out\n        /* \"#utility.yul\":2933:3299   */\n    tag_109:\n        /* \"#utility.yul\":3075:3078   */\n      0x00\n        /* \"#utility.yul\":3096:3163   */\n      tag_150\n        /* \"#utility.yul\":3160:3162   */\n      0x1f\n        /* \"#utility.yul\":3155:3158   */\n      dup4\n        /* \"#utility.yul\":3096:3163   */\n      tag_107\n      jump\t// in\n    tag_150:\n        /* \"#utility.yul\":3089:3163   */\n      swap2\n      pop\n        /* \"#utility.yul\":3172:3265   */\n      tag_151\n        /* \"#utility.yul\":3261:3264   */\n      dup3\n        /* \"#utility.yul\":3172:3265   */\n      tag_108\n      jump\t// in\n    tag_151:\n        /* \"#utility.yul\":3290:3292   */\n      0x20\n        /* \"#utility.yul\":3285:3288   */\n      dup3\n        /* \"#utility.yul\":3281:3293   */\n      add\n        /* \"#utility.yul\":3274:3293   */\n      swap1\n      pop\n        /* \"#utility.yul\":2933:3299   */\n      swap2\n      swap1\n      pop\n      jump\t// out\n        /* \"#utility.yul\":3305:3724   */\n    tag_64:\n        /* \"#utility.yul\":3471:3475   */\n      0x00\n        /* \"#utility.yul\":3509:3511   */\n      0x20\n        /* \"#utility.yul\":3498:3507   */\n      dup3\n        /* \"#utility.yul\":3494:3512   */\n      add\n        /* \"#utility.yul\":3486:3512   */\n      swap1\n      pop\n        /* \"#utility.yul\":3558:3567   */\n      dup2\n        /* \"#utility.yul\":3552:3556   */\n      dup2\n        /* \"#utility.yul\":3548:3568   */\n      sub\n        /* \"#utility.yul\":3544:3545   */\n      0x00\n        /* \"#utility.yul\":3533:3542   */\n      dup4\n        /* \"#utility.yul\":3529:3546   */\n      add\n        /* \"#utility.yul\":3522:3569   */\n      mstore\n        /* \"#utility.yul\":3586:3717   */\n      tag_153\n        /* \"#utility.yul\":3712:3716   */\n      dup2\n        /* \"#utility.yul\":3586:3717   */\n      tag_109\n      jump\t// in\n    tag_153:\n        /* \"#utility.yul\":3578:3717   */\n      swap1\n      pop\n        /* \"#utility.yul\":3305:3724   */\n      swap2\n      swap1\n      pop\n      jump\t// out\n        /* \"#utility.yul\":3730:3910   */\n    tag_110:\n        /* \"#utility.yul\":3778:3855   */\n      0x4e487b7100000000000000000000000000000000000000000000000000000000\n        /* \"#utility.yul\":3775:3776   */\n      0x00\n        /* \"#utility.yul\":3768:3856   */\n      mstore\n        /* \"#utility.yul\":3875:3879   */\n      0x11\n        /* \"#utility.yul\":3872:3873   */\n      0x04\n        /* \"#utility.yul\":3865:3880   */\n      mstore\n        /* \"#utility.yul\":3899:3903   */\n      0x24\n        /* \"#utility.yul\":3896:3897   */\n      0x00\n        /* \"#utility.yul\":3889:3904   */\n      revert\n        /* \"#utility.yul\":3916:4326   */\n    tag_75:\n        /* \"#utility.yul\":3956:3963   */\n      0x00\n        /* \"#utility.yul\":3979:3999   */\n      tag_156\n        /* \"#utility.yul\":3997:3998   */\n      dup3\n        /* \"#utility.yul\":3979:3999   */\n      tag_95\n      jump\t// in\n    tag_156:\n        /* \"#utility.yul\":3974:3999   */\n      swap2\n      pop\n        /* \"#utility.yul\":4013:4033   */\n      tag_157\n        /* \"#utility.yul\":4031:4032   */\n      dup4\n        /* \"#utility.yul\":4013:4033   */\n      tag_95\n      jump\t// in\n    tag_157:\n        /* \"#utility.yul\":4008:4033   */\n      swap3\n      pop\n        /* \"#utility.yul\":4068:4069   */\n      dup3\n        /* \"#utility.yul\":4065:4066   */\n      dup3\n        /* \"#utility.yul\":4061:4070   */\n      mul\n        /* \"#utility.yul\":4090:4120   */\n      tag_158\n        /* \"#utility.yul\":4108:4119   */\n      dup2\n        /* \"#utility.yul\":4090:4120   */\n      tag_95\n      jump\t// in\n    tag_158:\n        /* \"#utility.yul\":4079:4120   */\n      swap2\n      pop\n        /* \"#utility.yul\":4269:4270   */\n      dup3\n        /* \"#utility.yul\":4260:4267   */\n      dup3\n        /* \"#utility.yul\":4256:4271   */\n      div\n        /* \"#utility.yul\":4253:4254   */\n      dup5\n        /* \"#utility.yul\":4250:4272   */\n      eq\n        /* \"#utility.yul\":4230:4231   */\n      dup4\n        /* \"#utility.yul\":4223:4232   */\n      iszero\n        /* \"#utility.yul\":4203:4286   */\n      or\n        /* \"#utility.yul\":4180:4319   */\n      tag_159\n      jumpi\n        /* \"#utility.yul\":4299:4317   */\n      tag_160\n      tag_110\n      jump\t// in\n    tag_160:\n        /* \"#utility.yul\":4180:4319   */\n    tag_159:\n        /* \"#utility.yul\":3964:4326   */\n      pop\n        /* \"#utility.yul\":3916:4326   */\n      swap3\n      swap2\n      pop\n      pop\n      jump\t// out\n        /* \"#utility.yul\":4332:4513   */\n    tag_111:\n        /* \"#utility.yul\":4472:4505   */\n      0x4465706f736974206d7573742062652067726561746572207468616e20302e00\n        /* \"#utility.yul\":4468:4469   */\n      0x00\n        /* \"#utility.yul\":4460:4466   */\n      dup3\n        /* \"#utility.yul\":4456:4470   */\n      add\n        /* \"#utility.yul\":4449:4506   */\n      mstore\n        /* \"#utility.yul\":4332:4513   */\n      pop\n      jump\t// out\n        /* \"#utility.yul\":4519:4885   */\n    tag_112:\n        /* \"#utility.yul\":4661:4664   */\n      0x00\n        /* \"#utility.yul\":4682:4749   */\n      tag_163\n        /* \"#utility.yul\":4746:4748   */\n      0x1f\n        /* \"#utility.yul\":4741:4744   */\n      dup4\n        /* \"#utility.yul\":4682:4749   */\n      tag_107\n      jump\t// in\n    tag_163:\n        /* \"#utility.yul\":4675:4749   */\n      swap2\n      pop\n        /* \"#utility.yul\":4758:4851   */\n      tag_164\n        /* \"#utility.yul\":4847:4850   */\n      dup3\n        /* \"#utility.yul\":4758:4851   */\n      tag_111\n      jump\t// in\n    tag_164:\n        /* \"#utility.yul\":4876:4878   */\n      0x20\n        /* \"#utility.yul\":4871:4874   */\n      dup3\n        /* \"#utility.yul\":4867:4879   */\n      add\n        /* \"#utility.yul\":4860:4879   */\n      swap1\n      pop\n        /* \"#utility.yul\":4519:4885   */\n      swap2\n      swap1\n      pop\n      jump\t// out\n        /* \"#utility.yul\":4891:5310   */\n    tag_94:\n        /* \"#utility.yul\":5057:5061   */\n      0x00\n        /* \"#utility.yul\":5095:5097   */\n      0x20\n        /* \"#utility.yul\":5084:5093   */\n      dup3\n        /* \"#utility.yul\":5080:5098   */\n      add\n        /* \"#utility.yul\":5072:5098   */\n      swap1\n      pop\n        /* \"#utility.yul\":5144:5153   */\n      dup2\n        /* \"#utility.yul\":5138:5142   */\n      dup2\n        /* \"#utility.yul\":5134:5154   */\n      sub\n        /* \"#utility.yul\":5130:5131   */\n      0x00\n        /* \"#utility.yul\":5119:5128   */\n      dup4\n        /* \"#utility.yul\":5115:5132   */\n      add\n        /* \"#utility.yul\":5108:5155   */\n      mstore\n        /* \"#utility.yul\":5172:5303   */\n      tag_166\n        /* \"#utility.yul\":5298:5302   */\n      dup2\n        /* \"#utility.yul\":5172:5303   */\n      tag_112\n      jump\t// in\n    tag_166:\n        /* \"#utility.yul\":5164:5303   */\n      swap1\n      pop\n        /* \"#utility.yul\":4891:5310   */\n      swap2\n      swap1\n      pop\n      jump\t// out\n\n    auxdata: 0xa2646970667358221220ee6912560ab0a20b961b99847b5a959f77b170298e4b20b0ead004e75697514764736f6c63430008110033\n}\n",
				"bytecode": {
					"linkReferences": {},
					"object": "608060405260008060146101000a81548160ff0219169083151502179055506801158e460913d000006001556702c68af0bb140000600255600060035534801561004857600080fd5b50336000806101000a81548173ffffffffffffffffffffffffffffffffffffffff021916908373ffffffffffffffffffffffffffffffffffffffff160217905550610946806100986000396000f3fe60806040526004361061009c5760003560e01c8063881eff1e11610064578063881eff1e1461016457806388ea41b91461018d578063893d20e8146101b6578063951a1a62146101e1578063a6f9dae11461020c578063b6b55f25146102355761009c565b806312065fe0146100a15780631385d24c146100cc57806324c37507146100e35780633919b1971461010e578063646668b614610139575b600080fd5b3480156100ad57600080fd5b506100b6610251565b6040516100c39190610688565b60405180910390f35b3480156100d857600080fd5b506100e1610259565b005b3480156100ef57600080fd5b506100f8610313565b6040516101059190610688565b60405180910390f35b34801561011a57600080fd5b5061012361031d565b6040516101309190610688565b60405180910390f35b34801561014557600080fd5b5061014e610323565b60405161015b9190610688565b60405180910390f35b34801561017057600080fd5b5061018b600480360381019061018691906106d4565b61032d565b005b34801561019957600080fd5b506101b460048036038101906101af91906106d4565b6103f2565b005b3480156101c257600080fd5b506101cb6104b7565b6040516101d89190610742565b60405180910390f35b3480156101ed57600080fd5b506101f66104e0565b6040516102039190610688565b60405180910390f35b34801561021857600080fd5b50610233600480360381019061022e9190610789565b6104e6565b005b61024f600480360381019061024a91906106d4565b610581565b005b600047905090565b60008054906101000a900473ffffffffffffffffffffffffffffffffffffffff1673ffffffffffffffffffffffffffffffffffffffff163373ffffffffffffffffffffffffffffffffffffffff16146102e7576040517f08c379a00000000000000000000000000000000000000000000000000000000081526004016102de90610813565b60405180910390fd5b600060149054906101000a900460ff1615600060146101000a81548160ff021916908315150217905550565b6000600254905090565b60015481565b6000600154905090565b60008054906101000a900473ffffffffffffffffffffffffffffffffffffffff1673ffffffffffffffffffffffffffffffffffffffff163373ffffffffffffffffffffffffffffffffffffffff16146103bb576040517f08c379a00000000000000000000000000000000000000000000000000000000081526004016103b290610813565b60405180910390fd5b600060149054906101000a900460ff16156103d557600080fd5b670de0b6b3a7640000816103e99190610862565b60018190555050565b60008054906101000a900473ffffffffffffffffffffffffffffffffffffffff1673ffffffffffffffffffffffffffffffffffffffff163373ffffffffffffffffffffffffffffffffffffffff1614610480576040517f08c379a000000000000000000000000000000000000000000000000000000000815260040161047790610813565b60405180910390fd5b600060149054906101000a900460ff161561049a57600080fd5b670de0b6b3a7640000816104ae9190610862565b60028190555050565b60008060009054906101000a900473ffffffffffffffffffffffffffffffffffffffff16905090565b60025481565b60008054906101000a900473ffffffffffffffffffffffffffffffffffffffff1673ffffffffffffffffffffffffffffffffffffffff163373ffffffffffffffffffffffffffffffffffffffff161461053e57600080fd5b806000806101000a81548173ffffffffffffffffffffffffffffffffffffffff021916908373ffffffffffffffffffffffffffffffffffffffff16021790555050565b60008054906101000a900473ffffffffffffffffffffffffffffffffffffffff1673ffffffffffffffffffffffffffffffffffffffff163373ffffffffffffffffffffffffffffffffffffffff161461060f576040517f08c379a000000000000000000000000000000000000000000000000000000000815260040161060690610813565b60405180910390fd5b600060149054906101000a900460ff161561062957600080fd5b6000811161066c576040517f08c379a0000000000000000000000000000000000000000000000000000000008152600401610663906108f0565b60405180910390fd5b50565b6000819050919050565b6106828161066f565b82525050565b600060208201905061069d6000830184610679565b92915050565b600080fd5b6106b18161066f565b81146106bc57600080fd5b50565b6000813590506106ce816106a8565b92915050565b6000602082840312156106ea576106e96106a3565b5b60006106f8848285016106bf565b91505092915050565b600073ffffffffffffffffffffffffffffffffffffffff82169050919050565b600061072c82610701565b9050919050565b61073c81610721565b82525050565b60006020820190506107576000830184610733565b92915050565b61076681610721565b811461077157600080fd5b50565b6000813590506107838161075d565b92915050565b60006020828403121561079f5761079e6106a3565b5b60006107ad84828501610774565b91505092915050565b600082825260208201905092915050565b7f55736572206973206e6f742074686520636f6e7472616374206f776e65722e00600082015250565b60006107fd601f836107b6565b9150610808826107c7565b602082019050919050565b6000602082019050818103600083015261082c816107f0565b9050919050565b7f4e487b7100000000000000000000000000000000000000000000000000000000600052601160045260246000fd5b600061086d8261066f565b91506108788361066f565b92508282026108868161066f565b9150828204841483151761089d5761089c610833565b5b5092915050565b7f4465706f736974206d7573742062652067726561746572207468616e20302e00600082015250565b60006108da601f836107b6565b91506108e5826108a4565b602082019050919050565b60006020820190508181036000830152610909816108cd565b905091905056fea2646970667358221220ee6912560ab0a20b961b99847b5a959f77b170298e4b20b0ead004e75697514764736f6c63430008110033",
					"opcodes": "PUSH1 0x80 PUSH1 0x40 MSTORE PUSH1 0x0 DUP1 PUSH1 0x14 PUSH2 0x100 EXP DUP2 SLOAD DUP2 PUSH1 0xFF MUL NOT AND SWAP1 DUP4 ISZERO ISZERO MUL OR SWAP1 SSTORE POP PUSH9 0x1158E460913D00000 PUSH1 0x1 SSTORE PUSH8 0x2C68AF0BB140000 PUSH1 0x2 SSTORE PUSH1 0x0 PUSH1 0x3 SSTORE CALLVALUE DUP1 ISZERO PUSH2 0x48 JUMPI PUSH1 0x0 DUP1 REVERT JUMPDEST POP CALLER PUSH1 0x0 DUP1 PUSH2 0x100 EXP DUP2 SLOAD DUP2 PUSH20 0xFFFFFFFFFFFFFFFFFFFFFFFFFFFFFFFFFFFFFFFF MUL NOT AND SWAP1 DUP4 PUSH20 0xFFFFFFFFFFFFFFFFFFFFFFFFFFFFFFFFFFFFFFFF AND MUL OR SWAP1 SSTORE POP PUSH2 0x946 DUP1 PUSH2 0x98 PUSH1 0x0 CODECOPY PUSH1 0x0 RETURN INVALID PUSH1 0x80 PUSH1 0x40 MSTORE PUSH1 0x4 CALLDATASIZE LT PUSH2 0x9C JUMPI PUSH1 0x0 CALLDATALOAD PUSH1 0xE0 SHR DUP1 PUSH4 0x881EFF1E GT PUSH2 0x64 JUMPI DUP1 PUSH4 0x881EFF1E EQ PUSH2 0x164 JUMPI DUP1 PUSH4 0x88EA41B9 EQ PUSH2 0x18D JUMPI DUP1 PUSH4 0x893D20E8 EQ PUSH2 0x1B6 JUMPI DUP1 PUSH4 0x951A1A62 EQ PUSH2 0x1E1 JUMPI DUP1 PUSH4 0xA6F9DAE1 EQ PUSH2 0x20C JUMPI DUP1 PUSH4 0xB6B55F25 EQ PUSH2 0x235 JUMPI PUSH2 0x9C JUMP JUMPDEST DUP1 PUSH4 0x12065FE0 EQ PUSH2 0xA1 JUMPI DUP1 PUSH4 0x1385D24C EQ PUSH2 0xCC JUMPI DUP1 PUSH4 0x24C37507 EQ PUSH2 0xE3 JUMPI DUP1 PUSH4 0x3919B197 EQ PUSH2 0x10E JUMPI DUP1 PUSH4 0x646668B6 EQ PUSH2 0x139 JUMPI JUMPDEST PUSH1 0x0 DUP1 REVERT JUMPDEST CALLVALUE DUP1 ISZERO PUSH2 0xAD JUMPI PUSH1 0x0 DUP1 REVERT JUMPDEST POP PUSH2 0xB6 PUSH2 0x251 JUMP JUMPDEST PUSH1 0x40 MLOAD PUSH2 0xC3 SWAP2 SWAP1 PUSH2 0x688 JUMP JUMPDEST PUSH1 0x40 MLOAD DUP1 SWAP2 SUB SWAP1 RETURN JUMPDEST CALLVALUE DUP1 ISZERO PUSH2 0xD8 JUMPI PUSH1 0x0 DUP1 REVERT JUMPDEST POP PUSH2 0xE1 PUSH2 0x259 JUMP JUMPDEST STOP JUMPDEST CALLVALUE DUP1 ISZERO PUSH2 0xEF JUMPI PUSH1 0x0 DUP1 REVERT JUMPDEST POP PUSH2 0xF8 PUSH2 0x313 JUMP JUMPDEST PUSH1 0x40 MLOAD PUSH2 0x105 SWAP2 SWAP1 PUSH2 0x688 JUMP JUMPDEST PUSH1 0x40 MLOAD DUP1 SWAP2 SUB SWAP1 RETURN JUMPDEST CALLVALUE DUP1 ISZERO PUSH2 0x11A JUMPI PUSH1 0x0 DUP1 REVERT JUMPDEST POP PUSH2 0x123 PUSH2 0x31D JUMP JUMPDEST PUSH1 0x40 MLOAD PUSH2 0x130 SWAP2 SWAP1 PUSH2 0x688 JUMP JUMPDEST PUSH1 0x40 MLOAD DUP1 SWAP2 SUB SWAP1 RETURN JUMPDEST CALLVALUE DUP1 ISZERO PUSH2 0x145 JUMPI PUSH1 0x0 DUP1 REVERT JUMPDEST POP PUSH2 0x14E PUSH2 0x323 JUMP JUMPDEST PUSH1 0x40 MLOAD PUSH2 0x15B SWAP2 SWAP1 PUSH2 0x688 JUMP JUMPDEST PUSH1 0x40 MLOAD DUP1 SWAP2 SUB SWAP1 RETURN JUMPDEST CALLVALUE DUP1 ISZERO PUSH2 0x170 JUMPI PUSH1 0x0 DUP1 REVERT JUMPDEST POP PUSH2 0x18B PUSH1 0x4 DUP1 CALLDATASIZE SUB DUP2 ADD SWAP1 PUSH2 0x186 SWAP2 SWAP1 PUSH2 0x6D4 JUMP JUMPDEST PUSH2 0x32D JUMP JUMPDEST STOP JUMPDEST CALLVALUE DUP1 ISZERO PUSH2 0x199 JUMPI PUSH1 0x0 DUP1 REVERT JUMPDEST POP PUSH2 0x1B4 PUSH1 0x4 DUP1 CALLDATASIZE SUB DUP2 ADD SWAP1 PUSH2 0x1AF SWAP2 SWAP1 PUSH2 0x6D4 JUMP JUMPDEST PUSH2 0x3F2 JUMP JUMPDEST STOP JUMPDEST CALLVALUE DUP1 ISZERO PUSH2 0x1C2 JUMPI PUSH1 0x0 DUP1 REVERT JUMPDEST POP PUSH2 0x1CB PUSH2 0x4B7 JUMP JUMPDEST PUSH1 0x40 MLOAD PUSH2 0x1D8 SWAP2 SWAP1 PUSH2 0x742 JUMP JUMPDEST PUSH1 0x40 MLOAD DUP1 SWAP2 SUB SWAP1 RETURN JUMPDEST CALLVALUE DUP1 ISZERO PUSH2 0x1ED JUMPI PUSH1 0x0 DUP1 REVERT JUMPDEST POP PUSH2 0x1F6 PUSH2 0x4E0 JUMP JUMPDEST PUSH1 0x40 MLOAD PUSH2 0x203 SWAP2 SWAP1 PUSH2 0x688 JUMP JUMPDEST PUSH1 0x40 MLOAD DUP1 SWAP2 SUB SWAP1 RETURN JUMPDEST CALLVALUE DUP1 ISZERO PUSH2 0x218 JUMPI PUSH1 0x0 DUP1 REVERT JUMPDEST POP PUSH2 0x233 PUSH1 0x4 DUP1 CALLDATASIZE SUB DUP2 ADD SWAP1 PUSH2 0x22E SWAP2 SWAP1 PUSH2 0x789 JUMP JUMPDEST PUSH2 0x4E6 JUMP JUMPDEST STOP JUMPDEST PUSH2 0x24F PUSH1 0x4 DUP1 CALLDATASIZE SUB DUP2 ADD SWAP1 PUSH2 0x24A SWAP2 SWAP1 PUSH2 0x6D4 JUMP JUMPDEST PUSH2 0x581 JUMP JUMPDEST STOP JUMPDEST PUSH1 0x0 SELFBALANCE SWAP1 POP SWAP1 JUMP JUMPDEST PUSH1 0x0 DUP1 SLOAD SWAP1 PUSH2 0x100 EXP SWAP1 DIV PUSH20 0xFFFFFFFFFFFFFFFFFFFFFFFFFFFFFFFFFFFFFFFF AND PUSH20 0xFFFFFFFFFFFFFFFFFFFFFFFFFFFFFFFFFFFFFFFF AND CALLER PUSH20 0xFFFFFFFFFFFFFFFFFFFFFFFFFFFFFFFFFFFFFFFF AND EQ PUSH2 0x2E7 JUMPI PUSH1 0x40 MLOAD PUSH32 0x8C379A000000000000000000000000000000000000000000000000000000000 DUP2 MSTORE PUSH1 0x4 ADD PUSH2 0x2DE SWAP1 PUSH2 0x813 JUMP JUMPDEST PUSH1 0x40 MLOAD DUP1 SWAP2 SUB SWAP1 REVERT JUMPDEST PUSH1 0x0 PUSH1 0x14 SWAP1 SLOAD SWAP1 PUSH2 0x100 EXP SWAP1 DIV PUSH1 0xFF AND ISZERO PUSH1 0x0 PUSH1 0x14 PUSH2 0x100 EXP DUP2 SLOAD DUP2 PUSH1 0xFF MUL NOT AND SWAP1 DUP4 ISZERO ISZERO MUL OR SWAP1 SSTORE POP JUMP JUMPDEST PUSH1 0x0 PUSH1 0x2 SLOAD SWAP1 POP SWAP1 JUMP JUMPDEST PUSH1 0x1 SLOAD DUP2 JUMP JUMPDEST PUSH1 0x0 PUSH1 0x1 SLOAD SWAP1 POP SWAP1 JUMP JUMPDEST PUSH1 0x0 DUP1 SLOAD SWAP1 PUSH2 0x100 EXP SWAP1 DIV PUSH20 0xFFFFFFFFFFFFFFFFFFFFFFFFFFFFFFFFFFFFFFFF AND PUSH20 0xFFFFFFFFFFFFFFFFFFFFFFFFFFFFFFFFFFFFFFFF AND CALLER PUSH20 0xFFFFFFFFFFFFFFFFFFFFFFFFFFFFFFFFFFFFFFFF AND EQ PUSH2 0x3BB JUMPI PUSH1 0x40 MLOAD PUSH32 0x8C379A000000000000000000000000000000000000000000000000000000000 DUP2 MSTORE PUSH1 0x4 ADD PUSH2 0x3B2 SWAP1 PUSH2 0x813 JUMP JUMPDEST PUSH1 0x40 MLOAD DUP1 SWAP2 SUB SWAP1 REVERT JUMPDEST PUSH1 0x0 PUSH1 0x14 SWAP1 SLOAD SWAP1 PUSH2 0x100 EXP SWAP1 DIV PUSH1 0xFF AND ISZERO PUSH2 0x3D5 JUMPI PUSH1 0x0 DUP1 REVERT JUMPDEST PUSH8 0xDE0B6B3A7640000 DUP2 PUSH2 0x3E9 SWAP2 SWAP1 PUSH2 0x862 JUMP JUMPDEST PUSH1 0x1 DUP2 SWAP1 SSTORE POP POP JUMP JUMPDEST PUSH1 0x0 DUP1 SLOAD SWAP1 PUSH2 0x100 EXP SWAP1 DIV PUSH20 0xFFFFFFFFFFFFFFFFFFFFFFFFFFFFFFFFFFFFFFFF AND PUSH20 0xFFFFFFFFFFFFFFFFFFFFFFFFFFFFFFFFFFFFFFFF AND CALLER PUSH20 0xFFFFFFFFFFFFFFFFFFFFFFFFFFFFFFFFFFFFFFFF AND EQ PUSH2 0x480 JUMPI PUSH1 0x40 MLOAD PUSH32 0x8C379A000000000000000000000000000000000000000000000000000000000 DUP2 MSTORE PUSH1 0x4 ADD PUSH2 0x477 SWAP1 PUSH2 0x813 JUMP JUMPDEST PUSH1 0x40 MLOAD DUP1 SWAP2 SUB SWAP1 REVERT JUMPDEST PUSH1 0x0 PUSH1 0x14 SWAP1 SLOAD SWAP1 PUSH2 0x100 EXP SWAP1 DIV PUSH1 0xFF AND ISZERO PUSH2 0x49A JUMPI PUSH1 0x0 DUP1 REVERT JUMPDEST PUSH8 0xDE0B6B3A7640000 DUP2 PUSH2 0x4AE SWAP2 SWAP1 PUSH2 0x862 JUMP JUMPDEST PUSH1 0x2 DUP2 SWAP1 SSTORE POP POP JUMP JUMPDEST PUSH1 0x0 DUP1 PUSH1 0x0 SWAP1 SLOAD SWAP1 PUSH2 0x100 EXP SWAP1 DIV PUSH20 0xFFFFFFFFFFFFFFFFFFFFFFFFFFFFFFFFFFFFFFFF AND SWAP1 POP SWAP1 JUMP JUMPDEST PUSH1 0x2 SLOAD DUP2 JUMP JUMPDEST PUSH1 0x0 DUP1 SLOAD SWAP1 PUSH2 0x100 EXP SWAP1 DIV PUSH20 0xFFFFFFFFFFFFFFFFFFFFFFFFFFFFFFFFFFFFFFFF AND PUSH20 0xFFFFFFFFFFFFFFFFFFFFFFFFFFFFFFFFFFFFFFFF AND CALLER PUSH20 0xFFFFFFFFFFFFFFFFFFFFFFFFFFFFFFFFFFFFFFFF AND EQ PUSH2 0x53E JUMPI PUSH1 0x0 DUP1 REVERT JUMPDEST DUP1 PUSH1 0x0 DUP1 PUSH2 0x100 EXP DUP2 SLOAD DUP2 PUSH20 0xFFFFFFFFFFFFFFFFFFFFFFFFFFFFFFFFFFFFFFFF MUL NOT AND SWAP1 DUP4 PUSH20 0xFFFFFFFFFFFFFFFFFFFFFFFFFFFFFFFFFFFFFFFF AND MUL OR SWAP1 SSTORE POP POP JUMP JUMPDEST PUSH1 0x0 DUP1 SLOAD SWAP1 PUSH2 0x100 EXP SWAP1 DIV PUSH20 0xFFFFFFFFFFFFFFFFFFFFFFFFFFFFFFFFFFFFFFFF AND PUSH20 0xFFFFFFFFFFFFFFFFFFFFFFFFFFFFFFFFFFFFFFFF AND CALLER PUSH20 0xFFFFFFFFFFFFFFFFFFFFFFFFFFFFFFFFFFFFFFFF AND EQ PUSH2 0x60F JUMPI PUSH1 0x40 MLOAD PUSH32 0x8C379A000000000000000000000000000000000000000000000000000000000 DUP2 MSTORE PUSH1 0x4 ADD PUSH2 0x606 SWAP1 PUSH2 0x813 JUMP JUMPDEST PUSH1 0x40 MLOAD DUP1 SWAP2 SUB SWAP1 REVERT JUMPDEST PUSH1 0x0 PUSH1 0x14 SWAP1 SLOAD SWAP1 PUSH2 0x100 EXP SWAP1 DIV PUSH1 0xFF AND ISZERO PUSH2 0x629 JUMPI PUSH1 0x0 DUP1 REVERT JUMPDEST PUSH1 0x0 DUP2 GT PUSH2 0x66C JUMPI PUSH1 0x40 MLOAD PUSH32 0x8C379A000000000000000000000000000000000000000000000000000000000 DUP2 MSTORE PUSH1 0x4 ADD PUSH2 0x663 SWAP1 PUSH2 0x8F0 JUMP JUMPDEST PUSH1 0x40 MLOAD DUP1 SWAP2 SUB SWAP1 REVERT JUMPDEST POP JUMP JUMPDEST PUSH1 0x0 DUP2 SWAP1 POP SWAP2 SWAP1 POP JUMP JUMPDEST PUSH2 0x682 DUP2 PUSH2 0x66F JUMP JUMPDEST DUP3 MSTORE POP POP JUMP JUMPDEST PUSH1 0x0 PUSH1 0x20 DUP3 ADD SWAP1 POP PUSH2 0x69D PUSH1 0x0 DUP4 ADD DUP5 PUSH2 0x679 JUMP JUMPDEST SWAP3 SWAP2 POP POP JUMP JUMPDEST PUSH1 0x0 DUP1 REVERT JUMPDEST PUSH2 0x6B1 DUP2 PUSH2 0x66F JUMP JUMPDEST DUP2 EQ PUSH2 0x6BC JUMPI PUSH1 0x0 DUP1 REVERT JUMPDEST POP JUMP JUMPDEST PUSH1 0x0 DUP2 CALLDATALOAD SWAP1 POP PUSH2 0x6CE DUP2 PUSH2 0x6A8 JUMP JUMPDEST SWAP3 SWAP2 POP POP JUMP JUMPDEST PUSH1 0x0 PUSH1 0x20 DUP3 DUP5 SUB SLT ISZERO PUSH2 0x6EA JUMPI PUSH2 0x6E9 PUSH2 0x6A3 JUMP JUMPDEST JUMPDEST PUSH1 0x0 PUSH2 0x6F8 DUP5 DUP3 DUP6 ADD PUSH2 0x6BF JUMP JUMPDEST SWAP2 POP POP SWAP3 SWAP2 POP POP JUMP JUMPDEST PUSH1 0x0 PUSH20 0xFFFFFFFFFFFFFFFFFFFFFFFFFFFFFFFFFFFFFFFF DUP3 AND SWAP1 POP SWAP2 SWAP1 POP JUMP JUMPDEST PUSH1 0x0 PUSH2 0x72C DUP3 PUSH2 0x701 JUMP JUMPDEST SWAP1 POP SWAP2 SWAP1 POP JUMP JUMPDEST PUSH2 0x73C DUP2 PUSH2 0x721 JUMP JUMPDEST DUP3 MSTORE POP POP JUMP JUMPDEST PUSH1 0x0 PUSH1 0x20 DUP3 ADD SWAP1 POP PUSH2 0x757 PUSH1 0x0 DUP4 ADD DUP5 PUSH2 0x733 JUMP JUMPDEST SWAP3 SWAP2 POP POP JUMP JUMPDEST PUSH2 0x766 DUP2 PUSH2 0x721 JUMP JUMPDEST DUP2 EQ PUSH2 0x771 JUMPI PUSH1 0x0 DUP1 REVERT JUMPDEST POP JUMP JUMPDEST PUSH1 0x0 DUP2 CALLDATALOAD SWAP1 POP PUSH2 0x783 DUP2 PUSH2 0x75D JUMP JUMPDEST SWAP3 SWAP2 POP POP JUMP JUMPDEST PUSH1 0x0 PUSH1 0x20 DUP3 DUP5 SUB SLT ISZERO PUSH2 0x79F JUMPI PUSH2 0x79E PUSH2 0x6A3 JUMP JUMPDEST JUMPDEST PUSH1 0x0 PUSH2 0x7AD DUP5 DUP3 DUP6 ADD PUSH2 0x774 JUMP JUMPDEST SWAP2 POP POP SWAP3 SWAP2 POP POP JUMP JUMPDEST PUSH1 0x0 DUP3 DUP3 MSTORE PUSH1 0x20 DUP3 ADD SWAP1 POP SWAP3 SWAP2 POP POP JUMP JUMPDEST PUSH32 0x55736572206973206E6F742074686520636F6E7472616374206F776E65722E00 PUSH1 0x0 DUP3 ADD MSTORE POP JUMP JUMPDEST PUSH1 0x0 PUSH2 0x7FD PUSH1 0x1F DUP4 PUSH2 0x7B6 JUMP JUMPDEST SWAP2 POP PUSH2 0x808 DUP3 PUSH2 0x7C7 JUMP JUMPDEST PUSH1 0x20 DUP3 ADD SWAP1 POP SWAP2 SWAP1 POP JUMP JUMPDEST PUSH1 0x0 PUSH1 0x20 DUP3 ADD SWAP1 POP DUP2 DUP2 SUB PUSH1 0x0 DUP4 ADD MSTORE PUSH2 0x82C DUP2 PUSH2 0x7F0 JUMP JUMPDEST SWAP1 POP SWAP2 SWAP1 POP JUMP JUMPDEST PUSH32 0x4E487B7100000000000000000000000000000000000000000000000000000000 PUSH1 0x0 MSTORE PUSH1 0x11 PUSH1 0x4 MSTORE PUSH1 0x24 PUSH1 0x0 REVERT JUMPDEST PUSH1 0x0 PUSH2 0x86D DUP3 PUSH2 0x66F JUMP JUMPDEST SWAP2 POP PUSH2 0x878 DUP4 PUSH2 0x66F JUMP JUMPDEST SWAP3 POP DUP3 DUP3 MUL PUSH2 0x886 DUP2 PUSH2 0x66F JUMP JUMPDEST SWAP2 POP DUP3 DUP3 DIV DUP5 EQ DUP4 ISZERO OR PUSH2 0x89D JUMPI PUSH2 0x89C PUSH2 0x833 JUMP JUMPDEST JUMPDEST POP SWAP3 SWAP2 POP POP JUMP JUMPDEST PUSH32 0x4465706F736974206D7573742062652067726561746572207468616E20302E00 PUSH1 0x0 DUP3 ADD MSTORE POP JUMP JUMPDEST PUSH1 0x0 PUSH2 0x8DA PUSH1 0x1F DUP4 PUSH2 0x7B6 JUMP JUMPDEST SWAP2 POP PUSH2 0x8E5 DUP3 PUSH2 0x8A4 JUMP JUMPDEST PUSH1 0x20 DUP3 ADD SWAP1 POP SWAP2 SWAP1 POP JUMP JUMPDEST PUSH1 0x0 PUSH1 0x20 DUP3 ADD SWAP1 POP DUP2 DUP2 SUB PUSH1 0x0 DUP4 ADD MSTORE PUSH2 0x909 DUP2 PUSH2 0x8CD JUMP JUMPDEST SWAP1 POP SWAP2 SWAP1 POP JUMP INVALID LOG2 PUSH5 0x6970667358 0x22 SLT KECCAK256 0xEE PUSH10 0x12560AB0A20B961B9984 PUSH28 0x5A959F77B170298E4B20B0EAD004E75697514764736F6C6343000811 STOP CALLER "
				},
				"gasEstimates": {
					"creation": {
						"codeDepositCost": "474800",
						"executionCost": "98312",
						"totalCost": "573112"
					},
					"external": {
						"changeOwner(address)": "26977",
						"deposit(uint256)": "5175",
						"getBalance()": "340",
						"getMaxBet()": "2526",
						"getMinBet()": "2482",
						"getOwner()": "2566",
						"maxBetETH()": "2496",
						"minBetETH()": "2495",
						"setMaxBet(uint256)": "infinite",
						"setMinBet(uint256)": "infinite",
						"toggleContractActive()": "28840"
					},
					"internal": {
						"randomNumber(uint256)": "infinite"
					}
				},
				"methodIdentifiers": {
					"changeOwner(address)": "a6f9dae1",
					"deposit(uint256)": "b6b55f25",
					"getBalance()": "12065fe0",
					"getMaxBet()": "646668b6",
					"getMinBet()": "24c37507",
					"getOwner()": "893d20e8",
					"maxBetETH()": "3919b197",
					"minBetETH()": "951a1a62",
					"setMaxBet(uint256)": "881eff1e",
					"setMinBet(uint256)": "88ea41b9",
					"toggleContractActive()": "1385d24c"
				}
			},
			"storageLayout": {
				"storage": [
					{
						"astId": 293,
						"contract": "CoinFlip/contracts/Manager.sol:Manager",
						"label": "owner",
						"offset": 0,
						"slot": "0",
						"type": "t_address"
					},
					{
						"astId": 143,
						"contract": "CoinFlip/contracts/Manager.sol:Manager",
						"label": "stopped",
						"offset": 20,
						"slot": "0",
						"type": "t_bool"
					},
					{
						"astId": 146,
						"contract": "CoinFlip/contracts/Manager.sol:Manager",
						"label": "maxBetETH",
						"offset": 0,
						"slot": "1",
						"type": "t_uint256"
					},
					{
						"astId": 149,
						"contract": "CoinFlip/contracts/Manager.sol:Manager",
						"label": "minBetETH",
						"offset": 0,
						"slot": "2",
						"type": "t_uint256"
					},
					{
						"astId": 152,
						"contract": "CoinFlip/contracts/Manager.sol:Manager",
						"label": "randomNonce",
						"offset": 0,
						"slot": "3",
						"type": "t_uint256"
					}
				],
				"types": {
					"t_address": {
						"encoding": "inplace",
						"label": "address",
						"numberOfBytes": "20"
					},
					"t_bool": {
						"encoding": "inplace",
						"label": "bool",
						"numberOfBytes": "1"
					},
					"t_uint256": {
						"encoding": "inplace",
						"label": "uint256",
						"numberOfBytes": "32"
					}
				}
			},
			"userdoc": {
				"kind": "user",
				"methods": {},
				"version": 1
			}
		}
	}
}