{
	"CoinFlip/contracts/CoinFlip.sol": {
		"CoinFlip": {
			"abi": [
				{
					"inputs": [],
					"stateMutability": "payable",
					"type": "constructor"
				},
				{
					"inputs": [
						{
							"internalType": "address",
							"name": "_newOwner",
							"type": "address"
						}
					],
					"name": "changeOwner",
					"outputs": [],
					"stateMutability": "nonpayable",
					"type": "function"
				},
				{
					"inputs": [],
					"name": "contractBalance",
					"outputs": [
						{
							"internalType": "uint256",
							"name": "",
							"type": "uint256"
						}
					],
					"stateMutability": "view",
					"type": "function"
				},
				{
					"inputs": [
						{
							"internalType": "uint256",
							"name": "_userDepositAmount",
							"type": "uint256"
						}
					],
					"name": "deposit",
					"outputs": [],
					"stateMutability": "payable",
					"type": "function"
				},
				{
					"inputs": [],
					"name": "flipCoin",
					"outputs": [],
					"stateMutability": "payable",
					"type": "function"
				},
				{
					"inputs": [],
					"name": "getBalance",
					"outputs": [
						{
							"internalType": "uint256",
							"name": "",
							"type": "uint256"
						}
					],
					"stateMutability": "view",
					"type": "function"
				},
				{
					"inputs": [],
					"name": "getMaxBet",
					"outputs": [
						{
							"internalType": "uint256",
							"name": "",
							"type": "uint256"
						}
					],
					"stateMutability": "view",
					"type": "function"
				},
				{
					"inputs": [],
					"name": "getMinBet",
					"outputs": [
						{
							"internalType": "uint256",
							"name": "",
							"type": "uint256"
						}
					],
					"stateMutability": "view",
					"type": "function"
				},
				{
					"inputs": [],
					"name": "getOwner",
					"outputs": [
						{
							"internalType": "address",
							"name": "",
							"type": "address"
						}
					],
					"stateMutability": "view",
					"type": "function"
				},
				{
					"inputs": [],
					"name": "maxBetETH",
					"outputs": [
						{
							"internalType": "uint256",
							"name": "",
							"type": "uint256"
						}
					],
					"stateMutability": "view",
					"type": "function"
				},
				{
					"inputs": [],
					"name": "minBetETH",
					"outputs": [
						{
							"internalType": "uint256",
							"name": "",
							"type": "uint256"
						}
					],
					"stateMutability": "view",
					"type": "function"
				},
				{
					"inputs": [
						{
							"internalType": "uint256",
							"name": "_newAmount",
							"type": "uint256"
						}
					],
					"name": "setMaxBet",
					"outputs": [],
					"stateMutability": "nonpayable",
					"type": "function"
				},
				{
					"inputs": [
						{
							"internalType": "uint256",
							"name": "_newAmount",
							"type": "uint256"
						}
					],
					"name": "setMinBet",
					"outputs": [],
					"stateMutability": "nonpayable",
					"type": "function"
				},
				{
					"inputs": [],
					"name": "toggleContractActive",
					"outputs": [],
					"stateMutability": "nonpayable",
					"type": "function"
				},
				{
					"inputs": [],
					"name": "withdrawFunds",
					"outputs": [],
					"stateMutability": "nonpayable",
					"type": "function"
				}
			],
			"devdoc": {
				"kind": "dev",
				"methods": {},
				"version": 1
			},
			"evm": {
				"assembly": "    /* \"CoinFlip/contracts/CoinFlip.sol\":113:1924  contract CoinFlip is Manager {... */\n  mstore(0x40, 0x80)\n    /* \"CoinFlip/contracts/Manager.sol\":141:146  false */\n  0x00\n    /* \"CoinFlip/contracts/Manager.sol\":118:146  bool private stopped = false */\n  dup1\n  exp(0x0100, 0x14)\n  dup2\n  sload\n  dup2\n  0xff\n  mul\n  not\n  and\n  swap1\n  dup4\n  iszero\n  iszero\n  mul\n  or\n  swap1\n  sstore\n  pop\n    /* \"CoinFlip/contracts/Manager.sol\":177:185  20 ether */\n  0x01158e460913d00000\n    /* \"CoinFlip/contracts/Manager.sol\":153:185  uint public maxBetETH = 20 ether */\n  0x01\n  sstore\n    /* \"CoinFlip/contracts/Manager.sol\":216:225  0.2 ether */\n  0x02c68af0bb140000\n    /* \"CoinFlip/contracts/Manager.sol\":192:225  uint public minBetETH = 0.2 ether */\n  0x02\n  sstore\n    /* \"CoinFlip/contracts/Manager.sol\":294:295  0 */\n  0x00\n    /* \"CoinFlip/contracts/Manager.sol\":275:295  uint randomNonce = 0 */\n  0x03\n  sstore\n    /* \"CoinFlip/contracts/Owner.sol\":176:186  msg.sender */\n  caller\n    /* \"CoinFlip/contracts/Owner.sol\":168:173  owner */\n  0x00\n  dup1\n    /* \"CoinFlip/contracts/Owner.sol\":168:186  owner = msg.sender */\n  0x0100\n  exp\n  dup2\n  sload\n  dup2\n  0xffffffffffffffffffffffffffffffffffffffff\n  mul\n  not\n  and\n  swap1\n  dup4\n  0xffffffffffffffffffffffffffffffffffffffff\n  and\n  mul\n  or\n  swap1\n  sstore\n  pop\n    /* \"CoinFlip/contracts/CoinFlip.sol\":478:487  msg.value */\n  callvalue\n    /* \"CoinFlip/contracts/CoinFlip.sol\":460:475  contractBalance */\n  0x04\n    /* \"CoinFlip/contracts/CoinFlip.sol\":460:487  contractBalance = msg.value */\n  dup2\n  swap1\n  sstore\n  pop\n    /* \"CoinFlip/contracts/CoinFlip.sol\":113:1924  contract CoinFlip is Manager {... */\n  dataSize(sub_0)\n  dup1\n  dataOffset(sub_0)\n  0x00\n  codecopy\n  0x00\n  return\nstop\n\nsub_0: assembly {\n        /* \"CoinFlip/contracts/CoinFlip.sol\":113:1924  contract CoinFlip is Manager {... */\n      mstore(0x40, 0x80)\n      jumpi(tag_1, lt(calldatasize, 0x04))\n      shr(0xe0, calldataload(0x00))\n      dup1\n      0x881eff1e\n      gt\n      tag_16\n      jumpi\n      dup1\n      0x8b7afe2e\n      gt\n      tag_17\n      jumpi\n      dup1\n      0x8b7afe2e\n      eq\n      tag_12\n      jumpi\n      dup1\n      0x951a1a62\n      eq\n      tag_13\n      jumpi\n      dup1\n      0xa6f9dae1\n      eq\n      tag_14\n      jumpi\n      dup1\n      0xb6b55f25\n      eq\n      tag_15\n      jumpi\n      jump(tag_1)\n    tag_17:\n      dup1\n      0x881eff1e\n      eq\n      tag_9\n      jumpi\n      dup1\n      0x88ea41b9\n      eq\n      tag_10\n      jumpi\n      dup1\n      0x893d20e8\n      eq\n      tag_11\n      jumpi\n      jump(tag_1)\n    tag_16:\n      dup1\n      0x24c37507\n      gt\n      tag_18\n      jumpi\n      dup1\n      0x24c37507\n      eq\n      tag_5\n      jumpi\n      dup1\n      0x3919b197\n      eq\n      tag_6\n      jumpi\n      dup1\n      0x646668b6\n      eq\n      tag_7\n      jumpi\n      dup1\n      0x799ae223\n      eq\n      tag_8\n      jumpi\n      jump(tag_1)\n    tag_18:\n      dup1\n      0x12065fe0\n      eq\n      tag_2\n      jumpi\n      dup1\n      0x1385d24c\n      eq\n      tag_3\n      jumpi\n      dup1\n      0x24600fc3\n      eq\n      tag_4\n      jumpi\n    tag_1:\n      0x00\n      dup1\n      revert\n        /* \"CoinFlip/contracts/Manager.sol\":848:946  function getBalance() external view returns (uint) {... */\n    tag_2:\n      callvalue\n      dup1\n      iszero\n      tag_19\n      jumpi\n      0x00\n      dup1\n      revert\n    tag_19:\n      pop\n      tag_20\n      tag_21\n      jump\t// in\n    tag_20:\n      mload(0x40)\n      tag_22\n      swap2\n      swap1\n      tag_23\n      jump\t// in\n    tag_22:\n      mload(0x40)\n      dup1\n      swap2\n      sub\n      swap1\n      return\n        /* \"CoinFlip/contracts/Manager.sol\":336:420  function toggleContractActive() public isOwner {... */\n    tag_3:\n      callvalue\n      dup1\n      iszero\n      tag_24\n      jumpi\n      0x00\n      dup1\n      revert\n    tag_24:\n      pop\n      tag_25\n      tag_26\n      jump\t// in\n    tag_25:\n      stop\n        /* \"CoinFlip/contracts/CoinFlip.sol\":1710:1921  function withdrawFunds() public {... */\n    tag_4:\n      callvalue\n      dup1\n      iszero\n      tag_27\n      jumpi\n      0x00\n      dup1\n      revert\n    tag_27:\n      pop\n      tag_28\n      tag_29\n      jump\t// in\n    tag_28:\n      stop\n        /* \"CoinFlip/contracts/Manager.sol\":1725:1810  function getMinBet() public view returns (uint256){... */\n    tag_5:\n      callvalue\n      dup1\n      iszero\n      tag_30\n      jumpi\n      0x00\n      dup1\n      revert\n    tag_30:\n      pop\n      tag_31\n      tag_32\n      jump\t// in\n    tag_31:\n      mload(0x40)\n      tag_33\n      swap2\n      swap1\n      tag_23\n      jump\t// in\n    tag_33:\n      mload(0x40)\n      dup1\n      swap2\n      sub\n      swap1\n      return\n        /* \"CoinFlip/contracts/Manager.sol\":153:185  uint public maxBetETH = 20 ether */\n    tag_6:\n      callvalue\n      dup1\n      iszero\n      tag_34\n      jumpi\n      0x00\n      dup1\n      revert\n    tag_34:\n      pop\n      tag_35\n      tag_36\n      jump\t// in\n    tag_35:\n      mload(0x40)\n      tag_37\n      swap2\n      swap1\n      tag_23\n      jump\t// in\n    tag_37:\n      mload(0x40)\n      dup1\n      swap2\n      sub\n      swap1\n      return\n        /* \"CoinFlip/contracts/Manager.sol\":2030:2115  function getMaxBet() public view returns (uint256){... */\n    tag_7:\n      callvalue\n      dup1\n      iszero\n      tag_38\n      jumpi\n      0x00\n      dup1\n      revert\n    tag_38:\n      pop\n      tag_39\n      tag_40\n      jump\t// in\n    tag_39:\n      mload(0x40)\n      tag_41\n      swap2\n      swap1\n      tag_23\n      jump\t// in\n    tag_41:\n      mload(0x40)\n      dup1\n      swap2\n      sub\n      swap1\n      return\n        /* \"CoinFlip/contracts/CoinFlip.sol\":544:1328  function flipCoin() public payable{... */\n    tag_8:\n      tag_42\n      tag_43\n      jump\t// in\n    tag_42:\n      stop\n        /* \"CoinFlip/contracts/Manager.sol\":1863:2022  function setMaxBet(uint _newAmount) external isOwner stopInEmergency {... */\n    tag_9:\n      callvalue\n      dup1\n      iszero\n      tag_44\n      jumpi\n      0x00\n      dup1\n      revert\n    tag_44:\n      pop\n      tag_45\n      0x04\n      dup1\n      calldatasize\n      sub\n      dup2\n      add\n      swap1\n      tag_46\n      swap2\n      swap1\n      tag_47\n      jump\t// in\n    tag_46:\n      tag_48\n      jump\t// in\n    tag_45:\n      stop\n        /* \"CoinFlip/contracts/Manager.sol\":1555:1717  function setMinBet(uint256 _newAmount) external isOwner stopInEmergency {... */\n    tag_10:\n      callvalue\n      dup1\n      iszero\n      tag_49\n      jumpi\n      0x00\n      dup1\n      revert\n    tag_49:\n      pop\n      tag_50\n      0x04\n      dup1\n      calldatasize\n      sub\n      dup2\n      add\n      swap1\n      tag_51\n      swap2\n      swap1\n      tag_47\n      jump\t// in\n    tag_51:\n      tag_52\n      jump\t// in\n    tag_50:\n      stop\n        /* \"CoinFlip/contracts/Owner.sol\":352:435  function getOwner() external view returns (address) {... */\n    tag_11:\n      callvalue\n      dup1\n      iszero\n      tag_53\n      jumpi\n      0x00\n      dup1\n      revert\n    tag_53:\n      pop\n      tag_54\n      tag_55\n      jump\t// in\n    tag_54:\n      mload(0x40)\n      tag_56\n      swap2\n      swap1\n      tag_57\n      jump\t// in\n    tag_56:\n      mload(0x40)\n      dup1\n      swap2\n      sub\n      swap1\n      return\n        /* \"CoinFlip/contracts/CoinFlip.sol\":215:245  uint256 public contractBalance */\n    tag_12:\n      callvalue\n      dup1\n      iszero\n      tag_58\n      jumpi\n      0x00\n      dup1\n      revert\n    tag_58:\n      pop\n      tag_59\n      tag_60\n      jump\t// in\n    tag_59:\n      mload(0x40)\n      tag_61\n      swap2\n      swap1\n      tag_23\n      jump\t// in\n    tag_61:\n      mload(0x40)\n      dup1\n      swap2\n      sub\n      swap1\n      return\n        /* \"CoinFlip/contracts/Manager.sol\":192:225  uint public minBetETH = 0.2 ether */\n    tag_13:\n      callvalue\n      dup1\n      iszero\n      tag_62\n      jumpi\n      0x00\n      dup1\n      revert\n    tag_62:\n      pop\n      tag_63\n      tag_64\n      jump\t// in\n    tag_63:\n      mload(0x40)\n      tag_65\n      swap2\n      swap1\n      tag_23\n      jump\t// in\n    tag_65:\n      mload(0x40)\n      dup1\n      swap2\n      sub\n      swap1\n      return\n        /* \"CoinFlip/contracts/Owner.sol\":508:632  function changeOwner(address _newOwner) external {... */\n    tag_14:\n      callvalue\n      dup1\n      iszero\n      tag_66\n      jumpi\n      0x00\n      dup1\n      revert\n    tag_66:\n      pop\n      tag_67\n      0x04\n      dup1\n      calldatasize\n      sub\n      dup2\n      add\n      swap1\n      tag_68\n      swap2\n      swap1\n      tag_69\n      jump\t// in\n    tag_68:\n      tag_70\n      jump\t// in\n    tag_67:\n      stop\n        /* \"CoinFlip/contracts/Manager.sol\":633:804  function deposit(uint256 _userDepositAmount) external payable isOwner stopInEmergency {... */\n    tag_15:\n      tag_71\n      0x04\n      dup1\n      calldatasize\n      sub\n      dup2\n      add\n      swap1\n      tag_72\n      swap2\n      swap1\n      tag_47\n      jump\t// in\n    tag_72:\n      tag_73\n      jump\t// in\n    tag_71:\n      stop\n        /* \"CoinFlip/contracts/Manager.sol\":848:946  function getBalance() external view returns (uint) {... */\n    tag_21:\n        /* \"CoinFlip/contracts/Manager.sol\":893:897  uint */\n      0x00\n        /* \"CoinFlip/contracts/Manager.sol\":917:938  address(this).balance */\n      selfbalance\n        /* \"CoinFlip/contracts/Manager.sol\":910:938  return address(this).balance */\n      swap1\n      pop\n        /* \"CoinFlip/contracts/Manager.sol\":848:946  function getBalance() external view returns (uint) {... */\n      swap1\n      jump\t// out\n        /* \"CoinFlip/contracts/Manager.sol\":336:420  function toggleContractActive() public isOwner {... */\n    tag_26:\n        /* \"CoinFlip/contracts/Owner.sol\":254:259  owner */\n      0x00\n      dup1\n      sload\n      swap1\n      0x0100\n      exp\n      swap1\n      div\n      0xffffffffffffffffffffffffffffffffffffffff\n      and\n        /* \"CoinFlip/contracts/Owner.sol\":240:259  msg.sender == owner */\n      0xffffffffffffffffffffffffffffffffffffffff\n      and\n        /* \"CoinFlip/contracts/Owner.sol\":240:250  msg.sender */\n      caller\n        /* \"CoinFlip/contracts/Owner.sol\":240:259  msg.sender == owner */\n      0xffffffffffffffffffffffffffffffffffffffff\n      and\n      eq\n        /* \"CoinFlip/contracts/Owner.sol\":232:295  require(msg.sender == owner, \"User is not the contract owner.\") */\n      tag_76\n      jumpi\n      mload(0x40)\n      0x08c379a000000000000000000000000000000000000000000000000000000000\n      dup2\n      mstore\n      0x04\n      add\n      tag_77\n      swap1\n      tag_78\n      jump\t// in\n    tag_77:\n      mload(0x40)\n      dup1\n      swap2\n      sub\n      swap1\n      revert\n    tag_76:\n        /* \"CoinFlip/contracts/Manager.sol\":405:412  stopped */\n      0x00\n      0x14\n      swap1\n      sload\n      swap1\n      0x0100\n      exp\n      swap1\n      div\n      0xff\n      and\n        /* \"CoinFlip/contracts/Manager.sol\":404:412  !stopped */\n      iszero\n        /* \"CoinFlip/contracts/Manager.sol\":394:401  stopped */\n      0x00\n      0x14\n        /* \"CoinFlip/contracts/Manager.sol\":394:412  stopped = !stopped */\n      0x0100\n      exp\n      dup2\n      sload\n      dup2\n      0xff\n      mul\n      not\n      and\n      swap1\n      dup4\n      iszero\n      iszero\n      mul\n      or\n      swap1\n      sstore\n      pop\n        /* \"CoinFlip/contracts/Manager.sol\":336:420  function toggleContractActive() public isOwner {... */\n      jump\t// out\n        /* \"CoinFlip/contracts/CoinFlip.sol\":1710:1921  function withdrawFunds() public {... */\n    tag_29:\n        /* \"CoinFlip/contracts/CoinFlip.sol\":1775:1780  owner */\n      0x00\n      dup1\n      sload\n      swap1\n      0x0100\n      exp\n      swap1\n      div\n      0xffffffffffffffffffffffffffffffffffffffff\n      and\n        /* \"CoinFlip/contracts/CoinFlip.sol\":1761:1780  msg.sender == owner */\n      0xffffffffffffffffffffffffffffffffffffffff\n      and\n        /* \"CoinFlip/contracts/CoinFlip.sol\":1761:1771  msg.sender */\n      caller\n        /* \"CoinFlip/contracts/CoinFlip.sol\":1761:1780  msg.sender == owner */\n      0xffffffffffffffffffffffffffffffffffffffff\n      and\n      eq\n        /* \"CoinFlip/contracts/CoinFlip.sol\":1753:1827  require(msg.sender == owner, \"Only the contract owner can withdraw funds\") */\n      tag_81\n      jumpi\n      mload(0x40)\n      0x08c379a000000000000000000000000000000000000000000000000000000000\n      dup2\n      mstore\n      0x04\n      add\n      tag_82\n      swap1\n      tag_83\n      jump\t// in\n    tag_82:\n      mload(0x40)\n      dup1\n      swap2\n      sub\n      swap1\n      revert\n    tag_81:\n        /* \"CoinFlip/contracts/CoinFlip.sol\":1846:1856  msg.sender */\n      caller\n        /* \"CoinFlip/contracts/CoinFlip.sol\":1838:1866  payable(msg.sender).transfer */\n      0xffffffffffffffffffffffffffffffffffffffff\n      and\n        /* \"CoinFlip/contracts/CoinFlip.sol\":1838:1883  payable(msg.sender).transfer(contractBalance) */\n      0x08fc\n        /* \"CoinFlip/contracts/CoinFlip.sol\":1867:1882  contractBalance */\n      sload(0x04)\n        /* \"CoinFlip/contracts/CoinFlip.sol\":1838:1883  payable(msg.sender).transfer(contractBalance) */\n      swap1\n      dup2\n      iszero\n      mul\n      swap1\n      mload(0x40)\n      0x00\n      mload(0x40)\n      dup1\n      dup4\n      sub\n      dup2\n      dup6\n      dup9\n      dup9\n      call\n      swap4\n      pop\n      pop\n      pop\n      pop\n      iszero\n      dup1\n      iszero\n      tag_85\n      jumpi\n      returndatasize\n      0x00\n      dup1\n      returndatacopy\n      revert(0x00, returndatasize)\n    tag_85:\n      pop\n        /* \"CoinFlip/contracts/CoinFlip.sol\":1912:1913  0 */\n      0x00\n        /* \"CoinFlip/contracts/CoinFlip.sol\":1894:1909  contractBalance */\n      0x04\n        /* \"CoinFlip/contracts/CoinFlip.sol\":1894:1913  contractBalance = 0 */\n      dup2\n      swap1\n      sstore\n      pop\n        /* \"CoinFlip/contracts/CoinFlip.sol\":1710:1921  function withdrawFunds() public {... */\n      jump\t// out\n        /* \"CoinFlip/contracts/Manager.sol\":1725:1810  function getMinBet() public view returns (uint256){... */\n    tag_32:\n        /* \"CoinFlip/contracts/Manager.sol\":1767:1774  uint256 */\n      0x00\n        /* \"CoinFlip/contracts/Manager.sol\":1793:1802  minBetETH */\n      sload(0x02)\n        /* \"CoinFlip/contracts/Manager.sol\":1786:1802  return minBetETH */\n      swap1\n      pop\n        /* \"CoinFlip/contracts/Manager.sol\":1725:1810  function getMinBet() public view returns (uint256){... */\n      swap1\n      jump\t// out\n        /* \"CoinFlip/contracts/Manager.sol\":153:185  uint public maxBetETH = 20 ether */\n    tag_36:\n      sload(0x01)\n      dup2\n      jump\t// out\n        /* \"CoinFlip/contracts/Manager.sol\":2030:2115  function getMaxBet() public view returns (uint256){... */\n    tag_40:\n        /* \"CoinFlip/contracts/Manager.sol\":2072:2079  uint256 */\n      0x00\n        /* \"CoinFlip/contracts/Manager.sol\":2098:2107  maxBetETH */\n      sload(0x01)\n        /* \"CoinFlip/contracts/Manager.sol\":2091:2107  return maxBetETH */\n      swap1\n      pop\n        /* \"CoinFlip/contracts/Manager.sol\":2030:2115  function getMaxBet() public view returns (uint256){... */\n      swap1\n      jump\t// out\n        /* \"CoinFlip/contracts/CoinFlip.sol\":544:1328  function flipCoin() public payable{... */\n    tag_43:\n        /* \"CoinFlip/contracts/CoinFlip.sol\":691:695  this */\n      address\n        /* \"CoinFlip/contracts/CoinFlip.sol\":691:705  this.getMinBet */\n      0xffffffffffffffffffffffffffffffffffffffff\n      and\n      0x24c37507\n        /* \"CoinFlip/contracts/CoinFlip.sol\":691:707  this.getMinBet() */\n      mload(0x40)\n      dup2\n      0xffffffff\n      and\n      0xe0\n      shl\n      dup2\n      mstore\n      0x04\n      add\n      0x20\n      mload(0x40)\n      dup1\n      dup4\n      sub\n      dup2\n      dup7\n      gas\n      staticcall\n      iszero\n      dup1\n      iszero\n      tag_90\n      jumpi\n      returndatasize\n      0x00\n      dup1\n      returndatacopy\n      revert(0x00, returndatasize)\n    tag_90:\n      pop\n      pop\n      pop\n      pop\n      mload(0x40)\n      returndatasize\n      not(0x1f)\n      0x1f\n      dup3\n      add\n      and\n      dup3\n      add\n      dup1\n      0x40\n      mstore\n      pop\n      dup2\n      add\n      swap1\n      tag_91\n      swap2\n      swap1\n      tag_92\n      jump\t// in\n    tag_91:\n        /* \"CoinFlip/contracts/CoinFlip.sol\":678:687  msg.value */\n      callvalue\n        /* \"CoinFlip/contracts/CoinFlip.sol\":678:707  msg.value >= this.getMinBet() */\n      lt\n      iszero\n        /* \"CoinFlip/contracts/CoinFlip.sol\":678:740  msg.value >= this.getMinBet() && msg.value <= this.getMaxBet() */\n      dup1\n      iszero\n      tag_93\n      jumpi\n      pop\n        /* \"CoinFlip/contracts/CoinFlip.sol\":724:728  this */\n      address\n        /* \"CoinFlip/contracts/CoinFlip.sol\":724:738  this.getMaxBet */\n      0xffffffffffffffffffffffffffffffffffffffff\n      and\n      0x646668b6\n        /* \"CoinFlip/contracts/CoinFlip.sol\":724:740  this.getMaxBet() */\n      mload(0x40)\n      dup2\n      0xffffffff\n      and\n      0xe0\n      shl\n      dup2\n      mstore\n      0x04\n      add\n      0x20\n      mload(0x40)\n      dup1\n      dup4\n      sub\n      dup2\n      dup7\n      gas\n      staticcall\n      iszero\n      dup1\n      iszero\n      tag_95\n      jumpi\n      returndatasize\n      0x00\n      dup1\n      returndatacopy\n      revert(0x00, returndatasize)\n    tag_95:\n      pop\n      pop\n      pop\n      pop\n      mload(0x40)\n      returndatasize\n      not(0x1f)\n      0x1f\n      dup3\n      add\n      and\n      dup3\n      add\n      dup1\n      0x40\n      mstore\n      pop\n      dup2\n      add\n      swap1\n      tag_96\n      swap2\n      swap1\n      tag_92\n      jump\t// in\n    tag_96:\n        /* \"CoinFlip/contracts/CoinFlip.sol\":711:720  msg.value */\n      callvalue\n        /* \"CoinFlip/contracts/CoinFlip.sol\":711:740  msg.value <= this.getMaxBet() */\n      gt\n      iszero\n        /* \"CoinFlip/contracts/CoinFlip.sol\":678:740  msg.value >= this.getMinBet() && msg.value <= this.getMaxBet() */\n    tag_93:\n        /* \"CoinFlip/contracts/CoinFlip.sol\":670:787  require(msg.value >= this.getMinBet() && msg.value <= this.getMaxBet(), \"Bet amount is not within the allowed range\") */\n      tag_97\n      jumpi\n      mload(0x40)\n      0x08c379a000000000000000000000000000000000000000000000000000000000\n      dup2\n      mstore\n      0x04\n      add\n      tag_98\n      swap1\n      tag_99\n      jump\t// in\n    tag_98:\n      mload(0x40)\n      dup1\n      swap2\n      sub\n      swap1\n      revert\n    tag_97:\n        /* \"CoinFlip/contracts/CoinFlip.sol\":825:834  msg.value */\n      callvalue\n        /* \"CoinFlip/contracts/CoinFlip.sol\":806:821  contractBalance */\n      sload(0x04)\n        /* \"CoinFlip/contracts/CoinFlip.sol\":806:834  contractBalance >= msg.value */\n      lt\n      iszero\n        /* \"CoinFlip/contracts/CoinFlip.sol\":798:873  require(contractBalance >= msg.value, \"Not enough balance in the contract\") */\n      tag_100\n      jumpi\n      mload(0x40)\n      0x08c379a000000000000000000000000000000000000000000000000000000000\n      dup2\n      mstore\n      0x04\n      add\n      tag_101\n      swap1\n      tag_102\n      jump\t// in\n    tag_101:\n      mload(0x40)\n      dup1\n      swap2\n      sub\n      swap1\n      revert\n    tag_100:\n        /* \"CoinFlip/contracts/CoinFlip.sol\":888:899  bool result */\n      0x00\n        /* \"CoinFlip/contracts/CoinFlip.sol\":902:919  getRandomResult() */\n      tag_103\n        /* \"CoinFlip/contracts/CoinFlip.sol\":902:917  getRandomResult */\n      tag_104\n        /* \"CoinFlip/contracts/CoinFlip.sol\":902:919  getRandomResult() */\n      jump\t// in\n    tag_103:\n        /* \"CoinFlip/contracts/CoinFlip.sol\":888:919  bool result = getRandomResult() */\n      swap1\n      pop\n        /* \"CoinFlip/contracts/CoinFlip.sol\":934:940  result */\n      dup1\n        /* \"CoinFlip/contracts/CoinFlip.sol\":930:1321  if (result) {... */\n      iszero\n      tag_105\n      jumpi\n        /* \"CoinFlip/contracts/CoinFlip.sol\":1056:1066  msg.sender */\n      caller\n        /* \"CoinFlip/contracts/CoinFlip.sol\":1048:1076  payable(msg.sender).transfer */\n      0xffffffffffffffffffffffffffffffffffffffff\n      and\n        /* \"CoinFlip/contracts/CoinFlip.sol\":1048:1091  payable(msg.sender).transfer(msg.value * 2) */\n      0x08fc\n        /* \"CoinFlip/contracts/CoinFlip.sol\":1089:1090  2 */\n      0x02\n        /* \"CoinFlip/contracts/CoinFlip.sol\":1077:1086  msg.value */\n      callvalue\n        /* \"CoinFlip/contracts/CoinFlip.sol\":1077:1090  msg.value * 2 */\n      tag_106\n      swap2\n      swap1\n      tag_107\n      jump\t// in\n    tag_106:\n        /* \"CoinFlip/contracts/CoinFlip.sol\":1048:1091  payable(msg.sender).transfer(msg.value * 2) */\n      swap1\n      dup2\n      iszero\n      mul\n      swap1\n      mload(0x40)\n      0x00\n      mload(0x40)\n      dup1\n      dup4\n      sub\n      dup2\n      dup6\n      dup9\n      dup9\n      call\n      swap4\n      pop\n      pop\n      pop\n      pop\n      iszero\n      dup1\n      iszero\n      tag_109\n      jumpi\n      returndatasize\n      0x00\n      dup1\n      returndatacopy\n      revert(0x00, returndatasize)\n    tag_109:\n      pop\n        /* \"CoinFlip/contracts/CoinFlip.sol\":1137:1138  2 */\n      0x02\n        /* \"CoinFlip/contracts/CoinFlip.sol\":1125:1134  msg.value */\n      callvalue\n        /* \"CoinFlip/contracts/CoinFlip.sol\":1125:1138  msg.value * 2 */\n      tag_110\n      swap2\n      swap1\n      tag_107\n      jump\t// in\n    tag_110:\n        /* \"CoinFlip/contracts/CoinFlip.sol\":1106:1121  contractBalance */\n      0x04\n      0x00\n        /* \"CoinFlip/contracts/CoinFlip.sol\":1106:1138  contractBalance -= msg.value * 2 */\n      dup3\n      dup3\n      sload\n      tag_111\n      swap2\n      swap1\n      tag_112\n      jump\t// in\n    tag_111:\n      swap3\n      pop\n      pop\n      dup2\n      swap1\n      sstore\n      pop\n        /* \"CoinFlip/contracts/CoinFlip.sol\":930:1321  if (result) {... */\n      jump(tag_113)\n    tag_105:\n        /* \"CoinFlip/contracts/CoinFlip.sol\":1300:1309  msg.value */\n      callvalue\n        /* \"CoinFlip/contracts/CoinFlip.sol\":1281:1296  contractBalance */\n      0x04\n      0x00\n        /* \"CoinFlip/contracts/CoinFlip.sol\":1281:1309  contractBalance += msg.value */\n      dup3\n      dup3\n      sload\n      tag_114\n      swap2\n      swap1\n      tag_115\n      jump\t// in\n    tag_114:\n      swap3\n      pop\n      pop\n      dup2\n      swap1\n      sstore\n      pop\n        /* \"CoinFlip/contracts/CoinFlip.sol\":930:1321  if (result) {... */\n    tag_113:\n        /* \"CoinFlip/contracts/CoinFlip.sol\":578:1328  {... */\n      pop\n        /* \"CoinFlip/contracts/CoinFlip.sol\":544:1328  function flipCoin() public payable{... */\n      jump\t// out\n        /* \"CoinFlip/contracts/Manager.sol\":1863:2022  function setMaxBet(uint _newAmount) external isOwner stopInEmergency {... */\n    tag_48:\n        /* \"CoinFlip/contracts/Owner.sol\":254:259  owner */\n      0x00\n      dup1\n      sload\n      swap1\n      0x0100\n      exp\n      swap1\n      div\n      0xffffffffffffffffffffffffffffffffffffffff\n      and\n        /* \"CoinFlip/contracts/Owner.sol\":240:259  msg.sender == owner */\n      0xffffffffffffffffffffffffffffffffffffffff\n      and\n        /* \"CoinFlip/contracts/Owner.sol\":240:250  msg.sender */\n      caller\n        /* \"CoinFlip/contracts/Owner.sol\":240:259  msg.sender == owner */\n      0xffffffffffffffffffffffffffffffffffffffff\n      and\n      eq\n        /* \"CoinFlip/contracts/Owner.sol\":232:295  require(msg.sender == owner, \"User is not the contract owner.\") */\n      tag_117\n      jumpi\n      mload(0x40)\n      0x08c379a000000000000000000000000000000000000000000000000000000000\n      dup2\n      mstore\n      0x04\n      add\n      tag_118\n      swap1\n      tag_78\n      jump\t// in\n    tag_118:\n      mload(0x40)\n      dup1\n      swap2\n      sub\n      swap1\n      revert\n    tag_117:\n        /* \"CoinFlip/contracts/Manager.sol\":473:480  stopped */\n      0x00\n      0x14\n      swap1\n      sload\n      swap1\n      0x0100\n      exp\n      swap1\n      div\n      0xff\n      and\n        /* \"CoinFlip/contracts/Manager.sol\":472:480  !stopped */\n      iszero\n        /* \"CoinFlip/contracts/Manager.sol\":464:481  require(!stopped) */\n      tag_120\n      jumpi\n      0x00\n      dup1\n      revert\n    tag_120:\n        /* \"CoinFlip/contracts/Manager.sol\":2006:2014  10 ** 18 */\n      0x0de0b6b3a7640000\n        /* \"CoinFlip/contracts/Manager.sol\":1993:2003  _newAmount */\n      dup2\n        /* \"CoinFlip/contracts/Manager.sol\":1993:2014  _newAmount * 10 ** 18 */\n      tag_122\n      swap2\n      swap1\n      tag_107\n      jump\t// in\n    tag_122:\n        /* \"CoinFlip/contracts/Manager.sol\":1981:1990  maxBetETH */\n      0x01\n        /* \"CoinFlip/contracts/Manager.sol\":1981:2014  maxBetETH = _newAmount * 10 ** 18 */\n      dup2\n      swap1\n      sstore\n      pop\n        /* \"CoinFlip/contracts/Manager.sol\":1863:2022  function setMaxBet(uint _newAmount) external isOwner stopInEmergency {... */\n      pop\n      jump\t// out\n        /* \"CoinFlip/contracts/Manager.sol\":1555:1717  function setMinBet(uint256 _newAmount) external isOwner stopInEmergency {... */\n    tag_52:\n        /* \"CoinFlip/contracts/Owner.sol\":254:259  owner */\n      0x00\n      dup1\n      sload\n      swap1\n      0x0100\n      exp\n      swap1\n      div\n      0xffffffffffffffffffffffffffffffffffffffff\n      and\n        /* \"CoinFlip/contracts/Owner.sol\":240:259  msg.sender == owner */\n      0xffffffffffffffffffffffffffffffffffffffff\n      and\n        /* \"CoinFlip/contracts/Owner.sol\":240:250  msg.sender */\n      caller\n        /* \"CoinFlip/contracts/Owner.sol\":240:259  msg.sender == owner */\n      0xffffffffffffffffffffffffffffffffffffffff\n      and\n      eq\n        /* \"CoinFlip/contracts/Owner.sol\":232:295  require(msg.sender == owner, \"User is not the contract owner.\") */\n      tag_124\n      jumpi\n      mload(0x40)\n      0x08c379a000000000000000000000000000000000000000000000000000000000\n      dup2\n      mstore\n      0x04\n      add\n      tag_125\n      swap1\n      tag_78\n      jump\t// in\n    tag_125:\n      mload(0x40)\n      dup1\n      swap2\n      sub\n      swap1\n      revert\n    tag_124:\n        /* \"CoinFlip/contracts/Manager.sol\":473:480  stopped */\n      0x00\n      0x14\n      swap1\n      sload\n      swap1\n      0x0100\n      exp\n      swap1\n      div\n      0xff\n      and\n        /* \"CoinFlip/contracts/Manager.sol\":472:480  !stopped */\n      iszero\n        /* \"CoinFlip/contracts/Manager.sol\":464:481  require(!stopped) */\n      tag_127\n      jumpi\n      0x00\n      dup1\n      revert\n    tag_127:\n        /* \"CoinFlip/contracts/Manager.sol\":1701:1709  10 ** 18 */\n      0x0de0b6b3a7640000\n        /* \"CoinFlip/contracts/Manager.sol\":1688:1698  _newAmount */\n      dup2\n        /* \"CoinFlip/contracts/Manager.sol\":1688:1709  _newAmount * 10 ** 18 */\n      tag_129\n      swap2\n      swap1\n      tag_107\n      jump\t// in\n    tag_129:\n        /* \"CoinFlip/contracts/Manager.sol\":1676:1685  minBetETH */\n      0x02\n        /* \"CoinFlip/contracts/Manager.sol\":1676:1709  minBetETH = _newAmount * 10 ** 18 */\n      dup2\n      swap1\n      sstore\n      pop\n        /* \"CoinFlip/contracts/Manager.sol\":1555:1717  function setMinBet(uint256 _newAmount) external isOwner stopInEmergency {... */\n      pop\n      jump\t// out\n        /* \"CoinFlip/contracts/Owner.sol\":352:435  function getOwner() external view returns (address) {... */\n    tag_55:\n        /* \"CoinFlip/contracts/Owner.sol\":395:402  address */\n      0x00\n        /* \"CoinFlip/contracts/Owner.sol\":422:427  owner */\n      dup1\n      0x00\n      swap1\n      sload\n      swap1\n      0x0100\n      exp\n      swap1\n      div\n      0xffffffffffffffffffffffffffffffffffffffff\n      and\n        /* \"CoinFlip/contracts/Owner.sol\":415:427  return owner */\n      swap1\n      pop\n        /* \"CoinFlip/contracts/Owner.sol\":352:435  function getOwner() external view returns (address) {... */\n      swap1\n      jump\t// out\n        /* \"CoinFlip/contracts/CoinFlip.sol\":215:245  uint256 public contractBalance */\n    tag_60:\n      sload(0x04)\n      dup2\n      jump\t// out\n        /* \"CoinFlip/contracts/Manager.sol\":192:225  uint public minBetETH = 0.2 ether */\n    tag_64:\n      sload(0x02)\n      dup2\n      jump\t// out\n        /* \"CoinFlip/contracts/Owner.sol\":508:632  function changeOwner(address _newOwner) external {... */\n    tag_70:\n        /* \"CoinFlip/contracts/Owner.sol\":590:595  owner */\n      0x00\n      dup1\n      sload\n      swap1\n      0x0100\n      exp\n      swap1\n      div\n      0xffffffffffffffffffffffffffffffffffffffff\n      and\n        /* \"CoinFlip/contracts/Owner.sol\":576:595  msg.sender == owner */\n      0xffffffffffffffffffffffffffffffffffffffff\n      and\n        /* \"CoinFlip/contracts/Owner.sol\":576:586  msg.sender */\n      caller\n        /* \"CoinFlip/contracts/Owner.sol\":576:595  msg.sender == owner */\n      0xffffffffffffffffffffffffffffffffffffffff\n      and\n      eq\n        /* \"CoinFlip/contracts/Owner.sol\":568:596  require(msg.sender == owner) */\n      tag_132\n      jumpi\n      0x00\n      dup1\n      revert\n    tag_132:\n        /* \"CoinFlip/contracts/Owner.sol\":615:624  _newOwner */\n      dup1\n        /* \"CoinFlip/contracts/Owner.sol\":607:612  owner */\n      0x00\n      dup1\n        /* \"CoinFlip/contracts/Owner.sol\":607:624  owner = _newOwner */\n      0x0100\n      exp\n      dup2\n      sload\n      dup2\n      0xffffffffffffffffffffffffffffffffffffffff\n      mul\n      not\n      and\n      swap1\n      dup4\n      0xffffffffffffffffffffffffffffffffffffffff\n      and\n      mul\n      or\n      swap1\n      sstore\n      pop\n        /* \"CoinFlip/contracts/Owner.sol\":508:632  function changeOwner(address _newOwner) external {... */\n      pop\n      jump\t// out\n        /* \"CoinFlip/contracts/Manager.sol\":633:804  function deposit(uint256 _userDepositAmount) external payable isOwner stopInEmergency {... */\n    tag_73:\n        /* \"CoinFlip/contracts/Owner.sol\":254:259  owner */\n      0x00\n      dup1\n      sload\n      swap1\n      0x0100\n      exp\n      swap1\n      div\n      0xffffffffffffffffffffffffffffffffffffffff\n      and\n        /* \"CoinFlip/contracts/Owner.sol\":240:259  msg.sender == owner */\n      0xffffffffffffffffffffffffffffffffffffffff\n      and\n        /* \"CoinFlip/contracts/Owner.sol\":240:250  msg.sender */\n      caller\n        /* \"CoinFlip/contracts/Owner.sol\":240:259  msg.sender == owner */\n      0xffffffffffffffffffffffffffffffffffffffff\n      and\n      eq\n        /* \"CoinFlip/contracts/Owner.sol\":232:295  require(msg.sender == owner, \"User is not the contract owner.\") */\n      tag_134\n      jumpi\n      mload(0x40)\n      0x08c379a000000000000000000000000000000000000000000000000000000000\n      dup2\n      mstore\n      0x04\n      add\n      tag_135\n      swap1\n      tag_78\n      jump\t// in\n    tag_135:\n      mload(0x40)\n      dup1\n      swap2\n      sub\n      swap1\n      revert\n    tag_134:\n        /* \"CoinFlip/contracts/Manager.sol\":473:480  stopped */\n      0x00\n      0x14\n      swap1\n      sload\n      swap1\n      0x0100\n      exp\n      swap1\n      div\n      0xff\n      and\n        /* \"CoinFlip/contracts/Manager.sol\":472:480  !stopped */\n      iszero\n        /* \"CoinFlip/contracts/Manager.sol\":464:481  require(!stopped) */\n      tag_137\n      jumpi\n      0x00\n      dup1\n      revert\n    tag_137:\n        /* \"CoinFlip/contracts/Manager.sol\":759:760  0 */\n      0x00\n        /* \"CoinFlip/contracts/Manager.sol\":738:756  _userDepositAmount */\n      dup2\n        /* \"CoinFlip/contracts/Manager.sol\":738:760  _userDepositAmount > 0 */\n      gt\n        /* \"CoinFlip/contracts/Manager.sol\":730:796  require(_userDepositAmount > 0, \"Deposit must be greater than 0.\") */\n      tag_139\n      jumpi\n      mload(0x40)\n      0x08c379a000000000000000000000000000000000000000000000000000000000\n      dup2\n      mstore\n      0x04\n      add\n      tag_140\n      swap1\n      tag_141\n      jump\t// in\n    tag_140:\n      mload(0x40)\n      dup1\n      swap2\n      sub\n      swap1\n      revert\n    tag_139:\n        /* \"CoinFlip/contracts/Manager.sol\":633:804  function deposit(uint256 _userDepositAmount) external payable isOwner stopInEmergency {... */\n      pop\n      jump\t// out\n        /* \"CoinFlip/contracts/CoinFlip.sol\":1336:1533  function getRandomResult() private view returns (bool) {... */\n    tag_104:\n        /* \"CoinFlip/contracts/CoinFlip.sol\":1385:1389  bool */\n      0x00\n        /* \"CoinFlip/contracts/CoinFlip.sol\":1402:1416  uint256 random */\n      dup1\n        /* \"CoinFlip/contracts/CoinFlip.sol\":1493:1494  2 */\n      0x02\n        /* \"CoinFlip/contracts/CoinFlip.sol\":1454:1469  block.timestamp */\n      timestamp\n        /* \"CoinFlip/contracts/CoinFlip.sol\":1471:1487  block.difficulty */\n      difficulty\n        /* \"CoinFlip/contracts/CoinFlip.sol\":1437:1488  abi.encodePacked(block.timestamp, block.difficulty) */\n      add(0x20, mload(0x40))\n      tag_143\n      swap3\n      swap2\n      swap1\n      tag_144\n      jump\t// in\n    tag_143:\n      mload(0x40)\n      0x20\n      dup2\n      dup4\n      sub\n      sub\n      dup2\n      mstore\n      swap1\n      0x40\n      mstore\n        /* \"CoinFlip/contracts/CoinFlip.sol\":1427:1489  keccak256(abi.encodePacked(block.timestamp, block.difficulty)) */\n      dup1\n      mload\n      swap1\n      0x20\n      add\n      keccak256\n        /* \"CoinFlip/contracts/CoinFlip.sol\":1419:1490  uint256(keccak256(abi.encodePacked(block.timestamp, block.difficulty))) */\n      0x00\n      shr\n        /* \"CoinFlip/contracts/CoinFlip.sol\":1419:1494  uint256(keccak256(abi.encodePacked(block.timestamp, block.difficulty))) % 2 */\n      tag_145\n      swap2\n      swap1\n      tag_146\n      jump\t// in\n    tag_145:\n        /* \"CoinFlip/contracts/CoinFlip.sol\":1402:1494  uint256 random = uint256(keccak256(abi.encodePacked(block.timestamp, block.difficulty))) % 2 */\n      swap1\n      pop\n        /* \"CoinFlip/contracts/CoinFlip.sol\":1523:1524  1 */\n      0x01\n        /* \"CoinFlip/contracts/CoinFlip.sol\":1513:1519  random */\n      dup2\n        /* \"CoinFlip/contracts/CoinFlip.sol\":1513:1524  random == 1 */\n      eq\n        /* \"CoinFlip/contracts/CoinFlip.sol\":1505:1525  return (random == 1) */\n      swap2\n      pop\n      pop\n        /* \"CoinFlip/contracts/CoinFlip.sol\":1336:1533  function getRandomResult() private view returns (bool) {... */\n      swap1\n      jump\t// out\n        /* \"#utility.yul\":7:84   */\n    tag_147:\n        /* \"#utility.yul\":44:51   */\n      0x00\n        /* \"#utility.yul\":73:78   */\n      dup2\n        /* \"#utility.yul\":62:78   */\n      swap1\n      pop\n        /* \"#utility.yul\":7:84   */\n      swap2\n      swap1\n      pop\n      jump\t// out\n        /* \"#utility.yul\":90:208   */\n    tag_148:\n        /* \"#utility.yul\":177:201   */\n      tag_178\n        /* \"#utility.yul\":195:200   */\n      dup2\n        /* \"#utility.yul\":177:201   */\n      tag_147\n      jump\t// in\n    tag_178:\n        /* \"#utility.yul\":172:175   */\n      dup3\n        /* \"#utility.yul\":165:202   */\n      mstore\n        /* \"#utility.yul\":90:208   */\n      pop\n      pop\n      jump\t// out\n        /* \"#utility.yul\":214:436   */\n    tag_23:\n        /* \"#utility.yul\":307:311   */\n      0x00\n        /* \"#utility.yul\":345:347   */\n      0x20\n        /* \"#utility.yul\":334:343   */\n      dup3\n        /* \"#utility.yul\":330:348   */\n      add\n        /* \"#utility.yul\":322:348   */\n      swap1\n      pop\n        /* \"#utility.yul\":358:429   */\n      tag_180\n        /* \"#utility.yul\":426:427   */\n      0x00\n        /* \"#utility.yul\":415:424   */\n      dup4\n        /* \"#utility.yul\":411:428   */\n      add\n        /* \"#utility.yul\":402:408   */\n      dup5\n        /* \"#utility.yul\":358:429   */\n      tag_148\n      jump\t// in\n    tag_180:\n        /* \"#utility.yul\":214:436   */\n      swap3\n      swap2\n      pop\n      pop\n      jump\t// out\n        /* \"#utility.yul\":523:640   */\n    tag_150:\n        /* \"#utility.yul\":632:633   */\n      0x00\n        /* \"#utility.yul\":629:630   */\n      dup1\n        /* \"#utility.yul\":622:634   */\n      revert\n        /* \"#utility.yul\":769:891   */\n    tag_152:\n        /* \"#utility.yul\":842:866   */\n      tag_185\n        /* \"#utility.yul\":860:865   */\n      dup2\n        /* \"#utility.yul\":842:866   */\n      tag_147\n      jump\t// in\n    tag_185:\n        /* \"#utility.yul\":835:840   */\n      dup2\n        /* \"#utility.yul\":832:867   */\n      eq\n        /* \"#utility.yul\":822:885   */\n      tag_186\n      jumpi\n        /* \"#utility.yul\":881:882   */\n      0x00\n        /* \"#utility.yul\":878:879   */\n      dup1\n        /* \"#utility.yul\":871:883   */\n      revert\n        /* \"#utility.yul\":822:885   */\n    tag_186:\n        /* \"#utility.yul\":769:891   */\n      pop\n      jump\t// out\n        /* \"#utility.yul\":897:1036   */\n    tag_153:\n        /* \"#utility.yul\":943:948   */\n      0x00\n        /* \"#utility.yul\":981:987   */\n      dup2\n        /* \"#utility.yul\":968:988   */\n      calldataload\n        /* \"#utility.yul\":959:988   */\n      swap1\n      pop\n        /* \"#utility.yul\":997:1030   */\n      tag_188\n        /* \"#utility.yul\":1024:1029   */\n      dup2\n        /* \"#utility.yul\":997:1030   */\n      tag_152\n      jump\t// in\n    tag_188:\n        /* \"#utility.yul\":897:1036   */\n      swap3\n      swap2\n      pop\n      pop\n      jump\t// out\n        /* \"#utility.yul\":1042:1371   */\n    tag_47:\n        /* \"#utility.yul\":1101:1107   */\n      0x00\n        /* \"#utility.yul\":1150:1152   */\n      0x20\n        /* \"#utility.yul\":1138:1147   */\n      dup3\n        /* \"#utility.yul\":1129:1136   */\n      dup5\n        /* \"#utility.yul\":1125:1148   */\n      sub\n        /* \"#utility.yul\":1121:1153   */\n      slt\n        /* \"#utility.yul\":1118:1237   */\n      iszero\n      tag_190\n      jumpi\n        /* \"#utility.yul\":1156:1235   */\n      tag_191\n      tag_150\n      jump\t// in\n    tag_191:\n        /* \"#utility.yul\":1118:1237   */\n    tag_190:\n        /* \"#utility.yul\":1276:1277   */\n      0x00\n        /* \"#utility.yul\":1301:1354   */\n      tag_192\n        /* \"#utility.yul\":1346:1353   */\n      dup5\n        /* \"#utility.yul\":1337:1343   */\n      dup3\n        /* \"#utility.yul\":1326:1335   */\n      dup6\n        /* \"#utility.yul\":1322:1344   */\n      add\n        /* \"#utility.yul\":1301:1354   */\n      tag_153\n      jump\t// in\n    tag_192:\n        /* \"#utility.yul\":1291:1354   */\n      swap2\n      pop\n        /* \"#utility.yul\":1247:1364   */\n      pop\n        /* \"#utility.yul\":1042:1371   */\n      swap3\n      swap2\n      pop\n      pop\n      jump\t// out\n        /* \"#utility.yul\":1377:1503   */\n    tag_154:\n        /* \"#utility.yul\":1414:1421   */\n      0x00\n        /* \"#utility.yul\":1454:1496   */\n      0xffffffffffffffffffffffffffffffffffffffff\n        /* \"#utility.yul\":1447:1452   */\n      dup3\n        /* \"#utility.yul\":1443:1497   */\n      and\n        /* \"#utility.yul\":1432:1497   */\n      swap1\n      pop\n        /* \"#utility.yul\":1377:1503   */\n      swap2\n      swap1\n      pop\n      jump\t// out\n        /* \"#utility.yul\":1509:1605   */\n    tag_155:\n        /* \"#utility.yul\":1546:1553   */\n      0x00\n        /* \"#utility.yul\":1575:1599   */\n      tag_195\n        /* \"#utility.yul\":1593:1598   */\n      dup3\n        /* \"#utility.yul\":1575:1599   */\n      tag_154\n      jump\t// in\n    tag_195:\n        /* \"#utility.yul\":1564:1599   */\n      swap1\n      pop\n        /* \"#utility.yul\":1509:1605   */\n      swap2\n      swap1\n      pop\n      jump\t// out\n        /* \"#utility.yul\":1611:1729   */\n    tag_156:\n        /* \"#utility.yul\":1698:1722   */\n      tag_197\n        /* \"#utility.yul\":1716:1721   */\n      dup2\n        /* \"#utility.yul\":1698:1722   */\n      tag_155\n      jump\t// in\n    tag_197:\n        /* \"#utility.yul\":1693:1696   */\n      dup3\n        /* \"#utility.yul\":1686:1723   */\n      mstore\n        /* \"#utility.yul\":1611:1729   */\n      pop\n      pop\n      jump\t// out\n        /* \"#utility.yul\":1735:1957   */\n    tag_57:\n        /* \"#utility.yul\":1828:1832   */\n      0x00\n        /* \"#utility.yul\":1866:1868   */\n      0x20\n        /* \"#utility.yul\":1855:1864   */\n      dup3\n        /* \"#utility.yul\":1851:1869   */\n      add\n        /* \"#utility.yul\":1843:1869   */\n      swap1\n      pop\n        /* \"#utility.yul\":1879:1950   */\n      tag_199\n        /* \"#utility.yul\":1947:1948   */\n      0x00\n        /* \"#utility.yul\":1936:1945   */\n      dup4\n        /* \"#utility.yul\":1932:1949   */\n      add\n        /* \"#utility.yul\":1923:1929   */\n      dup5\n        /* \"#utility.yul\":1879:1950   */\n      tag_156\n      jump\t// in\n    tag_199:\n        /* \"#utility.yul\":1735:1957   */\n      swap3\n      swap2\n      pop\n      pop\n      jump\t// out\n        /* \"#utility.yul\":1963:2085   */\n    tag_157:\n        /* \"#utility.yul\":2036:2060   */\n      tag_201\n        /* \"#utility.yul\":2054:2059   */\n      dup2\n        /* \"#utility.yul\":2036:2060   */\n      tag_155\n      jump\t// in\n    tag_201:\n        /* \"#utility.yul\":2029:2034   */\n      dup2\n        /* \"#utility.yul\":2026:2061   */\n      eq\n        /* \"#utility.yul\":2016:2079   */\n      tag_202\n      jumpi\n        /* \"#utility.yul\":2075:2076   */\n      0x00\n        /* \"#utility.yul\":2072:2073   */\n      dup1\n        /* \"#utility.yul\":2065:2077   */\n      revert\n        /* \"#utility.yul\":2016:2079   */\n    tag_202:\n        /* \"#utility.yul\":1963:2085   */\n      pop\n      jump\t// out\n        /* \"#utility.yul\":2091:2230   */\n    tag_158:\n        /* \"#utility.yul\":2137:2142   */\n      0x00\n        /* \"#utility.yul\":2175:2181   */\n      dup2\n        /* \"#utility.yul\":2162:2182   */\n      calldataload\n        /* \"#utility.yul\":2153:2182   */\n      swap1\n      pop\n        /* \"#utility.yul\":2191:2224   */\n      tag_204\n        /* \"#utility.yul\":2218:2223   */\n      dup2\n        /* \"#utility.yul\":2191:2224   */\n      tag_157\n      jump\t// in\n    tag_204:\n        /* \"#utility.yul\":2091:2230   */\n      swap3\n      swap2\n      pop\n      pop\n      jump\t// out\n        /* \"#utility.yul\":2236:2565   */\n    tag_69:\n        /* \"#utility.yul\":2295:2301   */\n      0x00\n        /* \"#utility.yul\":2344:2346   */\n      0x20\n        /* \"#utility.yul\":2332:2341   */\n      dup3\n        /* \"#utility.yul\":2323:2330   */\n      dup5\n        /* \"#utility.yul\":2319:2342   */\n      sub\n        /* \"#utility.yul\":2315:2347   */\n      slt\n        /* \"#utility.yul\":2312:2431   */\n      iszero\n      tag_206\n      jumpi\n        /* \"#utility.yul\":2350:2429   */\n      tag_207\n      tag_150\n      jump\t// in\n    tag_207:\n        /* \"#utility.yul\":2312:2431   */\n    tag_206:\n        /* \"#utility.yul\":2470:2471   */\n      0x00\n        /* \"#utility.yul\":2495:2548   */\n      tag_208\n        /* \"#utility.yul\":2540:2547   */\n      dup5\n        /* \"#utility.yul\":2531:2537   */\n      dup3\n        /* \"#utility.yul\":2520:2529   */\n      dup6\n        /* \"#utility.yul\":2516:2538   */\n      add\n        /* \"#utility.yul\":2495:2548   */\n      tag_158\n      jump\t// in\n    tag_208:\n        /* \"#utility.yul\":2485:2548   */\n      swap2\n      pop\n        /* \"#utility.yul\":2441:2558   */\n      pop\n        /* \"#utility.yul\":2236:2565   */\n      swap3\n      swap2\n      pop\n      pop\n      jump\t// out\n        /* \"#utility.yul\":2571:2740   */\n    tag_159:\n        /* \"#utility.yul\":2655:2666   */\n      0x00\n        /* \"#utility.yul\":2689:2695   */\n      dup3\n        /* \"#utility.yul\":2684:2687   */\n      dup3\n        /* \"#utility.yul\":2677:2696   */\n      mstore\n        /* \"#utility.yul\":2729:2733   */\n      0x20\n        /* \"#utility.yul\":2724:2727   */\n      dup3\n        /* \"#utility.yul\":2720:2734   */\n      add\n        /* \"#utility.yul\":2705:2734   */\n      swap1\n      pop\n        /* \"#utility.yul\":2571:2740   */\n      swap3\n      swap2\n      pop\n      pop\n      jump\t// out\n        /* \"#utility.yul\":2746:2927   */\n    tag_160:\n        /* \"#utility.yul\":2886:2919   */\n      0x55736572206973206e6f742074686520636f6e7472616374206f776e65722e00\n        /* \"#utility.yul\":2882:2883   */\n      0x00\n        /* \"#utility.yul\":2874:2880   */\n      dup3\n        /* \"#utility.yul\":2870:2884   */\n      add\n        /* \"#utility.yul\":2863:2920   */\n      mstore\n        /* \"#utility.yul\":2746:2927   */\n      pop\n      jump\t// out\n        /* \"#utility.yul\":2933:3299   */\n    tag_161:\n        /* \"#utility.yul\":3075:3078   */\n      0x00\n        /* \"#utility.yul\":3096:3163   */\n      tag_212\n        /* \"#utility.yul\":3160:3162   */\n      0x1f\n        /* \"#utility.yul\":3155:3158   */\n      dup4\n        /* \"#utility.yul\":3096:3163   */\n      tag_159\n      jump\t// in\n    tag_212:\n        /* \"#utility.yul\":3089:3163   */\n      swap2\n      pop\n        /* \"#utility.yul\":3172:3265   */\n      tag_213\n        /* \"#utility.yul\":3261:3264   */\n      dup3\n        /* \"#utility.yul\":3172:3265   */\n      tag_160\n      jump\t// in\n    tag_213:\n        /* \"#utility.yul\":3290:3292   */\n      0x20\n        /* \"#utility.yul\":3285:3288   */\n      dup3\n        /* \"#utility.yul\":3281:3293   */\n      add\n        /* \"#utility.yul\":3274:3293   */\n      swap1\n      pop\n        /* \"#utility.yul\":2933:3299   */\n      swap2\n      swap1\n      pop\n      jump\t// out\n        /* \"#utility.yul\":3305:3724   */\n    tag_78:\n        /* \"#utility.yul\":3471:3475   */\n      0x00\n        /* \"#utility.yul\":3509:3511   */\n      0x20\n        /* \"#utility.yul\":3498:3507   */\n      dup3\n        /* \"#utility.yul\":3494:3512   */\n      add\n        /* \"#utility.yul\":3486:3512   */\n      swap1\n      pop\n        /* \"#utility.yul\":3558:3567   */\n      dup2\n        /* \"#utility.yul\":3552:3556   */\n      dup2\n        /* \"#utility.yul\":3548:3568   */\n      sub\n        /* \"#utility.yul\":3544:3545   */\n      0x00\n        /* \"#utility.yul\":3533:3542   */\n      dup4\n        /* \"#utility.yul\":3529:3546   */\n      add\n        /* \"#utility.yul\":3522:3569   */\n      mstore\n        /* \"#utility.yul\":3586:3717   */\n      tag_215\n        /* \"#utility.yul\":3712:3716   */\n      dup2\n        /* \"#utility.yul\":3586:3717   */\n      tag_161\n      jump\t// in\n    tag_215:\n        /* \"#utility.yul\":3578:3717   */\n      swap1\n      pop\n        /* \"#utility.yul\":3305:3724   */\n      swap2\n      swap1\n      pop\n      jump\t// out\n        /* \"#utility.yul\":3730:3959   */\n    tag_162:\n        /* \"#utility.yul\":3870:3904   */\n      0x4f6e6c792074686520636f6e7472616374206f776e65722063616e2077697468\n        /* \"#utility.yul\":3866:3867   */\n      0x00\n        /* \"#utility.yul\":3858:3864   */\n      dup3\n        /* \"#utility.yul\":3854:3868   */\n      add\n        /* \"#utility.yul\":3847:3905   */\n      mstore\n        /* \"#utility.yul\":3939:3951   */\n      0x647261772066756e647300000000000000000000000000000000000000000000\n        /* \"#utility.yul\":3934:3936   */\n      0x20\n        /* \"#utility.yul\":3926:3932   */\n      dup3\n        /* \"#utility.yul\":3922:3937   */\n      add\n        /* \"#utility.yul\":3915:3952   */\n      mstore\n        /* \"#utility.yul\":3730:3959   */\n      pop\n      jump\t// out\n        /* \"#utility.yul\":3965:4331   */\n    tag_163:\n        /* \"#utility.yul\":4107:4110   */\n      0x00\n        /* \"#utility.yul\":4128:4195   */\n      tag_218\n        /* \"#utility.yul\":4192:4194   */\n      0x2a\n        /* \"#utility.yul\":4187:4190   */\n      dup4\n        /* \"#utility.yul\":4128:4195   */\n      tag_159\n      jump\t// in\n    tag_218:\n        /* \"#utility.yul\":4121:4195   */\n      swap2\n      pop\n        /* \"#utility.yul\":4204:4297   */\n      tag_219\n        /* \"#utility.yul\":4293:4296   */\n      dup3\n        /* \"#utility.yul\":4204:4297   */\n      tag_162\n      jump\t// in\n    tag_219:\n        /* \"#utility.yul\":4322:4324   */\n      0x40\n        /* \"#utility.yul\":4317:4320   */\n      dup3\n        /* \"#utility.yul\":4313:4325   */\n      add\n        /* \"#utility.yul\":4306:4325   */\n      swap1\n      pop\n        /* \"#utility.yul\":3965:4331   */\n      swap2\n      swap1\n      pop\n      jump\t// out\n        /* \"#utility.yul\":4337:4756   */\n    tag_83:\n        /* \"#utility.yul\":4503:4507   */\n      0x00\n        /* \"#utility.yul\":4541:4543   */\n      0x20\n        /* \"#utility.yul\":4530:4539   */\n      dup3\n        /* \"#utility.yul\":4526:4544   */\n      add\n        /* \"#utility.yul\":4518:4544   */\n      swap1\n      pop\n        /* \"#utility.yul\":4590:4599   */\n      dup2\n        /* \"#utility.yul\":4584:4588   */\n      dup2\n        /* \"#utility.yul\":4580:4600   */\n      sub\n        /* \"#utility.yul\":4576:4577   */\n      0x00\n        /* \"#utility.yul\":4565:4574   */\n      dup4\n        /* \"#utility.yul\":4561:4578   */\n      add\n        /* \"#utility.yul\":4554:4601   */\n      mstore\n        /* \"#utility.yul\":4618:4749   */\n      tag_221\n        /* \"#utility.yul\":4744:4748   */\n      dup2\n        /* \"#utility.yul\":4618:4749   */\n      tag_163\n      jump\t// in\n    tag_221:\n        /* \"#utility.yul\":4610:4749   */\n      swap1\n      pop\n        /* \"#utility.yul\":4337:4756   */\n      swap2\n      swap1\n      pop\n      jump\t// out\n        /* \"#utility.yul\":4762:4905   */\n    tag_164:\n        /* \"#utility.yul\":4819:4824   */\n      0x00\n        /* \"#utility.yul\":4850:4856   */\n      dup2\n        /* \"#utility.yul\":4844:4857   */\n      mload\n        /* \"#utility.yul\":4835:4857   */\n      swap1\n      pop\n        /* \"#utility.yul\":4866:4899   */\n      tag_223\n        /* \"#utility.yul\":4893:4898   */\n      dup2\n        /* \"#utility.yul\":4866:4899   */\n      tag_152\n      jump\t// in\n    tag_223:\n        /* \"#utility.yul\":4762:4905   */\n      swap3\n      swap2\n      pop\n      pop\n      jump\t// out\n        /* \"#utility.yul\":4911:5262   */\n    tag_92:\n        /* \"#utility.yul\":4981:4987   */\n      0x00\n        /* \"#utility.yul\":5030:5032   */\n      0x20\n        /* \"#utility.yul\":5018:5027   */\n      dup3\n        /* \"#utility.yul\":5009:5016   */\n      dup5\n        /* \"#utility.yul\":5005:5028   */\n      sub\n        /* \"#utility.yul\":5001:5033   */\n      slt\n        /* \"#utility.yul\":4998:5117   */\n      iszero\n      tag_225\n      jumpi\n        /* \"#utility.yul\":5036:5115   */\n      tag_226\n      tag_150\n      jump\t// in\n    tag_226:\n        /* \"#utility.yul\":4998:5117   */\n    tag_225:\n        /* \"#utility.yul\":5156:5157   */\n      0x00\n        /* \"#utility.yul\":5181:5245   */\n      tag_227\n        /* \"#utility.yul\":5237:5244   */\n      dup5\n        /* \"#utility.yul\":5228:5234   */\n      dup3\n        /* \"#utility.yul\":5217:5226   */\n      dup6\n        /* \"#utility.yul\":5213:5235   */\n      add\n        /* \"#utility.yul\":5181:5245   */\n      tag_164\n      jump\t// in\n    tag_227:\n        /* \"#utility.yul\":5171:5245   */\n      swap2\n      pop\n        /* \"#utility.yul\":5127:5255   */\n      pop\n        /* \"#utility.yul\":4911:5262   */\n      swap3\n      swap2\n      pop\n      pop\n      jump\t// out\n        /* \"#utility.yul\":5268:5497   */\n    tag_165:\n        /* \"#utility.yul\":5408:5442   */\n      0x42657420616d6f756e74206973206e6f742077697468696e2074686520616c6c\n        /* \"#utility.yul\":5404:5405   */\n      0x00\n        /* \"#utility.yul\":5396:5402   */\n      dup3\n        /* \"#utility.yul\":5392:5406   */\n      add\n        /* \"#utility.yul\":5385:5443   */\n      mstore\n        /* \"#utility.yul\":5477:5489   */\n      0x6f7765642072616e676500000000000000000000000000000000000000000000\n        /* \"#utility.yul\":5472:5474   */\n      0x20\n        /* \"#utility.yul\":5464:5470   */\n      dup3\n        /* \"#utility.yul\":5460:5475   */\n      add\n        /* \"#utility.yul\":5453:5490   */\n      mstore\n        /* \"#utility.yul\":5268:5497   */\n      pop\n      jump\t// out\n        /* \"#utility.yul\":5503:5869   */\n    tag_166:\n        /* \"#utility.yul\":5645:5648   */\n      0x00\n        /* \"#utility.yul\":5666:5733   */\n      tag_230\n        /* \"#utility.yul\":5730:5732   */\n      0x2a\n        /* \"#utility.yul\":5725:5728   */\n      dup4\n        /* \"#utility.yul\":5666:5733   */\n      tag_159\n      jump\t// in\n    tag_230:\n        /* \"#utility.yul\":5659:5733   */\n      swap2\n      pop\n        /* \"#utility.yul\":5742:5835   */\n      tag_231\n        /* \"#utility.yul\":5831:5834   */\n      dup3\n        /* \"#utility.yul\":5742:5835   */\n      tag_165\n      jump\t// in\n    tag_231:\n        /* \"#utility.yul\":5860:5862   */\n      0x40\n        /* \"#utility.yul\":5855:5858   */\n      dup3\n        /* \"#utility.yul\":5851:5863   */\n      add\n        /* \"#utility.yul\":5844:5863   */\n      swap1\n      pop\n        /* \"#utility.yul\":5503:5869   */\n      swap2\n      swap1\n      pop\n      jump\t// out\n        /* \"#utility.yul\":5875:6294   */\n    tag_99:\n        /* \"#utility.yul\":6041:6045   */\n      0x00\n        /* \"#utility.yul\":6079:6081   */\n      0x20\n        /* \"#utility.yul\":6068:6077   */\n      dup3\n        /* \"#utility.yul\":6064:6082   */\n      add\n        /* \"#utility.yul\":6056:6082   */\n      swap1\n      pop\n        /* \"#utility.yul\":6128:6137   */\n      dup2\n        /* \"#utility.yul\":6122:6126   */\n      dup2\n        /* \"#utility.yul\":6118:6138   */\n      sub\n        /* \"#utility.yul\":6114:6115   */\n      0x00\n        /* \"#utility.yul\":6103:6112   */\n      dup4\n        /* \"#utility.yul\":6099:6116   */\n      add\n        /* \"#utility.yul\":6092:6139   */\n      mstore\n        /* \"#utility.yul\":6156:6287   */\n      tag_233\n        /* \"#utility.yul\":6282:6286   */\n      dup2\n        /* \"#utility.yul\":6156:6287   */\n      tag_166\n      jump\t// in\n    tag_233:\n        /* \"#utility.yul\":6148:6287   */\n      swap1\n      pop\n        /* \"#utility.yul\":5875:6294   */\n      swap2\n      swap1\n      pop\n      jump\t// out\n        /* \"#utility.yul\":6300:6521   */\n    tag_167:\n        /* \"#utility.yul\":6440:6474   */\n      0x4e6f7420656e6f7567682062616c616e636520696e2074686520636f6e747261\n        /* \"#utility.yul\":6436:6437   */\n      0x00\n        /* \"#utility.yul\":6428:6434   */\n      dup3\n        /* \"#utility.yul\":6424:6438   */\n      add\n        /* \"#utility.yul\":6417:6475   */\n      mstore\n        /* \"#utility.yul\":6509:6513   */\n      0x6374000000000000000000000000000000000000000000000000000000000000\n        /* \"#utility.yul\":6504:6506   */\n      0x20\n        /* \"#utility.yul\":6496:6502   */\n      dup3\n        /* \"#utility.yul\":6492:6507   */\n      add\n        /* \"#utility.yul\":6485:6514   */\n      mstore\n        /* \"#utility.yul\":6300:6521   */\n      pop\n      jump\t// out\n        /* \"#utility.yul\":6527:6893   */\n    tag_168:\n        /* \"#utility.yul\":6669:6672   */\n      0x00\n        /* \"#utility.yul\":6690:6757   */\n      tag_236\n        /* \"#utility.yul\":6754:6756   */\n      0x22\n        /* \"#utility.yul\":6749:6752   */\n      dup4\n        /* \"#utility.yul\":6690:6757   */\n      tag_159\n      jump\t// in\n    tag_236:\n        /* \"#utility.yul\":6683:6757   */\n      swap2\n      pop\n        /* \"#utility.yul\":6766:6859   */\n      tag_237\n        /* \"#utility.yul\":6855:6858   */\n      dup3\n        /* \"#utility.yul\":6766:6859   */\n      tag_167\n      jump\t// in\n    tag_237:\n        /* \"#utility.yul\":6884:6886   */\n      0x40\n        /* \"#utility.yul\":6879:6882   */\n      dup3\n        /* \"#utility.yul\":6875:6887   */\n      add\n        /* \"#utility.yul\":6868:6887   */\n      swap1\n      pop\n        /* \"#utility.yul\":6527:6893   */\n      swap2\n      swap1\n      pop\n      jump\t// out\n        /* \"#utility.yul\":6899:7318   */\n    tag_102:\n        /* \"#utility.yul\":7065:7069   */\n      0x00\n        /* \"#utility.yul\":7103:7105   */\n      0x20\n        /* \"#utility.yul\":7092:7101   */\n      dup3\n        /* \"#utility.yul\":7088:7106   */\n      add\n        /* \"#utility.yul\":7080:7106   */\n      swap1\n      pop\n        /* \"#utility.yul\":7152:7161   */\n      dup2\n        /* \"#utility.yul\":7146:7150   */\n      dup2\n        /* \"#utility.yul\":7142:7162   */\n      sub\n        /* \"#utility.yul\":7138:7139   */\n      0x00\n        /* \"#utility.yul\":7127:7136   */\n      dup4\n        /* \"#utility.yul\":7123:7140   */\n      add\n        /* \"#utility.yul\":7116:7163   */\n      mstore\n        /* \"#utility.yul\":7180:7311   */\n      tag_239\n        /* \"#utility.yul\":7306:7310   */\n      dup2\n        /* \"#utility.yul\":7180:7311   */\n      tag_168\n      jump\t// in\n    tag_239:\n        /* \"#utility.yul\":7172:7311   */\n      swap1\n      pop\n        /* \"#utility.yul\":6899:7318   */\n      swap2\n      swap1\n      pop\n      jump\t// out\n        /* \"#utility.yul\":7324:7504   */\n    tag_169:\n        /* \"#utility.yul\":7372:7449   */\n      0x4e487b7100000000000000000000000000000000000000000000000000000000\n        /* \"#utility.yul\":7369:7370   */\n      0x00\n        /* \"#utility.yul\":7362:7450   */\n      mstore\n        /* \"#utility.yul\":7469:7473   */\n      0x11\n        /* \"#utility.yul\":7466:7467   */\n      0x04\n        /* \"#utility.yul\":7459:7474   */\n      mstore\n        /* \"#utility.yul\":7493:7497   */\n      0x24\n        /* \"#utility.yul\":7490:7491   */\n      0x00\n        /* \"#utility.yul\":7483:7498   */\n      revert\n        /* \"#utility.yul\":7510:7920   */\n    tag_107:\n        /* \"#utility.yul\":7550:7557   */\n      0x00\n        /* \"#utility.yul\":7573:7593   */\n      tag_242\n        /* \"#utility.yul\":7591:7592   */\n      dup3\n        /* \"#utility.yul\":7573:7593   */\n      tag_147\n      jump\t// in\n    tag_242:\n        /* \"#utility.yul\":7568:7593   */\n      swap2\n      pop\n        /* \"#utility.yul\":7607:7627   */\n      tag_243\n        /* \"#utility.yul\":7625:7626   */\n      dup4\n        /* \"#utility.yul\":7607:7627   */\n      tag_147\n      jump\t// in\n    tag_243:\n        /* \"#utility.yul\":7602:7627   */\n      swap3\n      pop\n        /* \"#utility.yul\":7662:7663   */\n      dup3\n        /* \"#utility.yul\":7659:7660   */\n      dup3\n        /* \"#utility.yul\":7655:7664   */\n      mul\n        /* \"#utility.yul\":7684:7714   */\n      tag_244\n        /* \"#utility.yul\":7702:7713   */\n      dup2\n        /* \"#utility.yul\":7684:7714   */\n      tag_147\n      jump\t// in\n    tag_244:\n        /* \"#utility.yul\":7673:7714   */\n      swap2\n      pop\n        /* \"#utility.yul\":7863:7864   */\n      dup3\n        /* \"#utility.yul\":7854:7861   */\n      dup3\n        /* \"#utility.yul\":7850:7865   */\n      div\n        /* \"#utility.yul\":7847:7848   */\n      dup5\n        /* \"#utility.yul\":7844:7866   */\n      eq\n        /* \"#utility.yul\":7824:7825   */\n      dup4\n        /* \"#utility.yul\":7817:7826   */\n      iszero\n        /* \"#utility.yul\":7797:7880   */\n      or\n        /* \"#utility.yul\":7774:7913   */\n      tag_245\n      jumpi\n        /* \"#utility.yul\":7893:7911   */\n      tag_246\n      tag_169\n      jump\t// in\n    tag_246:\n        /* \"#utility.yul\":7774:7913   */\n    tag_245:\n        /* \"#utility.yul\":7558:7920   */\n      pop\n        /* \"#utility.yul\":7510:7920   */\n      swap3\n      swap2\n      pop\n      pop\n      jump\t// out\n        /* \"#utility.yul\":7926:8120   */\n    tag_112:\n        /* \"#utility.yul\":7966:7970   */\n      0x00\n        /* \"#utility.yul\":7986:8006   */\n      tag_248\n        /* \"#utility.yul\":8004:8005   */\n      dup3\n        /* \"#utility.yul\":7986:8006   */\n      tag_147\n      jump\t// in\n    tag_248:\n        /* \"#utility.yul\":7981:8006   */\n      swap2\n      pop\n        /* \"#utility.yul\":8020:8040   */\n      tag_249\n        /* \"#utility.yul\":8038:8039   */\n      dup4\n        /* \"#utility.yul\":8020:8040   */\n      tag_147\n      jump\t// in\n    tag_249:\n        /* \"#utility.yul\":8015:8040   */\n      swap3\n      pop\n        /* \"#utility.yul\":8064:8065   */\n      dup3\n        /* \"#utility.yul\":8061:8062   */\n      dup3\n        /* \"#utility.yul\":8057:8066   */\n      sub\n        /* \"#utility.yul\":8049:8066   */\n      swap1\n      pop\n        /* \"#utility.yul\":8088:8089   */\n      dup2\n        /* \"#utility.yul\":8082:8086   */\n      dup2\n        /* \"#utility.yul\":8079:8090   */\n      gt\n        /* \"#utility.yul\":8076:8113   */\n      iszero\n      tag_250\n      jumpi\n        /* \"#utility.yul\":8093:8111   */\n      tag_251\n      tag_169\n      jump\t// in\n    tag_251:\n        /* \"#utility.yul\":8076:8113   */\n    tag_250:\n        /* \"#utility.yul\":7926:8120   */\n      swap3\n      swap2\n      pop\n      pop\n      jump\t// out\n        /* \"#utility.yul\":8126:8317   */\n    tag_115:\n        /* \"#utility.yul\":8166:8169   */\n      0x00\n        /* \"#utility.yul\":8185:8205   */\n      tag_253\n        /* \"#utility.yul\":8203:8204   */\n      dup3\n        /* \"#utility.yul\":8185:8205   */\n      tag_147\n      jump\t// in\n    tag_253:\n        /* \"#utility.yul\":8180:8205   */\n      swap2\n      pop\n        /* \"#utility.yul\":8219:8239   */\n      tag_254\n        /* \"#utility.yul\":8237:8238   */\n      dup4\n        /* \"#utility.yul\":8219:8239   */\n      tag_147\n      jump\t// in\n    tag_254:\n        /* \"#utility.yul\":8214:8239   */\n      swap3\n      pop\n        /* \"#utility.yul\":8262:8263   */\n      dup3\n        /* \"#utility.yul\":8259:8260   */\n      dup3\n        /* \"#utility.yul\":8255:8264   */\n      add\n        /* \"#utility.yul\":8248:8264   */\n      swap1\n      pop\n        /* \"#utility.yul\":8283:8286   */\n      dup1\n        /* \"#utility.yul\":8280:8281   */\n      dup3\n        /* \"#utility.yul\":8277:8287   */\n      gt\n        /* \"#utility.yul\":8274:8310   */\n      iszero\n      tag_255\n      jumpi\n        /* \"#utility.yul\":8290:8308   */\n      tag_256\n      tag_169\n      jump\t// in\n    tag_256:\n        /* \"#utility.yul\":8274:8310   */\n    tag_255:\n        /* \"#utility.yul\":8126:8317   */\n      swap3\n      swap2\n      pop\n      pop\n      jump\t// out\n        /* \"#utility.yul\":8323:8504   */\n    tag_170:\n        /* \"#utility.yul\":8463:8496   */\n      0x4465706f736974206d7573742062652067726561746572207468616e20302e00\n        /* \"#utility.yul\":8459:8460   */\n      0x00\n        /* \"#utility.yul\":8451:8457   */\n      dup3\n        /* \"#utility.yul\":8447:8461   */\n      add\n        /* \"#utility.yul\":8440:8497   */\n      mstore\n        /* \"#utility.yul\":8323:8504   */\n      pop\n      jump\t// out\n        /* \"#utility.yul\":8510:8876   */\n    tag_171:\n        /* \"#utility.yul\":8652:8655   */\n      0x00\n        /* \"#utility.yul\":8673:8740   */\n      tag_259\n        /* \"#utility.yul\":8737:8739   */\n      0x1f\n        /* \"#utility.yul\":8732:8735   */\n      dup4\n        /* \"#utility.yul\":8673:8740   */\n      tag_159\n      jump\t// in\n    tag_259:\n        /* \"#utility.yul\":8666:8740   */\n      swap2\n      pop\n        /* \"#utility.yul\":8749:8842   */\n      tag_260\n        /* \"#utility.yul\":8838:8841   */\n      dup3\n        /* \"#utility.yul\":8749:8842   */\n      tag_170\n      jump\t// in\n    tag_260:\n        /* \"#utility.yul\":8867:8869   */\n      0x20\n        /* \"#utility.yul\":8862:8865   */\n      dup3\n        /* \"#utility.yul\":8858:8870   */\n      add\n        /* \"#utility.yul\":8851:8870   */\n      swap1\n      pop\n        /* \"#utility.yul\":8510:8876   */\n      swap2\n      swap1\n      pop\n      jump\t// out\n        /* \"#utility.yul\":8882:9301   */\n    tag_141:\n        /* \"#utility.yul\":9048:9052   */\n      0x00\n        /* \"#utility.yul\":9086:9088   */\n      0x20\n        /* \"#utility.yul\":9075:9084   */\n      dup3\n        /* \"#utility.yul\":9071:9089   */\n      add\n        /* \"#utility.yul\":9063:9089   */\n      swap1\n      pop\n        /* \"#utility.yul\":9135:9144   */\n      dup2\n        /* \"#utility.yul\":9129:9133   */\n      dup2\n        /* \"#utility.yul\":9125:9145   */\n      sub\n        /* \"#utility.yul\":9121:9122   */\n      0x00\n        /* \"#utility.yul\":9110:9119   */\n      dup4\n        /* \"#utility.yul\":9106:9123   */\n      add\n        /* \"#utility.yul\":9099:9146   */\n      mstore\n        /* \"#utility.yul\":9163:9294   */\n      tag_262\n        /* \"#utility.yul\":9289:9293   */\n      dup2\n        /* \"#utility.yul\":9163:9294   */\n      tag_171\n      jump\t// in\n    tag_262:\n        /* \"#utility.yul\":9155:9294   */\n      swap1\n      pop\n        /* \"#utility.yul\":8882:9301   */\n      swap2\n      swap1\n      pop\n      jump\t// out\n        /* \"#utility.yul\":9307:9386   */\n    tag_172:\n        /* \"#utility.yul\":9346:9353   */\n      0x00\n        /* \"#utility.yul\":9375:9380   */\n      dup2\n        /* \"#utility.yul\":9364:9380   */\n      swap1\n      pop\n        /* \"#utility.yul\":9307:9386   */\n      swap2\n      swap1\n      pop\n      jump\t// out\n        /* \"#utility.yul\":9392:9549   */\n    tag_173:\n        /* \"#utility.yul\":9497:9542   */\n      tag_265\n        /* \"#utility.yul\":9517:9541   */\n      tag_266\n        /* \"#utility.yul\":9535:9540   */\n      dup3\n        /* \"#utility.yul\":9517:9541   */\n      tag_147\n      jump\t// in\n    tag_266:\n        /* \"#utility.yul\":9497:9542   */\n      tag_172\n      jump\t// in\n    tag_265:\n        /* \"#utility.yul\":9492:9495   */\n      dup3\n        /* \"#utility.yul\":9485:9543   */\n      mstore\n        /* \"#utility.yul\":9392:9549   */\n      pop\n      pop\n      jump\t// out\n        /* \"#utility.yul\":9555:9952   */\n    tag_144:\n        /* \"#utility.yul\":9695:9698   */\n      0x00\n        /* \"#utility.yul\":9710:9785   */\n      tag_268\n        /* \"#utility.yul\":9781:9784   */\n      dup3\n        /* \"#utility.yul\":9772:9778   */\n      dup6\n        /* \"#utility.yul\":9710:9785   */\n      tag_173\n      jump\t// in\n    tag_268:\n        /* \"#utility.yul\":9810:9812   */\n      0x20\n        /* \"#utility.yul\":9805:9808   */\n      dup3\n        /* \"#utility.yul\":9801:9813   */\n      add\n        /* \"#utility.yul\":9794:9813   */\n      swap2\n      pop\n        /* \"#utility.yul\":9823:9898   */\n      tag_269\n        /* \"#utility.yul\":9894:9897   */\n      dup3\n        /* \"#utility.yul\":9885:9891   */\n      dup5\n        /* \"#utility.yul\":9823:9898   */\n      tag_173\n      jump\t// in\n    tag_269:\n        /* \"#utility.yul\":9923:9925   */\n      0x20\n        /* \"#utility.yul\":9918:9921   */\n      dup3\n        /* \"#utility.yul\":9914:9926   */\n      add\n        /* \"#utility.yul\":9907:9926   */\n      swap2\n      pop\n        /* \"#utility.yul\":9943:9946   */\n      dup2\n        /* \"#utility.yul\":9936:9946   */\n      swap1\n      pop\n        /* \"#utility.yul\":9555:9952   */\n      swap4\n      swap3\n      pop\n      pop\n      pop\n      jump\t// out\n        /* \"#utility.yul\":9958:10138   */\n    tag_174:\n        /* \"#utility.yul\":10006:10083   */\n      0x4e487b7100000000000000000000000000000000000000000000000000000000\n        /* \"#utility.yul\":10003:10004   */\n      0x00\n        /* \"#utility.yul\":9996:10084   */\n      mstore\n        /* \"#utility.yul\":10103:10107   */\n      0x12\n        /* \"#utility.yul\":10100:10101   */\n      0x04\n        /* \"#utility.yul\":10093:10108   */\n      mstore\n        /* \"#utility.yul\":10127:10131   */\n      0x24\n        /* \"#utility.yul\":10124:10125   */\n      0x00\n        /* \"#utility.yul\":10117:10132   */\n      revert\n        /* \"#utility.yul\":10144:10320   */\n    tag_146:\n        /* \"#utility.yul\":10176:10177   */\n      0x00\n        /* \"#utility.yul\":10193:10213   */\n      tag_272\n        /* \"#utility.yul\":10211:10212   */\n      dup3\n        /* \"#utility.yul\":10193:10213   */\n      tag_147\n      jump\t// in\n    tag_272:\n        /* \"#utility.yul\":10188:10213   */\n      swap2\n      pop\n        /* \"#utility.yul\":10227:10247   */\n      tag_273\n        /* \"#utility.yul\":10245:10246   */\n      dup4\n        /* \"#utility.yul\":10227:10247   */\n      tag_147\n      jump\t// in\n    tag_273:\n        /* \"#utility.yul\":10222:10247   */\n      swap3\n      pop\n        /* \"#utility.yul\":10266:10267   */\n      dup3\n        /* \"#utility.yul\":10256:10291   */\n      tag_274\n      jumpi\n        /* \"#utility.yul\":10271:10289   */\n      tag_275\n      tag_174\n      jump\t// in\n    tag_275:\n        /* \"#utility.yul\":10256:10291   */\n    tag_274:\n        /* \"#utility.yul\":10312:10313   */\n      dup3\n        /* \"#utility.yul\":10309:10310   */\n      dup3\n        /* \"#utility.yul\":10305:10314   */\n      mod\n        /* \"#utility.yul\":10300:10314   */\n      swap1\n      pop\n        /* \"#utility.yul\":10144:10320   */\n      swap3\n      swap2\n      pop\n      pop\n      jump\t// out\n\n    auxdata: 0xa264697066735822122014d11697b466b1cc868c607de7a89606a03d9b071218fe259c148721b63f191d64736f6c63430008110033\n}\n",
				"bytecode": {
					"linkReferences": {},
					"object": "608060405260008060146101000a81548160ff0219169083151502179055506801158e460913d000006001556702c68af0bb1400006002556000600355336000806101000a81548173ffffffffffffffffffffffffffffffffffffffff021916908373ffffffffffffffffffffffffffffffffffffffff1602179055503460048190555061102a806100926000396000f3fe6080604052600436106100dd5760003560e01c8063881eff1e1161007f5780638b7afe2e116100595780638b7afe2e14610243578063951a1a621461026e578063a6f9dae114610299578063b6b55f25146102c2576100dd565b8063881eff1e146101c657806388ea41b9146101ef578063893d20e814610218576100dd565b806324c37507116100bb57806324c375071461013b5780633919b19714610166578063646668b614610191578063799ae223146101bc576100dd565b806312065fe0146100e25780631385d24c1461010d57806324600fc314610124575b600080fd5b3480156100ee57600080fd5b506100f76102de565b6040516101049190610a5f565b60405180910390f35b34801561011957600080fd5b506101226102e6565b005b34801561013057600080fd5b506101396103a0565b005b34801561014757600080fd5b50610150610481565b60405161015d9190610a5f565b60405180910390f35b34801561017257600080fd5b5061017b61048b565b6040516101889190610a5f565b60405180910390f35b34801561019d57600080fd5b506101a6610491565b6040516101b39190610a5f565b60405180910390f35b6101c461049b565b005b3480156101d257600080fd5b506101ed60048036038101906101e89190610aab565b6106b7565b005b3480156101fb57600080fd5b5061021660048036038101906102119190610aab565b61077c565b005b34801561022457600080fd5b5061022d610841565b60405161023a9190610b19565b60405180910390f35b34801561024f57600080fd5b5061025861086a565b6040516102659190610a5f565b60405180910390f35b34801561027a57600080fd5b50610283610870565b6040516102909190610a5f565b60405180910390f35b3480156102a557600080fd5b506102c060048036038101906102bb9190610b60565b610876565b005b6102dc60048036038101906102d79190610aab565b610911565b005b600047905090565b60008054906101000a900473ffffffffffffffffffffffffffffffffffffffff1673ffffffffffffffffffffffffffffffffffffffff163373ffffffffffffffffffffffffffffffffffffffff1614610374576040517f08c379a000000000000000000000000000000000000000000000000000000000815260040161036b90610bea565b60405180910390fd5b600060149054906101000a900460ff1615600060146101000a81548160ff021916908315150217905550565b60008054906101000a900473ffffffffffffffffffffffffffffffffffffffff1673ffffffffffffffffffffffffffffffffffffffff163373ffffffffffffffffffffffffffffffffffffffff161461042e576040517f08c379a000000000000000000000000000000000000000000000000000000000815260040161042590610c7c565b60405180910390fd5b3373ffffffffffffffffffffffffffffffffffffffff166108fc6004549081150290604051600060405180830381858888f19350505050158015610476573d6000803e3d6000fd5b506000600481905550565b6000600254905090565b60015481565b6000600154905090565b3073ffffffffffffffffffffffffffffffffffffffff166324c375076040518163ffffffff1660e01b8152600401602060405180830381865afa1580156104e6573d6000803e3d6000fd5b505050506040513d601f19601f8201168201806040525081019061050a9190610cb1565b341015801561058757503073ffffffffffffffffffffffffffffffffffffffff1663646668b66040518163ffffffff1660e01b8152600401602060405180830381865afa15801561055f573d6000803e3d6000fd5b505050506040513d601f19601f820116820180604052508101906105839190610cb1565b3411155b6105c6576040517f08c379a00000000000000000000000000000000000000000000000000000000081526004016105bd90610d50565b60405180910390fd5b34600454101561060b576040517f08c379a000000000000000000000000000000000000000000000000000000000815260040161060290610de2565b60405180910390fd5b60006106156109ff565b9050801561069a573373ffffffffffffffffffffffffffffffffffffffff166108fc6002346106449190610e31565b9081150290604051600060405180830381858888f1935050505015801561066f573d6000803e3d6000fd5b5060023461067d9190610e31565b6004600082825461068e9190610e73565b925050819055506106b4565b34600460008282546106ac9190610ea7565b925050819055505b50565b60008054906101000a900473ffffffffffffffffffffffffffffffffffffffff1673ffffffffffffffffffffffffffffffffffffffff163373ffffffffffffffffffffffffffffffffffffffff1614610745576040517f08c379a000000000000000000000000000000000000000000000000000000000815260040161073c90610bea565b60405180910390fd5b600060149054906101000a900460ff161561075f57600080fd5b670de0b6b3a7640000816107739190610e31565b60018190555050565b60008054906101000a900473ffffffffffffffffffffffffffffffffffffffff1673ffffffffffffffffffffffffffffffffffffffff163373ffffffffffffffffffffffffffffffffffffffff161461080a576040517f08c379a000000000000000000000000000000000000000000000000000000000815260040161080190610bea565b60405180910390fd5b600060149054906101000a900460ff161561082457600080fd5b670de0b6b3a7640000816108389190610e31565b60028190555050565b60008060009054906101000a900473ffffffffffffffffffffffffffffffffffffffff16905090565b60045481565b60025481565b60008054906101000a900473ffffffffffffffffffffffffffffffffffffffff1673ffffffffffffffffffffffffffffffffffffffff163373ffffffffffffffffffffffffffffffffffffffff16146108ce57600080fd5b806000806101000a81548173ffffffffffffffffffffffffffffffffffffffff021916908373ffffffffffffffffffffffffffffffffffffffff16021790555050565b60008054906101000a900473ffffffffffffffffffffffffffffffffffffffff1673ffffffffffffffffffffffffffffffffffffffff163373ffffffffffffffffffffffffffffffffffffffff161461099f576040517f08c379a000000000000000000000000000000000000000000000000000000000815260040161099690610bea565b60405180910390fd5b600060149054906101000a900460ff16156109b957600080fd5b600081116109fc576040517f08c379a00000000000000000000000000000000000000000000000000000000081526004016109f390610f27565b60405180910390fd5b50565b60008060024244604051602001610a17929190610f68565b6040516020818303038152906040528051906020012060001c610a3a9190610fc3565b90506001811491505090565b6000819050919050565b610a5981610a46565b82525050565b6000602082019050610a746000830184610a50565b92915050565b600080fd5b610a8881610a46565b8114610a9357600080fd5b50565b600081359050610aa581610a7f565b92915050565b600060208284031215610ac157610ac0610a7a565b5b6000610acf84828501610a96565b91505092915050565b600073ffffffffffffffffffffffffffffffffffffffff82169050919050565b6000610b0382610ad8565b9050919050565b610b1381610af8565b82525050565b6000602082019050610b2e6000830184610b0a565b92915050565b610b3d81610af8565b8114610b4857600080fd5b50565b600081359050610b5a81610b34565b92915050565b600060208284031215610b7657610b75610a7a565b5b6000610b8484828501610b4b565b91505092915050565b600082825260208201905092915050565b7f55736572206973206e6f742074686520636f6e7472616374206f776e65722e00600082015250565b6000610bd4601f83610b8d565b9150610bdf82610b9e565b602082019050919050565b60006020820190508181036000830152610c0381610bc7565b9050919050565b7f4f6e6c792074686520636f6e7472616374206f776e65722063616e207769746860008201527f647261772066756e647300000000000000000000000000000000000000000000602082015250565b6000610c66602a83610b8d565b9150610c7182610c0a565b604082019050919050565b60006020820190508181036000830152610c9581610c59565b9050919050565b600081519050610cab81610a7f565b92915050565b600060208284031215610cc757610cc6610a7a565b5b6000610cd584828501610c9c565b91505092915050565b7f42657420616d6f756e74206973206e6f742077697468696e2074686520616c6c60008201527f6f7765642072616e676500000000000000000000000000000000000000000000602082015250565b6000610d3a602a83610b8d565b9150610d4582610cde565b604082019050919050565b60006020820190508181036000830152610d6981610d2d565b9050919050565b7f4e6f7420656e6f7567682062616c616e636520696e2074686520636f6e74726160008201527f6374000000000000000000000000000000000000000000000000000000000000602082015250565b6000610dcc602283610b8d565b9150610dd782610d70565b604082019050919050565b60006020820190508181036000830152610dfb81610dbf565b9050919050565b7f4e487b7100000000000000000000000000000000000000000000000000000000600052601160045260246000fd5b6000610e3c82610a46565b9150610e4783610a46565b9250828202610e5581610a46565b91508282048414831517610e6c57610e6b610e02565b5b5092915050565b6000610e7e82610a46565b9150610e8983610a46565b9250828203905081811115610ea157610ea0610e02565b5b92915050565b6000610eb282610a46565b9150610ebd83610a46565b9250828201905080821115610ed557610ed4610e02565b5b92915050565b7f4465706f736974206d7573742062652067726561746572207468616e20302e00600082015250565b6000610f11601f83610b8d565b9150610f1c82610edb565b602082019050919050565b60006020820190508181036000830152610f4081610f04565b9050919050565b6000819050919050565b610f62610f5d82610a46565b610f47565b82525050565b6000610f748285610f51565b602082019150610f848284610f51565b6020820191508190509392505050565b7f4e487b7100000000000000000000000000000000000000000000000000000000600052601260045260246000fd5b6000610fce82610a46565b9150610fd983610a46565b925082610fe957610fe8610f94565b5b82820690509291505056fea264697066735822122014d11697b466b1cc868c607de7a89606a03d9b071218fe259c148721b63f191d64736f6c63430008110033",
					"opcodes": "PUSH1 0x80 PUSH1 0x40 MSTORE PUSH1 0x0 DUP1 PUSH1 0x14 PUSH2 0x100 EXP DUP2 SLOAD DUP2 PUSH1 0xFF MUL NOT AND SWAP1 DUP4 ISZERO ISZERO MUL OR SWAP1 SSTORE POP PUSH9 0x1158E460913D00000 PUSH1 0x1 SSTORE PUSH8 0x2C68AF0BB140000 PUSH1 0x2 SSTORE PUSH1 0x0 PUSH1 0x3 SSTORE CALLER PUSH1 0x0 DUP1 PUSH2 0x100 EXP DUP2 SLOAD DUP2 PUSH20 0xFFFFFFFFFFFFFFFFFFFFFFFFFFFFFFFFFFFFFFFF MUL NOT AND SWAP1 DUP4 PUSH20 0xFFFFFFFFFFFFFFFFFFFFFFFFFFFFFFFFFFFFFFFF AND MUL OR SWAP1 SSTORE POP CALLVALUE PUSH1 0x4 DUP2 SWAP1 SSTORE POP PUSH2 0x102A DUP1 PUSH2 0x92 PUSH1 0x0 CODECOPY PUSH1 0x0 RETURN INVALID PUSH1 0x80 PUSH1 0x40 MSTORE PUSH1 0x4 CALLDATASIZE LT PUSH2 0xDD JUMPI PUSH1 0x0 CALLDATALOAD PUSH1 0xE0 SHR DUP1 PUSH4 0x881EFF1E GT PUSH2 0x7F JUMPI DUP1 PUSH4 0x8B7AFE2E GT PUSH2 0x59 JUMPI DUP1 PUSH4 0x8B7AFE2E EQ PUSH2 0x243 JUMPI DUP1 PUSH4 0x951A1A62 EQ PUSH2 0x26E JUMPI DUP1 PUSH4 0xA6F9DAE1 EQ PUSH2 0x299 JUMPI DUP1 PUSH4 0xB6B55F25 EQ PUSH2 0x2C2 JUMPI PUSH2 0xDD JUMP JUMPDEST DUP1 PUSH4 0x881EFF1E EQ PUSH2 0x1C6 JUMPI DUP1 PUSH4 0x88EA41B9 EQ PUSH2 0x1EF JUMPI DUP1 PUSH4 0x893D20E8 EQ PUSH2 0x218 JUMPI PUSH2 0xDD JUMP JUMPDEST DUP1 PUSH4 0x24C37507 GT PUSH2 0xBB JUMPI DUP1 PUSH4 0x24C37507 EQ PUSH2 0x13B JUMPI DUP1 PUSH4 0x3919B197 EQ PUSH2 0x166 JUMPI DUP1 PUSH4 0x646668B6 EQ PUSH2 0x191 JUMPI DUP1 PUSH4 0x799AE223 EQ PUSH2 0x1BC JUMPI PUSH2 0xDD JUMP JUMPDEST DUP1 PUSH4 0x12065FE0 EQ PUSH2 0xE2 JUMPI DUP1 PUSH4 0x1385D24C EQ PUSH2 0x10D JUMPI DUP1 PUSH4 0x24600FC3 EQ PUSH2 0x124 JUMPI JUMPDEST PUSH1 0x0 DUP1 REVERT JUMPDEST CALLVALUE DUP1 ISZERO PUSH2 0xEE JUMPI PUSH1 0x0 DUP1 REVERT JUMPDEST POP PUSH2 0xF7 PUSH2 0x2DE JUMP JUMPDEST PUSH1 0x40 MLOAD PUSH2 0x104 SWAP2 SWAP1 PUSH2 0xA5F JUMP JUMPDEST PUSH1 0x40 MLOAD DUP1 SWAP2 SUB SWAP1 RETURN JUMPDEST CALLVALUE DUP1 ISZERO PUSH2 0x119 JUMPI PUSH1 0x0 DUP1 REVERT JUMPDEST POP PUSH2 0x122 PUSH2 0x2E6 JUMP JUMPDEST STOP JUMPDEST CALLVALUE DUP1 ISZERO PUSH2 0x130 JUMPI PUSH1 0x0 DUP1 REVERT JUMPDEST POP PUSH2 0x139 PUSH2 0x3A0 JUMP JUMPDEST STOP JUMPDEST CALLVALUE DUP1 ISZERO PUSH2 0x147 JUMPI PUSH1 0x0 DUP1 REVERT JUMPDEST POP PUSH2 0x150 PUSH2 0x481 JUMP JUMPDEST PUSH1 0x40 MLOAD PUSH2 0x15D SWAP2 SWAP1 PUSH2 0xA5F JUMP JUMPDEST PUSH1 0x40 MLOAD DUP1 SWAP2 SUB SWAP1 RETURN JUMPDEST CALLVALUE DUP1 ISZERO PUSH2 0x172 JUMPI PUSH1 0x0 DUP1 REVERT JUMPDEST POP PUSH2 0x17B PUSH2 0x48B JUMP JUMPDEST PUSH1 0x40 MLOAD PUSH2 0x188 SWAP2 SWAP1 PUSH2 0xA5F JUMP JUMPDEST PUSH1 0x40 MLOAD DUP1 SWAP2 SUB SWAP1 RETURN JUMPDEST CALLVALUE DUP1 ISZERO PUSH2 0x19D JUMPI PUSH1 0x0 DUP1 REVERT JUMPDEST POP PUSH2 0x1A6 PUSH2 0x491 JUMP JUMPDEST PUSH1 0x40 MLOAD PUSH2 0x1B3 SWAP2 SWAP1 PUSH2 0xA5F JUMP JUMPDEST PUSH1 0x40 MLOAD DUP1 SWAP2 SUB SWAP1 RETURN JUMPDEST PUSH2 0x1C4 PUSH2 0x49B JUMP JUMPDEST STOP JUMPDEST CALLVALUE DUP1 ISZERO PUSH2 0x1D2 JUMPI PUSH1 0x0 DUP1 REVERT JUMPDEST POP PUSH2 0x1ED PUSH1 0x4 DUP1 CALLDATASIZE SUB DUP2 ADD SWAP1 PUSH2 0x1E8 SWAP2 SWAP1 PUSH2 0xAAB JUMP JUMPDEST PUSH2 0x6B7 JUMP JUMPDEST STOP JUMPDEST CALLVALUE DUP1 ISZERO PUSH2 0x1FB JUMPI PUSH1 0x0 DUP1 REVERT JUMPDEST POP PUSH2 0x216 PUSH1 0x4 DUP1 CALLDATASIZE SUB DUP2 ADD SWAP1 PUSH2 0x211 SWAP2 SWAP1 PUSH2 0xAAB JUMP JUMPDEST PUSH2 0x77C JUMP JUMPDEST STOP JUMPDEST CALLVALUE DUP1 ISZERO PUSH2 0x224 JUMPI PUSH1 0x0 DUP1 REVERT JUMPDEST POP PUSH2 0x22D PUSH2 0x841 JUMP JUMPDEST PUSH1 0x40 MLOAD PUSH2 0x23A SWAP2 SWAP1 PUSH2 0xB19 JUMP JUMPDEST PUSH1 0x40 MLOAD DUP1 SWAP2 SUB SWAP1 RETURN JUMPDEST CALLVALUE DUP1 ISZERO PUSH2 0x24F JUMPI PUSH1 0x0 DUP1 REVERT JUMPDEST POP PUSH2 0x258 PUSH2 0x86A JUMP JUMPDEST PUSH1 0x40 MLOAD PUSH2 0x265 SWAP2 SWAP1 PUSH2 0xA5F JUMP JUMPDEST PUSH1 0x40 MLOAD DUP1 SWAP2 SUB SWAP1 RETURN JUMPDEST CALLVALUE DUP1 ISZERO PUSH2 0x27A JUMPI PUSH1 0x0 DUP1 REVERT JUMPDEST POP PUSH2 0x283 PUSH2 0x870 JUMP JUMPDEST PUSH1 0x40 MLOAD PUSH2 0x290 SWAP2 SWAP1 PUSH2 0xA5F JUMP JUMPDEST PUSH1 0x40 MLOAD DUP1 SWAP2 SUB SWAP1 RETURN JUMPDEST CALLVALUE DUP1 ISZERO PUSH2 0x2A5 JUMPI PUSH1 0x0 DUP1 REVERT JUMPDEST POP PUSH2 0x2C0 PUSH1 0x4 DUP1 CALLDATASIZE SUB DUP2 ADD SWAP1 PUSH2 0x2BB SWAP2 SWAP1 PUSH2 0xB60 JUMP JUMPDEST PUSH2 0x876 JUMP JUMPDEST STOP JUMPDEST PUSH2 0x2DC PUSH1 0x4 DUP1 CALLDATASIZE SUB DUP2 ADD SWAP1 PUSH2 0x2D7 SWAP2 SWAP1 PUSH2 0xAAB JUMP JUMPDEST PUSH2 0x911 JUMP JUMPDEST STOP JUMPDEST PUSH1 0x0 SELFBALANCE SWAP1 POP SWAP1 JUMP JUMPDEST PUSH1 0x0 DUP1 SLOAD SWAP1 PUSH2 0x100 EXP SWAP1 DIV PUSH20 0xFFFFFFFFFFFFFFFFFFFFFFFFFFFFFFFFFFFFFFFF AND PUSH20 0xFFFFFFFFFFFFFFFFFFFFFFFFFFFFFFFFFFFFFFFF AND CALLER PUSH20 0xFFFFFFFFFFFFFFFFFFFFFFFFFFFFFFFFFFFFFFFF AND EQ PUSH2 0x374 JUMPI PUSH1 0x40 MLOAD PUSH32 0x8C379A000000000000000000000000000000000000000000000000000000000 DUP2 MSTORE PUSH1 0x4 ADD PUSH2 0x36B SWAP1 PUSH2 0xBEA JUMP JUMPDEST PUSH1 0x40 MLOAD DUP1 SWAP2 SUB SWAP1 REVERT JUMPDEST PUSH1 0x0 PUSH1 0x14 SWAP1 SLOAD SWAP1 PUSH2 0x100 EXP SWAP1 DIV PUSH1 0xFF AND ISZERO PUSH1 0x0 PUSH1 0x14 PUSH2 0x100 EXP DUP2 SLOAD DUP2 PUSH1 0xFF MUL NOT AND SWAP1 DUP4 ISZERO ISZERO MUL OR SWAP1 SSTORE POP JUMP JUMPDEST PUSH1 0x0 DUP1 SLOAD SWAP1 PUSH2 0x100 EXP SWAP1 DIV PUSH20 0xFFFFFFFFFFFFFFFFFFFFFFFFFFFFFFFFFFFFFFFF AND PUSH20 0xFFFFFFFFFFFFFFFFFFFFFFFFFFFFFFFFFFFFFFFF AND CALLER PUSH20 0xFFFFFFFFFFFFFFFFFFFFFFFFFFFFFFFFFFFFFFFF AND EQ PUSH2 0x42E JUMPI PUSH1 0x40 MLOAD PUSH32 0x8C379A000000000000000000000000000000000000000000000000000000000 DUP2 MSTORE PUSH1 0x4 ADD PUSH2 0x425 SWAP1 PUSH2 0xC7C JUMP JUMPDEST PUSH1 0x40 MLOAD DUP1 SWAP2 SUB SWAP1 REVERT JUMPDEST CALLER PUSH20 0xFFFFFFFFFFFFFFFFFFFFFFFFFFFFFFFFFFFFFFFF AND PUSH2 0x8FC PUSH1 0x4 SLOAD SWAP1 DUP2 ISZERO MUL SWAP1 PUSH1 0x40 MLOAD PUSH1 0x0 PUSH1 0x40 MLOAD DUP1 DUP4 SUB DUP2 DUP6 DUP9 DUP9 CALL SWAP4 POP POP POP POP ISZERO DUP1 ISZERO PUSH2 0x476 JUMPI RETURNDATASIZE PUSH1 0x0 DUP1 RETURNDATACOPY RETURNDATASIZE PUSH1 0x0 REVERT JUMPDEST POP PUSH1 0x0 PUSH1 0x4 DUP2 SWAP1 SSTORE POP JUMP JUMPDEST PUSH1 0x0 PUSH1 0x2 SLOAD SWAP1 POP SWAP1 JUMP JUMPDEST PUSH1 0x1 SLOAD DUP2 JUMP JUMPDEST PUSH1 0x0 PUSH1 0x1 SLOAD SWAP1 POP SWAP1 JUMP JUMPDEST ADDRESS PUSH20 0xFFFFFFFFFFFFFFFFFFFFFFFFFFFFFFFFFFFFFFFF AND PUSH4 0x24C37507 PUSH1 0x40 MLOAD DUP2 PUSH4 0xFFFFFFFF AND PUSH1 0xE0 SHL DUP2 MSTORE PUSH1 0x4 ADD PUSH1 0x20 PUSH1 0x40 MLOAD DUP1 DUP4 SUB DUP2 DUP7 GAS STATICCALL ISZERO DUP1 ISZERO PUSH2 0x4E6 JUMPI RETURNDATASIZE PUSH1 0x0 DUP1 RETURNDATACOPY RETURNDATASIZE PUSH1 0x0 REVERT JUMPDEST POP POP POP POP PUSH1 0x40 MLOAD RETURNDATASIZE PUSH1 0x1F NOT PUSH1 0x1F DUP3 ADD AND DUP3 ADD DUP1 PUSH1 0x40 MSTORE POP DUP2 ADD SWAP1 PUSH2 0x50A SWAP2 SWAP1 PUSH2 0xCB1 JUMP JUMPDEST CALLVALUE LT ISZERO DUP1 ISZERO PUSH2 0x587 JUMPI POP ADDRESS PUSH20 0xFFFFFFFFFFFFFFFFFFFFFFFFFFFFFFFFFFFFFFFF AND PUSH4 0x646668B6 PUSH1 0x40 MLOAD DUP2 PUSH4 0xFFFFFFFF AND PUSH1 0xE0 SHL DUP2 MSTORE PUSH1 0x4 ADD PUSH1 0x20 PUSH1 0x40 MLOAD DUP1 DUP4 SUB DUP2 DUP7 GAS STATICCALL ISZERO DUP1 ISZERO PUSH2 0x55F JUMPI RETURNDATASIZE PUSH1 0x0 DUP1 RETURNDATACOPY RETURNDATASIZE PUSH1 0x0 REVERT JUMPDEST POP POP POP POP PUSH1 0x40 MLOAD RETURNDATASIZE PUSH1 0x1F NOT PUSH1 0x1F DUP3 ADD AND DUP3 ADD DUP1 PUSH1 0x40 MSTORE POP DUP2 ADD SWAP1 PUSH2 0x583 SWAP2 SWAP1 PUSH2 0xCB1 JUMP JUMPDEST CALLVALUE GT ISZERO JUMPDEST PUSH2 0x5C6 JUMPI PUSH1 0x40 MLOAD PUSH32 0x8C379A000000000000000000000000000000000000000000000000000000000 DUP2 MSTORE PUSH1 0x4 ADD PUSH2 0x5BD SWAP1 PUSH2 0xD50 JUMP JUMPDEST PUSH1 0x40 MLOAD DUP1 SWAP2 SUB SWAP1 REVERT JUMPDEST CALLVALUE PUSH1 0x4 SLOAD LT ISZERO PUSH2 0x60B JUMPI PUSH1 0x40 MLOAD PUSH32 0x8C379A000000000000000000000000000000000000000000000000000000000 DUP2 MSTORE PUSH1 0x4 ADD PUSH2 0x602 SWAP1 PUSH2 0xDE2 JUMP JUMPDEST PUSH1 0x40 MLOAD DUP1 SWAP2 SUB SWAP1 REVERT JUMPDEST PUSH1 0x0 PUSH2 0x615 PUSH2 0x9FF JUMP JUMPDEST SWAP1 POP DUP1 ISZERO PUSH2 0x69A JUMPI CALLER PUSH20 0xFFFFFFFFFFFFFFFFFFFFFFFFFFFFFFFFFFFFFFFF AND PUSH2 0x8FC PUSH1 0x2 CALLVALUE PUSH2 0x644 SWAP2 SWAP1 PUSH2 0xE31 JUMP JUMPDEST SWAP1 DUP2 ISZERO MUL SWAP1 PUSH1 0x40 MLOAD PUSH1 0x0 PUSH1 0x40 MLOAD DUP1 DUP4 SUB DUP2 DUP6 DUP9 DUP9 CALL SWAP4 POP POP POP POP ISZERO DUP1 ISZERO PUSH2 0x66F JUMPI RETURNDATASIZE PUSH1 0x0 DUP1 RETURNDATACOPY RETURNDATASIZE PUSH1 0x0 REVERT JUMPDEST POP PUSH1 0x2 CALLVALUE PUSH2 0x67D SWAP2 SWAP1 PUSH2 0xE31 JUMP JUMPDEST PUSH1 0x4 PUSH1 0x0 DUP3 DUP3 SLOAD PUSH2 0x68E SWAP2 SWAP1 PUSH2 0xE73 JUMP JUMPDEST SWAP3 POP POP DUP2 SWAP1 SSTORE POP PUSH2 0x6B4 JUMP JUMPDEST CALLVALUE PUSH1 0x4 PUSH1 0x0 DUP3 DUP3 SLOAD PUSH2 0x6AC SWAP2 SWAP1 PUSH2 0xEA7 JUMP JUMPDEST SWAP3 POP POP DUP2 SWAP1 SSTORE POP JUMPDEST POP JUMP JUMPDEST PUSH1 0x0 DUP1 SLOAD SWAP1 PUSH2 0x100 EXP SWAP1 DIV PUSH20 0xFFFFFFFFFFFFFFFFFFFFFFFFFFFFFFFFFFFFFFFF AND PUSH20 0xFFFFFFFFFFFFFFFFFFFFFFFFFFFFFFFFFFFFFFFF AND CALLER PUSH20 0xFFFFFFFFFFFFFFFFFFFFFFFFFFFFFFFFFFFFFFFF AND EQ PUSH2 0x745 JUMPI PUSH1 0x40 MLOAD PUSH32 0x8C379A000000000000000000000000000000000000000000000000000000000 DUP2 MSTORE PUSH1 0x4 ADD PUSH2 0x73C SWAP1 PUSH2 0xBEA JUMP JUMPDEST PUSH1 0x40 MLOAD DUP1 SWAP2 SUB SWAP1 REVERT JUMPDEST PUSH1 0x0 PUSH1 0x14 SWAP1 SLOAD SWAP1 PUSH2 0x100 EXP SWAP1 DIV PUSH1 0xFF AND ISZERO PUSH2 0x75F JUMPI PUSH1 0x0 DUP1 REVERT JUMPDEST PUSH8 0xDE0B6B3A7640000 DUP2 PUSH2 0x773 SWAP2 SWAP1 PUSH2 0xE31 JUMP JUMPDEST PUSH1 0x1 DUP2 SWAP1 SSTORE POP POP JUMP JUMPDEST PUSH1 0x0 DUP1 SLOAD SWAP1 PUSH2 0x100 EXP SWAP1 DIV PUSH20 0xFFFFFFFFFFFFFFFFFFFFFFFFFFFFFFFFFFFFFFFF AND PUSH20 0xFFFFFFFFFFFFFFFFFFFFFFFFFFFFFFFFFFFFFFFF AND CALLER PUSH20 0xFFFFFFFFFFFFFFFFFFFFFFFFFFFFFFFFFFFFFFFF AND EQ PUSH2 0x80A JUMPI PUSH1 0x40 MLOAD PUSH32 0x8C379A000000000000000000000000000000000000000000000000000000000 DUP2 MSTORE PUSH1 0x4 ADD PUSH2 0x801 SWAP1 PUSH2 0xBEA JUMP JUMPDEST PUSH1 0x40 MLOAD DUP1 SWAP2 SUB SWAP1 REVERT JUMPDEST PUSH1 0x0 PUSH1 0x14 SWAP1 SLOAD SWAP1 PUSH2 0x100 EXP SWAP1 DIV PUSH1 0xFF AND ISZERO PUSH2 0x824 JUMPI PUSH1 0x0 DUP1 REVERT JUMPDEST PUSH8 0xDE0B6B3A7640000 DUP2 PUSH2 0x838 SWAP2 SWAP1 PUSH2 0xE31 JUMP JUMPDEST PUSH1 0x2 DUP2 SWAP1 SSTORE POP POP JUMP JUMPDEST PUSH1 0x0 DUP1 PUSH1 0x0 SWAP1 SLOAD SWAP1 PUSH2 0x100 EXP SWAP1 DIV PUSH20 0xFFFFFFFFFFFFFFFFFFFFFFFFFFFFFFFFFFFFFFFF AND SWAP1 POP SWAP1 JUMP JUMPDEST PUSH1 0x4 SLOAD DUP2 JUMP JUMPDEST PUSH1 0x2 SLOAD DUP2 JUMP JUMPDEST PUSH1 0x0 DUP1 SLOAD SWAP1 PUSH2 0x100 EXP SWAP1 DIV PUSH20 0xFFFFFFFFFFFFFFFFFFFFFFFFFFFFFFFFFFFFFFFF AND PUSH20 0xFFFFFFFFFFFFFFFFFFFFFFFFFFFFFFFFFFFFFFFF AND CALLER PUSH20 0xFFFFFFFFFFFFFFFFFFFFFFFFFFFFFFFFFFFFFFFF AND EQ PUSH2 0x8CE JUMPI PUSH1 0x0 DUP1 REVERT JUMPDEST DUP1 PUSH1 0x0 DUP1 PUSH2 0x100 EXP DUP2 SLOAD DUP2 PUSH20 0xFFFFFFFFFFFFFFFFFFFFFFFFFFFFFFFFFFFFFFFF MUL NOT AND SWAP1 DUP4 PUSH20 0xFFFFFFFFFFFFFFFFFFFFFFFFFFFFFFFFFFFFFFFF AND MUL OR SWAP1 SSTORE POP POP JUMP JUMPDEST PUSH1 0x0 DUP1 SLOAD SWAP1 PUSH2 0x100 EXP SWAP1 DIV PUSH20 0xFFFFFFFFFFFFFFFFFFFFFFFFFFFFFFFFFFFFFFFF AND PUSH20 0xFFFFFFFFFFFFFFFFFFFFFFFFFFFFFFFFFFFFFFFF AND CALLER PUSH20 0xFFFFFFFFFFFFFFFFFFFFFFFFFFFFFFFFFFFFFFFF AND EQ PUSH2 0x99F JUMPI PUSH1 0x40 MLOAD PUSH32 0x8C379A000000000000000000000000000000000000000000000000000000000 DUP2 MSTORE PUSH1 0x4 ADD PUSH2 0x996 SWAP1 PUSH2 0xBEA JUMP JUMPDEST PUSH1 0x40 MLOAD DUP1 SWAP2 SUB SWAP1 REVERT JUMPDEST PUSH1 0x0 PUSH1 0x14 SWAP1 SLOAD SWAP1 PUSH2 0x100 EXP SWAP1 DIV PUSH1 0xFF AND ISZERO PUSH2 0x9B9 JUMPI PUSH1 0x0 DUP1 REVERT JUMPDEST PUSH1 0x0 DUP2 GT PUSH2 0x9FC JUMPI PUSH1 0x40 MLOAD PUSH32 0x8C379A000000000000000000000000000000000000000000000000000000000 DUP2 MSTORE PUSH1 0x4 ADD PUSH2 0x9F3 SWAP1 PUSH2 0xF27 JUMP JUMPDEST PUSH1 0x40 MLOAD DUP1 SWAP2 SUB SWAP1 REVERT JUMPDEST POP JUMP JUMPDEST PUSH1 0x0 DUP1 PUSH1 0x2 TIMESTAMP DIFFICULTY PUSH1 0x40 MLOAD PUSH1 0x20 ADD PUSH2 0xA17 SWAP3 SWAP2 SWAP1 PUSH2 0xF68 JUMP JUMPDEST PUSH1 0x40 MLOAD PUSH1 0x20 DUP2 DUP4 SUB SUB DUP2 MSTORE SWAP1 PUSH1 0x40 MSTORE DUP1 MLOAD SWAP1 PUSH1 0x20 ADD KECCAK256 PUSH1 0x0 SHR PUSH2 0xA3A SWAP2 SWAP1 PUSH2 0xFC3 JUMP JUMPDEST SWAP1 POP PUSH1 0x1 DUP2 EQ SWAP2 POP POP SWAP1 JUMP JUMPDEST PUSH1 0x0 DUP2 SWAP1 POP SWAP2 SWAP1 POP JUMP JUMPDEST PUSH2 0xA59 DUP2 PUSH2 0xA46 JUMP JUMPDEST DUP3 MSTORE POP POP JUMP JUMPDEST PUSH1 0x0 PUSH1 0x20 DUP3 ADD SWAP1 POP PUSH2 0xA74 PUSH1 0x0 DUP4 ADD DUP5 PUSH2 0xA50 JUMP JUMPDEST SWAP3 SWAP2 POP POP JUMP JUMPDEST PUSH1 0x0 DUP1 REVERT JUMPDEST PUSH2 0xA88 DUP2 PUSH2 0xA46 JUMP JUMPDEST DUP2 EQ PUSH2 0xA93 JUMPI PUSH1 0x0 DUP1 REVERT JUMPDEST POP JUMP JUMPDEST PUSH1 0x0 DUP2 CALLDATALOAD SWAP1 POP PUSH2 0xAA5 DUP2 PUSH2 0xA7F JUMP JUMPDEST SWAP3 SWAP2 POP POP JUMP JUMPDEST PUSH1 0x0 PUSH1 0x20 DUP3 DUP5 SUB SLT ISZERO PUSH2 0xAC1 JUMPI PUSH2 0xAC0 PUSH2 0xA7A JUMP JUMPDEST JUMPDEST PUSH1 0x0 PUSH2 0xACF DUP5 DUP3 DUP6 ADD PUSH2 0xA96 JUMP JUMPDEST SWAP2 POP POP SWAP3 SWAP2 POP POP JUMP JUMPDEST PUSH1 0x0 PUSH20 0xFFFFFFFFFFFFFFFFFFFFFFFFFFFFFFFFFFFFFFFF DUP3 AND SWAP1 POP SWAP2 SWAP1 POP JUMP JUMPDEST PUSH1 0x0 PUSH2 0xB03 DUP3 PUSH2 0xAD8 JUMP JUMPDEST SWAP1 POP SWAP2 SWAP1 POP JUMP JUMPDEST PUSH2 0xB13 DUP2 PUSH2 0xAF8 JUMP JUMPDEST DUP3 MSTORE POP POP JUMP JUMPDEST PUSH1 0x0 PUSH1 0x20 DUP3 ADD SWAP1 POP PUSH2 0xB2E PUSH1 0x0 DUP4 ADD DUP5 PUSH2 0xB0A JUMP JUMPDEST SWAP3 SWAP2 POP POP JUMP JUMPDEST PUSH2 0xB3D DUP2 PUSH2 0xAF8 JUMP JUMPDEST DUP2 EQ PUSH2 0xB48 JUMPI PUSH1 0x0 DUP1 REVERT JUMPDEST POP JUMP JUMPDEST PUSH1 0x0 DUP2 CALLDATALOAD SWAP1 POP PUSH2 0xB5A DUP2 PUSH2 0xB34 JUMP JUMPDEST SWAP3 SWAP2 POP POP JUMP JUMPDEST PUSH1 0x0 PUSH1 0x20 DUP3 DUP5 SUB SLT ISZERO PUSH2 0xB76 JUMPI PUSH2 0xB75 PUSH2 0xA7A JUMP JUMPDEST JUMPDEST PUSH1 0x0 PUSH2 0xB84 DUP5 DUP3 DUP6 ADD PUSH2 0xB4B JUMP JUMPDEST SWAP2 POP POP SWAP3 SWAP2 POP POP JUMP JUMPDEST PUSH1 0x0 DUP3 DUP3 MSTORE PUSH1 0x20 DUP3 ADD SWAP1 POP SWAP3 SWAP2 POP POP JUMP JUMPDEST PUSH32 0x55736572206973206E6F742074686520636F6E7472616374206F776E65722E00 PUSH1 0x0 DUP3 ADD MSTORE POP JUMP JUMPDEST PUSH1 0x0 PUSH2 0xBD4 PUSH1 0x1F DUP4 PUSH2 0xB8D JUMP JUMPDEST SWAP2 POP PUSH2 0xBDF DUP3 PUSH2 0xB9E JUMP JUMPDEST PUSH1 0x20 DUP3 ADD SWAP1 POP SWAP2 SWAP1 POP JUMP JUMPDEST PUSH1 0x0 PUSH1 0x20 DUP3 ADD SWAP1 POP DUP2 DUP2 SUB PUSH1 0x0 DUP4 ADD MSTORE PUSH2 0xC03 DUP2 PUSH2 0xBC7 JUMP JUMPDEST SWAP1 POP SWAP2 SWAP1 POP JUMP JUMPDEST PUSH32 0x4F6E6C792074686520636F6E7472616374206F776E65722063616E2077697468 PUSH1 0x0 DUP3 ADD MSTORE PUSH32 0x647261772066756E647300000000000000000000000000000000000000000000 PUSH1 0x20 DUP3 ADD MSTORE POP JUMP JUMPDEST PUSH1 0x0 PUSH2 0xC66 PUSH1 0x2A DUP4 PUSH2 0xB8D JUMP JUMPDEST SWAP2 POP PUSH2 0xC71 DUP3 PUSH2 0xC0A JUMP JUMPDEST PUSH1 0x40 DUP3 ADD SWAP1 POP SWAP2 SWAP1 POP JUMP JUMPDEST PUSH1 0x0 PUSH1 0x20 DUP3 ADD SWAP1 POP DUP2 DUP2 SUB PUSH1 0x0 DUP4 ADD MSTORE PUSH2 0xC95 DUP2 PUSH2 0xC59 JUMP JUMPDEST SWAP1 POP SWAP2 SWAP1 POP JUMP JUMPDEST PUSH1 0x0 DUP2 MLOAD SWAP1 POP PUSH2 0xCAB DUP2 PUSH2 0xA7F JUMP JUMPDEST SWAP3 SWAP2 POP POP JUMP JUMPDEST PUSH1 0x0 PUSH1 0x20 DUP3 DUP5 SUB SLT ISZERO PUSH2 0xCC7 JUMPI PUSH2 0xCC6 PUSH2 0xA7A JUMP JUMPDEST JUMPDEST PUSH1 0x0 PUSH2 0xCD5 DUP5 DUP3 DUP6 ADD PUSH2 0xC9C JUMP JUMPDEST SWAP2 POP POP SWAP3 SWAP2 POP POP JUMP JUMPDEST PUSH32 0x42657420616D6F756E74206973206E6F742077697468696E2074686520616C6C PUSH1 0x0 DUP3 ADD MSTORE PUSH32 0x6F7765642072616E676500000000000000000000000000000000000000000000 PUSH1 0x20 DUP3 ADD MSTORE POP JUMP JUMPDEST PUSH1 0x0 PUSH2 0xD3A PUSH1 0x2A DUP4 PUSH2 0xB8D JUMP JUMPDEST SWAP2 POP PUSH2 0xD45 DUP3 PUSH2 0xCDE JUMP JUMPDEST PUSH1 0x40 DUP3 ADD SWAP1 POP SWAP2 SWAP1 POP JUMP JUMPDEST PUSH1 0x0 PUSH1 0x20 DUP3 ADD SWAP1 POP DUP2 DUP2 SUB PUSH1 0x0 DUP4 ADD MSTORE PUSH2 0xD69 DUP2 PUSH2 0xD2D JUMP JUMPDEST SWAP1 POP SWAP2 SWAP1 POP JUMP JUMPDEST PUSH32 0x4E6F7420656E6F7567682062616C616E636520696E2074686520636F6E747261 PUSH1 0x0 DUP3 ADD MSTORE PUSH32 0x6374000000000000000000000000000000000000000000000000000000000000 PUSH1 0x20 DUP3 ADD MSTORE POP JUMP JUMPDEST PUSH1 0x0 PUSH2 0xDCC PUSH1 0x22 DUP4 PUSH2 0xB8D JUMP JUMPDEST SWAP2 POP PUSH2 0xDD7 DUP3 PUSH2 0xD70 JUMP JUMPDEST PUSH1 0x40 DUP3 ADD SWAP1 POP SWAP2 SWAP1 POP JUMP JUMPDEST PUSH1 0x0 PUSH1 0x20 DUP3 ADD SWAP1 POP DUP2 DUP2 SUB PUSH1 0x0 DUP4 ADD MSTORE PUSH2 0xDFB DUP2 PUSH2 0xDBF JUMP JUMPDEST SWAP1 POP SWAP2 SWAP1 POP JUMP JUMPDEST PUSH32 0x4E487B7100000000000000000000000000000000000000000000000000000000 PUSH1 0x0 MSTORE PUSH1 0x11 PUSH1 0x4 MSTORE PUSH1 0x24 PUSH1 0x0 REVERT JUMPDEST PUSH1 0x0 PUSH2 0xE3C DUP3 PUSH2 0xA46 JUMP JUMPDEST SWAP2 POP PUSH2 0xE47 DUP4 PUSH2 0xA46 JUMP JUMPDEST SWAP3 POP DUP3 DUP3 MUL PUSH2 0xE55 DUP2 PUSH2 0xA46 JUMP JUMPDEST SWAP2 POP DUP3 DUP3 DIV DUP5 EQ DUP4 ISZERO OR PUSH2 0xE6C JUMPI PUSH2 0xE6B PUSH2 0xE02 JUMP JUMPDEST JUMPDEST POP SWAP3 SWAP2 POP POP JUMP JUMPDEST PUSH1 0x0 PUSH2 0xE7E DUP3 PUSH2 0xA46 JUMP JUMPDEST SWAP2 POP PUSH2 0xE89 DUP4 PUSH2 0xA46 JUMP JUMPDEST SWAP3 POP DUP3 DUP3 SUB SWAP1 POP DUP2 DUP2 GT ISZERO PUSH2 0xEA1 JUMPI PUSH2 0xEA0 PUSH2 0xE02 JUMP JUMPDEST JUMPDEST SWAP3 SWAP2 POP POP JUMP JUMPDEST PUSH1 0x0 PUSH2 0xEB2 DUP3 PUSH2 0xA46 JUMP JUMPDEST SWAP2 POP PUSH2 0xEBD DUP4 PUSH2 0xA46 JUMP JUMPDEST SWAP3 POP DUP3 DUP3 ADD SWAP1 POP DUP1 DUP3 GT ISZERO PUSH2 0xED5 JUMPI PUSH2 0xED4 PUSH2 0xE02 JUMP JUMPDEST JUMPDEST SWAP3 SWAP2 POP POP JUMP JUMPDEST PUSH32 0x4465706F736974206D7573742062652067726561746572207468616E20302E00 PUSH1 0x0 DUP3 ADD MSTORE POP JUMP JUMPDEST PUSH1 0x0 PUSH2 0xF11 PUSH1 0x1F DUP4 PUSH2 0xB8D JUMP JUMPDEST SWAP2 POP PUSH2 0xF1C DUP3 PUSH2 0xEDB JUMP JUMPDEST PUSH1 0x20 DUP3 ADD SWAP1 POP SWAP2 SWAP1 POP JUMP JUMPDEST PUSH1 0x0 PUSH1 0x20 DUP3 ADD SWAP1 POP DUP2 DUP2 SUB PUSH1 0x0 DUP4 ADD MSTORE PUSH2 0xF40 DUP2 PUSH2 0xF04 JUMP JUMPDEST SWAP1 POP SWAP2 SWAP1 POP JUMP JUMPDEST PUSH1 0x0 DUP2 SWAP1 POP SWAP2 SWAP1 POP JUMP JUMPDEST PUSH2 0xF62 PUSH2 0xF5D DUP3 PUSH2 0xA46 JUMP JUMPDEST PUSH2 0xF47 JUMP JUMPDEST DUP3 MSTORE POP POP JUMP JUMPDEST PUSH1 0x0 PUSH2 0xF74 DUP3 DUP6 PUSH2 0xF51 JUMP JUMPDEST PUSH1 0x20 DUP3 ADD SWAP2 POP PUSH2 0xF84 DUP3 DUP5 PUSH2 0xF51 JUMP JUMPDEST PUSH1 0x20 DUP3 ADD SWAP2 POP DUP2 SWAP1 POP SWAP4 SWAP3 POP POP POP JUMP JUMPDEST PUSH32 0x4E487B7100000000000000000000000000000000000000000000000000000000 PUSH1 0x0 MSTORE PUSH1 0x12 PUSH1 0x4 MSTORE PUSH1 0x24 PUSH1 0x0 REVERT JUMPDEST PUSH1 0x0 PUSH2 0xFCE DUP3 PUSH2 0xA46 JUMP JUMPDEST SWAP2 POP PUSH2 0xFD9 DUP4 PUSH2 0xA46 JUMP JUMPDEST SWAP3 POP DUP3 PUSH2 0xFE9 JUMPI PUSH2 0xFE8 PUSH2 0xF94 JUMP JUMPDEST JUMPDEST DUP3 DUP3 MOD SWAP1 POP SWAP3 SWAP2 POP POP JUMP INVALID LOG2 PUSH5 0x6970667358 0x22 SLT KECCAK256 EQ 0xD1 AND SWAP8 0xB4 PUSH7 0xB1CC868C607DE7 0xA8 SWAP7 MOD LOG0 RETURNDATASIZE SWAP12 SMOD SLT XOR INVALID 0x25 SWAP13 EQ DUP8 0x21 0xB6 EXTCODEHASH NOT SAR PUSH5 0x736F6C6343 STOP ADDMOD GT STOP CALLER "
				},
				"gasEstimates": {
					"creation": {
						"codeDepositCost": "827600",
						"executionCost": "120754",
						"totalCost": "948354"
					},
					"external": {
						"changeOwner(address)": "26955",
						"contractBalance()": "2451",
						"deposit(uint256)": "5153",
						"flipCoin()": "infinite",
						"getBalance()": "363",
						"getMaxBet()": "2504",
						"getMinBet()": "2460",
						"getOwner()": "2589",
						"maxBetETH()": "2474",
						"minBetETH()": "2473",
						"setMaxBet(uint256)": "infinite",
						"setMinBet(uint256)": "infinite",
						"toggleContractActive()": "28863",
						"withdrawFunds()": "infinite"
					},
					"internal": {
						"getRandomResult()": "infinite"
					}
				},
				"methodIdentifiers": {
					"changeOwner(address)": "a6f9dae1",
					"contractBalance()": "8b7afe2e",
					"deposit(uint256)": "b6b55f25",
					"flipCoin()": "799ae223",
					"getBalance()": "12065fe0",
					"getMaxBet()": "646668b6",
					"getMinBet()": "24c37507",
					"getOwner()": "893d20e8",
					"maxBetETH()": "3919b197",
					"minBetETH()": "951a1a62",
					"setMaxBet(uint256)": "881eff1e",
					"setMinBet(uint256)": "88ea41b9",
					"toggleContractActive()": "1385d24c",
					"withdrawFunds()": "24600fc3"
				}
			},
			"storageLayout": {
				"storage": [
					{
						"astId": 293,
						"contract": "CoinFlip/contracts/CoinFlip.sol:CoinFlip",
						"label": "owner",
						"offset": 0,
						"slot": "0",
						"type": "t_address"
					},
					{
						"astId": 143,
						"contract": "CoinFlip/contracts/CoinFlip.sol:CoinFlip",
						"label": "stopped",
						"offset": 20,
						"slot": "0",
						"type": "t_bool"
					},
					{
						"astId": 146,
						"contract": "CoinFlip/contracts/CoinFlip.sol:CoinFlip",
						"label": "maxBetETH",
						"offset": 0,
						"slot": "1",
						"type": "t_uint256"
					},
					{
						"astId": 149,
						"contract": "CoinFlip/contracts/CoinFlip.sol:CoinFlip",
						"label": "minBetETH",
						"offset": 0,
						"slot": "2",
						"type": "t_uint256"
					},
					{
						"astId": 152,
						"contract": "CoinFlip/contracts/CoinFlip.sol:CoinFlip",
						"label": "randomNonce",
						"offset": 0,
						"slot": "3",
						"type": "t_uint256"
					},
					{
						"astId": 10,
						"contract": "CoinFlip/contracts/CoinFlip.sol:CoinFlip",
						"label": "contractBalance",
						"offset": 0,
						"slot": "4",
						"type": "t_uint256"
					}
				],
				"types": {
					"t_address": {
						"encoding": "inplace",
						"label": "address",
						"numberOfBytes": "20"
					},
					"t_bool": {
						"encoding": "inplace",
						"label": "bool",
						"numberOfBytes": "1"
					},
					"t_uint256": {
						"encoding": "inplace",
						"label": "uint256",
						"numberOfBytes": "32"
					}
				}
			},
			"userdoc": {
				"kind": "user",
				"methods": {},
				"version": 1
			}
		}
	}
}